{
  "contractName": "MockTermsContract",
  "abi": [
    {
      "constant": false,
      "inputs": [
        {
          "name": "success",
          "type": "bool"
        }
      ],
      "name": "mockRegisterRepaymentReturnValue",
      "outputs": [],
      "payable": false,
      "stateMutability": "nonpayable",
      "type": "function"
    },
    {
      "constant": true,
      "inputs": [
        {
          "name": "functionName",
          "type": "string"
        },
        {
          "name": "argsSignature",
          "type": "bytes32"
        }
      ],
      "name": "getMockReturnValue",
      "outputs": [
        {
          "name": "_mockReturnValue",
          "type": "bytes32"
        }
      ],
      "payable": false,
      "stateMutability": "view",
      "type": "function"
    },
    {
      "constant": false,
      "inputs": [
        {
          "name": "agreementId",
          "type": "bytes32"
        },
        {
          "name": "payer",
          "type": "address"
        },
        {
          "name": "beneficiary",
          "type": "address"
        },
        {
          "name": "tokenId",
          "type": "uint256"
        },
        {
          "name": "tokenAddress",
          "type": "address"
        }
      ],
      "name": "registerNFTRepayment",
      "outputs": [
        {
          "name": "_success",
          "type": "bool"
        }
      ],
      "payable": false,
      "stateMutability": "nonpayable",
      "type": "function"
    },
    {
      "constant": false,
      "inputs": [
        {
          "name": "agreementId",
          "type": "bytes32"
        },
        {
          "name": "payer",
          "type": "address"
        },
        {
          "name": "beneficiary",
          "type": "address"
        },
        {
          "name": "unitsOfRepayment",
          "type": "uint256"
        },
        {
          "name": "tokenAddress",
          "type": "address"
        }
      ],
      "name": "registerRepayment",
      "outputs": [
        {
          "name": "_success",
          "type": "bool"
        }
      ],
      "payable": false,
      "stateMutability": "nonpayable",
      "type": "function"
    },
    {
      "constant": true,
      "inputs": [
        {
          "name": "agreementId",
          "type": "bytes32"
        },
        {
          "name": "payer",
          "type": "address"
        },
        {
          "name": "beneficiary",
          "type": "address"
        },
        {
          "name": "unitsOfRepayment",
          "type": "uint256"
        },
        {
          "name": "tokenAddress",
          "type": "address"
        }
      ],
      "name": "wasRegisterRepaymentCalledWith",
      "outputs": [
        {
          "name": "wasCalled",
          "type": "bool"
        }
      ],
      "payable": false,
      "stateMutability": "view",
      "type": "function"
    },
    {
      "constant": false,
      "inputs": [
        {
          "name": "functionName",
          "type": "string"
        },
        {
          "name": "argsSignature",
          "type": "bytes32"
        },
        {
          "name": "returnValue",
          "type": "bytes32"
        }
      ],
      "name": "mockReturnValue",
      "outputs": [],
      "payable": false,
      "stateMutability": "nonpayable",
      "type": "function"
    },
    {
      "constant": false,
      "inputs": [],
      "name": "reset",
      "outputs": [],
      "payable": false,
      "stateMutability": "nonpayable",
      "type": "function"
    },
    {
      "constant": false,
      "inputs": [
        {
          "name": "success",
          "type": "bool"
        }
      ],
      "name": "mockRegisterNFTRepaymentReturnValue",
      "outputs": [],
      "payable": false,
      "stateMutability": "nonpayable",
      "type": "function"
    },
    {
      "constant": true,
      "inputs": [
        {
          "name": "agreementId",
          "type": "bytes32"
        },
        {
          "name": "payer",
          "type": "address"
        },
        {
          "name": "beneficiary",
          "type": "address"
        },
        {
          "name": "tokenId",
          "type": "uint256"
        },
        {
          "name": "tokenAddress",
          "type": "address"
        }
      ],
      "name": "wasRegisterNFTRepaymentCalledWith",
      "outputs": [
        {
          "name": "wasCalled",
          "type": "bool"
        }
      ],
      "payable": false,
      "stateMutability": "view",
      "type": "function"
    }
  ],
  "bytecode": "0x6060604052341561000f57600080fd5b6113828061001e6000396000f300606060405260043610610099576000357c0100000000000000000000000000000000000000000000000000000000900463ffffffff16806304aa85fa1461009e57806313101858146100c357806323d567e7146101495780635f0280ba146101ee5780637f8601a11461029357806380da20d414610338578063d826f88f146103af578063f67a592e146103c4578063f7b39b38146103e9575b600080fd5b34156100a957600080fd5b6100c16004808035151590602001909190505061048e565b005b34156100ce57600080fd5b61012b600480803590602001908201803590602001908080601f01602080910402602001604051908101604052809392919081815260200183838082843782019150505050505091908035600019169060200190919050506104e8565b60405180826000191660001916815260200191505060405180910390f35b341561015457600080fd5b6101d460048080356000191690602001909190803573ffffffffffffffffffffffffffffffffffffffff1690602001909190803573ffffffffffffffffffffffffffffffffffffffff1690602001909190803590602001909190803573ffffffffffffffffffffffffffffffffffffffff16906020019091905050610577565b604051808215151515815260200191505060405180910390f35b34156101f957600080fd5b61027960048080356000191690602001909190803573ffffffffffffffffffffffffffffffffffffffff1690602001909190803573ffffffffffffffffffffffffffffffffffffffff1690602001909190803590602001909190803573ffffffffffffffffffffffffffffffffffffffff16906020019091905050610701565b604051808215151515815260200191505060405180910390f35b341561029e57600080fd5b61031e60048080356000191690602001909190803573ffffffffffffffffffffffffffffffffffffffff1690602001909190803573ffffffffffffffffffffffffffffffffffffffff1690602001909190803590602001909190803573ffffffffffffffffffffffffffffffffffffffff1690602001909190505061088b565b604051808215151515815260200191505060405180910390f35b341561034357600080fd5b6103ad600480803590602001908201803590602001908080601f0160208091040260200160405190810160405280939291908181526020018383808284378201915050505050509190803560001916906020019091908035600019169060200190919050506109c5565b005b34156103ba57600080fd5b6103c2610aef565b005b34156103cf57600080fd5b6103e760048080351515906020019091905050610de6565b005b34156103f457600080fd5b61047460048080356000191690602001909190803573ffffffffffffffffffffffffffffffffffffffff1690602001909190803573ffffffffffffffffffffffffffffffffffffffff1690602001909190803590602001909190803573ffffffffffffffffffffffffffffffffffffffff16906020019091905050610e40565b604051808215151515815260200191505060405180910390f35b6104e56040805190810160405280601181526020017f726567697374657252657061796d656e740000000000000000000000000000008152506000600102836104db5760006001026104e0565b600180025b6109c5565b50565b60006001836040518082805190602001908083835b60208310151561052257805182526020820191506020810190506020830392506104fd565b6001836020036101000a03801982511681845116808217855250505050505090500191505090815260200160405180910390206000836000191660001916815260200190815260200160002054905092915050565b60006106a66040805190810160405280601481526020017f72656769737465724e465452657061796d656e7400000000000000000000000081525087878787876040518086600019166000191681526020018573ffffffffffffffffffffffffffffffffffffffff1673ffffffffffffffffffffffffffffffffffffffff166c010000000000000000000000000281526014018473ffffffffffffffffffffffffffffffffffffffff1673ffffffffffffffffffffffffffffffffffffffff166c010000000000000000000000000281526014018381526020018273ffffffffffffffffffffffffffffffffffffffff1673ffffffffffffffffffffffffffffffffffffffff166c01000000000000000000000000028152601401955050505050506040518091039020610f7a565b60018002600019166106f16040805190810160405280601481526020017f72656769737465724e465452657061796d656e7400000000000000000000000081525060006001026104e8565b6000191614905095945050505050565b60006108306040805190810160405280601181526020017f726567697374657252657061796d656e7400000000000000000000000000000081525087878787876040518086600019166000191681526020018573ffffffffffffffffffffffffffffffffffffffff1673ffffffffffffffffffffffffffffffffffffffff166c010000000000000000000000000281526014018473ffffffffffffffffffffffffffffffffffffffff1673ffffffffffffffffffffffffffffffffffffffff166c010000000000000000000000000281526014018381526020018273ffffffffffffffffffffffffffffffffffffffff1673ffffffffffffffffffffffffffffffffffffffff166c01000000000000000000000000028152601401955050505050506040518091039020610f7a565b600180026000191661087b6040805190810160405280601181526020017f726567697374657252657061796d656e7400000000000000000000000000000081525060006001026104e8565b6000191614905095945050505050565b60006109ba6040805190810160405280601181526020017f726567697374657252657061796d656e7400000000000000000000000000000081525087878787876040518086600019166000191681526020018573ffffffffffffffffffffffffffffffffffffffff1673ffffffffffffffffffffffffffffffffffffffff166c010000000000000000000000000281526014018473ffffffffffffffffffffffffffffffffffffffff1673ffffffffffffffffffffffffffffffffffffffff166c010000000000000000000000000281526014018381526020018273ffffffffffffffffffffffffffffffffffffffff1673ffffffffffffffffffffffffffffffffffffffff166c010000000000000000000000000281526014019550505050505060405180910390206110b3565b905095945050505050565b6000836040518082805190602001908083835b6020831015156109fd57805182526020820191506020810190506020830392506109d8565b6001836020036101000a03801982511681845116808217855250505050505090500191505090815260200160405180910390208054806001018281610a42919061128d565b916000526020600020900160008490919091509060001916905550806001846040518082805190602001908083835b602083101515610a965780518252602082019150602081019050602083039250610a71565b6001836020036101000a0380198251168184511680821785525050505050509050019150509081526020016040518091039020600084600019166000191681526020019081526020016000208160001916905550505050565b6000610af96112b9565b600080600093505b600a841015610de057610b1261114f565b84600a81101515610b1f57fe5b6020020151925060008351141515610dd357600091505b6000836040518082805190602001908083835b602083101515610b6e5780518252602082019150602081019050602083039250610b49565b6001836020036101000a038019825116818451168082178552505050505050905001915050908152602001604051809103902080549050821015610d5b576000836040518082805190602001908083835b602083101515610be45780518252602082019150602081019050602083039250610bbf565b6001836020036101000a038019825116818451168082178552505050505050905001915050908152602001604051809103902082815481101515610c2457fe5b90600052602060002090015490506002836040518082805190602001908083835b602083101515610c6a5780518252602082019150602081019050602083039250610c45565b6001836020036101000a03801982511681845116808217855250505050505090500191505090815260200160405180910390206000826000191660001916815260200190815260200160002060006101000a81549060ff02191690556001836040518082805190602001908083835b602083101515610cfe5780518252602082019150602081019050602083039250610cd9565b6001836020036101000a038019825116818451168082178552505050505050905001915050908152602001604051809103902060008260001916600019168152602001908152602001600020600090558180600101925050610b36565b6000836040518082805190602001908083835b602083101515610d935780518252602082019150602081019050602083039250610d6e565b6001836020036101000a03801982511681845116808217855250505050505090500191505090815260200160405180910390206000610dd291906112cd565b5b8380600101945050610b01565b50505050565b610e3d6040805190810160405280601481526020017f72656769737465724e465452657061796d656e74000000000000000000000000815250600060010283610e33576000600102610e38565b600180025b6109c5565b50565b6000610f6f6040805190810160405280601481526020017f72656769737465724e465452657061796d656e7400000000000000000000000081525087878787876040518086600019166000191681526020018573ffffffffffffffffffffffffffffffffffffffff1673ffffffffffffffffffffffffffffffffffffffff166c010000000000000000000000000281526014018473ffffffffffffffffffffffffffffffffffffffff1673ffffffffffffffffffffffffffffffffffffffff166c010000000000000000000000000281526014018381526020018273ffffffffffffffffffffffffffffffffffffffff1673ffffffffffffffffffffffffffffffffffffffff166c010000000000000000000000000281526014019550505050505060405180910390206110b3565b905095945050505050565b60016002836040518082805190602001908083835b602083101515610fb45780518252602082019150602081019050602083039250610f8f565b6001836020036101000a03801982511681845116808217855250505050505090500191505090815260200160405180910390206000836000191660001916815260200190815260200160002060006101000a81548160ff0219169083151502179055506000826040518082805190602001908083835b60208310151561104f578051825260208201915060208101905060208303925061102a565b6001836020036101000a03801982511681845116808217855250505050505090500191505090815260200160405180910390208054806001018281611094919061128d565b9160005260206000209001600083909190915090600019169055505050565b60006002836040518082805190602001908083835b6020831015156110ed57805182526020820191506020810190506020830392506110c8565b6001836020036101000a03801982511681845116808217855250505050505090500191505090815260200160405180910390206000836000191660001916815260200190815260200160002060009054906101000a900460ff16905092915050565b6111576112ee565b610140604051908101604052806040805190810160405280601181526020017f726567697374657252657061796d656e7400000000000000000000000000000081525081526020016040805190810160405280601481526020017f72656769737465724e465452657061796d656e740000000000000000000000008152508152602001602060405190810160405280600081525081526020016020604051908101604052806000815250815260200160206040519081016040528060008152508152602001602060405190810160405280600081525081526020016020604051908101604052806000815250815260200160206040519081016040528060008152508152602001602060405190810160405280600081525081526020016020604051908101604052806000815250815250905090565b8154818355818115116112b4578183600052602060002091820191016112b3919061131d565b5b505050565b602060405190810160405280600081525090565b50805460008255906000526020600020908101906112eb919061131d565b50565b61014060405190810160405280600a905b611307611342565b8152602001906001900390816112ff5790505090565b61133f91905b8082111561133b576000816000905550600101611323565b5090565b90565b6020604051908101604052806000815250905600a165627a7a7230582073ea86dc6f7e5d2adb8c28afdce3654475d5c48adc415763eaa5bfdb107a34e50029",
  "source": "/*\n\n  Copyright 2017 Dharma Labs Inc.\n\n  Licensed under the Apache License, Version 2.0 (the \"License\");\n  you may not use this file except in compliance with the License.\n  You may obtain a copy of the License at\n\n    http://www.apache.org/licenses/LICENSE-2.0\n\n  Unless required by applicable law or agreed to in writing, software\n  distributed under the License is distributed on an \"AS IS\" BASIS,\n  WITHOUT WARRANTIES OR CONDITIONS OF ANY KIND, either express or implied.\n  See the License for the specific language governing permissions and\n  limitations under the License.\n\n*/\n\npragma solidity 0.4.18;\n\nimport \"./MockContract.sol\";\n\n\ncontract MockTermsContract is MockContract {\n    function registerRepayment(\n        bytes32 agreementId,\n        address payer,\n        address beneficiary,\n        uint unitsOfRepayment,\n        address tokenAddress\n    )\n        public\n        returns (bool _success)\n    {\n        functionCalledWithArgs(\"registerRepayment\", keccak256(\n            agreementId,\n            payer,\n            beneficiary,\n            unitsOfRepayment,\n            tokenAddress\n        ));\n\n        return getMockReturnValue(\"registerRepayment\", DEFAULT_SIGNATURE_ARGS) == bytes32(1);\n    }\n\n    function mockRegisterRepaymentReturnValue(bool success)\n        public\n    {\n        mockReturnValue(\"registerRepayment\", DEFAULT_SIGNATURE_ARGS, success ? bytes32(1) : bytes32(0));\n    }\n\n    function wasRegisterRepaymentCalledWith(\n        bytes32 agreementId,\n        address payer,\n        address beneficiary,\n        uint unitsOfRepayment,\n        address tokenAddress\n    )\n        public\n        view\n        returns (bool wasCalled)\n    {\n        return wasFunctionCalledWithArgs(\"registerRepayment\", keccak256(\n            agreementId,\n            payer,\n            beneficiary,\n            unitsOfRepayment,\n            tokenAddress\n        ));\n    }\n\n    function registerNFTRepayment(\n        bytes32 agreementId,\n        address payer,\n        address beneficiary,\n        uint tokenId,\n        address tokenAddress\n    )\n        public\n        returns (bool _success)\n    {\n        functionCalledWithArgs(\"registerNFTRepayment\", keccak256(\n            agreementId,\n            payer,\n            beneficiary,\n            tokenId,\n            tokenAddress\n        ));\n\n        return getMockReturnValue(\"registerNFTRepayment\", DEFAULT_SIGNATURE_ARGS) == bytes32(1);\n    }\n\n    function mockRegisterNFTRepaymentReturnValue(bool success)\n        public\n    {\n        mockReturnValue(\"registerNFTRepayment\", DEFAULT_SIGNATURE_ARGS, success ? bytes32(1) : bytes32(0));\n    }\n\n    function wasRegisterNFTRepaymentCalledWith(\n        bytes32 agreementId,\n        address payer,\n        address beneficiary,\n        uint tokenId,\n        address tokenAddress\n    )\n        public\n        view\n        returns (bool wasCalled)\n    {\n        return wasFunctionCalledWithArgs(\"registerNFTRepayment\", keccak256(\n            agreementId,\n            payer,\n            beneficiary,\n            tokenId,\n            tokenAddress\n        ));\n    }\n\n    function getFunctionList()\n        internal\n        returns (string[10] functionNames)\n    {\n        return [\"registerRepayment\", \"registerNFTRepayment\", \"\", \"\", \"\", \"\", \"\", \"\", \"\", \"\"];\n    }\n}\n",
  "sourcePath": "/Users/nadavhollander/Documents/Dharma/Development/charta/contracts/test/mocks/MockTermsContract.sol",
  "compiler": {
    "name": "solc",
    "version": "0.4.18+commit.9cf6e910.Emscripten.clang"
  },
  "schemaVersion": "1.0.1",
  "updatedAt": "2018-02-09T23:06:51.498Z"
}