{
  "contractName": "SimpleInterestTermsContract",
  "abi": [
    {
      "constant": true,
      "inputs": [],
      "name": "DAY_LENGTH_IN_SECONDS",
      "outputs": [
        {
          "name": "",
          "type": "uint256"
        }
      ],
      "payable": false,
      "stateMutability": "view",
      "type": "function"
    },
    {
      "constant": true,
      "inputs": [
        {
          "name": "parameters",
          "type": "bytes32"
        }
      ],
      "name": "unpackParameters",
      "outputs": [
        {
          "name": "_principalPlusInterest",
          "type": "uint128"
        },
        {
          "name": "_amortizationUnitType",
          "type": "uint8"
        },
        {
          "name": "_termLengthInAmortizationUnits",
          "type": "uint120"
        }
      ],
      "payable": false,
      "stateMutability": "pure",
      "type": "function"
    },
    {
      "constant": true,
      "inputs": [],
      "name": "MONTH_LENGTH_IN_SECONDS",
      "outputs": [
        {
          "name": "",
          "type": "uint256"
        }
      ],
      "payable": false,
      "stateMutability": "view",
      "type": "function"
    },
    {
      "constant": true,
      "inputs": [],
      "name": "WEEK_LENGTH_IN_SECONDS",
      "outputs": [
        {
          "name": "",
          "type": "uint256"
        }
      ],
      "payable": false,
      "stateMutability": "view",
      "type": "function"
    },
    {
      "constant": false,
      "inputs": [
        {
          "name": "agreementId",
          "type": "bytes32"
        },
        {
          "name": "payer",
          "type": "address"
        },
        {
          "name": "beneficiary",
          "type": "address"
        },
        {
          "name": "unitsOfRepayment",
          "type": "uint256"
        },
        {
          "name": "tokenAddress",
          "type": "address"
        }
      ],
      "name": "registerRepayment",
      "outputs": [
        {
          "name": "_success",
          "type": "bool"
        }
      ],
      "payable": false,
      "stateMutability": "nonpayable",
      "type": "function"
    },
    {
      "constant": true,
      "inputs": [
        {
          "name": "amortizationUnitType",
          "type": "uint8"
        }
      ],
      "name": "getAmortizationUnitLengthInSeconds",
      "outputs": [
        {
          "name": "_amortizationUnitLengthInBlocks",
          "type": "uint256"
        }
      ],
      "payable": false,
      "stateMutability": "pure",
      "type": "function"
    },
    {
      "constant": true,
      "inputs": [],
      "name": "HOUR_LENGTH_IN_SECONDS",
      "outputs": [
        {
          "name": "",
          "type": "uint256"
        }
      ],
      "payable": false,
      "stateMutability": "view",
      "type": "function"
    },
    {
      "constant": true,
      "inputs": [
        {
          "name": "agreementId",
          "type": "bytes32"
        },
        {
          "name": "timestamp",
          "type": "uint256"
        }
      ],
      "name": "getExpectedRepaymentValue",
      "outputs": [
        {
          "name": "_expectedRepaymentValue",
          "type": "uint256"
        }
      ],
      "payable": false,
      "stateMutability": "view",
      "type": "function"
    },
    {
      "constant": true,
      "inputs": [
        {
          "name": "agreementId",
          "type": "bytes32"
        },
        {
          "name": "blockTimestamp",
          "type": "uint256"
        }
      ],
      "name": "getValueRepaid",
      "outputs": [
        {
          "name": "_valueRepaid",
          "type": "uint256"
        }
      ],
      "payable": false,
      "stateMutability": "view",
      "type": "function"
    },
    {
      "constant": true,
      "inputs": [],
      "name": "YEAR_LENGTH_IN_SECONDS",
      "outputs": [
        {
          "name": "",
          "type": "uint256"
        }
      ],
      "payable": false,
      "stateMutability": "view",
      "type": "function"
    },
    {
      "inputs": [
        {
          "name": "_debtRegistry",
          "type": "address"
        },
        {
          "name": "_repaymentToken",
          "type": "address"
        },
        {
          "name": "_repaymentRouter",
          "type": "address"
        }
      ],
      "payable": false,
      "stateMutability": "nonpayable",
      "type": "constructor"
    }
  ],
  "bytecode": "0x6060604052341561000f57600080fd5b6040516060806109518339810160405280805190602001909190805190602001909190805190602001909190505082600160006101000a81548173ffffffffffffffffffffffffffffffffffffffff021916908373ffffffffffffffffffffffffffffffffffffffff16021790555081600260006101000a81548173ffffffffffffffffffffffffffffffffffffffff021916908373ffffffffffffffffffffffffffffffffffffffff16021790555080600360006101000a81548173ffffffffffffffffffffffffffffffffffffffff021916908373ffffffffffffffffffffffffffffffffffffffff16021790555050505061083f806101126000396000f3006060604052600436106100a4576000357c0100000000000000000000000000000000000000000000000000000000900463ffffffff16806307762982146100a9578063113d81c0146100d2578063208638941461016757806340018a0d146101905780635f0280ba146101b95780636b3a12b71461025e5780636f69c96f1461029857806399114d84146102c1578063f03a423c14610305578063fd127a4114610349575b600080fd5b34156100b457600080fd5b6100bc610372565b6040518082815260200191505060405180910390f35b34156100dd57600080fd5b6100f760048080356000191690602001909190505061037b565b60405180846fffffffffffffffffffffffffffffffff166fffffffffffffffffffffffffffffffff1681526020018360ff1660ff168152602001826effffffffffffffffffffffffffffff166effffffffffffffffffffffffffffff168152602001935050505060405180910390f35b341561017257600080fd5b61017a6103f2565b6040518082815260200191505060405180910390f35b341561019b57600080fd5b6101a36103fe565b6040518082815260200191505060405180910390f35b34156101c457600080fd5b61024460048080356000191690602001909190803573ffffffffffffffffffffffffffffffffffffffff1690602001909190803573ffffffffffffffffffffffffffffffffffffffff1690602001909190803590602001909190803573ffffffffffffffffffffffffffffffffffffffff1690602001909190505061040a565b604051808215151515815260200191505060405180910390f35b341561026957600080fd5b610282600480803560ff16906020019091905050610524565b6040518082815260200191505060405180910390f35b34156102a357600080fd5b6102ab6105f4565b6040518082815260200191505060405180910390f35b34156102cc57600080fd5b6102ef6004808035600019169060200190919080359060200190919050506105fa565b6040518082815260200191505060405180910390f35b341561031057600080fd5b6103336004808035600019169060200190919080359060200190919050506107c3565b6040518082815260200191505060405180910390f35b341561035457600080fd5b61035c6107e8565b6040518082815260200191505060405180910390f35b6018610e100281565b600080600080600080600435925060143591506015359050827001000000000000000000000000000000009004827f01000000000000000000000000000000000000000000000000000000000000009004827101000000000000000000000000000000000090049550955095505050509193909250565b601e6018610e10020281565b60076018610e10020281565b6000600360009054906101000a900473ffffffffffffffffffffffffffffffffffffffff1673ffffffffffffffffffffffffffffffffffffffff163373ffffffffffffffffffffffffffffffffffffffff1614151561046c576000905061051b565b600260009054906101000a900473ffffffffffffffffffffffffffffffffffffffff1673ffffffffffffffffffffffffffffffffffffffff168273ffffffffffffffffffffffffffffffffffffffff161415610516576104ef836000808960001916600019168152602001908152602001600020546107f590919063ffffffff16565b6000808860001916600019168152602001908152602001600020819055506001905061051b565b600090505b95945050505050565b600080600481111561053257fe5b60ff168260ff16141561054957610e1090506105ef565b6001600481111561055657fe5b60ff168260ff161415610570576018610e100290506105ef565b6002600481111561057d57fe5b60ff168260ff16141561059a5760076018610e10020290506105ef565b600360048111156105a757fe5b60ff168260ff1614156105c457601e6018610e10020290506105ef565b6004808111156105d057fe5b60ff168260ff1614156105ee5761016d6018610e10020290506105ef565b5b919050565b610e1081565b600080600080600080600080600160009054906101000a900473ffffffffffffffffffffffffffffffffffffffff1673ffffffffffffffffffffffffffffffffffffffff1663314a522e8b6000604051602001526040518263ffffffff167c0100000000000000000000000000000000000000000000000000000000028152600401808260001916600019168152602001915050602060405180830381600087803b15156106a757600080fd5b6102c65a03f115156106b857600080fd5b505050604051805190509650600160009054906101000a900473ffffffffffffffffffffffffffffffffffffffff1673ffffffffffffffffffffffffffffffffffffffff1663d69dbf638b6000604051602001526040518263ffffffff167c0100000000000000000000000000000000000000000000000000000000028152600401808260001916600019168152602001915050602060405180830381600087803b151561076557600080fd5b6102c65a03f1151561077657600080fd5b50505060405180519050955061078b8761037b565b94509450945061079a84610524565b9150858910156107ad57600097506107b6565b600a9050600097505b5050505050505092915050565b6000806000846000191660001916815260200190815260200160002054905092915050565b61016d6018610e10020281565b600080828401905083811015151561080957fe5b80915050929150505600a165627a7a723058203ca0564774794632ed9b242905e3be7f6baff7f0bf0dd939fe10b12b9a6ef9300029",
  "source": "/*\n\n  Copyright 2017 Dharma Labs Inc.\n\n  Licensed under the Apache License, Version 2.0 (the \"License\");\n  you may not use this file except in compliance with the License.\n  You may obtain a copy of the License at\n\n    http://www.apache.org/licenses/LICENSE-2.0\n\n  Unless required by applicable law or agreed to in writing, software\n  distributed under the License is distributed on an \"AS IS\" BASIS,\n  WITHOUT WARRANTIES OR CONDITIONS OF ANY KIND, either express or implied.\n  See the License for the specific language governing permissions and\n  limitations under the License.\n\n*/\n\npragma solidity 0.4.18;\n\nimport \"zeppelin-solidity/contracts/math/SafeMath.sol\";\nimport \"../DebtRegistry.sol\";\n\n\ncontract SimpleInterestTermsContract {\n    using SafeMath for uint;\n\n    enum AmortizationUnitType { HOURS, DAYS, WEEKS, MONTHS, YEARS }\n\n    uint public constant HOUR_LENGTH_IN_SECONDS = 60 * 60;\n    uint public constant DAY_LENGTH_IN_SECONDS = HOUR_LENGTH_IN_SECONDS * 24;\n    uint public constant WEEK_LENGTH_IN_SECONDS = DAY_LENGTH_IN_SECONDS * 7;\n    uint public constant MONTH_LENGTH_IN_SECONDS = DAY_LENGTH_IN_SECONDS * 30;\n    uint public constant YEAR_LENGTH_IN_SECONDS = DAY_LENGTH_IN_SECONDS * 365;\n\n    mapping (bytes32 => uint) valueRepaid;\n\n    DebtRegistry debtRegistry;\n\n    address repaymentToken;\n    address repaymentRouter;\n\n    function SimpleInterestTermsContract(\n        address _debtRegistry,\n        address _repaymentToken,\n        address _repaymentRouter\n    )\n        public\n    {\n        debtRegistry = DebtRegistry(_debtRegistry);\n\n        repaymentToken = _repaymentToken;\n        repaymentRouter = _repaymentRouter;\n    }\n\n     /// When called, the registerRepayment function records the debtor's\n     ///  repayment, as well as any auxiliary metadata needed by the contract\n     ///  to determine ex post facto the value repaid (e.g. current USD\n     ///  exchange rate)\n     /// @param  agreementId bytes32. The agreement id (issuance hash) of the debt agreement to which this pertains.\n     /// @param  payer address. The address of the payer.\n     /// @param  beneficiary address. The address of the payment's beneficiary.\n     /// @param  unitsOfRepayment uint. The units-of-value repaid in the transaction.\n     /// @param  tokenAddress address. The address of the token with which the repayment transaction was executed.\n    function registerRepayment(\n        bytes32 agreementId,\n        address payer,\n        address beneficiary,\n        uint256 unitsOfRepayment,\n        address tokenAddress\n    )\n        public\n        returns (bool _success)\n    {\n        if (msg.sender != repaymentRouter) {\n            return false;\n        }\n\n        if (tokenAddress == repaymentToken) {\n            valueRepaid[agreementId] = valueRepaid[agreementId].add(unitsOfRepayment);\n            return true;\n        }\n\n        return false;\n    }\n\n     /// Returns the cumulative units-of-value expected to be repaid given a block's timestamp.\n     ///  Note this is not a constant function -- this value can vary on basis of any number of\n     ///  conditions (e.g. interest rates can be renegotiated if repayments are delinquent).\n     /// @param  agreementId bytes32. The agreement id (issuance hash) of the debt agreement to which this pertains.\n     /// @param  timestamp uint. The timestamp for which repayment expectation is being queried.\n     /// @return uint256 The cumulative units-of-value expected to be repaid given a block's timestamp.\n    function getExpectedRepaymentValue(\n        bytes32 agreementId,\n        uint256 timestamp\n    )\n        public\n        view\n        returns (uint _expectedRepaymentValue)\n    {\n        bytes32 parameters = debtRegistry.getTermsContractParameters(agreementId);\n        uint issuanceBlockTimestamp = debtRegistry.getIssuanceBlockTimestamp(agreementId);\n\n        var (principalPlusInterest, amortizationUnitType, termLengthInAmortizationUnits) =\n            unpackParameters(parameters);\n\n        uint amortizationUnitLength = getAmortizationUnitLengthInSeconds(amortizationUnitType);\n\n        if (timestamp < issuanceBlockTimestamp) {\n            return 0;\n        } else {\n            uint numRepaymentPeriods = 10;\n\n            return 0;\n        }\n    }\n\n     /// Returns the cumulative units-of-value repaid by the point at which the timestamp of a given block has lapsed.\n     /// @param agreementId bytes32. The agreement id (issuance hash) of the debt agreement to which this pertains.\n     /// @param blockTimestamp uint. The timestamp of the block for which repayment value is being queried.\n     /// @return uint256 The cumulative units-of-value repaid by the specified block timestamp.\n    function getValueRepaid(\n        bytes32 agreementId,\n        uint256 blockTimestamp\n    )\n        public\n        view\n        returns (uint _valueRepaid)\n    {\n        return valueRepaid[agreementId];\n    }\n\n    function unpackParameters(bytes32 parameters)\n        public\n        pure\n        returns (\n            uint128 _principalPlusInterest,\n            uint8 _amortizationUnitType,\n            uint120 _termLengthInAmortizationUnits\n        )\n    {\n        bytes16 principalPlusInterest;\n        bytes1 amortizationUnitType;\n        bytes15 termLengthInAmortizationUnits;\n\n        assembly {\n            principalPlusInterest := calldataload(4)\n            amortizationUnitType := calldataload(20)\n            termLengthInAmortizationUnits := calldataload(21)\n        }\n\n        return (\n            uint128(principalPlusInterest),\n            uint8(amortizationUnitType),\n            uint120(termLengthInAmortizationUnits)\n        );\n    }\n\n    function getAmortizationUnitLengthInSeconds(uint8 amortizationUnitType)\n        public\n        pure\n        returns (uint _amortizationUnitLengthInBlocks)\n    {\n        if (amortizationUnitType == uint8(AmortizationUnitType.HOURS)) {\n            return HOUR_LENGTH_IN_SECONDS;\n        } else if (amortizationUnitType == uint8(AmortizationUnitType.DAYS)) {\n            return DAY_LENGTH_IN_SECONDS;\n        } else if (amortizationUnitType == uint8(AmortizationUnitType.WEEKS)) {\n            return WEEK_LENGTH_IN_SECONDS;\n        } else if (amortizationUnitType == uint8(AmortizationUnitType.MONTHS)) {\n            return MONTH_LENGTH_IN_SECONDS;\n        } else if (amortizationUnitType == uint8(AmortizationUnitType.YEARS)) {\n            return YEAR_LENGTH_IN_SECONDS;\n        }\n    }\n}\n",
  "sourcePath": "/Users/nadavhollander/Documents/Dharma/Development/charta/contracts/examples/SimpleInterestTermsContract.sol",
  "compiler": {
    "name": "solc",
    "version": "0.4.18+commit.9cf6e910.Emscripten.clang"
  },
  "schemaVersion": "1.0.1",
  "updatedAt": "2018-02-13T18:54:42.269Z"
}