{
  "contractName": "TermsContractRegistry",
  "abi": [
    {
      "constant": false,
      "inputs": [
        {
          "name": "tokenAddress",
          "type": "address"
        },
        {
          "name": "termsContract",
          "type": "address"
        }
      ],
      "name": "setSimpleInterestTermsContractAddress",
      "outputs": [],
      "payable": false,
      "stateMutability": "nonpayable",
      "type": "function"
    },
    {
      "constant": true,
      "inputs": [
        {
          "name": "tokenAddress",
          "type": "address"
        }
      ],
      "name": "getSimpleInterestTermsContractAddress",
      "outputs": [
        {
          "name": "",
          "type": "address"
        }
      ],
      "payable": false,
      "stateMutability": "view",
      "type": "function"
    },
    {
      "constant": true,
      "inputs": [
        {
          "name": "",
          "type": "bytes32"
        }
      ],
      "name": "symbolToTermsContractAddress",
      "outputs": [
        {
          "name": "",
          "type": "address"
        }
      ],
      "payable": false,
      "stateMutability": "view",
      "type": "function"
    }
  ],
  "bytecode": "0x6060604052341561000f57600080fd5b6103848061001e6000396000f300606060405260043610610057576000357c0100000000000000000000000000000000000000000000000000000000900463ffffffff1680631ad43dc01461005c5780636ae369c1146100b45780639ef3daf61461012d575b600080fd5b341561006757600080fd5b6100b2600480803573ffffffffffffffffffffffffffffffffffffffff1690602001909190803573ffffffffffffffffffffffffffffffffffffffff16906020019091905050610194565b005b34156100bf57600080fd5b6100eb600480803573ffffffffffffffffffffffffffffffffffffffff16906020019091905050610269565b604051808273ffffffffffffffffffffffffffffffffffffffff1673ffffffffffffffffffffffffffffffffffffffff16815260200191505060405180910390f35b341561013857600080fd5b610152600480803560001916906020019091905050610325565b604051808273ffffffffffffffffffffffffffffffffffffffff1673ffffffffffffffffffffffffffffffffffffffff16815260200191505060405180910390f35b8060008084604051808273ffffffffffffffffffffffffffffffffffffffff1673ffffffffffffffffffffffffffffffffffffffff166c01000000000000000000000000028152601401807f53696d706c65496e7465726573745465726d73436f6e74726163740000000000815250601b0191505060405180910390206000191660001916815260200190815260200160002060006101000a81548173ffffffffffffffffffffffffffffffffffffffff021916908373ffffffffffffffffffffffffffffffffffffffff1602179055505050565b600080600083604051808273ffffffffffffffffffffffffffffffffffffffff1673ffffffffffffffffffffffffffffffffffffffff166c01000000000000000000000000028152601401807f53696d706c65496e7465726573745465726d73436f6e74726163740000000000815250601b0191505060405180910390206000191660001916815260200190815260200160002060009054906101000a900473ffffffffffffffffffffffffffffffffffffffff169050919050565b60006020528060005260406000206000915054906101000a900473ffffffffffffffffffffffffffffffffffffffff16815600a165627a7a723058201e1cb94b767f77c849669c8621bb9667917edbb46437602374dbd988d8edd0cd0029",
  "source": "pragma solidity 0.4.18;\n\n\ncontract TermsContractRegistry {\n    mapping (bytes32 => address) public symbolToTermsContractAddress;\n\n    function setSimpleInterestTermsContractAddress(address tokenAddress, address termsContract) public {\n        symbolToTermsContractAddress[keccak256(\n            tokenAddress,\n            \"SimpleInterestTermsContract\"\n        )] = termsContract;\n    }\n\n    function getSimpleInterestTermsContractAddress(address tokenAddress) public view returns (address) {\n        return symbolToTermsContractAddress[keccak256(\n            tokenAddress,\n            \"SimpleInterestTermsContract\"\n        )];\n    }\n}\n",
  "sourcePath": "/Users/nadavhollander/Documents/Dharma/Development/charta/contracts/examples/TermsContractRegistry.sol",
  "compiler": {
    "name": "solc",
    "version": "0.4.18+commit.9cf6e910.Emscripten.clang"
  },
  "schemaVersion": "1.0.1",
  "updatedAt": "2018-02-11T02:53:30.172Z"
}