{
  "contractName": "TokenTransferProxy",
  "abi": [
    {
      "constant": false,
      "inputs": [
        {
          "name": "_agent",
          "type": "address"
        }
      ],
      "name": "addAuthorizedTransferAgent",
      "outputs": [],
      "payable": false,
      "stateMutability": "nonpayable",
      "type": "function"
    },
    {
      "constant": false,
      "inputs": [
        {
          "name": "_token",
          "type": "address"
        },
        {
          "name": "_from",
          "type": "address"
        },
        {
          "name": "_to",
          "type": "address"
        },
        {
          "name": "_amount",
          "type": "uint256"
        }
      ],
      "name": "transferFrom",
      "outputs": [
        {
          "name": "_success",
          "type": "bool"
        }
      ],
      "payable": false,
      "stateMutability": "nonpayable",
      "type": "function"
    },
    {
      "constant": false,
      "inputs": [],
      "name": "unpause",
      "outputs": [],
      "payable": false,
      "stateMutability": "nonpayable",
      "type": "function"
    },
    {
      "constant": true,
      "inputs": [],
      "name": "paused",
      "outputs": [
        {
          "name": "",
          "type": "bool"
        }
      ],
      "payable": false,
      "stateMutability": "view",
      "type": "function"
    },
    {
      "constant": false,
      "inputs": [],
      "name": "pause",
      "outputs": [],
      "payable": false,
      "stateMutability": "nonpayable",
      "type": "function"
    },
    {
      "constant": true,
      "inputs": [],
      "name": "owner",
      "outputs": [
        {
          "name": "",
          "type": "address"
        }
      ],
      "payable": false,
      "stateMutability": "view",
      "type": "function"
    },
    {
      "constant": false,
      "inputs": [
        {
          "name": "_agent",
          "type": "address"
        }
      ],
      "name": "revokeTransferAgentAuthorization",
      "outputs": [],
      "payable": false,
      "stateMutability": "nonpayable",
      "type": "function"
    },
    {
      "constant": true,
      "inputs": [],
      "name": "getAuthorizedTransferAgents",
      "outputs": [
        {
          "name": "authorizedAgents",
          "type": "address[]"
        }
      ],
      "payable": false,
      "stateMutability": "view",
      "type": "function"
    },
    {
      "constant": false,
      "inputs": [
        {
          "name": "newOwner",
          "type": "address"
        }
      ],
      "name": "transferOwnership",
      "outputs": [],
      "payable": false,
      "stateMutability": "nonpayable",
      "type": "function"
    },
    {
      "anonymous": false,
      "inputs": [],
      "name": "Pause",
      "type": "event"
    },
    {
      "anonymous": false,
      "inputs": [],
      "name": "Unpause",
      "type": "event"
    },
    {
      "anonymous": false,
      "inputs": [
        {
          "indexed": true,
          "name": "previousOwner",
          "type": "address"
        },
        {
          "indexed": true,
          "name": "newOwner",
          "type": "address"
        }
      ],
      "name": "OwnershipTransferred",
      "type": "event"
    }
  ],
  "bytecode": "0x606060405260008060146101000a81548160ff021916908315150217905550336000806101000a81548173ffffffffffffffffffffffffffffffffffffffff021916908373ffffffffffffffffffffffffffffffffffffffff160217905550610c938061006d6000396000f300606060405260043610610099576000357c0100000000000000000000000000000000000000000000000000000000900463ffffffff1680630a8f7b521461009e57806315dacbea146100d75780633f4ba83a1461016f5780635c975abb146101845780638456cb59146101b15780638da5cb5b146101c657806394ae6e711461021b5780639c20030214610254578063f2fde38b146102be575b600080fd5b34156100a957600080fd5b6100d5600480803573ffffffffffffffffffffffffffffffffffffffff169060200190919050506102f7565b005b34156100e257600080fd5b610155600480803573ffffffffffffffffffffffffffffffffffffffff1690602001909190803573ffffffffffffffffffffffffffffffffffffffff1690602001909190803573ffffffffffffffffffffffffffffffffffffffff16906020019091908035906020019091905050610369565b604051808215151515815260200191505060405180910390f35b341561017a57600080fd5b61018261048e565b005b341561018f57600080fd5b61019761054c565b604051808215151515815260200191505060405180910390f35b34156101bc57600080fd5b6101c461055f565b005b34156101d157600080fd5b6101d961061f565b604051808273ffffffffffffffffffffffffffffffffffffffff1673ffffffffffffffffffffffffffffffffffffffff16815260200191505060405180910390f35b341561022657600080fd5b610252600480803573ffffffffffffffffffffffffffffffffffffffff16906020019091905050610644565b005b341561025f57600080fd5b6102676106b6565b6040518080602001828103825283818151815260200191508051906020019060200280838360005b838110156102aa57808201518184015260208101905061028f565b505050509050019250505060405180910390f35b34156102c957600080fd5b6102f5600480803573ffffffffffffffffffffffffffffffffffffffff169060200190919050506106cd565b005b6000809054906101000a900473ffffffffffffffffffffffffffffffffffffffff1673ffffffffffffffffffffffffffffffffffffffff163373ffffffffffffffffffffffffffffffffffffffff1614151561035257600080fd5b61036681600161082290919063ffffffff16565b50565b600061037f33600161093b90919063ffffffff16565b151561038a57600080fd5b8473ffffffffffffffffffffffffffffffffffffffff166323b872dd8585856000604051602001526040518463ffffffff167c0100000000000000000000000000000000000000000000000000000000028152600401808473ffffffffffffffffffffffffffffffffffffffff1673ffffffffffffffffffffffffffffffffffffffff1681526020018373ffffffffffffffffffffffffffffffffffffffff1673ffffffffffffffffffffffffffffffffffffffff1681526020018281526020019350505050602060405180830381600087803b151561046957600080fd5b6102c65a03f1151561047a57600080fd5b505050604051805190509050949350505050565b6000809054906101000a900473ffffffffffffffffffffffffffffffffffffffff1673ffffffffffffffffffffffffffffffffffffffff163373ffffffffffffffffffffffffffffffffffffffff161415156104e957600080fd5b600060149054906101000a900460ff16151561050457600080fd5b60008060146101000a81548160ff0219169083151502179055507f7805862f689e2f13df9f062ff482ad3ad112aca9e0847911ed832e158c525b3360405160405180910390a1565b600060149054906101000a900460ff1681565b6000809054906101000a900473ffffffffffffffffffffffffffffffffffffffff1673ffffffffffffffffffffffffffffffffffffffff163373ffffffffffffffffffffffffffffffffffffffff161415156105ba57600080fd5b600060149054906101000a900460ff161515156105d657600080fd5b6001600060146101000a81548160ff0219169083151502179055507f6985a02210a168e66602d3235cb6db0e70f92b3ba4d376a33c0f3d9434bff62560405160405180910390a1565b6000809054906101000a900473ffffffffffffffffffffffffffffffffffffffff1681565b6000809054906101000a900473ffffffffffffffffffffffffffffffffffffffff1673ffffffffffffffffffffffffffffffffffffffff163373ffffffffffffffffffffffffffffffffffffffff1614151561069f57600080fd5b6106b381600161099490919063ffffffff16565b50565b6106be610bd6565b6106c86001610b3e565b905090565b6000809054906101000a900473ffffffffffffffffffffffffffffffffffffffff1673ffffffffffffffffffffffffffffffffffffffff163373ffffffffffffffffffffffffffffffffffffffff1614151561072857600080fd5b600073ffffffffffffffffffffffffffffffffffffffff168173ffffffffffffffffffffffffffffffffffffffff161415151561076457600080fd5b8073ffffffffffffffffffffffffffffffffffffffff166000809054906101000a900473ffffffffffffffffffffffffffffffffffffffff1673ffffffffffffffffffffffffffffffffffffffff167f8be0079c531659141344cd1fd0a4f28419497f9722a3daafe3b4186f6b6457e060405160405180910390a3806000806101000a81548173ffffffffffffffffffffffffffffffffffffffff021916908373ffffffffffffffffffffffffffffffffffffffff16021790555050565b8160000160008273ffffffffffffffffffffffffffffffffffffffff1673ffffffffffffffffffffffffffffffffffffffff16815260200190815260200160002060009054906101000a900460ff1615156109375760018260000160008373ffffffffffffffffffffffffffffffffffffffff1673ffffffffffffffffffffffffffffffffffffffff16815260200190815260200160002060006101000a81548160ff0219169083151502179055508160010180548060010182816108e79190610bea565b9160005260206000209001600083909190916101000a81548173ffffffffffffffffffffffffffffffffffffffff021916908373ffffffffffffffffffffffffffffffffffffffff160217905550505b5050565b60008260000160008373ffffffffffffffffffffffffffffffffffffffff1673ffffffffffffffffffffffffffffffffffffffff16815260200190815260200160002060009054906101000a900460ff16905092915050565b60008260000160008373ffffffffffffffffffffffffffffffffffffffff1673ffffffffffffffffffffffffffffffffffffffff16815260200190815260200160002060006101000a81549060ff0219169055600090505b8260010180549050811015610b39578173ffffffffffffffffffffffffffffffffffffffff168360010182815481101515610a2357fe5b906000526020600020900160009054906101000a900473ffffffffffffffffffffffffffffffffffffffff1673ffffffffffffffffffffffffffffffffffffffff161415610b2c57826001016001846001018054905003815481101515610a8657fe5b906000526020600020900160009054906101000a900473ffffffffffffffffffffffffffffffffffffffff168360010182815481101515610ac357fe5b906000526020600020900160006101000a81548173ffffffffffffffffffffffffffffffffffffffff021916908373ffffffffffffffffffffffffffffffffffffffff16021790555060018360010181818054905003915081610b269190610c16565b50610b39565b80806001019150506109ec565b505050565b610b46610bd6565b81600101805480602002602001604051908101604052809291908181526020018280548015610bca57602002820191906000526020600020905b8160009054906101000a900473ffffffffffffffffffffffffffffffffffffffff1673ffffffffffffffffffffffffffffffffffffffff1681526020019060010190808311610b80575b50505050509050919050565b602060405190810160405280600081525090565b815481835581811511610c1157818360005260206000209182019101610c109190610c42565b5b505050565b815481835581811511610c3d57818360005260206000209182019101610c3c9190610c42565b5b505050565b610c6491905b80821115610c60576000816000905550600101610c48565b5090565b905600a165627a7a72305820472c5a98f3223ab1d1eda43a6b331d3a37c06baac743dc81071b93082d2d09370029",
  "source": "/*\n\n  Copyright 2017 Dharma Labs Inc.\n\n  Licensed under the Apache License, Version 2.0 (the \"License\");\n  you may not use this file except in compliance with the License.\n  You may obtain a copy of the License at\n\n    http://www.apache.org/licenses/LICENSE-2.0\n\n  Unless required by applicable law or agreed to in writing, software\n  distributed under the License is distributed on an \"AS IS\" BASIS,\n  WITHOUT WARRANTIES OR CONDITIONS OF ANY KIND, either express or implied.\n  See the License for the specific language governing permissions and\n  limitations under the License.\n\n*/\n\npragma solidity 0.4.18;\n\nimport \"./DebtRegistry.sol\";\nimport \"zeppelin-solidity/contracts/lifecycle/Pausable.sol\";\nimport \"zeppelin-solidity/contracts/token/ERC20/ERC20.sol\";\n\n\n/**\n * The TokenTransferProxy is a proxy contract for transfering principal\n * and fee payments and repayments between agents and keepers in the Dharma\n * ecosystem.  It is decoupled from the DebtKernel in order to make upgrades to the\n * protocol contracts smoother -- if the DebtKernel or RepyamentRouter is upgraded to a new contract,\n * creditors will not have to grant new transfer approvals to a new contract's address.\n *\n * Author: Nadav Hollander -- Github: nadavhollander\n */\ncontract TokenTransferProxy is Pausable {\n    using PermissionsLib for PermissionsLib.Permissions;\n\n    PermissionsLib.Permissions internal tokenTransferPermissions;\n\n    /**\n     * Add address to list of agents authorized to initiate `transferFrom` calls\n     */\n    function addAuthorizedTransferAgent(address _agent)\n        public\n        onlyOwner\n    {\n        tokenTransferPermissions.authorize(_agent);\n    }\n\n    /**\n     * Remove address from list of agents authorized to initiate `transferFrom` calls\n     */\n    function revokeTransferAgentAuthorization(address _agent)\n        public\n        onlyOwner\n    {\n        tokenTransferPermissions.revokeAuthorization(_agent);\n    }\n\n    /**\n     * Return list of agents authorized to initiate `transferFrom` calls\n     */\n    function getAuthorizedTransferAgents()\n        public\n        view\n        returns (address[] authorizedAgents)\n    {\n        return tokenTransferPermissions.getAuthorizedAgents();\n    }\n\n    /**\n     * Transfer specified token amount from _from address to _to address on give token\n     */\n    function transferFrom(\n        address _token,\n        address _from,\n        address _to,\n        uint _amount\n    )\n        public\n        returns (bool _success)\n    {\n        require(tokenTransferPermissions.isAuthorized(msg.sender));\n\n        return ERC20(_token).transferFrom(_from, _to, _amount);\n    }\n}\n",
  "sourcePath": "/Users/nadavhollander/Documents/Dharma/Development/charta/contracts/TokenTransferProxy.sol",
  "compiler": {
    "name": "solc",
    "version": "0.4.18+commit.9cf6e910.Emscripten.clang"
  },
  "schemaVersion": "1.0.1",
  "updatedAt": "2018-02-12T08:02:29.720Z"
}