{
  "contractName": "CollateralizedSimpleInterestTermsContract",
  "abi": [
    {
      "constant": true,
      "inputs": [
        {
          "name": "agreementId",
          "type": "bytes32"
        }
      ],
      "name": "getValueRepaidToDate",
      "outputs": [
        {
          "name": "_valueRepaid",
          "type": "uint256"
        }
      ],
      "payable": false,
      "stateMutability": "view",
      "type": "function"
    },
    {
      "constant": true,
      "inputs": [],
      "name": "DAY_LENGTH_IN_SECONDS",
      "outputs": [
        {
          "name": "",
          "type": "uint256"
        }
      ],
      "payable": false,
      "stateMutability": "view",
      "type": "function"
    },
    {
      "constant": true,
      "inputs": [],
      "name": "debtKernel",
      "outputs": [
        {
          "name": "",
          "type": "address"
        }
      ],
      "payable": false,
      "stateMutability": "view",
      "type": "function"
    },
    {
      "constant": true,
      "inputs": [],
      "name": "MONTH_LENGTH_IN_SECONDS",
      "outputs": [
        {
          "name": "",
          "type": "uint256"
        }
      ],
      "payable": false,
      "stateMutability": "view",
      "type": "function"
    },
    {
      "constant": false,
      "inputs": [
        {
          "name": "agreementId",
          "type": "bytes32"
        }
      ],
      "name": "registerTermStart",
      "outputs": [
        {
          "name": "_success",
          "type": "bool"
        }
      ],
      "payable": false,
      "stateMutability": "nonpayable",
      "type": "function"
    },
    {
      "constant": true,
      "inputs": [],
      "name": "debtRegistry",
      "outputs": [
        {
          "name": "",
          "type": "address"
        }
      ],
      "payable": false,
      "stateMutability": "view",
      "type": "function"
    },
    {
      "constant": true,
      "inputs": [],
      "name": "WEEK_LENGTH_IN_SECONDS",
      "outputs": [
        {
          "name": "",
          "type": "uint256"
        }
      ],
      "payable": false,
      "stateMutability": "view",
      "type": "function"
    },
    {
      "constant": false,
      "inputs": [
        {
          "name": "agreementID",
          "type": "bytes32"
        }
      ],
      "name": "returnCollateral",
      "outputs": [],
      "payable": false,
      "stateMutability": "nonpayable",
      "type": "function"
    },
    {
      "constant": false,
      "inputs": [
        {
          "name": "agreementId",
          "type": "bytes32"
        },
        {
          "name": "payer",
          "type": "address"
        },
        {
          "name": "beneficiary",
          "type": "address"
        },
        {
          "name": "unitsOfRepayment",
          "type": "uint256"
        },
        {
          "name": "tokenAddress",
          "type": "address"
        }
      ],
      "name": "registerRepayment",
      "outputs": [
        {
          "name": "_success",
          "type": "bool"
        }
      ],
      "payable": false,
      "stateMutability": "nonpayable",
      "type": "function"
    },
    {
      "constant": true,
      "inputs": [],
      "name": "HOUR_LENGTH_IN_SECONDS",
      "outputs": [
        {
          "name": "",
          "type": "uint256"
        }
      ],
      "payable": false,
      "stateMutability": "view",
      "type": "function"
    },
    {
      "constant": true,
      "inputs": [],
      "name": "repaymentRouter",
      "outputs": [
        {
          "name": "",
          "type": "address"
        }
      ],
      "payable": false,
      "stateMutability": "view",
      "type": "function"
    },
    {
      "constant": true,
      "inputs": [
        {
          "name": "",
          "type": "bytes32"
        }
      ],
      "name": "collateralForAgreementID",
      "outputs": [
        {
          "name": "collateralizer",
          "type": "address"
        },
        {
          "name": "token",
          "type": "address"
        },
        {
          "name": "amount",
          "type": "uint256"
        },
        {
          "name": "lockupPeriod",
          "type": "uint256"
        },
        {
          "name": "withdrawn",
          "type": "bool"
        }
      ],
      "payable": false,
      "stateMutability": "view",
      "type": "function"
    },
    {
      "constant": true,
      "inputs": [
        {
          "name": "agreementId",
          "type": "bytes32"
        },
        {
          "name": "timestamp",
          "type": "uint256"
        }
      ],
      "name": "getExpectedRepaymentValue",
      "outputs": [
        {
          "name": "_expectedRepaymentValue",
          "type": "uint256"
        }
      ],
      "payable": false,
      "stateMutability": "view",
      "type": "function"
    },
    {
      "constant": true,
      "inputs": [],
      "name": "repaymentToken",
      "outputs": [
        {
          "name": "",
          "type": "address"
        }
      ],
      "payable": false,
      "stateMutability": "view",
      "type": "function"
    },
    {
      "constant": false,
      "inputs": [
        {
          "name": "agreementID",
          "type": "bytes32"
        },
        {
          "name": "token",
          "type": "address"
        },
        {
          "name": "amount",
          "type": "uint256"
        },
        {
          "name": "lockupPeriodEndTimestamp",
          "type": "uint256"
        }
      ],
      "name": "collateralize",
      "outputs": [],
      "payable": false,
      "stateMutability": "nonpayable",
      "type": "function"
    },
    {
      "constant": true,
      "inputs": [
        {
          "name": "parameters",
          "type": "bytes32"
        }
      ],
      "name": "unpackParametersFromBytes",
      "outputs": [
        {
          "name": "_principalPlusInterest",
          "type": "uint128"
        },
        {
          "name": "_amortizationUnitType",
          "type": "uint8"
        },
        {
          "name": "_termLengthInAmortizationUnits",
          "type": "uint120"
        }
      ],
      "payable": false,
      "stateMutability": "pure",
      "type": "function"
    },
    {
      "constant": false,
      "inputs": [
        {
          "name": "agreementID",
          "type": "bytes32"
        }
      ],
      "name": "seizeCollateral",
      "outputs": [],
      "payable": false,
      "stateMutability": "nonpayable",
      "type": "function"
    },
    {
      "constant": true,
      "inputs": [],
      "name": "YEAR_LENGTH_IN_SECONDS",
      "outputs": [
        {
          "name": "",
          "type": "uint256"
        }
      ],
      "payable": false,
      "stateMutability": "view",
      "type": "function"
    },
    {
      "constant": true,
      "inputs": [
        {
          "name": "",
          "type": "bytes32"
        }
      ],
      "name": "valueRepaid",
      "outputs": [
        {
          "name": "",
          "type": "uint256"
        }
      ],
      "payable": false,
      "stateMutability": "view",
      "type": "function"
    },
    {
      "inputs": [
        {
          "name": "_debtRegistry",
          "type": "address"
        },
        {
          "name": "_debtKernel",
          "type": "address"
        },
        {
          "name": "_repaymentToken",
          "type": "address"
        },
        {
          "name": "_repaymentRouter",
          "type": "address"
        }
      ],
      "payable": false,
      "stateMutability": "nonpayable",
      "type": "constructor"
    },
    {
      "anonymous": false,
      "inputs": [
        {
          "indexed": true,
          "name": "agreementID",
          "type": "bytes32"
        },
        {
          "indexed": false,
          "name": "token",
          "type": "address"
        },
        {
          "indexed": false,
          "name": "amount",
          "type": "uint256"
        }
      ],
      "name": "CollateralLocked",
      "type": "event"
    },
    {
      "anonymous": false,
      "inputs": [
        {
          "indexed": true,
          "name": "agreementID",
          "type": "bytes32"
        },
        {
          "indexed": true,
          "name": "collateralizer",
          "type": "address"
        },
        {
          "indexed": false,
          "name": "token",
          "type": "address"
        },
        {
          "indexed": false,
          "name": "amount",
          "type": "uint256"
        }
      ],
      "name": "CollateralReturned",
      "type": "event"
    },
    {
      "anonymous": false,
      "inputs": [
        {
          "indexed": true,
          "name": "agreementID",
          "type": "bytes32"
        },
        {
          "indexed": true,
          "name": "beneficiary",
          "type": "address"
        },
        {
          "indexed": false,
          "name": "token",
          "type": "address"
        },
        {
          "indexed": false,
          "name": "amount",
          "type": "uint256"
        }
      ],
      "name": "CollateralSeized",
      "type": "event"
    }
  ],
  "bytecode": "0x6060604052341561000f57600080fd5b604051608080611f48833981016040528080519060200190919080519060200190919080519060200190919080519060200190919050508383838387806000806101000a81548173ffffffffffffffffffffffffffffffffffffffff021916908373ffffffffffffffffffffffffffffffffffffffff1602179055505083600360006101000a81548173ffffffffffffffffffffffffffffffffffffffff021916908373ffffffffffffffffffffffffffffffffffffffff16021790555082600460006101000a81548173ffffffffffffffffffffffffffffffffffffffff021916908373ffffffffffffffffffffffffffffffffffffffff16021790555081600560006101000a81548173ffffffffffffffffffffffffffffffffffffffff021916908373ffffffffffffffffffffffffffffffffffffffff16021790555080600660006101000a81548173ffffffffffffffffffffffffffffffffffffffff021916908373ffffffffffffffffffffffffffffffffffffffff1602179055505050505050505050611da1806101a76000396000f300606060405260043610610107576000357c0100000000000000000000000000000000000000000000000000000000900463ffffffff16806303a896a11461010c5780630776298214610147578063079dd4b71461017057806320863894146101c5578063282b3405146101ee5780632f866f731461022d57806340018a0d1461028257806344c4ea95146102ab5780635f0280ba146102d25780636f69c96f146103775780636fa9d056146103a057806378f522bb146103f557806399114d84146104a8578063d6939ce0146104ec578063e9f7a9dc14610541578063ed8907d714610599578063ed8e52bd1461062e578063fd127a4114610655578063fd40d52e1461067e575b600080fd5b341561011757600080fd5b6101316004808035600019169060200190919050506106b9565b6040518082815260200191505060405180910390f35b341561015257600080fd5b61015a6106de565b6040518082815260200191505060405180910390f35b341561017b57600080fd5b6101836106e7565b604051808273ffffffffffffffffffffffffffffffffffffffff1673ffffffffffffffffffffffffffffffffffffffff16815260200191505060405180910390f35b34156101d057600080fd5b6101d861070d565b6040518082815260200191505060405180910390f35b34156101f957600080fd5b610213600480803560001916906020019091905050610719565b604051808215151515815260200191505060405180910390f35b341561023857600080fd5b610240610868565b604051808273ffffffffffffffffffffffffffffffffffffffff1673ffffffffffffffffffffffffffffffffffffffff16815260200191505060405180910390f35b341561028d57600080fd5b61029561088e565b6040518082815260200191505060405180910390f35b34156102b657600080fd5b6102d060048080356000191690602001909190505061089a565b005b34156102dd57600080fd5b61035d60048080356000191690602001909190803573ffffffffffffffffffffffffffffffffffffffff1690602001909190803573ffffffffffffffffffffffffffffffffffffffff1690602001909190803590602001909190803573ffffffffffffffffffffffffffffffffffffffff16906020019091905050610ba6565b604051808215151515815260200191505060405180910390f35b341561038257600080fd5b61038a610cbe565b6040518082815260200191505060405180910390f35b34156103ab57600080fd5b6103b3610cc4565b604051808273ffffffffffffffffffffffffffffffffffffffff1673ffffffffffffffffffffffffffffffffffffffff16815260200191505060405180910390f35b341561040057600080fd5b61041a600480803560001916906020019091905050610cea565b604051808673ffffffffffffffffffffffffffffffffffffffff1673ffffffffffffffffffffffffffffffffffffffff1681526020018573ffffffffffffffffffffffffffffffffffffffff1673ffffffffffffffffffffffffffffffffffffffff168152602001848152602001838152602001821515151581526020019550505050505060405180910390f35b34156104b357600080fd5b6104d6600480803560001916906020019091908035906020019091905050610d6d565b6040518082815260200191505060405180910390f35b34156104f757600080fd5b6104ff610eee565b604051808273ffffffffffffffffffffffffffffffffffffffff1673ffffffffffffffffffffffffffffffffffffffff16815260200191505060405180910390f35b341561054c57600080fd5b61059760048080356000191690602001909190803573ffffffffffffffffffffffffffffffffffffffff16906020019091908035906020019091908035906020019091905050610f14565b005b34156105a457600080fd5b6105be6004808035600019169060200190919050506113f9565b60405180846fffffffffffffffffffffffffffffffff166fffffffffffffffffffffffffffffffff1681526020018360ff1660ff168152602001826effffffffffffffffffffffffffffff166effffffffffffffffffffffffffffff168152602001935050505060405180910390f35b341561063957600080fd5b6106536004808035600019169060200190919050506114ba565b005b341561066057600080fd5b61066861187d565b6040518082815260200191505060405180910390f35b341561068957600080fd5b6106a360048080356000191690602001909190505061188a565b6040518082815260200191505060405180910390f35b6000600260008360001916600019168152602001908152602001600020549050919050565b6018610e100281565b600460009054906101000a900473ffffffffffffffffffffffffffffffffffffffff1681565b601e6018610e10020281565b6000600460009054906101000a900473ffffffffffffffffffffffffffffffffffffffff1673ffffffffffffffffffffffffffffffffffffffff163373ffffffffffffffffffffffffffffffffffffffff1614151561077757600080fd5b3073ffffffffffffffffffffffffffffffffffffffff16600360009054906101000a900473ffffffffffffffffffffffffffffffffffffffff1673ffffffffffffffffffffffffffffffffffffffff1663f6f494c9846000604051602001526040518263ffffffff167c0100000000000000000000000000000000000000000000000000000000028152600401808260001916600019168152602001915050602060405180830381600087803b151561082f57600080fd5b6102c65a03f1151561084057600080fd5b5050506040518051905073ffffffffffffffffffffffffffffffffffffffff16149050919050565b600360009054906101000a900473ffffffffffffffffffffffffffffffffffffffff1681565b60076018610e10020281565b6108a2611cdc565b60016000836000191660001916815260200190815260200160002060a060405190810160405290816000820160009054906101000a900473ffffffffffffffffffffffffffffffffffffffff1673ffffffffffffffffffffffffffffffffffffffff1673ffffffffffffffffffffffffffffffffffffffff1681526020016001820160009054906101000a900473ffffffffffffffffffffffffffffffffffffffff1673ffffffffffffffffffffffffffffffffffffffff1673ffffffffffffffffffffffffffffffffffffffff16815260200160028201548152602001600382015481526020016004820160009054906101000a900460ff1615151515815250509050600081606001511115156109b957600080fd5b8060600151421115156109cb57600080fd5b80608001511515156109dc57600080fd5b6109e5826106b9565b6109ef8342610d6d565b111515156109fc57600080fd5b6001806000846000191660001916815260200190815260200160002060040160006101000a81548160ff021916908315150217905550806020015173ffffffffffffffffffffffffffffffffffffffff1663a9059cbb826000015183604001516000604051602001526040518363ffffffff167c0100000000000000000000000000000000000000000000000000000000028152600401808373ffffffffffffffffffffffffffffffffffffffff1673ffffffffffffffffffffffffffffffffffffffff16815260200182815260200192505050602060405180830381600087803b1515610ae957600080fd5b6102c65a03f11515610afa57600080fd5b505050604051805190501515610b0f57600080fd5b806000015173ffffffffffffffffffffffffffffffffffffffff1682600019167f2621540e2b91ca10330d6a7cbd6fb8cab2396f91c4935ad76b1183770819fa1f83602001518460400151604051808373ffffffffffffffffffffffffffffffffffffffff1673ffffffffffffffffffffffffffffffffffffffff1681526020018281526020019250505060405180910390a35050565b6000600660009054906101000a900473ffffffffffffffffffffffffffffffffffffffff1673ffffffffffffffffffffffffffffffffffffffff163373ffffffffffffffffffffffffffffffffffffffff16141515610c0457600080fd5b600560009054906101000a900473ffffffffffffffffffffffffffffffffffffffff1673ffffffffffffffffffffffffffffffffffffffff168273ffffffffffffffffffffffffffffffffffffffff161415610cb057610c8883600260008960001916600019168152602001908152602001600020546118a290919063ffffffff16565b6002600088600019166000191681526020019081526020016000208190555060019050610cb5565b600090505b95945050505050565b610e1081565b600660009054906101000a900473ffffffffffffffffffffffffffffffffffffffff1681565b60016020528060005260406000206000915090508060000160009054906101000a900473ffffffffffffffffffffffffffffffffffffffff16908060010160009054906101000a900473ffffffffffffffffffffffffffffffffffffffff16908060020154908060030154908060040160009054906101000a900460ff16905085565b6000610d77611d3a565b600084600360009054906101000a900473ffffffffffffffffffffffffffffffffffffffff1673ffffffffffffffffffffffffffffffffffffffff1663f6f494c9826000604051602001526040518263ffffffff167c0100000000000000000000000000000000000000000000000000000000028152600401808260001916600019168152602001915050602060405180830381600087803b1515610e1b57600080fd5b6102c65a03f11515610e2c57600080fd5b5050506040518051905073ffffffffffffffffffffffffffffffffffffffff163073ffffffffffffffffffffffffffffffffffffffff16141515610e6f57600080fd5b610e78866118c0565b9250826020015185111515610e905760009350610ee5565b826040015185101515610ea95782600001519350610ee5565b610eb38584611b36565b9150610ee28360800151610ed4848660000151611b8090919063ffffffff16565b611bbb90919063ffffffff16565b93505b50505092915050565b600560009054906101000a900473ffffffffffffffffffffffffffffffffffffffff1681565b6000806000610f21611cdc565b600086111515610f3057600080fd5b4285111515610f3e57600080fd5b6000600160008a6000191660001916815260200190815260200160002060030154141515610f6b57600080fd5b869350339250309150858473ffffffffffffffffffffffffffffffffffffffff166370a08231856000604051602001526040518263ffffffff167c0100000000000000000000000000000000000000000000000000000000028152600401808273ffffffffffffffffffffffffffffffffffffffff1673ffffffffffffffffffffffffffffffffffffffff168152602001915050602060405180830381600087803b151561101857600080fd5b6102c65a03f1151561102957600080fd5b505050604051805190501015151561104057600080fd5b858473ffffffffffffffffffffffffffffffffffffffff1663dd62ed3e85856000604051602001526040518363ffffffff167c0100000000000000000000000000000000000000000000000000000000028152600401808373ffffffffffffffffffffffffffffffffffffffff1673ffffffffffffffffffffffffffffffffffffffff1681526020018273ffffffffffffffffffffffffffffffffffffffff1673ffffffffffffffffffffffffffffffffffffffff16815260200192505050602060405180830381600087803b151561111857600080fd5b6102c65a03f1151561112957600080fd5b505050604051805190501015151561114057600080fd5b8373ffffffffffffffffffffffffffffffffffffffff166323b872dd8484896000604051602001526040518463ffffffff167c0100000000000000000000000000000000000000000000000000000000028152600401808473ffffffffffffffffffffffffffffffffffffffff1673ffffffffffffffffffffffffffffffffffffffff1681526020018373ffffffffffffffffffffffffffffffffffffffff1673ffffffffffffffffffffffffffffffffffffffff1681526020018281526020019350505050602060405180830381600087803b151561121f57600080fd5b6102c65a03f1151561123057600080fd5b50505060405180519050151561124557600080fd5b60a0604051908101604052803373ffffffffffffffffffffffffffffffffffffffff1681526020018873ffffffffffffffffffffffffffffffffffffffff16815260200187815260200186815260200160001515815250905080600160008a6000191660001916815260200190815260200160002060008201518160000160006101000a81548173ffffffffffffffffffffffffffffffffffffffff021916908373ffffffffffffffffffffffffffffffffffffffff16021790555060208201518160010160006101000a81548173ffffffffffffffffffffffffffffffffffffffff021916908373ffffffffffffffffffffffffffffffffffffffff160217905550604082015181600201556060820151816003015560808201518160040160006101000a81548160ff02191690831515021790555090505087600019167f38f12634ebefbe7f6767652aae05e220f95e0ca8ef8353c9c9c5ae439a592aec8888604051808373ffffffffffffffffffffffffffffffffffffffff1673ffffffffffffffffffffffffffffffffffffffff1681526020018281526020019250505060405180910390a25050505050505050565b6000806000806000806000807fffffffffffffffffffffffffffffffff00000000000000000000000000000000600102891694506fff00000000000000000000000000000060010289169350700100000000000000000000000000000000856001900481151561146557fe5b0492506f01000000000000000000000000000000846001900481151561148757fe5b0491506effffffffffffffffffffffffffffff600102891690508282826001900497509750975050505050509193909250565b6114c2611cdc565b600060016000846000191660001916815260200190815260200160002060a060405190810160405290816000820160009054906101000a900473ffffffffffffffffffffffffffffffffffffffff1673ffffffffffffffffffffffffffffffffffffffff1673ffffffffffffffffffffffffffffffffffffffff1681526020016001820160009054906101000a900473ffffffffffffffffffffffffffffffffffffffff1673ffffffffffffffffffffffffffffffffffffffff1673ffffffffffffffffffffffffffffffffffffffff16815260200160028201548152602001600382015481526020016004820160009054906101000a900460ff1615151515815250509150600082606001511115156115db57600080fd5b8160600151421115156115ed57600080fd5b81608001511515156115fe57600080fd5b611607836106b9565b6116118442610d6d565b11151561161d57600080fd5b6001806000856000191660001916815260200190815260200160002060040160006101000a81548160ff0219169083151502179055506000809054906101000a900473ffffffffffffffffffffffffffffffffffffffff1673ffffffffffffffffffffffffffffffffffffffff1663ba20dda4846000604051602001526040518263ffffffff167c0100000000000000000000000000000000000000000000000000000000028152600401808260001916600019168152602001915050602060405180830381600087803b15156116f357600080fd5b6102c65a03f1151561170457600080fd5b505050604051805190509050816020015173ffffffffffffffffffffffffffffffffffffffff1663a9059cbb8284604001516000604051602001526040518363ffffffff167c0100000000000000000000000000000000000000000000000000000000028152600401808373ffffffffffffffffffffffffffffffffffffffff1673ffffffffffffffffffffffffffffffffffffffff16815260200182815260200192505050602060405180830381600087803b15156117c357600080fd5b6102c65a03f115156117d457600080fd5b5050506040518051905015156117e957600080fd5b8073ffffffffffffffffffffffffffffffffffffffff1683600019167f50d195a4b80a950617a8e0e18ac9dd4c0236ac72d5e12355d881443823870d3984602001518560400151604051808373ffffffffffffffffffffffffffffffffffffffff1673ffffffffffffffffffffffffffffffffffffffff1681526020018281526020019250505060405180910390a3505050565b61016d6018610e10020281565b60026020528060005260406000206000915090505481565b60008082840190508381101515156118b657fe5b8091505092915050565b6118c8611d3a565b6000806000806000806000806000600360009054906101000a900473ffffffffffffffffffffffffffffffffffffffff1673ffffffffffffffffffffffffffffffffffffffff1663314a522e8c6000604051602001526040518263ffffffff167c0100000000000000000000000000000000000000000000000000000000028152600401808260001916600019168152602001915050602060405180830381600087803b151561197757600080fd5b6102c65a03f1151561198857600080fd5b50505060405180519050985061199d896113f9565b826fffffffffffffffffffffffffffffffff1692508160ff169150806effffffffffffffffffffffffffffff169050809850819950829a505050506004808111156119e457fe5b87111515156119f257600080fd5b8660048111156119fe57fe5b9450611a0985611bd6565b9350600360009054906101000a900473ffffffffffffffffffffffffffffffffffffffff1673ffffffffffffffffffffffffffffffffffffffff1663d69dbf638c6000604051602001526040518263ffffffff167c0100000000000000000000000000000000000000000000000000000000028152600401808260001916600019168152602001915050602060405180830381600087803b1515611aac57600080fd5b6102c65a03f11515611abd57600080fd5b505050604051805190509250611adc8487611b8090919063ffffffff16565b9150611af183836118a290919063ffffffff16565b905060a060405190810160405280898152602001848152602001828152602001866004811115611b1d57fe5b8152602001878152509950505050505050505050919050565b6000806000611b52846020015186611cc390919063ffffffff16565b9150611b618460600151611bd6565b9050611b768183611bbb90919063ffffffff16565b9250505092915050565b6000806000841415611b955760009150611bb4565b8284029050828482811515611ba657fe5b04141515611bb057fe5b8091505b5092915050565b6000808284811515611bc957fe5b0490508091505092915050565b6000806004811115611be457fe5b826004811115611bf057fe5b1415611c0057610e109050611cbe565b60016004811115611c0d57fe5b826004811115611c1957fe5b1415611c2c576018610e10029050611cbe565b60026004811115611c3957fe5b826004811115611c4557fe5b1415611c5b5760076018610e1002029050611cbe565b60036004811115611c6857fe5b826004811115611c7457fe5b1415611c8a57601e6018610e1002029050611cbe565b600480811115611c9657fe5b826004811115611ca257fe5b1415611cb95761016d6018610e1002029050611cbe565b600080fd5b919050565b6000828211151515611cd157fe5b818303905092915050565b60a060405190810160405280600073ffffffffffffffffffffffffffffffffffffffff168152602001600073ffffffffffffffffffffffffffffffffffffffff16815260200160008152602001600081526020016000151581525090565b60a06040519081016040528060008152602001600081526020016000815260200160006004811115611d6857fe5b81526020016000815250905600a165627a7a72305820f0cf85fc7a68b1744f77b2412141ea43c19c6c771b9626963067bf39c60b70f20029",
  "source": "/*\n\n  Copyright 2017 Dharma Labs Inc.\n\n  Licensed under the Apache License, Version 2.0 (the \"License\");\n  you may not use this file except in compliance with the License.\n  You may obtain a copy of the License at\n\n    http://www.apache.org/licenses/LICENSE-2.0\n\n  Unless required by applicable law or agreed to in writing, software\n  distributed under the License is distributed on an \"AS IS\" BASIS,\n  WITHOUT WARRANTIES OR CONDITIONS OF ANY KIND, either express or implied.\n  See the License for the specific language governing permissions and\n  limitations under the License.\n\n*/\n\npragma solidity 0.4.18;\n\nimport \"./Collateralized.sol\";\nimport \"./SimpleInterestTermsContract.sol\";\n\n\n/**\n * Example collateralized terms contract for usage in simple interest debt agreements\n *\n * Authors: nadavhollander, saturnial, jdkanani\n */\ncontract CollateralizedSimpleInterestTermsContract is Collateralized, SimpleInterestTermsContract {\n    function CollateralizedSimpleInterestTermsContract(\n        address _debtRegistry,\n        address _debtKernel,\n        address _repaymentToken,\n        address _repaymentRouter\n    )\n        public\n        SimpleInterestTermsContract(_debtRegistry, _debtKernel, _repaymentToken, _repaymentRouter)\n        Collateralized(_debtRegistry)\n    {\n        // No initialization necessary\n    }\n}\n",
  "sourcePath": "/Users/nadavhollander/Documents/Dharma/Development/charta/contracts/examples/CollateralizedSimpleInterestTermsContract.sol",
  "compiler": {
    "name": "solc",
    "version": "0.4.18+commit.9cf6e910.Emscripten.clang"
  },
  "schemaVersion": "1.0.1",
  "updatedAt": "2018-02-28T04:48:18.457Z"
}