{
  "contractName": "IncompatibleTermsContract",
  "abi": [
    {
      "constant": true,
      "inputs": [
        {
          "name": "agreementId",
          "type": "bytes32"
        }
      ],
      "name": "getValueRepaidToDate",
      "outputs": [
        {
          "name": "_valueRepaid",
          "type": "uint256"
        }
      ],
      "payable": false,
      "stateMutability": "view",
      "type": "function"
    },
    {
      "constant": false,
      "inputs": [
        {
          "name": "agreementId",
          "type": "bytes32"
        }
      ],
      "name": "registerTermStart",
      "outputs": [
        {
          "name": "_success",
          "type": "bool"
        }
      ],
      "payable": false,
      "stateMutability": "nonpayable",
      "type": "function"
    },
    {
      "constant": false,
      "inputs": [
        {
          "name": "agreementId",
          "type": "bytes32"
        },
        {
          "name": "payer",
          "type": "address"
        },
        {
          "name": "beneficiary",
          "type": "address"
        },
        {
          "name": "unitsOfRepayment",
          "type": "uint256"
        },
        {
          "name": "tokenAddress",
          "type": "address"
        }
      ],
      "name": "registerRepayment",
      "outputs": [
        {
          "name": "_success",
          "type": "bool"
        }
      ],
      "payable": false,
      "stateMutability": "nonpayable",
      "type": "function"
    },
    {
      "constant": true,
      "inputs": [
        {
          "name": "agreementId",
          "type": "bytes32"
        },
        {
          "name": "timestamp",
          "type": "uint256"
        }
      ],
      "name": "getExpectedRepaymentValue",
      "outputs": [
        {
          "name": "_expectedRepaymentValue",
          "type": "uint256"
        }
      ],
      "payable": false,
      "stateMutability": "view",
      "type": "function"
    }
  ],
  "bytecode": "0x6060604052341561000f57600080fd5b6102238061001e6000396000f300606060405260043610610062576000357c0100000000000000000000000000000000000000000000000000000000900463ffffffff16806303a896a114610067578063282b3405146100a25780635f0280ba146100e157806399114d8414610186575b600080fd5b341561007257600080fd5b61008c6004808035600019169060200190919050506101ca565b6040518082815260200191505060405180910390f35b34156100ad57600080fd5b6100c76004808035600019169060200190919050506101d4565b604051808215151515815260200191505060405180910390f35b34156100ec57600080fd5b61016c60048080356000191690602001909190803573ffffffffffffffffffffffffffffffffffffffff1690602001909190803573ffffffffffffffffffffffffffffffffffffffff1690602001909190803590602001909190803573ffffffffffffffffffffffffffffffffffffffff169060200190919050506101de565b604051808215151515815260200191505060405180910390f35b341561019157600080fd5b6101b46004808035600019169060200190919080359060200190919050506101ec565b6040518082815260200191505060405180910390f35b6000809050919050565b6000809050919050565b600080905095945050505050565b6000809050929150505600a165627a7a72305820dbbce7b3b0adffbf724162747c048ae617714641dde3ab19776666757993e1100029",
  "source": "/*\n\n  Copyright 2017 Dharma Labs Inc.\n\n  Licensed under the Apache License, Version 2.0 (the \"License\");\n  you may not use this file except in compliance with the License.\n  You may obtain a copy of the License at\n\n    http://www.apache.org/licenses/LICENSE-2.0\n\n  Unless required by applicable law or agreed to in writing, software\n  distributed under the License is distributed on an \"AS IS\" BASIS,\n  WITHOUT WARRANTIES OR CONDITIONS OF ANY KIND, either express or implied.\n  See the License for the specific language governing permissions and\n  limitations under the License.\n\n*/\n\npragma solidity 0.4.18;\n\nimport \"../../TermsContract.sol\";\n\n\n/**\n * Contract created for testing purposes that will consistently reject\n * debt order fills that are mapped to it by returning `false` for\n * `registerTermStart`\n *\n * Author: Nadav Hollander Github: nadavhollander\n */\ncontract IncompatibleTermsContract is TermsContract {\n    /// When called, the registerTermStart function registers the fact that\n    ///    the debt agreement has begun.  Given that the SimpleInterestTermsContract\n    ///    doesn't rely on taking any sorts of actions when the loan term begins,\n    ///    we simply validate DebtKernel is the transaction sender, and return\n    ///    `true` if the debt agreement is associated with this terms contract.\n    /// @param  agreementId bytes32. The agreement id (issuance hash) of the debt agreement to which this pertains.\n    /// @return _success bool. Acknowledgment of whether\n    function registerTermStart(\n        bytes32 agreementId\n    )\n        public\n        returns (bool _success)\n    {\n        return false;\n    }\n\n     /// When called, the registerRepayment function records the debtor's\n     ///  repayment, as well as any auxiliary metadata needed by the contract\n     ///  to determine ex post facto the value repaid (e.g. current USD\n     ///  exchange rate)\n     /// @param  agreementId bytes32. The agreement id (issuance hash) of the debt agreement to which this pertains.\n     /// @param  payer address. The address of the payer.\n     /// @param  beneficiary address. The address of the payment's beneficiary.\n     /// @param  unitsOfRepayment uint. The units-of-value repaid in the transaction.\n     /// @param  tokenAddress address. The address of the token with which the repayment transaction was executed.\n    function registerRepayment(\n        bytes32 agreementId,\n        address payer,\n        address beneficiary,\n        uint256 unitsOfRepayment,\n        address tokenAddress\n    )\n        public\n        returns (bool _success)\n    {\n        return false;\n    }\n\n     /// Returns the cumulative units-of-value expected to be repaid given a block's timestamp.\n     ///  Note this is not a constant function -- this value can vary on basis of any number of\n     ///  conditions (e.g. interest rates can be renegotiated if repayments are delinquent).\n     /// @param  agreementId bytes32. The agreement id (issuance hash) of the debt agreement to which this pertains.\n     /// @param  timestamp uint. The timestamp for which repayment expectation is being queried.\n     /// @return uint256 The cumulative units-of-value expected to be repaid given a block's timestamp.\n    function getExpectedRepaymentValue(\n        bytes32 agreementId,\n        uint256 timestamp\n    )\n        public\n        view\n        returns (uint _expectedRepaymentValue)\n    {\n        return 0;\n    }\n\n     /// Returns the cumulative units-of-value repaid to date.\n     /// @param agreementId bytes32. The agreement id (issuance hash) of the debt agreement to which this pertains.\n     /// @return uint256 The cumulative units-of-value repaid by the specified block timestamp.\n    function getValueRepaidToDate(bytes32 agreementId)\n        public\n        view\n        returns (uint _valueRepaid)\n    {\n        return 0;\n    }\n}\n",
  "sourcePath": "/Users/nadavhollander/Documents/Dharma/Development/charta/contracts/test/terms_contracts/IncompatibleTermsContract.sol",
  "compiler": {
    "name": "solc",
    "version": "0.4.18+commit.9cf6e910.Emscripten.clang"
  },
  "schemaVersion": "1.0.1",
  "updatedAt": "2018-03-04T02:44:45.678Z"
}