{
  "contractName": "MockERC20Token",
  "abi": [
    {
      "constant": true,
      "inputs": [
        {
          "name": "_to",
          "type": "address"
        },
        {
          "name": "_amount",
          "type": "uint256"
        }
      ],
      "name": "wasTransferCalledWith",
      "outputs": [
        {
          "name": "wasCalled",
          "type": "bool"
        }
      ],
      "payable": false,
      "stateMutability": "view",
      "type": "function"
    },
    {
      "constant": true,
      "inputs": [
        {
          "name": "functionName",
          "type": "string"
        },
        {
          "name": "argsSignature",
          "type": "bytes32"
        }
      ],
      "name": "getMockReturnValue",
      "outputs": [
        {
          "name": "_mockReturnValue",
          "type": "bytes32"
        }
      ],
      "payable": false,
      "stateMutability": "view",
      "type": "function"
    },
    {
      "constant": false,
      "inputs": [
        {
          "name": "_from",
          "type": "address"
        },
        {
          "name": "_to",
          "type": "address"
        },
        {
          "name": "_amount",
          "type": "uint256"
        }
      ],
      "name": "transferFrom",
      "outputs": [
        {
          "name": "_success",
          "type": "bool"
        }
      ],
      "payable": false,
      "stateMutability": "nonpayable",
      "type": "function"
    },
    {
      "constant": false,
      "inputs": [
        {
          "name": "_owner",
          "type": "address"
        },
        {
          "name": "_balance",
          "type": "uint256"
        }
      ],
      "name": "mockBalanceOfFor",
      "outputs": [],
      "payable": false,
      "stateMutability": "nonpayable",
      "type": "function"
    },
    {
      "constant": true,
      "inputs": [
        {
          "name": "_owner",
          "type": "address"
        }
      ],
      "name": "balanceOf",
      "outputs": [
        {
          "name": "_balance",
          "type": "uint256"
        }
      ],
      "payable": false,
      "stateMutability": "view",
      "type": "function"
    },
    {
      "constant": true,
      "inputs": [
        {
          "name": "_from",
          "type": "address"
        },
        {
          "name": "_to",
          "type": "address"
        },
        {
          "name": "_amount",
          "type": "uint256"
        }
      ],
      "name": "wasTransferFromCalledWith",
      "outputs": [
        {
          "name": "wasCalled",
          "type": "bool"
        }
      ],
      "payable": false,
      "stateMutability": "view",
      "type": "function"
    },
    {
      "constant": false,
      "inputs": [
        {
          "name": "functionName",
          "type": "string"
        },
        {
          "name": "argsSignature",
          "type": "bytes32"
        },
        {
          "name": "returnValue",
          "type": "bytes32"
        }
      ],
      "name": "mockReturnValue",
      "outputs": [],
      "payable": false,
      "stateMutability": "nonpayable",
      "type": "function"
    },
    {
      "constant": false,
      "inputs": [
        {
          "name": "_to",
          "type": "address"
        },
        {
          "name": "_amount",
          "type": "uint256"
        }
      ],
      "name": "transfer",
      "outputs": [
        {
          "name": "_success",
          "type": "bool"
        }
      ],
      "payable": false,
      "stateMutability": "nonpayable",
      "type": "function"
    },
    {
      "constant": false,
      "inputs": [],
      "name": "reset",
      "outputs": [],
      "payable": false,
      "stateMutability": "nonpayable",
      "type": "function"
    },
    {
      "constant": true,
      "inputs": [
        {
          "name": "_owner",
          "type": "address"
        },
        {
          "name": "_to",
          "type": "address"
        }
      ],
      "name": "allowance",
      "outputs": [
        {
          "name": "_allowance",
          "type": "uint256"
        }
      ],
      "payable": false,
      "stateMutability": "view",
      "type": "function"
    },
    {
      "constant": false,
      "inputs": [
        {
          "name": "_owner",
          "type": "address"
        },
        {
          "name": "_to",
          "type": "address"
        },
        {
          "name": "_allowance",
          "type": "uint256"
        }
      ],
      "name": "mockAllowanceFor",
      "outputs": [],
      "payable": false,
      "stateMutability": "nonpayable",
      "type": "function"
    }
  ],
  "bytecode": "0x6060604052341561000f57600080fd5b6113128061001e6000396000f3006060604052600436106100af576000357c0100000000000000000000000000000000000000000000000000000000900463ffffffff1680630e81bd9f146100b4578063131018581461010e57806323b872dd1461019457806351d5d7a91461020d57806370a082311461024f578063771a70091461029c57806380da20d414610315578063a9059cbb1461038c578063d826f88f146103e6578063dd62ed3e146103fb578063e39ff13d14610467575b600080fd5b34156100bf57600080fd5b6100f4600480803573ffffffffffffffffffffffffffffffffffffffff169060200190919080359060200190919050506104c8565b604051808215151515815260200191505060405180910390f35b341561011957600080fd5b610176600480803590602001908201803590602001908080601f016020809104026020016040519081016040528093929190818152602001838380828437820191505050505050919080356000191690602001909190505061051a565b60405180826000191660001916815260200191505060405180910390f35b341561019f57600080fd5b6101f3600480803573ffffffffffffffffffffffffffffffffffffffff1690602001909190803573ffffffffffffffffffffffffffffffffffffffff169060200190919080359060200190919050506105a9565b604051808215151515815260200191505060405180910390f35b341561021857600080fd5b61024d600480803573ffffffffffffffffffffffffffffffffffffffff169060200190919080359060200190919050506105ff565b005b341561025a57600080fd5b610286600480803573ffffffffffffffffffffffffffffffffffffffff16906020019091905050610696565b6040518082815260200191505060405180910390f35b34156102a757600080fd5b6102fb600480803573ffffffffffffffffffffffffffffffffffffffff1690602001909190803573ffffffffffffffffffffffffffffffffffffffff16906020019091908035906020019091905050610732565b604051808215151515815260200191505060405180910390f35b341561032057600080fd5b61038a600480803590602001908201803590602001908080601f016020809104026020016040519081016040528093929190818152602001838380828437820191505050505050919080356000191690602001909190803560001916906020019091905050610786565b005b341561039757600080fd5b6103cc600480803573ffffffffffffffffffffffffffffffffffffffff169060200190919080359060200190919050506108b0565b604051808215151515815260200191505060405180910390f35b34156103f157600080fd5b6103f9610904565b005b341561040657600080fd5b610451600480803573ffffffffffffffffffffffffffffffffffffffff1690602001909190803573ffffffffffffffffffffffffffffffffffffffff16906020019091905050610bfb565b6040518082815260200191505060405180910390f35b341561047257600080fd5b6104c6600480803573ffffffffffffffffffffffffffffffffffffffff1690602001909190803573ffffffffffffffffffffffffffffffffffffffff16906020019091908035906020019091905050610cdb565b005b60006105126040805190810160405280600881526020017f7472616e7366657200000000000000000000000000000000000000000000000081525061050d8585610db6565b610e19565b905092915050565b60006001836040518082805190602001908083835b602083101515610554578051825260208201915060208101905060208303925061052f565b6001836020036101000a03801982511681845116808217855250505050505090500191505090815260200160405180910390206000836000191660001916815260200190815260200160002054905092915050565b60006105f46040805190810160405280600c81526020017f7472616e7366657246726f6d00000000000000000000000000000000000000008152506105ef868686610eb5565b610f5c565b600190509392505050565b6106926040805190810160405280600981526020017f62616c616e63654f66000000000000000000000000000000000000000000000081525083604051808273ffffffffffffffffffffffffffffffffffffffff1673ffffffffffffffffffffffffffffffffffffffff166c01000000000000000000000000028152601401915050604051809103902083600102610786565b5050565b60006107276040805190810160405280600981526020017f62616c616e63654f66000000000000000000000000000000000000000000000081525083604051808273ffffffffffffffffffffffffffffffffffffffff1673ffffffffffffffffffffffffffffffffffffffff166c01000000000000000000000000028152601401915050604051809103902061051a565b600190049050919050565b600061077d6040805190810160405280600c81526020017f7472616e7366657246726f6d0000000000000000000000000000000000000000815250610778868686610eb5565b610e19565b90509392505050565b6000836040518082805190602001908083835b6020831015156107be5780518252602082019150602081019050602083039250610799565b6001836020036101000a03801982511681845116808217855250505050505090500191505090815260200160405180910390208054806001018281610803919061121d565b916000526020600020900160008490919091509060001916905550806001846040518082805190602001908083835b6020831015156108575780518252602082019150602081019050602083039250610832565b6001836020036101000a0380198251168184511680821785525050505050509050019150509081526020016040518091039020600084600019166000191681526020019081526020016000208160001916905550505050565b60006108fa6040805190810160405280600881526020017f7472616e736665720000000000000000000000000000000000000000000000008152506108f58585610db6565b610f5c565b6001905092915050565b600061090e611249565b600080600093505b600a841015610bf557610927611095565b84600a8110151561093457fe5b6020020151925060008351141515610be857600091505b6000836040518082805190602001908083835b602083101515610983578051825260208201915060208101905060208303925061095e565b6001836020036101000a038019825116818451168082178552505050505050905001915050908152602001604051809103902080549050821015610b70576000836040518082805190602001908083835b6020831015156109f957805182526020820191506020810190506020830392506109d4565b6001836020036101000a038019825116818451168082178552505050505050905001915050908152602001604051809103902082815481101515610a3957fe5b90600052602060002090015490506002836040518082805190602001908083835b602083101515610a7f5780518252602082019150602081019050602083039250610a5a565b6001836020036101000a03801982511681845116808217855250505050505090500191505090815260200160405180910390206000826000191660001916815260200190815260200160002060006101000a81549060ff02191690556001836040518082805190602001908083835b602083101515610b135780518252602082019150602081019050602083039250610aee565b6001836020036101000a03801982511681845116808217855250505050505090500191505090815260200160405180910390206000826000191660001916815260200190815260200160002060009055818060010192505061094b565b6000836040518082805190602001908083835b602083101515610ba85780518252602082019150602081019050602083039250610b83565b6001836020036101000a03801982511681845116808217855250505050505090500191505090815260200160405180910390206000610be7919061125d565b5b8380600101945050610916565b50505050565b6000610ccf6040805190810160405280600981526020017f616c6c6f77616e636500000000000000000000000000000000000000000000008152508484604051808373ffffffffffffffffffffffffffffffffffffffff1673ffffffffffffffffffffffffffffffffffffffff166c010000000000000000000000000281526014018273ffffffffffffffffffffffffffffffffffffffff1673ffffffffffffffffffffffffffffffffffffffff166c0100000000000000000000000002815260140192505050604051809103902061051a565b60019004905092915050565b610db16040805190810160405280600981526020017f616c6c6f77616e636500000000000000000000000000000000000000000000008152508484604051808373ffffffffffffffffffffffffffffffffffffffff1673ffffffffffffffffffffffffffffffffffffffff166c010000000000000000000000000281526014018273ffffffffffffffffffffffffffffffffffffffff1673ffffffffffffffffffffffffffffffffffffffff166c0100000000000000000000000002815260140192505050604051809103902083600102610786565b505050565b60008282604051808373ffffffffffffffffffffffffffffffffffffffff1673ffffffffffffffffffffffffffffffffffffffff166c01000000000000000000000000028152601401828152602001925050506040518091039020905092915050565b60006002836040518082805190602001908083835b602083101515610e535780518252602082019150602081019050602083039250610e2e565b6001836020036101000a03801982511681845116808217855250505050505090500191505090815260200160405180910390206000836000191660001916815260200190815260200160002060009054906101000a900460ff16905092915050565b6000838383604051808473ffffffffffffffffffffffffffffffffffffffff1673ffffffffffffffffffffffffffffffffffffffff166c010000000000000000000000000281526014018373ffffffffffffffffffffffffffffffffffffffff1673ffffffffffffffffffffffffffffffffffffffff166c010000000000000000000000000281526014018281526020019350505050604051809103902090509392505050565b60016002836040518082805190602001908083835b602083101515610f965780518252602082019150602081019050602083039250610f71565b6001836020036101000a03801982511681845116808217855250505050505090500191505090815260200160405180910390206000836000191660001916815260200190815260200160002060006101000a81548160ff0219169083151502179055506000826040518082805190602001908083835b602083101515611031578051825260208201915060208101905060208303925061100c565b6001836020036101000a03801982511681845116808217855250505050505090500191505090815260200160405180910390208054806001018281611076919061121d565b9160005260206000209001600083909190915090600019169055505050565b61109d61127e565b610140604051908101604052806040805190810160405280600881526020017f7472616e7366657200000000000000000000000000000000000000000000000081525081526020016040805190810160405280600c81526020017f7472616e7366657246726f6d000000000000000000000000000000000000000081525081526020016040805190810160405280600981526020017f616c6c6f77616e6365000000000000000000000000000000000000000000000081525081526020016040805190810160405280600981526020017f62616c616e63654f660000000000000000000000000000000000000000000000815250815260200160206040519081016040528060008152508152602001602060405190810160405280600081525081526020016020604051908101604052806000815250815260200160206040519081016040528060008152508152602001602060405190810160405280600081525081526020016020604051908101604052806000815250815250905090565b8154818355818115116112445781836000526020600020918201910161124391906112ad565b5b505050565b602060405190810160405280600081525090565b508054600082559060005260206000209081019061127b91906112ad565b50565b61014060405190810160405280600a905b6112976112d2565b81526020019060019003908161128f5790505090565b6112cf91905b808211156112cb5760008160009055506001016112b3565b5090565b90565b6020604051908101604052806000815250905600a165627a7a72305820f86325616cbe5cdc136ccfe89f6a7730eb0a7552e1af50b341d589e56fff48020029",
  "source": "/*\n\n  Copyright 2017 Dharma Labs Inc.\n\n  Licensed under the Apache License, Version 2.0 (the \"License\");\n  you may not use this file except in compliance with the License.\n  You may obtain a copy of the License at\n\n    http://www.apache.org/licenses/LICENSE-2.0\n\n  Unless required by applicable law or agreed to in writing, software\n  distributed under the License is distributed on an \"AS IS\" BASIS,\n  WITHOUT WARRANTIES OR CONDITIONS OF ANY KIND, either express or implied.\n  See the License for the specific language governing permissions and\n  limitations under the License.\n\n*/\n\npragma solidity 0.4.18;\n\nimport \"./MockContract.sol\";\nimport \"zeppelin-solidity/contracts/token/ERC20/ERC20.sol\";\n\n\ncontract MockERC20Token is MockContract {\n    function transfer(\n        address _to,\n        uint _amount\n    )\n        public\n        returns (bool _success)\n    {\n        functionCalledWithArgs(\"transfer\", getTransferArgsSignature(\n            _to,\n            _amount\n        ));\n\n        return true;\n    }\n\n    function wasTransferCalledWith(\n        address _to,\n        uint _amount\n    )\n        public\n        view\n        returns (bool wasCalled)\n    {\n        return wasFunctionCalledWithArgs(\"transfer\", getTransferArgsSignature(\n            _to,\n            _amount\n        ));\n    }\n\n    function transferFrom(\n        address _from,\n        address _to,\n        uint _amount\n    )\n        public\n        returns (bool _success)\n    {\n        functionCalledWithArgs(\"transferFrom\", getTransferFromArgsSignature(\n            _from,\n            _to,\n            _amount\n        ));\n\n        return true;\n    }\n\n    function wasTransferFromCalledWith(\n        address _from,\n        address _to,\n        uint _amount\n    )\n        public\n        view\n        returns (bool wasCalled)\n    {\n        return wasFunctionCalledWithArgs(\"transferFrom\", getTransferFromArgsSignature(\n            _from,\n            _to,\n            _amount\n        ));\n    }\n\n    /* `balanceOf` */\n\n    function balanceOf(address _owner) public view returns(uint _balance) {\n        return uint(getMockReturnValue(\"balanceOf\", keccak256(_owner)));\n    }\n\n    function mockBalanceOfFor(address _owner, uint _balance) public {\n        mockReturnValue(\"balanceOf\", keccak256(_owner), bytes32(_balance));\n    }\n\n    /* `allowance` */\n\n    function allowance(address _owner, address _to) public view returns(uint _allowance) {\n        return uint(getMockReturnValue(\"allowance\", keccak256(_owner, _to)));\n    }\n\n    function mockAllowanceFor(address _owner, address _to, uint _allowance) public {\n        mockReturnValue(\"allowance\", keccak256(_owner, _to), bytes32(_allowance));\n    }\n\n    function getTransferArgsSignature(\n        address _to,\n        uint _amount\n    )\n        internal\n        pure\n        returns (bytes32 args)\n    {\n        return keccak256(\n            _to,\n            _amount\n        );\n    }\n\n    function getTransferFromArgsSignature(\n        address _from,\n        address _to,\n        uint _amount\n    )\n        internal\n        pure\n        returns (bytes32 argsSignature)\n    {\n        return keccak256(\n            _from,\n            _to,\n            _amount\n        );\n    }\n\n    function getFunctionList()\n        internal\n        returns (string[10] functionNames)\n    {\n        return [\"transfer\", \"transferFrom\", \"allowance\", \"balanceOf\", \"\", \"\", \"\", \"\", \"\", \"\"];\n    }\n}\n",
  "sourcePath": "/Users/nadavhollander/Documents/Dharma/Development/charta/contracts/test/mocks/MockERC20Token.sol",
  "compiler": {
    "name": "solc",
    "version": "0.4.18+commit.9cf6e910.Emscripten.clang"
  },
  "schemaVersion": "1.0.1",
  "updatedAt": "2018-03-04T02:44:44.650Z"
}