{
  "contractName": "MockTermsContract",
  "abi": [
    {
      "constant": false,
      "inputs": [
        {
          "name": "success",
          "type": "bool"
        }
      ],
      "name": "mockRegisterRepaymentReturnValue",
      "outputs": [],
      "payable": false,
      "stateMutability": "nonpayable",
      "type": "function"
    },
    {
      "constant": true,
      "inputs": [
        {
          "name": "agreementId",
          "type": "bytes32"
        }
      ],
      "name": "wasRegisterTermStartCalledWith",
      "outputs": [
        {
          "name": "_wasCalled",
          "type": "bool"
        }
      ],
      "payable": false,
      "stateMutability": "view",
      "type": "function"
    },
    {
      "constant": true,
      "inputs": [
        {
          "name": "functionName",
          "type": "string"
        },
        {
          "name": "argsSignature",
          "type": "bytes32"
        }
      ],
      "name": "getMockReturnValue",
      "outputs": [
        {
          "name": "_mockReturnValue",
          "type": "bytes32"
        }
      ],
      "payable": false,
      "stateMutability": "view",
      "type": "function"
    },
    {
      "constant": false,
      "inputs": [
        {
          "name": "agreementId",
          "type": "bytes32"
        }
      ],
      "name": "registerTermStart",
      "outputs": [
        {
          "name": "_registered",
          "type": "bool"
        }
      ],
      "payable": false,
      "stateMutability": "nonpayable",
      "type": "function"
    },
    {
      "constant": false,
      "inputs": [
        {
          "name": "agreementId",
          "type": "bytes32"
        },
        {
          "name": "payer",
          "type": "address"
        },
        {
          "name": "beneficiary",
          "type": "address"
        },
        {
          "name": "unitsOfRepayment",
          "type": "uint256"
        },
        {
          "name": "tokenAddress",
          "type": "address"
        }
      ],
      "name": "registerRepayment",
      "outputs": [
        {
          "name": "_success",
          "type": "bool"
        }
      ],
      "payable": false,
      "stateMutability": "nonpayable",
      "type": "function"
    },
    {
      "constant": true,
      "inputs": [
        {
          "name": "agreementId",
          "type": "bytes32"
        },
        {
          "name": "payer",
          "type": "address"
        },
        {
          "name": "beneficiary",
          "type": "address"
        },
        {
          "name": "unitsOfRepayment",
          "type": "uint256"
        },
        {
          "name": "tokenAddress",
          "type": "address"
        }
      ],
      "name": "wasRegisterRepaymentCalledWith",
      "outputs": [
        {
          "name": "wasCalled",
          "type": "bool"
        }
      ],
      "payable": false,
      "stateMutability": "view",
      "type": "function"
    },
    {
      "constant": false,
      "inputs": [
        {
          "name": "functionName",
          "type": "string"
        },
        {
          "name": "argsSignature",
          "type": "bytes32"
        },
        {
          "name": "returnValue",
          "type": "bytes32"
        }
      ],
      "name": "mockReturnValue",
      "outputs": [],
      "payable": false,
      "stateMutability": "nonpayable",
      "type": "function"
    },
    {
      "constant": false,
      "inputs": [],
      "name": "reset",
      "outputs": [],
      "payable": false,
      "stateMutability": "nonpayable",
      "type": "function"
    },
    {
      "constant": false,
      "inputs": [
        {
          "name": "agreementId",
          "type": "bytes32"
        },
        {
          "name": "success",
          "type": "bool"
        }
      ],
      "name": "mockRegisterTermStartReturnValue",
      "outputs": [],
      "payable": false,
      "stateMutability": "nonpayable",
      "type": "function"
    }
  ],
  "bytecode": "0x6060604052341561000f57600080fd5b6110d88061001e6000396000f300606060405260043610610099576000357c0100000000000000000000000000000000000000000000000000000000900463ffffffff16806304aa85fa1461009e5780630a868979146100c35780631310185814610102578063282b3405146101885780635f0280ba146101c75780637f8601a11461026c57806380da20d414610311578063d826f88f14610388578063f81b45561461039d575b600080fd5b34156100a957600080fd5b6100c1600480803515159060200190919050506103cf565b005b34156100ce57600080fd5b6100e8600480803560001916906020019091905050610429565b604051808215151515815260200191505060405180910390f35b341561010d57600080fd5b61016a600480803590602001908201803590602001908080601f0160208091040260200160405190810160405280939291908181526020018383808284378201915050505050509190803560001916906020019091905050610471565b60405180826000191660001916815260200191505060405180910390f35b341561019357600080fd5b6101ad600480803560001916906020019091905050610500565b604051808215151515815260200191505060405180910390f35b34156101d257600080fd5b61025260048080356000191690602001909190803573ffffffffffffffffffffffffffffffffffffffff1690602001909190803573ffffffffffffffffffffffffffffffffffffffff1690602001909190803590602001909190803573ffffffffffffffffffffffffffffffffffffffff16906020019091905050610594565b604051808215151515815260200191505060405180910390f35b341561027757600080fd5b6102f760048080356000191690602001909190803573ffffffffffffffffffffffffffffffffffffffff1690602001909190803573ffffffffffffffffffffffffffffffffffffffff1690602001909190803590602001909190803573ffffffffffffffffffffffffffffffffffffffff1690602001909190505061071e565b604051808215151515815260200191505060405180910390f35b341561031c57600080fd5b610386600480803590602001908201803590602001908080601f016020809104026020016040519081016040528093929190818152602001838380828437820191505050505050919080356000191690602001909190803560001916906020019091905050610858565b005b341561039357600080fd5b61039b610982565b005b34156103a857600080fd5b6103cd6004808035600019169060200190919080351515906020019091905050610c79565b005b6104266040805190810160405280601181526020017f726567697374657252657061796d656e7400000000000000000000000000000081525060006001028361041c576000600102610421565b600180025b610858565b50565b600061046a6040805190810160405280601181526020017f72656769737465725465726d537461727400000000000000000000000000000081525083610cd0565b9050919050565b60006001836040518082805190602001908083835b6020831015156104ab5780518252602082019150602081019050602083039250610486565b6001836020036101000a03801982511681845116808217855250505050505090500191505090815260200160405180910390206000836000191660001916815260200190815260200160002054905092915050565b60006105416040805190810160405280601181526020017f72656769737465725465726d537461727400000000000000000000000000000081525083610d6c565b60018002600019166105886040805190810160405280601181526020017f72656769737465725465726d537461727400000000000000000000000000000081525084610471565b60001916149050919050565b60006106c36040805190810160405280601181526020017f726567697374657252657061796d656e7400000000000000000000000000000081525087878787876040518086600019166000191681526020018573ffffffffffffffffffffffffffffffffffffffff1673ffffffffffffffffffffffffffffffffffffffff166c010000000000000000000000000281526014018473ffffffffffffffffffffffffffffffffffffffff1673ffffffffffffffffffffffffffffffffffffffff166c010000000000000000000000000281526014018381526020018273ffffffffffffffffffffffffffffffffffffffff1673ffffffffffffffffffffffffffffffffffffffff166c01000000000000000000000000028152601401955050505050506040518091039020610d6c565b600180026000191661070e6040805190810160405280601181526020017f726567697374657252657061796d656e740000000000000000000000000000008152506000600102610471565b6000191614905095945050505050565b600061084d6040805190810160405280601181526020017f726567697374657252657061796d656e7400000000000000000000000000000081525087878787876040518086600019166000191681526020018573ffffffffffffffffffffffffffffffffffffffff1673ffffffffffffffffffffffffffffffffffffffff166c010000000000000000000000000281526014018473ffffffffffffffffffffffffffffffffffffffff1673ffffffffffffffffffffffffffffffffffffffff166c010000000000000000000000000281526014018381526020018273ffffffffffffffffffffffffffffffffffffffff1673ffffffffffffffffffffffffffffffffffffffff166c01000000000000000000000000028152601401955050505050506040518091039020610cd0565b905095945050505050565b6000836040518082805190602001908083835b602083101515610890578051825260208201915060208101905060208303925061086b565b6001836020036101000a038019825116818451168082178552505050505050905001915050908152602001604051809103902080548060010182816108d59190610fe3565b916000526020600020900160008490919091509060001916905550806001846040518082805190602001908083835b6020831015156109295780518252602082019150602081019050602083039250610904565b6001836020036101000a0380198251168184511680821785525050505050509050019150509081526020016040518091039020600084600019166000191681526020019081526020016000208160001916905550505050565b600061098c61100f565b600080600093505b600a841015610c73576109a5610ea5565b84600a811015156109b257fe5b6020020151925060008351141515610c6657600091505b6000836040518082805190602001908083835b602083101515610a0157805182526020820191506020810190506020830392506109dc565b6001836020036101000a038019825116818451168082178552505050505050905001915050908152602001604051809103902080549050821015610bee576000836040518082805190602001908083835b602083101515610a775780518252602082019150602081019050602083039250610a52565b6001836020036101000a038019825116818451168082178552505050505050905001915050908152602001604051809103902082815481101515610ab757fe5b90600052602060002090015490506002836040518082805190602001908083835b602083101515610afd5780518252602082019150602081019050602083039250610ad8565b6001836020036101000a03801982511681845116808217855250505050505090500191505090815260200160405180910390206000826000191660001916815260200190815260200160002060006101000a81549060ff02191690556001836040518082805190602001908083835b602083101515610b915780518252602082019150602081019050602083039250610b6c565b6001836020036101000a0380198251168184511680821785525050505050509050019150509081526020016040518091039020600082600019166000191681526020019081526020016000206000905581806001019250506109c9565b6000836040518082805190602001908083835b602083101515610c265780518252602082019150602081019050602083039250610c01565b6001836020036101000a03801982511681845116808217855250505050505090500191505090815260200160405180910390206000610c659190611023565b5b8380600101945050610994565b50505050565b610ccc6040805190810160405280601181526020017f72656769737465725465726d53746172740000000000000000000000000000008152508383610cc2576000600102610cc7565b600180025b610858565b5050565b60006002836040518082805190602001908083835b602083101515610d0a5780518252602082019150602081019050602083039250610ce5565b6001836020036101000a03801982511681845116808217855250505050505090500191505090815260200160405180910390206000836000191660001916815260200190815260200160002060009054906101000a900460ff16905092915050565b60016002836040518082805190602001908083835b602083101515610da65780518252602082019150602081019050602083039250610d81565b6001836020036101000a03801982511681845116808217855250505050505090500191505090815260200160405180910390206000836000191660001916815260200190815260200160002060006101000a81548160ff0219169083151502179055506000826040518082805190602001908083835b602083101515610e415780518252602082019150602081019050602083039250610e1c565b6001836020036101000a03801982511681845116808217855250505050505090500191505090815260200160405180910390208054806001018281610e869190610fe3565b9160005260206000209001600083909190915090600019169055505050565b610ead611044565b610140604051908101604052806040805190810160405280601181526020017f726567697374657252657061796d656e7400000000000000000000000000000081525081526020016040805190810160405280601181526020017f72656769737465725465726d53746172740000000000000000000000000000008152508152602001602060405190810160405280600081525081526020016020604051908101604052806000815250815260200160206040519081016040528060008152508152602001602060405190810160405280600081525081526020016020604051908101604052806000815250815260200160206040519081016040528060008152508152602001602060405190810160405280600081525081526020016020604051908101604052806000815250815250905090565b81548183558181151161100a578183600052602060002091820191016110099190611073565b5b505050565b602060405190810160405280600081525090565b50805460008255906000526020600020908101906110419190611073565b50565b61014060405190810160405280600a905b61105d611098565b8152602001906001900390816110555790505090565b61109591905b80821115611091576000816000905550600101611079565b5090565b90565b6020604051908101604052806000815250905600a165627a7a72305820914b24cc0b88cf5dd0ec6376ccc8adb19361e267e7bb3379dab9ce2cdabafb020029",
  "source": "/*\n\n  Copyright 2017 Dharma Labs Inc.\n\n  Licensed under the Apache License, Version 2.0 (the \"License\");\n  you may not use this file except in compliance with the License.\n  You may obtain a copy of the License at\n\n    http://www.apache.org/licenses/LICENSE-2.0\n\n  Unless required by applicable law or agreed to in writing, software\n  distributed under the License is distributed on an \"AS IS\" BASIS,\n  WITHOUT WARRANTIES OR CONDITIONS OF ANY KIND, either express or implied.\n  See the License for the specific language governing permissions and\n  limitations under the License.\n\n*/\n\npragma solidity 0.4.18;\n\nimport \"./MockContract.sol\";\n\n\ncontract MockTermsContract is MockContract {\n    function registerRepayment(\n        bytes32 agreementId,\n        address payer,\n        address beneficiary,\n        uint unitsOfRepayment,\n        address tokenAddress\n    )\n        public\n        returns (bool _success)\n    {\n        functionCalledWithArgs(\"registerRepayment\", keccak256(\n            agreementId,\n            payer,\n            beneficiary,\n            unitsOfRepayment,\n            tokenAddress\n        ));\n\n        return getMockReturnValue(\"registerRepayment\", DEFAULT_SIGNATURE_ARGS) == bytes32(1);\n    }\n\n    function mockRegisterRepaymentReturnValue(bool success)\n        public\n    {\n        mockReturnValue(\"registerRepayment\", DEFAULT_SIGNATURE_ARGS, success ? bytes32(1) : bytes32(0));\n    }\n\n    function wasRegisterRepaymentCalledWith(\n        bytes32 agreementId,\n        address payer,\n        address beneficiary,\n        uint unitsOfRepayment,\n        address tokenAddress\n    )\n        public\n        view\n        returns (bool wasCalled)\n    {\n        return wasFunctionCalledWithArgs(\"registerRepayment\", keccak256(\n            agreementId,\n            payer,\n            beneficiary,\n            unitsOfRepayment,\n            tokenAddress\n        ));\n    }\n\n    function registerTermStart(\n        bytes32 agreementId\n    )\n        public\n        returns (bool _registered)\n    {\n        functionCalledWithArgs(\"registerTermStart\", agreementId);\n\n        return getMockReturnValue(\"registerTermStart\", agreementId) == bytes32(1);\n    }\n\n    function mockRegisterTermStartReturnValue(bytes32 agreementId, bool success)\n        public\n    {\n        mockReturnValue(\"registerTermStart\", agreementId, success ? bytes32(1) : bytes32(0));\n    }\n\n    function wasRegisterTermStartCalledWith(bytes32 agreementId)\n        public\n        view\n        returns (bool _wasCalled)\n    {\n        return wasFunctionCalledWithArgs(\"registerTermStart\", agreementId);\n    }\n\n    function getFunctionList()\n        internal\n        returns (string[10] functionNames)\n    {\n        return [\"registerRepayment\", \"registerTermStart\", \"\", \"\", \"\", \"\", \"\", \"\", \"\", \"\"];\n    }\n}\n",
  "sourcePath": "/Users/nadavhollander/Documents/Dharma/Development/charta/contracts/test/mocks/MockTermsContract.sol",
  "compiler": {
    "name": "solc",
    "version": "0.4.18+commit.9cf6e910.Emscripten.clang"
  },
  "schemaVersion": "1.0.1",
  "updatedAt": "2018-03-04T05:26:21.375Z"
}