{
  "contractName": "NonFungibleToken",
  "abi": [
    {
      "constant": true,
      "inputs": [],
      "name": "name",
      "outputs": [
        {
          "name": "_name",
          "type": "string"
        }
      ],
      "payable": false,
      "stateMutability": "view",
      "type": "function"
    },
    {
      "constant": true,
      "inputs": [
        {
          "name": "_tokenId",
          "type": "uint256"
        }
      ],
      "name": "getApproved",
      "outputs": [
        {
          "name": "_approved",
          "type": "address"
        }
      ],
      "payable": false,
      "stateMutability": "view",
      "type": "function"
    },
    {
      "constant": false,
      "inputs": [
        {
          "name": "_to",
          "type": "address"
        },
        {
          "name": "_tokenId",
          "type": "uint256"
        }
      ],
      "name": "approve",
      "outputs": [],
      "payable": false,
      "stateMutability": "nonpayable",
      "type": "function"
    },
    {
      "constant": true,
      "inputs": [],
      "name": "implementsERC721",
      "outputs": [
        {
          "name": "_implementsERC721",
          "type": "bool"
        }
      ],
      "payable": false,
      "stateMutability": "view",
      "type": "function"
    },
    {
      "constant": true,
      "inputs": [],
      "name": "totalSupply",
      "outputs": [
        {
          "name": "_totalSupply",
          "type": "uint256"
        }
      ],
      "payable": false,
      "stateMutability": "view",
      "type": "function"
    },
    {
      "constant": false,
      "inputs": [
        {
          "name": "_from",
          "type": "address"
        },
        {
          "name": "_to",
          "type": "address"
        },
        {
          "name": "_tokenId",
          "type": "uint256"
        }
      ],
      "name": "transferFrom",
      "outputs": [],
      "payable": false,
      "stateMutability": "nonpayable",
      "type": "function"
    },
    {
      "constant": true,
      "inputs": [
        {
          "name": "_owner",
          "type": "address"
        },
        {
          "name": "_index",
          "type": "uint256"
        }
      ],
      "name": "tokenOfOwnerByIndex",
      "outputs": [
        {
          "name": "_tokenId",
          "type": "uint256"
        }
      ],
      "payable": false,
      "stateMutability": "view",
      "type": "function"
    },
    {
      "constant": true,
      "inputs": [
        {
          "name": "_tokenId",
          "type": "uint256"
        }
      ],
      "name": "ownerOf",
      "outputs": [
        {
          "name": "_owner",
          "type": "address"
        }
      ],
      "payable": false,
      "stateMutability": "view",
      "type": "function"
    },
    {
      "constant": true,
      "inputs": [
        {
          "name": "_tokenId",
          "type": "uint256"
        }
      ],
      "name": "tokenMetadata",
      "outputs": [
        {
          "name": "_infoUrl",
          "type": "string"
        }
      ],
      "payable": false,
      "stateMutability": "view",
      "type": "function"
    },
    {
      "constant": true,
      "inputs": [
        {
          "name": "_owner",
          "type": "address"
        }
      ],
      "name": "balanceOf",
      "outputs": [
        {
          "name": "_balance",
          "type": "uint256"
        }
      ],
      "payable": false,
      "stateMutability": "view",
      "type": "function"
    },
    {
      "constant": true,
      "inputs": [],
      "name": "symbol",
      "outputs": [
        {
          "name": "_symbol",
          "type": "string"
        }
      ],
      "payable": false,
      "stateMutability": "view",
      "type": "function"
    },
    {
      "constant": false,
      "inputs": [
        {
          "name": "_to",
          "type": "address"
        },
        {
          "name": "_tokenId",
          "type": "uint256"
        }
      ],
      "name": "transfer",
      "outputs": [],
      "payable": false,
      "stateMutability": "nonpayable",
      "type": "function"
    },
    {
      "constant": true,
      "inputs": [],
      "name": "numTokensTotal",
      "outputs": [
        {
          "name": "",
          "type": "uint256"
        }
      ],
      "payable": false,
      "stateMutability": "view",
      "type": "function"
    },
    {
      "constant": true,
      "inputs": [
        {
          "name": "_owner",
          "type": "address"
        }
      ],
      "name": "getOwnerTokens",
      "outputs": [
        {
          "name": "_tokenIds",
          "type": "uint256[]"
        }
      ],
      "payable": false,
      "stateMutability": "view",
      "type": "function"
    },
    {
      "anonymous": false,
      "inputs": [
        {
          "indexed": true,
          "name": "_from",
          "type": "address"
        },
        {
          "indexed": true,
          "name": "_to",
          "type": "address"
        },
        {
          "indexed": false,
          "name": "_tokenId",
          "type": "uint256"
        }
      ],
      "name": "Transfer",
      "type": "event"
    },
    {
      "anonymous": false,
      "inputs": [
        {
          "indexed": true,
          "name": "_owner",
          "type": "address"
        },
        {
          "indexed": true,
          "name": "_approved",
          "type": "address"
        },
        {
          "indexed": false,
          "name": "_tokenId",
          "type": "uint256"
        }
      ],
      "name": "Approval",
      "type": "event"
    }
  ],
  "bytecode": "0x6060604052341561000f57600080fd5b6113d08061001e6000396000f3006060604052600436106100d0576000357c0100000000000000000000000000000000000000000000000000000000900463ffffffff16806306fdde03146100d5578063081812fc14610163578063095ea7b3146101c65780631051db341461020857806318160ddd1461023557806323b872dd1461025e5780632f745c59146102bf5780636352211e146103155780636914db601461037857806370a082311461041457806395d89b4114610461578063a9059cbb146104ef578063af129dc214610531578063d63d4af01461055a575b600080fd5b34156100e057600080fd5b6100e86105e8565b6040518080602001828103825283818151815260200191508051906020019080838360005b8381101561012857808201518184015260208101905061010d565b50505050905090810190601f1680156101555780820380516001836020036101000a031916815260200191505b509250505060405180910390f35b341561016e57600080fd5b6101846004808035906020019091905050610690565b604051808273ffffffffffffffffffffffffffffffffffffffff1673ffffffffffffffffffffffffffffffffffffffff16815260200191505060405180910390f35b34156101d157600080fd5b610206600480803573ffffffffffffffffffffffffffffffffffffffff169060200190919080359060200190919050506106a2565b005b341561021357600080fd5b61021b61084f565b604051808215151515815260200191505060405180910390f35b341561024057600080fd5b610248610858565b6040518082815260200191505060405180910390f35b341561026957600080fd5b6102bd600480803573ffffffffffffffffffffffffffffffffffffffff1690602001909190803573ffffffffffffffffffffffffffffffffffffffff16906020019091908035906020019091905050610862565b005b34156102ca57600080fd5b6102ff600480803573ffffffffffffffffffffffffffffffffffffffff16906020019091908035906020019091905050610a2d565b6040518082815260200191505060405180910390f35b341561032057600080fd5b6103366004808035906020019091905050610a41565b604051808273ffffffffffffffffffffffffffffffffffffffff1673ffffffffffffffffffffffffffffffffffffffff16815260200191505060405180910390f35b341561038357600080fd5b6103996004808035906020019091905050610a53565b6040518080602001828103825283818151815260200191508051906020019080838360005b838110156103d95780820151818401526020810190506103be565b50505050905090810190601f1680156104065780820380516001836020036101000a031916815260200191505b509250505060405180910390f35b341561041f57600080fd5b61044b600480803573ffffffffffffffffffffffffffffffffffffffff16906020019091905050610b0e565b6040518082815260200191505060405180910390f35b341561046c57600080fd5b610474610b5a565b6040518080602001828103825283818151815260200191508051906020019080838360005b838110156104b4578082015181840152602081019050610499565b50505050905090810190601f1680156104e15780820380516001836020036101000a031916815260200191505b509250505060405180910390f35b34156104fa57600080fd5b61052f600480803573ffffffffffffffffffffffffffffffffffffffff16906020019091908035906020019091905050610c02565b005b341561053c57600080fd5b610544610d8a565b6040518082815260200191505060405180910390f35b341561056557600080fd5b610591600480803573ffffffffffffffffffffffffffffffffffffffff16906020019091905050610d90565b6040518080602001828103825283818151815260200191508051906020019060200280838360005b838110156105d45780820151818401526020810190506105b9565b505050509050019250505060405180910390f35b6105f06112ff565b60008054600181600116156101000203166002900480601f0160208091040260200160405190810160405280929190818152602001828054600181600116156101000203166002900480156106865780601f1061065b57610100808354040283529160200191610686565b820191906000526020600020905b81548152906001019060200180831161066957829003601f168201915b5050505050905090565b600061069b82610da8565b9050919050565b80600073ffffffffffffffffffffffffffffffffffffffff166106c482610a41565b73ffffffffffffffffffffffffffffffffffffffff16141515156106e757600080fd5b6106f082610a41565b73ffffffffffffffffffffffffffffffffffffffff163373ffffffffffffffffffffffffffffffffffffffff1614151561072957600080fd5b8273ffffffffffffffffffffffffffffffffffffffff163373ffffffffffffffffffffffffffffffffffffffff161415151561076457600080fd5b600073ffffffffffffffffffffffffffffffffffffffff1661078583610da8565b73ffffffffffffffffffffffffffffffffffffffff161415806107d55750600073ffffffffffffffffffffffffffffffffffffffff168373ffffffffffffffffffffffffffffffffffffffff1614155b1561084a576107e48383610de5565b8273ffffffffffffffffffffffffffffffffffffffff163373ffffffffffffffffffffffffffffffffffffffff167f8c5be1e5ebec7d5bd14f71427d1e84f3dd0314c0f7b2291e5b200ac8c7c3b925846040518082815260200191505060405180910390a35b505050565b60006001905090565b6000600254905090565b80600073ffffffffffffffffffffffffffffffffffffffff1661088482610a41565b73ffffffffffffffffffffffffffffffffffffffff16141515156108a757600080fd5b3373ffffffffffffffffffffffffffffffffffffffff166108c783610690565b73ffffffffffffffffffffffffffffffffffffffff161415156108e957600080fd5b8373ffffffffffffffffffffffffffffffffffffffff1661090983610a41565b73ffffffffffffffffffffffffffffffffffffffff1614151561092b57600080fd5b600073ffffffffffffffffffffffffffffffffffffffff168373ffffffffffffffffffffffffffffffffffffffff161415151561096757600080fd5b610972848484610e3b565b60008473ffffffffffffffffffffffffffffffffffffffff167f8c5be1e5ebec7d5bd14f71427d1e84f3dd0314c0f7b2291e5b200ac8c7c3b925846040518082815260200191505060405180910390a38273ffffffffffffffffffffffffffffffffffffffff168473ffffffffffffffffffffffffffffffffffffffff167fddf252ad1be2c89b69c2b068fc378daa952ba7f163c4a11628f55a4df523b3ef846040518082815260200191505060405180910390a350505050565b6000610a398383610e67565b905092915050565b6000610a4c82610ec9565b9050919050565b610a5b6112ff565b600560008381526020019081526020016000208054600181600116156101000203166002900480601f016020809104026020016040519081016040528092919081815260200182805460018160011615610100020316600290048015610b025780601f10610ad757610100808354040283529160200191610b02565b820191906000526020600020905b815481529060010190602001808311610ae557829003601f168201915b50505050509050919050565b6000600660008373ffffffffffffffffffffffffffffffffffffffff1673ffffffffffffffffffffffffffffffffffffffff168152602001908152602001600020805490509050919050565b610b626112ff565b60018054600181600116156101000203166002900480601f016020809104026020016040519081016040528092919081815260200182805460018160011615610100020316600290048015610bf85780601f10610bcd57610100808354040283529160200191610bf8565b820191906000526020600020905b815481529060010190602001808311610bdb57829003601f168201915b5050505050905090565b80600073ffffffffffffffffffffffffffffffffffffffff16610c2482610a41565b73ffffffffffffffffffffffffffffffffffffffff1614151515610c4757600080fd5b3373ffffffffffffffffffffffffffffffffffffffff16610c6783610a41565b73ffffffffffffffffffffffffffffffffffffffff16141515610c8957600080fd5b600073ffffffffffffffffffffffffffffffffffffffff168373ffffffffffffffffffffffffffffffffffffffff1614151515610cc557600080fd5b610cd0338484610e3b565b60003373ffffffffffffffffffffffffffffffffffffffff167f8c5be1e5ebec7d5bd14f71427d1e84f3dd0314c0f7b2291e5b200ac8c7c3b925846040518082815260200191505060405180910390a38273ffffffffffffffffffffffffffffffffffffffff163373ffffffffffffffffffffffffffffffffffffffff167fddf252ad1be2c89b69c2b068fc378daa952ba7f163c4a11628f55a4df523b3ef846040518082815260200191505060405180910390a3505050565b60025481565b610d98611313565b610da182610f06565b9050919050565b60006004600083815260200190815260200160002060009054906101000a900473ffffffffffffffffffffffffffffffffffffffff169050919050565b816004600083815260200190815260200160002060006101000a81548173ffffffffffffffffffffffffffffffffffffffff021916908373ffffffffffffffffffffffffffffffffffffffff1602179055505050565b610e4481610fa3565b610e4e8382610ff9565b610e5881836111e2565b610e628282611238565b505050565b6000600660008473ffffffffffffffffffffffffffffffffffffffff1673ffffffffffffffffffffffffffffffffffffffff16815260200190815260200160002082815481101515610eb557fe5b906000526020600020900154905092915050565b60006003600083815260200190815260200160002060009054906101000a900473ffffffffffffffffffffffffffffffffffffffff169050919050565b610f0e611313565b600660008373ffffffffffffffffffffffffffffffffffffffff1673ffffffffffffffffffffffffffffffffffffffff168152602001908152602001600020805480602002602001604051908101604052809291908181526020018280548015610f9757602002820191906000526020600020905b815481526020019060010190808311610f83575b50505050509050919050565b60006004600083815260200190815260200160002060006101000a81548173ffffffffffffffffffffffffffffffffffffffff021916908373ffffffffffffffffffffffffffffffffffffffff16021790555050565b6000806000600660008673ffffffffffffffffffffffffffffffffffffffff1673ffffffffffffffffffffffffffffffffffffffff16815260200190815260200160002080549050925060076000858152602001908152602001600020549150600660008673ffffffffffffffffffffffffffffffffffffffff1673ffffffffffffffffffffffffffffffffffffffff168152602001908152602001600020600184038154811015156110a857fe5b906000526020600020900154905080600660008773ffffffffffffffffffffffffffffffffffffffff1673ffffffffffffffffffffffffffffffffffffffff1681526020019081526020016000208381548110151561110357fe5b906000526020600020900181905550816007600083815260200190815260200160002081905550600660008673ffffffffffffffffffffffffffffffffffffffff1673ffffffffffffffffffffffffffffffffffffffff1681526020019081526020016000206001840381548110151561117957fe5b906000526020600020900160009055600660008673ffffffffffffffffffffffffffffffffffffffff1673ffffffffffffffffffffffffffffffffffffffff1681526020019081526020016000208054809190600190036111da9190611327565b505050505050565b806003600084815260200190815260200160002060006101000a81548173ffffffffffffffffffffffffffffffffffffffff021916908373ffffffffffffffffffffffffffffffffffffffff1602179055505050565b600660008373ffffffffffffffffffffffffffffffffffffffff1673ffffffffffffffffffffffffffffffffffffffff16815260200190815260200160002080548060010182816112899190611353565b9160005260206000209001600083909190915055506001600660008473ffffffffffffffffffffffffffffffffffffffff1673ffffffffffffffffffffffffffffffffffffffff168152602001908152602001600020805490500360076000838152602001908152602001600020819055505050565b602060405190810160405280600081525090565b602060405190810160405280600081525090565b81548183558181151161134e5781836000526020600020918201910161134d919061137f565b5b505050565b81548183558181151161137a57818360005260206000209182019101611379919061137f565b5b505050565b6113a191905b8082111561139d576000816000905550600101611385565b5090565b905600a165627a7a72305820b171a81aa98f6dadfe84ee7c2cebc2e93c54f3c2af036be668b92646784d773b0029",
  "source": "pragma solidity 0.4.18;\n\nimport \"./DetailedERC721.sol\";\n\n\n/**\n * @title NonFungibleToken\n *\n * Generic implementation for both required and optional functionality in\n * the ERC721 standard for non-fungible tokens.\n *\n * Heavily inspired by Decentraland's generic implementation:\n * https://github.com/decentraland/land/blob/master/contracts/BasicNFT.sol\n *\n * Standard Author: dete\n * Implementation Author: Nadav Hollander <nadav at dharma.io>\n */\ncontract NonFungibleToken is DetailedERC721 {\n    string public name;\n    string public symbol;\n\n    uint public numTokensTotal;\n\n    mapping(uint => address) internal tokenIdToOwner;\n    mapping(uint => address) internal tokenIdToApprovedAddress;\n    mapping(uint => string) internal tokenIdToMetadata;\n    mapping(address => uint[]) internal ownerToTokensOwned;\n    mapping(uint => uint) internal tokenIdToOwnerArrayIndex;\n\n    event Transfer(\n        address indexed _from,\n        address indexed _to,\n        uint256 _tokenId\n    );\n\n    event Approval(\n        address indexed _owner,\n        address indexed _approved,\n        uint256 _tokenId\n    );\n\n    modifier onlyExtantToken(uint _tokenId) {\n        require(ownerOf(_tokenId) != address(0));\n        _;\n    }\n\n    function name()\n        public\n        view\n        returns (string _name)\n    {\n        return name;\n    }\n\n    function symbol()\n        public\n        view\n        returns (string _symbol)\n    {\n        return symbol;\n    }\n\n    function totalSupply()\n        public\n        view\n        returns (uint256 _totalSupply)\n    {\n        return numTokensTotal;\n    }\n\n    function balanceOf(address _owner)\n        public\n        view\n        returns (uint _balance)\n    {\n        return ownerToTokensOwned[_owner].length;\n    }\n\n    function ownerOf(uint _tokenId)\n        public\n        view\n        returns (address _owner)\n    {\n        return _ownerOf(_tokenId);\n    }\n\n    function tokenMetadata(uint _tokenId)\n        public\n        view\n        returns (string _infoUrl)\n    {\n        return tokenIdToMetadata[_tokenId];\n    }\n\n    function approve(address _to, uint _tokenId)\n        public\n        onlyExtantToken(_tokenId)\n    {\n        require(msg.sender == ownerOf(_tokenId));\n        require(msg.sender != _to);\n\n        if (_getApproved(_tokenId) != address(0) ||\n                _to != address(0)) {\n            _approve(_to, _tokenId);\n            Approval(msg.sender, _to, _tokenId);\n        }\n    }\n\n    function transferFrom(address _from, address _to, uint _tokenId)\n        public\n        onlyExtantToken(_tokenId)\n    {\n        require(getApproved(_tokenId) == msg.sender);\n        require(ownerOf(_tokenId) == _from);\n        require(_to != address(0));\n\n        _clearApprovalAndTransfer(_from, _to, _tokenId);\n\n        Approval(_from, 0, _tokenId);\n        Transfer(_from, _to, _tokenId);\n    }\n\n    function transfer(address _to, uint _tokenId)\n        public\n        onlyExtantToken(_tokenId)\n    {\n        require(ownerOf(_tokenId) == msg.sender);\n        require(_to != address(0));\n\n        _clearApprovalAndTransfer(msg.sender, _to, _tokenId);\n\n        Approval(msg.sender, 0, _tokenId);\n        Transfer(msg.sender, _to, _tokenId);\n    }\n\n    function tokenOfOwnerByIndex(address _owner, uint _index)\n        public\n        view\n        returns (uint _tokenId)\n    {\n        return _getOwnerTokenByIndex(_owner, _index);\n    }\n\n    function getOwnerTokens(address _owner)\n        public\n        view\n        returns (uint[] _tokenIds)\n    {\n        return _getOwnerTokens(_owner);\n    }\n\n    function implementsERC721()\n        public\n        view\n        returns (bool _implementsERC721)\n    {\n        return true;\n    }\n\n    function getApproved(uint _tokenId)\n        public\n        view\n        returns (address _approved)\n    {\n        return _getApproved(_tokenId);\n    }\n\n    function _clearApprovalAndTransfer(address _from, address _to, uint _tokenId)\n        internal\n    {\n        _clearTokenApproval(_tokenId);\n        _removeTokenFromOwnersList(_from, _tokenId);\n        _setTokenOwner(_tokenId, _to);\n        _addTokenToOwnersList(_to, _tokenId);\n    }\n\n    function _ownerOf(uint _tokenId)\n        internal\n        view\n        returns (address _owner)\n    {\n        return tokenIdToOwner[_tokenId];\n    }\n\n    function _approve(address _to, uint _tokenId)\n        internal\n    {\n        tokenIdToApprovedAddress[_tokenId] = _to;\n    }\n\n    function _getApproved(uint _tokenId)\n        internal\n        view\n        returns (address _approved)\n    {\n        return tokenIdToApprovedAddress[_tokenId];\n    }\n\n    function _getOwnerTokens(address _owner)\n        internal\n        view\n        returns (uint[] _tokens)\n    {\n        return ownerToTokensOwned[_owner];\n    }\n\n    function _getOwnerTokenByIndex(address _owner, uint _index)\n        internal\n        view\n        returns (uint _tokens)\n    {\n        return ownerToTokensOwned[_owner][_index];\n    }\n\n    function _clearTokenApproval(uint _tokenId)\n        internal\n    {\n        tokenIdToApprovedAddress[_tokenId] = address(0);\n    }\n\n    function _setTokenOwner(uint _tokenId, address _owner)\n        internal\n    {\n        tokenIdToOwner[_tokenId] = _owner;\n    }\n\n    function _addTokenToOwnersList(address _owner, uint _tokenId)\n        internal\n    {\n        ownerToTokensOwned[_owner].push(_tokenId);\n        tokenIdToOwnerArrayIndex[_tokenId] =\n            ownerToTokensOwned[_owner].length - 1;\n    }\n\n    function _removeTokenFromOwnersList(address _owner, uint _tokenId)\n        internal\n    {\n        uint length = ownerToTokensOwned[_owner].length;\n        uint index = tokenIdToOwnerArrayIndex[_tokenId];\n        uint swapToken = ownerToTokensOwned[_owner][length - 1];\n\n        ownerToTokensOwned[_owner][index] = swapToken;\n        tokenIdToOwnerArrayIndex[swapToken] = index;\n\n        delete ownerToTokensOwned[_owner][length - 1];\n        ownerToTokensOwned[_owner].length--;\n    }\n\n    function _insertTokenMetadata(uint _tokenId, string _metadata)\n        internal\n    {\n        tokenIdToMetadata[_tokenId] = _metadata;\n    }\n}\n",
  "sourcePath": "NonFungibleToken/contracts/NonFungibleToken.sol",
  "compiler": {
    "name": "solc",
    "version": "0.4.18+commit.9cf6e910.Emscripten.clang"
  },
  "schemaVersion": "1.0.1",
  "updatedAt": "2018-03-03T02:33:03.392Z"
}