{
  "contractName": "SimpleInterestTermsContract",
  "abi": [
    {
      "constant": true,
      "inputs": [
        {
          "name": "agreementId",
          "type": "bytes32"
        }
      ],
      "name": "getValueRepaidToDate",
      "outputs": [
        {
          "name": "_valueRepaid",
          "type": "uint256"
        }
      ],
      "payable": false,
      "stateMutability": "view",
      "type": "function"
    },
    {
      "constant": true,
      "inputs": [],
      "name": "DAY_LENGTH_IN_SECONDS",
      "outputs": [
        {
          "name": "",
          "type": "uint256"
        }
      ],
      "payable": false,
      "stateMutability": "view",
      "type": "function"
    },
    {
      "constant": true,
      "inputs": [],
      "name": "debtKernel",
      "outputs": [
        {
          "name": "",
          "type": "address"
        }
      ],
      "payable": false,
      "stateMutability": "view",
      "type": "function"
    },
    {
      "constant": true,
      "inputs": [],
      "name": "MONTH_LENGTH_IN_SECONDS",
      "outputs": [
        {
          "name": "",
          "type": "uint256"
        }
      ],
      "payable": false,
      "stateMutability": "view",
      "type": "function"
    },
    {
      "constant": false,
      "inputs": [
        {
          "name": "agreementId",
          "type": "bytes32"
        }
      ],
      "name": "registerTermStart",
      "outputs": [
        {
          "name": "_success",
          "type": "bool"
        }
      ],
      "payable": false,
      "stateMutability": "nonpayable",
      "type": "function"
    },
    {
      "constant": true,
      "inputs": [],
      "name": "debtRegistry",
      "outputs": [
        {
          "name": "",
          "type": "address"
        }
      ],
      "payable": false,
      "stateMutability": "view",
      "type": "function"
    },
    {
      "constant": true,
      "inputs": [],
      "name": "WEEK_LENGTH_IN_SECONDS",
      "outputs": [
        {
          "name": "",
          "type": "uint256"
        }
      ],
      "payable": false,
      "stateMutability": "view",
      "type": "function"
    },
    {
      "constant": false,
      "inputs": [
        {
          "name": "agreementId",
          "type": "bytes32"
        },
        {
          "name": "payer",
          "type": "address"
        },
        {
          "name": "beneficiary",
          "type": "address"
        },
        {
          "name": "unitsOfRepayment",
          "type": "uint256"
        },
        {
          "name": "tokenAddress",
          "type": "address"
        }
      ],
      "name": "registerRepayment",
      "outputs": [
        {
          "name": "_success",
          "type": "bool"
        }
      ],
      "payable": false,
      "stateMutability": "nonpayable",
      "type": "function"
    },
    {
      "constant": true,
      "inputs": [],
      "name": "HOUR_LENGTH_IN_SECONDS",
      "outputs": [
        {
          "name": "",
          "type": "uint256"
        }
      ],
      "payable": false,
      "stateMutability": "view",
      "type": "function"
    },
    {
      "constant": true,
      "inputs": [],
      "name": "repaymentRouter",
      "outputs": [
        {
          "name": "",
          "type": "address"
        }
      ],
      "payable": false,
      "stateMutability": "view",
      "type": "function"
    },
    {
      "constant": true,
      "inputs": [
        {
          "name": "agreementId",
          "type": "bytes32"
        },
        {
          "name": "timestamp",
          "type": "uint256"
        }
      ],
      "name": "getExpectedRepaymentValue",
      "outputs": [
        {
          "name": "_expectedRepaymentValue",
          "type": "uint256"
        }
      ],
      "payable": false,
      "stateMutability": "view",
      "type": "function"
    },
    {
      "constant": true,
      "inputs": [],
      "name": "repaymentToken",
      "outputs": [
        {
          "name": "",
          "type": "address"
        }
      ],
      "payable": false,
      "stateMutability": "view",
      "type": "function"
    },
    {
      "constant": true,
      "inputs": [
        {
          "name": "parameters",
          "type": "bytes32"
        }
      ],
      "name": "unpackParametersFromBytes",
      "outputs": [
        {
          "name": "_principalPlusInterest",
          "type": "uint128"
        },
        {
          "name": "_amortizationUnitType",
          "type": "uint8"
        },
        {
          "name": "_termLengthInAmortizationUnits",
          "type": "uint120"
        }
      ],
      "payable": false,
      "stateMutability": "pure",
      "type": "function"
    },
    {
      "constant": true,
      "inputs": [],
      "name": "YEAR_LENGTH_IN_SECONDS",
      "outputs": [
        {
          "name": "",
          "type": "uint256"
        }
      ],
      "payable": false,
      "stateMutability": "view",
      "type": "function"
    },
    {
      "constant": true,
      "inputs": [
        {
          "name": "",
          "type": "bytes32"
        }
      ],
      "name": "valueRepaid",
      "outputs": [
        {
          "name": "",
          "type": "uint256"
        }
      ],
      "payable": false,
      "stateMutability": "view",
      "type": "function"
    },
    {
      "inputs": [
        {
          "name": "_debtRegistry",
          "type": "address"
        },
        {
          "name": "_debtKernel",
          "type": "address"
        },
        {
          "name": "_repaymentToken",
          "type": "address"
        },
        {
          "name": "_repaymentRouter",
          "type": "address"
        }
      ],
      "payable": false,
      "stateMutability": "nonpayable",
      "type": "constructor"
    }
  ],
  "bytecode": "0x6060604052341561000f57600080fd5b6040516080806110e18339810160405280805190602001909190805190602001909190805190602001909190805190602001909190505083600160006101000a81548173ffffffffffffffffffffffffffffffffffffffff021916908373ffffffffffffffffffffffffffffffffffffffff16021790555082600260006101000a81548173ffffffffffffffffffffffffffffffffffffffff021916908373ffffffffffffffffffffffffffffffffffffffff16021790555081600360006101000a81548173ffffffffffffffffffffffffffffffffffffffff021916908373ffffffffffffffffffffffffffffffffffffffff16021790555080600460006101000a81548173ffffffffffffffffffffffffffffffffffffffff021916908373ffffffffffffffffffffffffffffffffffffffff16021790555050505050610f848061015d6000396000f3006060604052600436106100db576000357c0100000000000000000000000000000000000000000000000000000000900463ffffffff16806303a896a1146100e0578063077629821461011b578063079dd4b7146101445780632086389414610199578063282b3405146101c25780632f866f731461020157806340018a0d146102565780635f0280ba1461027f5780636f69c96f146103245780636fa9d0561461034d57806399114d84146103a2578063d6939ce0146103e6578063ed8907d71461043b578063fd127a41146104d0578063fd40d52e146104f9575b600080fd5b34156100eb57600080fd5b610105600480803560001916906020019091905050610534565b6040518082815260200191505060405180910390f35b341561012657600080fd5b61012e610558565b6040518082815260200191505060405180910390f35b341561014f57600080fd5b610157610561565b604051808273ffffffffffffffffffffffffffffffffffffffff1673ffffffffffffffffffffffffffffffffffffffff16815260200191505060405180910390f35b34156101a457600080fd5b6101ac610587565b6040518082815260200191505060405180910390f35b34156101cd57600080fd5b6101e7600480803560001916906020019091905050610593565b604051808215151515815260200191505060405180910390f35b341561020c57600080fd5b6102146106e2565b604051808273ffffffffffffffffffffffffffffffffffffffff1673ffffffffffffffffffffffffffffffffffffffff16815260200191505060405180910390f35b341561026157600080fd5b610269610708565b6040518082815260200191505060405180910390f35b341561028a57600080fd5b61030a60048080356000191690602001909190803573ffffffffffffffffffffffffffffffffffffffff1690602001909190803573ffffffffffffffffffffffffffffffffffffffff1690602001909190803590602001909190803573ffffffffffffffffffffffffffffffffffffffff16906020019091905050610714565b604051808215151515815260200191505060405180910390f35b341561032f57600080fd5b61033761082a565b6040518082815260200191505060405180910390f35b341561035857600080fd5b610360610830565b604051808273ffffffffffffffffffffffffffffffffffffffff1673ffffffffffffffffffffffffffffffffffffffff16815260200191505060405180910390f35b34156103ad57600080fd5b6103d0600480803560001916906020019091908035906020019091905050610856565b6040518082815260200191505060405180910390f35b34156103f157600080fd5b6103f96109d7565b604051808273ffffffffffffffffffffffffffffffffffffffff1673ffffffffffffffffffffffffffffffffffffffff16815260200191505060405180910390f35b341561044657600080fd5b6104606004808035600019169060200190919050506109fd565b60405180846fffffffffffffffffffffffffffffffff166fffffffffffffffffffffffffffffffff1681526020018360ff1660ff168152602001826effffffffffffffffffffffffffffff166effffffffffffffffffffffffffffff168152602001935050505060405180910390f35b34156104db57600080fd5b6104e3610abe565b6040518082815260200191505060405180910390f35b341561050457600080fd5b61051e600480803560001916906020019091905050610acb565b6040518082815260200191505060405180910390f35b60008060008360001916600019168152602001908152602001600020549050919050565b6018610e100281565b600260009054906101000a900473ffffffffffffffffffffffffffffffffffffffff1681565b601e6018610e10020281565b6000600260009054906101000a900473ffffffffffffffffffffffffffffffffffffffff1673ffffffffffffffffffffffffffffffffffffffff163373ffffffffffffffffffffffffffffffffffffffff161415156105f157600080fd5b3073ffffffffffffffffffffffffffffffffffffffff16600160009054906101000a900473ffffffffffffffffffffffffffffffffffffffff1673ffffffffffffffffffffffffffffffffffffffff1663f6f494c9846000604051602001526040518263ffffffff167c0100000000000000000000000000000000000000000000000000000000028152600401808260001916600019168152602001915050602060405180830381600087803b15156106a957600080fd5b6102c65a03f115156106ba57600080fd5b5050506040518051905073ffffffffffffffffffffffffffffffffffffffff16149050919050565b600160009054906101000a900473ffffffffffffffffffffffffffffffffffffffff1681565b60076018610e10020281565b6000600460009054906101000a900473ffffffffffffffffffffffffffffffffffffffff1673ffffffffffffffffffffffffffffffffffffffff163373ffffffffffffffffffffffffffffffffffffffff1614151561077257600080fd5b600360009054906101000a900473ffffffffffffffffffffffffffffffffffffffff1673ffffffffffffffffffffffffffffffffffffffff168273ffffffffffffffffffffffffffffffffffffffff16141561081c576107f583600080896000191660001916815260200190815260200160002054610ae390919063ffffffff16565b60008088600019166000191681526020019081526020016000208190555060019050610821565b600090505b95945050505050565b610e1081565b600460009054906101000a900473ffffffffffffffffffffffffffffffffffffffff1681565b6000610860610f1d565b600084600160009054906101000a900473ffffffffffffffffffffffffffffffffffffffff1673ffffffffffffffffffffffffffffffffffffffff1663f6f494c9826000604051602001526040518263ffffffff167c0100000000000000000000000000000000000000000000000000000000028152600401808260001916600019168152602001915050602060405180830381600087803b151561090457600080fd5b6102c65a03f1151561091557600080fd5b5050506040518051905073ffffffffffffffffffffffffffffffffffffffff163073ffffffffffffffffffffffffffffffffffffffff1614151561095857600080fd5b61096186610b01565b925082602001518511151561097957600093506109ce565b82604001518510151561099257826000015193506109ce565b61099c8584610d77565b91506109cb83608001516109bd848660000151610dc190919063ffffffff16565b610dfc90919063ffffffff16565b93505b50505092915050565b600360009054906101000a900473ffffffffffffffffffffffffffffffffffffffff1681565b6000806000806000806000807fffffffffffffffffffffffffffffffff00000000000000000000000000000000600102891694506fff000000000000000000000000000000600102891693507001000000000000000000000000000000008560019004811515610a6957fe5b0492506f010000000000000000000000000000008460019004811515610a8b57fe5b0491506effffffffffffffffffffffffffffff600102891690508282826001900497509750975050505050509193909250565b61016d6018610e10020281565b60006020528060005260406000206000915090505481565b6000808284019050838110151515610af757fe5b8091505092915050565b610b09610f1d565b6000806000806000806000806000600160009054906101000a900473ffffffffffffffffffffffffffffffffffffffff1673ffffffffffffffffffffffffffffffffffffffff1663314a522e8c6000604051602001526040518263ffffffff167c0100000000000000000000000000000000000000000000000000000000028152600401808260001916600019168152602001915050602060405180830381600087803b1515610bb857600080fd5b6102c65a03f11515610bc957600080fd5b505050604051805190509850610bde896109fd565b826fffffffffffffffffffffffffffffffff1692508160ff169150806effffffffffffffffffffffffffffff169050809850819950829a50505050600480811115610c2557fe5b8711151515610c3357600080fd5b866004811115610c3f57fe5b9450610c4a85610e17565b9350600160009054906101000a900473ffffffffffffffffffffffffffffffffffffffff1673ffffffffffffffffffffffffffffffffffffffff1663d69dbf638c6000604051602001526040518263ffffffff167c0100000000000000000000000000000000000000000000000000000000028152600401808260001916600019168152602001915050602060405180830381600087803b1515610ced57600080fd5b6102c65a03f11515610cfe57600080fd5b505050604051805190509250610d1d8487610dc190919063ffffffff16565b9150610d328383610ae390919063ffffffff16565b905060a060405190810160405280898152602001848152602001828152602001866004811115610d5e57fe5b8152602001878152509950505050505050505050919050565b6000806000610d93846020015186610f0490919063ffffffff16565b9150610da28460600151610e17565b9050610db78183610dfc90919063ffffffff16565b9250505092915050565b6000806000841415610dd65760009150610df5565b8284029050828482811515610de757fe5b04141515610df157fe5b8091505b5092915050565b6000808284811515610e0a57fe5b0490508091505092915050565b6000806004811115610e2557fe5b826004811115610e3157fe5b1415610e4157610e109050610eff565b60016004811115610e4e57fe5b826004811115610e5a57fe5b1415610e6d576018610e10029050610eff565b60026004811115610e7a57fe5b826004811115610e8657fe5b1415610e9c5760076018610e1002029050610eff565b60036004811115610ea957fe5b826004811115610eb557fe5b1415610ecb57601e6018610e1002029050610eff565b600480811115610ed757fe5b826004811115610ee357fe5b1415610efa5761016d6018610e1002029050610eff565b600080fd5b919050565b6000828211151515610f1257fe5b818303905092915050565b60a06040519081016040528060008152602001600081526020016000815260200160006004811115610f4b57fe5b81526020016000815250905600a165627a7a72305820ce06398ae9aeb68ea3bedb0180c888e970146fdf656569e58506d50089fcad220029",
  "source": "/*\n\n  Copyright 2017 Dharma Labs Inc.\n\n  Licensed under the Apache License, Version 2.0 (the \"License\");\n  you may not use this file except in compliance with the License.\n  You may obtain a copy of the License at\n\n    http://www.apache.org/licenses/LICENSE-2.0\n\n  Unless required by applicable law or agreed to in writing, software\n  distributed under the License is distributed on an \"AS IS\" BASIS,\n  WITHOUT WARRANTIES OR CONDITIONS OF ANY KIND, either express or implied.\n  See the License for the specific language governing permissions and\n  limitations under the License.\n\n*/\n\npragma solidity 0.4.18;\n\nimport \"zeppelin-solidity/contracts/math/SafeMath.sol\";\nimport \"../DebtRegistry.sol\";\nimport \"../TermsContract.sol\";\n\n\ncontract SimpleInterestTermsContract is TermsContract {\n    using SafeMath for uint;\n\n    enum AmortizationUnitType { HOURS, DAYS, WEEKS, MONTHS, YEARS }\n\n    struct SimpleInterestParams {\n        uint principalPlusInterest;\n        uint termStartUnixTimestamp;\n        uint termEndUnixTimestamp;\n        AmortizationUnitType amortizationUnitType;\n        uint termLengthInAmortizationUnits;\n    }\n\n    uint public constant HOUR_LENGTH_IN_SECONDS = 60 * 60;\n    uint public constant DAY_LENGTH_IN_SECONDS = HOUR_LENGTH_IN_SECONDS * 24;\n    uint public constant WEEK_LENGTH_IN_SECONDS = DAY_LENGTH_IN_SECONDS * 7;\n    uint public constant MONTH_LENGTH_IN_SECONDS = DAY_LENGTH_IN_SECONDS * 30;\n    uint public constant YEAR_LENGTH_IN_SECONDS = DAY_LENGTH_IN_SECONDS * 365;\n\n    mapping (bytes32 => uint) public valueRepaid;\n\n    DebtRegistry public debtRegistry;\n\n    address public debtKernel;\n    address public repaymentToken;\n    address public repaymentRouter;\n\n    modifier onlyRouter() {\n        require(msg.sender == repaymentRouter);\n        _;\n    }\n\n    modifier onlyMappedToThisContract(bytes32 agreementId) {\n        require(address(this) == debtRegistry.getTermsContract(agreementId));\n        _;\n    }\n\n    modifier onlyDebtKernel() {\n        require(msg.sender == debtKernel);\n        _;\n    }\n\n    function SimpleInterestTermsContract(\n        address _debtRegistry,\n        address _debtKernel,\n        address _repaymentToken,\n        address _repaymentRouter\n    )\n        public\n    {\n        debtRegistry = DebtRegistry(_debtRegistry);\n\n        debtKernel = _debtKernel;\n        repaymentToken = _repaymentToken;\n        repaymentRouter = _repaymentRouter;\n    }\n\n    /// When called, the registerTermStart function registers the fact that\n    ///    the debt agreement has begun.  Given that the SimpleInterestTermsContract\n    ///    doesn't rely on taking any sorts of actions when the loan term begins,\n    ///    we simply validate DebtKernel is the transaction sender, and return\n    ///    `true` if the debt agreement is associated with this terms contract.\n    /// @param  agreementId bytes32. The agreement id (issuance hash) of the debt agreement to which this pertains.\n    /// @return _success bool. Acknowledgment of whether\n    function registerTermStart(\n        bytes32 agreementId\n    )\n        public\n        onlyDebtKernel\n        returns (bool _success)\n    {\n        return debtRegistry.getTermsContract(agreementId) == address(this);\n    }\n\n     /// When called, the registerRepayment function records the debtor's\n     ///  repayment, as well as any auxiliary metadata needed by the contract\n     ///  to determine ex post facto the value repaid (e.g. current USD\n     ///  exchange rate)\n     /// @param  agreementId bytes32. The agreement id (issuance hash) of the debt agreement to which this pertains.\n     /// @param  payer address. The address of the payer.\n     /// @param  beneficiary address. The address of the payment's beneficiary.\n     /// @param  unitsOfRepayment uint. The units-of-value repaid in the transaction.\n     /// @param  tokenAddress address. The address of the token with which the repayment transaction was executed.\n    function registerRepayment(\n        bytes32 agreementId,\n        address payer,\n        address beneficiary,\n        uint256 unitsOfRepayment,\n        address tokenAddress\n    )\n        public\n        onlyRouter\n        returns (bool _success)\n    {\n        if (tokenAddress == repaymentToken) {\n            valueRepaid[agreementId] = valueRepaid[agreementId].add(unitsOfRepayment);\n            return true;\n        }\n\n        return false;\n    }\n\n     /// Returns the cumulative units-of-value expected to be repaid given a block's timestamp.\n     ///  Note this is not a constant function -- this value can vary on basis of any number of\n     ///  conditions (e.g. interest rates can be renegotiated if repayments are delinquent).\n     /// @param  agreementId bytes32. The agreement id (issuance hash) of the debt agreement to which this pertains.\n     /// @param  timestamp uint. The timestamp for which repayment expectation is being queried.\n     /// @return uint256 The cumulative units-of-value expected to be repaid given a block's timestamp.\n    function getExpectedRepaymentValue(\n        bytes32 agreementId,\n        uint256 timestamp\n    )\n        public\n        view\n        onlyMappedToThisContract(agreementId)\n        returns (uint _expectedRepaymentValue)\n    {\n        SimpleInterestParams memory params = unpackParamsForAgreementID(agreementId);\n\n        if (timestamp <= params.termStartUnixTimestamp) {\n            /* The query occurs before the contract was even initialized so the\n            expected value of repayments is 0. */\n            return 0;\n        } else if (timestamp >= params.termEndUnixTimestamp) {\n            /* the query occurs beyond the contract's term, so the expected\n            value of repayment is the full principal plus interest. */\n            return params.principalPlusInterest;\n        } else {\n            uint numUnits = numAmortizationUnitsForTimestamp(timestamp, params);\n            return params.principalPlusInterest.mul(numUnits).div(params.termLengthInAmortizationUnits);\n        }\n    }\n\n     /// Returns the cumulative units-of-value repaid to date.\n     /// @param agreementId bytes32. The agreement id (issuance hash) of the debt agreement to which this pertains.\n     /// @return uint256 The cumulative units-of-value repaid by the specified block timestamp.\n    function getValueRepaidToDate(bytes32 agreementId)\n        public\n        view\n        returns (uint _valueRepaid)\n    {\n        return valueRepaid[agreementId];\n    }\n\n    function unpackParametersFromBytes(bytes32 parameters)\n        public\n        pure\n        returns (\n            uint128 _principalPlusInterest,\n            uint8 _amortizationUnitType,\n            uint120 _termLengthInAmortizationUnits\n        )\n    {\n        // The first 16 bytes of the parameters represent the total principal + interest\n        bytes32 principalPlusInterestShifted =\n            parameters & 0xffffffffffffffffffffffffffffffff00000000000000000000000000000000;\n        // The subsequent byte represents the amortization unit type code\n        bytes32 amortizationUnitTypeShifted =\n            parameters & 0x00000000000000000000000000000000ff000000000000000000000000000000;\n\n        // We bit-shift these values, respectively, 16 bytes and 15 bytes right using\n        // mathematical operations, so that their 32 byte integer counterparts\n        // correspond to the intended values packed in the 32 byte string\n        uint principalPlusInterest = uint(principalPlusInterestShifted) / 2 ** 128;\n        uint amortizationUnitType = uint(amortizationUnitTypeShifted) / 2 ** 120;\n\n        // The last 15 bytes of the parameters represents the term length of the loan,\n        // as defined in terms of the specified amortization units.\n        // Since this value takes the rightmost place in the parameters string,\n        // we do not need to bit-shift it.\n        bytes32 termLengthInAmortizationUnits =\n            parameters & 0x0000000000000000000000000000000000ffffffffffffffffffffffffffffff;\n\n        return (\n            uint128(principalPlusInterest),\n            uint8(amortizationUnitType),\n            uint120(termLengthInAmortizationUnits)\n        );\n    }\n\n    function numAmortizationUnitsForTimestamp(\n        uint timestamp,\n        SimpleInterestParams params\n    )\n        internal\n        returns (uint units)\n    {\n        uint delta = timestamp.sub(params.termStartUnixTimestamp);\n        uint amortizationUnitLengthInSeconds = getAmortizationUnitLengthInSeconds(params.amortizationUnitType);\n        return delta.div(amortizationUnitLengthInSeconds);\n    }\n\n    function unpackParamsForAgreementID(\n        bytes32 agreementId\n    )\n        internal\n        returns (SimpleInterestParams params)\n    {\n        bytes32 parameters = debtRegistry.getTermsContractParameters(agreementId);\n\n        uint principalPlusInterest;\n        uint amortizationUnitTypeAsUint;\n        uint termLengthInAmortizationUnits;\n\n        (principalPlusInterest, amortizationUnitTypeAsUint, termLengthInAmortizationUnits) =\n            unpackParametersFromBytes(parameters);\n\n        // Before we cast to `AmortizationUnitType`, ensure that the raw value being stored is valid.\n        require(amortizationUnitTypeAsUint <= uint(AmortizationUnitType.YEARS));\n\n        AmortizationUnitType amortizationUnitType = AmortizationUnitType(amortizationUnitTypeAsUint);\n\n        uint amortizationUnitLengthInSeconds = getAmortizationUnitLengthInSeconds(amortizationUnitType);\n\n        uint issuanceBlockTimestamp = debtRegistry.getIssuanceBlockTimestamp(agreementId);\n\n        uint termLengthInSeconds = termLengthInAmortizationUnits.mul(amortizationUnitLengthInSeconds);\n\n        uint termEndUnixTimestamp = termLengthInSeconds.add(issuanceBlockTimestamp);\n\n        return SimpleInterestParams({\n            principalPlusInterest: principalPlusInterest,\n            termStartUnixTimestamp: issuanceBlockTimestamp,\n            termEndUnixTimestamp: termEndUnixTimestamp,\n            amortizationUnitType: amortizationUnitType,\n            termLengthInAmortizationUnits: termLengthInAmortizationUnits\n        });\n    }\n\n    function getAmortizationUnitLengthInSeconds(AmortizationUnitType amortizationUnitType)\n        internal\n        pure\n        returns (uint _amortizationUnitLengthInSeconds)\n    {\n        if (amortizationUnitType == AmortizationUnitType.HOURS) {\n            return HOUR_LENGTH_IN_SECONDS;\n        } else if (amortizationUnitType == AmortizationUnitType.DAYS) {\n            return DAY_LENGTH_IN_SECONDS;\n        } else if (amortizationUnitType == AmortizationUnitType.WEEKS) {\n            return WEEK_LENGTH_IN_SECONDS;\n        } else if (amortizationUnitType == AmortizationUnitType.MONTHS) {\n            return MONTH_LENGTH_IN_SECONDS;\n        } else if (amortizationUnitType == AmortizationUnitType.YEARS) {\n            return YEAR_LENGTH_IN_SECONDS;\n        } else {\n            revert();\n        }\n    }\n}\n",
  "sourcePath": "/Users/nadavhollander/Documents/Dharma/Development/charta/contracts/examples/SimpleInterestTermsContract.sol",
  "compiler": {
    "name": "solc",
    "version": "0.4.18+commit.9cf6e910.Emscripten.clang"
  },
  "schemaVersion": "1.0.1",
  "updatedAt": "2018-03-04T05:27:21.070Z"
}