{
  "contractName": "BooleanDecisionEngine",
  "abi": [
    {
      "constant": false,
      "inputs": [
        {
          "name": "result",
          "type": "bool"
        }
      ],
      "name": "evaluate",
      "outputs": [
        {
          "name": "",
          "type": "bool"
        }
      ],
      "payable": false,
      "stateMutability": "nonpayable",
      "type": "function"
    }
  ],
  "bytecode": "0x6060604052341561000f57600080fd5b60b48061001d6000396000f300606060405260043610603f576000357c0100000000000000000000000000000000000000000000000000000000900463ffffffff168063474e7563146044575b600080fd5b3415604e57600080fd5b606460048080351515906020019091905050607e565b604051808215151515815260200191505060405180910390f35b60008190509190505600a165627a7a723058200d3ae4e28f9bcd4e4f88bc00fa5f9279deb639955e2280adfe27f3970a5ca1f40029",
  "source": "import \"zeppelin-solidity/contracts/math/SafeMath.sol\";\n\n\n/**\n * A decision engine that returns true or false, depending on the value given.\n */\ncontract BooleanDecisionEngine {\n    using SafeMath for uint;\n\n    function evaluate(bool result) public returns (bool) {\n        return result;\n    }\n}\n",
  "sourcePath": "/Users/graemeboy/Dharma/charta/contracts/test/decision_engines/BooleanDecisionEngine.sol",
  "compiler": {
    "name": "solc",
    "version": "0.4.18+commit.9cf6e910.Emscripten.clang"
  },
  "schemaVersion": "1.0.1",
  "updatedAt": "2018-09-28T20:51:14.888Z"
}