{
  "contractName": "CollateralizedSimpleInterestTermsContract",
  "abi": [
    {
      "constant": true,
      "inputs": [
        {
          "name": "agreementId",
          "type": "bytes32"
        }
      ],
      "name": "getValueRepaidToDate",
      "outputs": [
        {
          "name": "_valueRepaid",
          "type": "uint256"
        }
      ],
      "payable": false,
      "stateMutability": "view",
      "type": "function"
    },
    {
      "constant": true,
      "inputs": [],
      "name": "DAY_LENGTH_IN_SECONDS",
      "outputs": [
        {
          "name": "",
          "type": "uint256"
        }
      ],
      "payable": false,
      "stateMutability": "view",
      "type": "function"
    },
    {
      "constant": true,
      "inputs": [],
      "name": "debtKernel",
      "outputs": [
        {
          "name": "",
          "type": "address"
        }
      ],
      "payable": false,
      "stateMutability": "view",
      "type": "function"
    },
    {
      "constant": true,
      "inputs": [],
      "name": "MONTH_LENGTH_IN_SECONDS",
      "outputs": [
        {
          "name": "",
          "type": "uint256"
        }
      ],
      "payable": false,
      "stateMutability": "view",
      "type": "function"
    },
    {
      "constant": true,
      "inputs": [
        {
          "name": "_agreementId",
          "type": "bytes32"
        }
      ],
      "name": "getTermEndTimestamp",
      "outputs": [
        {
          "name": "",
          "type": "uint256"
        }
      ],
      "payable": false,
      "stateMutability": "view",
      "type": "function"
    },
    {
      "constant": true,
      "inputs": [],
      "name": "debtRegistry",
      "outputs": [
        {
          "name": "",
          "type": "address"
        }
      ],
      "payable": false,
      "stateMutability": "view",
      "type": "function"
    },
    {
      "constant": true,
      "inputs": [],
      "name": "WEEK_LENGTH_IN_SECONDS",
      "outputs": [
        {
          "name": "",
          "type": "uint256"
        }
      ],
      "payable": false,
      "stateMutability": "view",
      "type": "function"
    },
    {
      "constant": false,
      "inputs": [
        {
          "name": "agreementId",
          "type": "bytes32"
        },
        {
          "name": "payer",
          "type": "address"
        },
        {
          "name": "beneficiary",
          "type": "address"
        },
        {
          "name": "unitsOfRepayment",
          "type": "uint256"
        },
        {
          "name": "tokenAddress",
          "type": "address"
        }
      ],
      "name": "registerRepayment",
      "outputs": [
        {
          "name": "_success",
          "type": "bool"
        }
      ],
      "payable": false,
      "stateMutability": "nonpayable",
      "type": "function"
    },
    {
      "constant": true,
      "inputs": [],
      "name": "HOUR_LENGTH_IN_SECONDS",
      "outputs": [
        {
          "name": "",
          "type": "uint256"
        }
      ],
      "payable": false,
      "stateMutability": "view",
      "type": "function"
    },
    {
      "constant": true,
      "inputs": [],
      "name": "repaymentRouter",
      "outputs": [
        {
          "name": "",
          "type": "address"
        }
      ],
      "payable": false,
      "stateMutability": "view",
      "type": "function"
    },
    {
      "constant": true,
      "inputs": [],
      "name": "collateralizer",
      "outputs": [
        {
          "name": "",
          "type": "address"
        }
      ],
      "payable": false,
      "stateMutability": "view",
      "type": "function"
    },
    {
      "constant": true,
      "inputs": [],
      "name": "NUM_AMORTIZATION_UNIT_TYPES",
      "outputs": [
        {
          "name": "",
          "type": "uint256"
        }
      ],
      "payable": false,
      "stateMutability": "view",
      "type": "function"
    },
    {
      "constant": true,
      "inputs": [],
      "name": "INTEREST_RATE_SCALING_FACTOR_PERCENT",
      "outputs": [
        {
          "name": "",
          "type": "uint256"
        }
      ],
      "payable": false,
      "stateMutability": "view",
      "type": "function"
    },
    {
      "constant": false,
      "inputs": [
        {
          "name": "agreementId",
          "type": "bytes32"
        },
        {
          "name": "debtor",
          "type": "address"
        }
      ],
      "name": "registerTermStart",
      "outputs": [
        {
          "name": "_success",
          "type": "bool"
        }
      ],
      "payable": false,
      "stateMutability": "nonpayable",
      "type": "function"
    },
    {
      "constant": true,
      "inputs": [
        {
          "name": "agreementId",
          "type": "bytes32"
        },
        {
          "name": "timestamp",
          "type": "uint256"
        }
      ],
      "name": "getExpectedRepaymentValue",
      "outputs": [
        {
          "name": "_expectedRepaymentValue",
          "type": "uint256"
        }
      ],
      "payable": false,
      "stateMutability": "view",
      "type": "function"
    },
    {
      "constant": true,
      "inputs": [],
      "name": "tokenRegistry",
      "outputs": [
        {
          "name": "",
          "type": "address"
        }
      ],
      "payable": false,
      "stateMutability": "view",
      "type": "function"
    },
    {
      "constant": true,
      "inputs": [],
      "name": "INTEREST_RATE_SCALING_FACTOR_MULTIPLIER",
      "outputs": [
        {
          "name": "",
          "type": "uint256"
        }
      ],
      "payable": false,
      "stateMutability": "view",
      "type": "function"
    },
    {
      "constant": true,
      "inputs": [
        {
          "name": "parameters",
          "type": "bytes32"
        }
      ],
      "name": "unpackParametersFromBytes",
      "outputs": [
        {
          "name": "_principalTokenIndex",
          "type": "uint256"
        },
        {
          "name": "_principalAmount",
          "type": "uint256"
        },
        {
          "name": "_interestRate",
          "type": "uint256"
        },
        {
          "name": "_amortizationUnitType",
          "type": "uint256"
        },
        {
          "name": "_termLengthInAmortizationUnits",
          "type": "uint256"
        }
      ],
      "payable": false,
      "stateMutability": "pure",
      "type": "function"
    },
    {
      "constant": true,
      "inputs": [],
      "name": "YEAR_LENGTH_IN_SECONDS",
      "outputs": [
        {
          "name": "",
          "type": "uint256"
        }
      ],
      "payable": false,
      "stateMutability": "view",
      "type": "function"
    },
    {
      "constant": true,
      "inputs": [
        {
          "name": "",
          "type": "bytes32"
        }
      ],
      "name": "valueRepaid",
      "outputs": [
        {
          "name": "",
          "type": "uint256"
        }
      ],
      "payable": false,
      "stateMutability": "view",
      "type": "function"
    },
    {
      "inputs": [
        {
          "name": "_debtKernel",
          "type": "address"
        },
        {
          "name": "_debtRegistry",
          "type": "address"
        },
        {
          "name": "_tokenRegistry",
          "type": "address"
        },
        {
          "name": "_repaymentRouter",
          "type": "address"
        },
        {
          "name": "_collateralizer",
          "type": "address"
        }
      ],
      "payable": false,
      "stateMutability": "nonpayable",
      "type": "constructor"
    },
    {
      "anonymous": false,
      "inputs": [
        {
          "indexed": true,
          "name": "agreementId",
          "type": "bytes32"
        },
        {
          "indexed": true,
          "name": "principalToken",
          "type": "address"
        },
        {
          "indexed": false,
          "name": "principalAmount",
          "type": "uint256"
        },
        {
          "indexed": false,
          "name": "interestRate",
          "type": "uint256"
        },
        {
          "indexed": true,
          "name": "amortizationUnitType",
          "type": "uint256"
        },
        {
          "indexed": false,
          "name": "termLengthInAmortizationUnits",
          "type": "uint256"
        }
      ],
      "name": "LogSimpleInterestTermStart",
      "type": "event"
    },
    {
      "anonymous": false,
      "inputs": [
        {
          "indexed": false,
          "name": "agreementId",
          "type": "bytes32"
        },
        {
          "indexed": false,
          "name": "payer",
          "type": "address"
        },
        {
          "indexed": false,
          "name": "beneficiary",
          "type": "address"
        },
        {
          "indexed": false,
          "name": "unitsOfRepayment",
          "type": "uint256"
        },
        {
          "indexed": false,
          "name": "tokenAddress",
          "type": "address"
        }
      ],
      "name": "LogRegisterRepayment",
      "type": "event"
    }
  ],
  "bytecode": "0x6060604052341561000f57600080fd5b60405160a080611876833981016040528080519060200190919080519060200190919080519060200190919080519060200190919080519060200190919050508484848482600160006101000a81548173ffffffffffffffffffffffffffffffffffffffff021916908373ffffffffffffffffffffffffffffffffffffffff16021790555081600260006101000a81548173ffffffffffffffffffffffffffffffffffffffff021916908373ffffffffffffffffffffffffffffffffffffffff16021790555083600360006101000a81548173ffffffffffffffffffffffffffffffffffffffff021916908373ffffffffffffffffffffffffffffffffffffffff16021790555080600460006101000a81548173ffffffffffffffffffffffffffffffffffffffff021916908373ffffffffffffffffffffffffffffffffffffffff1602179055505050505080600560006101000a81548173ffffffffffffffffffffffffffffffffffffffff021916908373ffffffffffffffffffffffffffffffffffffffff16021790555050505050506116c6806101b06000396000f300606060405260043610610112576000357c0100000000000000000000000000000000000000000000000000000000900463ffffffff16806303a896a1146101175780630776298214610152578063079dd4b71461017b57806320863894146101d05780632762dd8c146101f95780632f866f731461023457806340018a0d146102895780635f0280ba146102b25780636f69c96f146103575780636fa9d05614610380578063869f0511146103d55780638b47e58a1461042a57806393529cdf14610453578063977a5e641461047c57806399114d84146104da5780639d23c4c71461051e578063de53a13c14610573578063ed8907d71461059c578063fd127a41146105f3578063fd40d52e1461061c575b600080fd5b341561012257600080fd5b61013c600480803560001916906020019091905050610657565b6040518082815260200191505060405180910390f35b341561015d57600080fd5b61016561067b565b6040518082815260200191505060405180910390f35b341561018657600080fd5b61018e610684565b604051808273ffffffffffffffffffffffffffffffffffffffff1673ffffffffffffffffffffffffffffffffffffffff16815260200191505060405180910390f35b34156101db57600080fd5b6101e36106aa565b6040518082815260200191505060405180910390f35b341561020457600080fd5b61021e6004808035600019169060200190919050506106b6565b6040518082815260200191505060405180910390f35b341561023f57600080fd5b6102476106d8565b604051808273ffffffffffffffffffffffffffffffffffffffff1673ffffffffffffffffffffffffffffffffffffffff16815260200191505060405180910390f35b341561029457600080fd5b61029c6106fe565b6040518082815260200191505060405180910390f35b34156102bd57600080fd5b61033d60048080356000191690602001909190803573ffffffffffffffffffffffffffffffffffffffff1690602001909190803573ffffffffffffffffffffffffffffffffffffffff1690602001909190803590602001909190803573ffffffffffffffffffffffffffffffffffffffff1690602001909190505061070a565b604051808215151515815260200191505060405180910390f35b341561036257600080fd5b61036a6108f9565b6040518082815260200191505060405180910390f35b341561038b57600080fd5b6103936108ff565b604051808273ffffffffffffffffffffffffffffffffffffffff1673ffffffffffffffffffffffffffffffffffffffff16815260200191505060405180910390f35b34156103e057600080fd5b6103e8610925565b604051808273ffffffffffffffffffffffffffffffffffffffff1673ffffffffffffffffffffffffffffffffffffffff16815260200191505060405180910390f35b341561043557600080fd5b61043d61094b565b6040518082815260200191505060405180910390f35b341561045e57600080fd5b610466610950565b6040518082815260200191505060405180910390f35b341561048757600080fd5b6104c060048080356000191690602001909190803573ffffffffffffffffffffffffffffffffffffffff16906020019091905050610956565b604051808215151515815260200191505060405180910390f35b34156104e557600080fd5b610508600480803560001916906020019091908035906020019091905050610ac9565b6040518082815260200191505060405180910390f35b341561052957600080fd5b610531610c4f565b604051808273ffffffffffffffffffffffffffffffffffffffff1673ffffffffffffffffffffffffffffffffffffffff16815260200191505060405180910390f35b341561057e57600080fd5b610586610c75565b6040518082815260200191505060405180910390f35b34156105a757600080fd5b6105c1600480803560001916906020019091905050610c7e565b604051808681526020018581526020018481526020018381526020018281526020019550505050505060405180910390f35b34156105fe57600080fd5b610606610d76565b6040518082815260200191505060405180910390f35b341561062757600080fd5b610641600480803560001916906020019091905050610d83565b6040518082815260200191505060405180910390f35b60008060008360001916600019168152602001908152602001600020549050919050565b6018610e100281565b600360009054906101000a900473ffffffffffffffffffffffffffffffffffffffff1681565b601e6018610e10020281565b60006106c061163b565b6106c983610d9b565b90508060600151915050919050565b600160009054906101000a900473ffffffffffffffffffffffffffffffffffffffff1681565b60076018610e10020281565b600061071461163b565b600460009054906101000a900473ffffffffffffffffffffffffffffffffffffffff1673ffffffffffffffffffffffffffffffffffffffff163373ffffffffffffffffffffffffffffffffffffffff1614151561077057600080fd5b61077987610d9b565b9050806000015173ffffffffffffffffffffffffffffffffffffffff168373ffffffffffffffffffffffffffffffffffffffff1614156108ea576107e0846000808a600019166000191681526020019081526020016000205461110590919063ffffffff16565b6000808960001916600019168152602001908152602001600020819055507ff1a888d220228f843ac3044ef257c80642e6434d1ddc7ebee0a2813cced3406c87878787876040518086600019166000191681526020018573ffffffffffffffffffffffffffffffffffffffff1673ffffffffffffffffffffffffffffffffffffffff1681526020018473ffffffffffffffffffffffffffffffffffffffff1673ffffffffffffffffffffffffffffffffffffffff1681526020018381526020018273ffffffffffffffffffffffffffffffffffffffff1673ffffffffffffffffffffffffffffffffffffffff1681526020019550505050505060405180910390a1600191506108ef565b600091505b5095945050505050565b610e1081565b600460009054906101000a900473ffffffffffffffffffffffffffffffffffffffff1681565b600560009054906101000a900473ffffffffffffffffffffffffffffffffffffffff1681565b600581565b61271081565b6000806000600360009054906101000a900473ffffffffffffffffffffffffffffffffffffffff1673ffffffffffffffffffffffffffffffffffffffff163373ffffffffffffffffffffffffffffffffffffffff161415156109b757600080fd5b6109c18585611123565b9150600560009054906101000a900473ffffffffffffffffffffffffffffffffffffffff1673ffffffffffffffffffffffffffffffffffffffff1663649404bd86866000604051602001526040518363ffffffff167c01000000000000000000000000000000000000000000000000000000000281526004018083600019166000191681526020018273ffffffffffffffffffffffffffffffffffffffff1673ffffffffffffffffffffffffffffffffffffffff16815260200192505050602060405180830381600087803b1515610a9857600080fd5b6102c65a03f11515610aa957600080fd5b505050604051805190509050818015610abf5750805b9250505092915050565b6000610ad361163b565b60008085600160009054906101000a900473ffffffffffffffffffffffffffffffffffffffff1673ffffffffffffffffffffffffffffffffffffffff1663f6f494c9826000604051602001526040518263ffffffff167c0100000000000000000000000000000000000000000000000000000000028152600401808260001916600019168152602001915050602060405180830381600087803b1515610b7857600080fd5b6102c65a03f11515610b8957600080fd5b5050506040518051905073ffffffffffffffffffffffffffffffffffffffff163073ffffffffffffffffffffffffffffffffffffffff16141515610bcc57600080fd5b610bd587610d9b565b9350610be084611422565b9250836040015186111515610bf85760009450610c45565b836060015186101515610c0d57829450610c45565b610c178685611478565b9150610c428460a00151610c3484866114c290919063ffffffff16565b6114fd90919063ffffffff16565b94505b5050505092915050565b600260009054906101000a900473ffffffffffffffffffffffffffffffffffffffff1681565b60646127100281565b6000806000806000806000806000807fff000000000000000000000000000000000000000000000000000000000000006001028b1694507effffffffffffffffffffffff000000000000000000000000000000000000006001028b16935072ffffff000000000000000000000000000000006001028b1692506ff00000000000000000000000000000006001028b1691506f0ffff0000000000000000000000000006001028b169050610d328560f8611518565b610d3d856098611518565b610d48856080611518565b610d5385607c611518565b610d5e85606c611518565b99509950995099509950505050505091939590929450565b61016d6018610e10020281565b60006020528060005260406000206000915090505481565b610da361163b565b600080600080600080600080600080600080600160009054906101000a900473ffffffffffffffffffffffffffffffffffffffff1673ffffffffffffffffffffffffffffffffffffffff1663314a522e8f6000604051602001526040518263ffffffff167c0100000000000000000000000000000000000000000000000000000000028152600401808260001916600019168152602001915050602060405180830381600087803b1515610e5657600080fd5b6102c65a03f11515610e6757600080fd5b505050604051805190509b50610e7c8c610c7e565b809b50819c50829d50839e50849f505050505050600260009054906101000a900473ffffffffffffffffffffffffffffffffffffffff1673ffffffffffffffffffffffffffffffffffffffff16635715c5b78c6000604051602001526040518263ffffffff167c010000000000000000000000000000000000000000000000000000000002815260040180828152602001915050602060405180830381600087803b1515610f2957600080fd5b6102c65a03f11515610f3a57600080fd5b505050604051805190509550600073ffffffffffffffffffffffffffffffffffffffff168673ffffffffffffffffffffffffffffffffffffffff1614151515610f8257600080fd5b600480811115610f8e57fe5b8811151515610f9c57600080fd5b876004811115610fa857fe5b9450610fb385611535565b9350600160009054906101000a900473ffffffffffffffffffffffffffffffffffffffff1673ffffffffffffffffffffffffffffffffffffffff1663d69dbf638f6000604051602001526040518263ffffffff167c0100000000000000000000000000000000000000000000000000000000028152600401808260001916600019168152602001915050602060405180830381600087803b151561105657600080fd5b6102c65a03f1151561106757600080fd5b50505060405180519050925061108684886114c290919063ffffffff16565b915061109b838361110590919063ffffffff16565b905060e0604051908101604052808773ffffffffffffffffffffffffffffffffffffffff1681526020018b81526020018481526020018281526020018660048111156110e357fe5b81526020018881526020018a8152509c50505050505050505050505050919050565b600080828401905083811015151561111957fe5b8091505092915050565b6000806000806000806000806000600360009054906101000a900473ffffffffffffffffffffffffffffffffffffffff1673ffffffffffffffffffffffffffffffffffffffff163373ffffffffffffffffffffffffffffffffffffffff1614151561118d57600080fd5b600160009054906101000a900473ffffffffffffffffffffffffffffffffffffffff1673ffffffffffffffffffffffffffffffffffffffff16636be39bda8c6000604051604001526040518263ffffffff167c01000000000000000000000000000000000000000000000000000000000281526004018082600019166000191681526020019150506040805180830381600087803b151561122d57600080fd5b6102c65a03f1151561123e57600080fd5b50505060405180519060200180519050809850819950505061125f87610c7e565b809650819750829850839950849a505050505050600260009054906101000a900473ffffffffffffffffffffffffffffffffffffffff1673ffffffffffffffffffffffffffffffffffffffff16635715c5b7876000604051602001526040518263ffffffff167c010000000000000000000000000000000000000000000000000000000002815260040180828152602001915050602060405180830381600087803b151561130c57600080fd5b6102c65a03f1151561131d57600080fd5b505050604051805190509050600073ffffffffffffffffffffffffffffffffffffffff168173ffffffffffffffffffffffffffffffffffffffff16141580156113665750600583105b801561139d57503073ffffffffffffffffffffffffffffffffffffffff168873ffffffffffffffffffffffffffffffffffffffff16145b1561140f57828173ffffffffffffffffffffffffffffffffffffffff168c600019167f2c500aaec6833a053693d8c2a18a3ed5649a4609699abaf7778c3d389cc40c0588888760405180848152602001838152602001828152602001935050505060405180910390a460019850611414565b600098505b505050505050505092915050565b6000806114576064612710026114498560c0015186602001516114c290919063ffffffff16565b6114fd90919063ffffffff16565b905061147081846020015161110590919063ffffffff16565b915050919050565b600080600061149484604001518661162290919063ffffffff16565b91506114a38460800151611535565b90506114b881836114fd90919063ffffffff16565b9250505092915050565b60008060008414156114d757600091506114f6565b82840290508284828115156114e857fe5b041415156114f257fe5b8091505b5092915050565b600080828481151561150b57fe5b0490508091505092915050565b60008160020a836001900481151561152c57fe5b04905092915050565b600080600481111561154357fe5b82600481111561154f57fe5b141561155f57610e10905061161d565b6001600481111561156c57fe5b82600481111561157857fe5b141561158b576018610e1002905061161d565b6002600481111561159857fe5b8260048111156115a457fe5b14156115ba5760076018610e100202905061161d565b600360048111156115c757fe5b8260048111156115d357fe5b14156115e957601e6018610e100202905061161d565b6004808111156115f557fe5b82600481111561160157fe5b14156116185761016d6018610e100202905061161d565b600080fd5b919050565b600082821115151561163057fe5b818303905092915050565b60e060405190810160405280600073ffffffffffffffffffffffffffffffffffffffff1681526020016000815260200160008152602001600081526020016000600481111561168657fe5b8152602001600081526020016000815250905600a165627a7a7230582025c2f5994445bfc77bbdff8f9a9eecd41338425bb76b506b69330af4533bb63f0029",
  "source": "/*\n\n  Copyright 2017 Dharma Labs Inc.\n\n  Licensed under the Apache License, Version 2.0 (the \"License\");\n  you may not use this file except in compliance with the License.\n  You may obtain a copy of the License at\n\n    http://www.apache.org/licenses/LICENSE-2.0\n\n  Unless required by applicable law or agreed to in writing, software\n  distributed under the License is distributed on an \"AS IS\" BASIS,\n  WITHOUT WARRANTIES OR CONDITIONS OF ANY KIND, either express or implied.\n  See the License for the specific language governing permissions and\n  limitations under the License.\n\n*/\n\npragma solidity 0.4.18;\n\nimport \"../Collateralizer.sol\";\nimport \"./SimpleInterestTermsContract.sol\";\n\n\n/**\n * Example collateralized terms contract for usage in simple interest debt agreements\n *\n * Authors: nadavhollander, saturnial, jdkanani, graemecode\n */\ncontract CollateralizedSimpleInterestTermsContract is SimpleInterestTermsContract {\n    // The contract that handles asset collateralization.\n    Collateralizer public collateralizer;\n\n    function CollateralizedSimpleInterestTermsContract(\n        address _debtKernel,\n        address _debtRegistry,\n        address _tokenRegistry,\n        address _repaymentRouter,\n        address _collateralizer\n    ) public SimpleInterestTermsContract(_debtKernel, _debtRegistry, _tokenRegistry, _repaymentRouter)\n    {\n        collateralizer = Collateralizer(_collateralizer);\n    }\n\n    function registerTermStart(\n        bytes32 agreementId,\n        address debtor\n    )\n        public\n        onlyDebtKernel\n        returns (bool _success)\n    {\n        bool registered = super.registerTermStart(agreementId, debtor);\n        bool collateralized = collateralizer.collateralize(agreementId, debtor);\n\n        return registered && collateralized;\n    }\n\n    function getTermEndTimestamp(\n        bytes32 _agreementId\n    )\n        public\n        view\n        returns (uint)\n    {\n        SimpleInterestParams memory params = unpackParamsForAgreementID(_agreementId);\n\n        return params.termEndUnixTimestamp;\n    }\n}\n",
  "sourcePath": "/Users/nadavhollander/Documents/Dharma/Development/charta/contracts/examples/CollateralizedSimpleInterestTermsContract.sol",
  "compiler": {
    "name": "solc",
    "version": "0.4.18+commit.9cf6e910.Emscripten.clang"
  },
  "schemaVersion": "1.0.1",
  "updatedAt": "2018-04-25T07:10:36.582Z"
}