{
  "contractName": "CompoundInterestTermsContract",
  "abi": [
    {
      "constant": true,
      "inputs": [
        {
          "name": "agreementId",
          "type": "bytes32"
        }
      ],
      "name": "getValueRepaidToDate",
      "outputs": [
        {
          "name": "_valueRepaid",
          "type": "uint256"
        }
      ],
      "payable": false,
      "stateMutability": "view",
      "type": "function"
    },
    {
      "constant": true,
      "inputs": [],
      "name": "DAY_LENGTH_IN_SECONDS",
      "outputs": [
        {
          "name": "",
          "type": "uint256"
        }
      ],
      "payable": false,
      "stateMutability": "view",
      "type": "function"
    },
    {
      "constant": true,
      "inputs": [],
      "name": "debtKernel",
      "outputs": [
        {
          "name": "",
          "type": "address"
        }
      ],
      "payable": false,
      "stateMutability": "view",
      "type": "function"
    },
    {
      "constant": true,
      "inputs": [],
      "name": "MONTH_LENGTH_IN_SECONDS",
      "outputs": [
        {
          "name": "",
          "type": "uint256"
        }
      ],
      "payable": false,
      "stateMutability": "view",
      "type": "function"
    },
    {
      "constant": false,
      "inputs": [
        {
          "name": "agreementId",
          "type": "bytes32"
        }
      ],
      "name": "registerTermStart",
      "outputs": [
        {
          "name": "_success",
          "type": "bool"
        }
      ],
      "payable": false,
      "stateMutability": "nonpayable",
      "type": "function"
    },
    {
      "constant": true,
      "inputs": [],
      "name": "debtRegistry",
      "outputs": [
        {
          "name": "",
          "type": "address"
        }
      ],
      "payable": false,
      "stateMutability": "view",
      "type": "function"
    },
    {
      "constant": true,
      "inputs": [],
      "name": "WEEK_LENGTH_IN_SECONDS",
      "outputs": [
        {
          "name": "",
          "type": "uint256"
        }
      ],
      "payable": false,
      "stateMutability": "view",
      "type": "function"
    },
    {
      "constant": false,
      "inputs": [
        {
          "name": "agreementId",
          "type": "bytes32"
        },
        {
          "name": "payer",
          "type": "address"
        },
        {
          "name": "beneficiary",
          "type": "address"
        },
        {
          "name": "unitsOfRepayment",
          "type": "uint256"
        },
        {
          "name": "tokenAddress",
          "type": "address"
        }
      ],
      "name": "registerRepayment",
      "outputs": [
        {
          "name": "_success",
          "type": "bool"
        }
      ],
      "payable": false,
      "stateMutability": "nonpayable",
      "type": "function"
    },
    {
      "constant": true,
      "inputs": [],
      "name": "INTEREST_RATE_DECIMALS",
      "outputs": [
        {
          "name": "",
          "type": "uint256"
        }
      ],
      "payable": false,
      "stateMutability": "view",
      "type": "function"
    },
    {
      "constant": true,
      "inputs": [],
      "name": "HOUR_LENGTH_IN_SECONDS",
      "outputs": [
        {
          "name": "",
          "type": "uint256"
        }
      ],
      "payable": false,
      "stateMutability": "view",
      "type": "function"
    },
    {
      "constant": true,
      "inputs": [],
      "name": "repaymentRouter",
      "outputs": [
        {
          "name": "",
          "type": "address"
        }
      ],
      "payable": false,
      "stateMutability": "view",
      "type": "function"
    },
    {
      "constant": true,
      "inputs": [
        {
          "name": "agreementId",
          "type": "bytes32"
        },
        {
          "name": "timestamp",
          "type": "uint256"
        }
      ],
      "name": "getExpectedRepaymentValue",
      "outputs": [
        {
          "name": "_expectedRepaymentValue",
          "type": "uint256"
        }
      ],
      "payable": false,
      "stateMutability": "view",
      "type": "function"
    },
    {
      "constant": true,
      "inputs": [],
      "name": "repaymentToken",
      "outputs": [
        {
          "name": "",
          "type": "address"
        }
      ],
      "payable": false,
      "stateMutability": "view",
      "type": "function"
    },
    {
      "constant": true,
      "inputs": [
        {
          "name": "parameters",
          "type": "bytes32"
        }
      ],
      "name": "unpackParametersFromBytes",
      "outputs": [
        {
          "name": "_principal",
          "type": "uint128"
        },
        {
          "name": "_interestRate",
          "type": "uint64"
        },
        {
          "name": "_amortizationUnitType",
          "type": "uint8"
        },
        {
          "name": "_termLengthInAmortizationUnits",
          "type": "uint56"
        }
      ],
      "payable": false,
      "stateMutability": "pure",
      "type": "function"
    },
    {
      "constant": true,
      "inputs": [],
      "name": "YEAR_LENGTH_IN_SECONDS",
      "outputs": [
        {
          "name": "",
          "type": "uint256"
        }
      ],
      "payable": false,
      "stateMutability": "view",
      "type": "function"
    },
    {
      "constant": true,
      "inputs": [
        {
          "name": "",
          "type": "bytes32"
        }
      ],
      "name": "valueRepaid",
      "outputs": [
        {
          "name": "",
          "type": "uint256"
        }
      ],
      "payable": false,
      "stateMutability": "view",
      "type": "function"
    },
    {
      "inputs": [
        {
          "name": "_debtRegistry",
          "type": "address"
        },
        {
          "name": "_debtKernel",
          "type": "address"
        },
        {
          "name": "_repaymentToken",
          "type": "address"
        },
        {
          "name": "_repaymentRouter",
          "type": "address"
        }
      ],
      "payable": false,
      "stateMutability": "nonpayable",
      "type": "constructor"
    }
  ],
  "bytecode": "0x6060604052341561000f57600080fd5b6040516080806111db8339810160405280805190602001909190805190602001909190805190602001909190805190602001909190505083600160006101000a81548173ffffffffffffffffffffffffffffffffffffffff021916908373ffffffffffffffffffffffffffffffffffffffff16021790555082600260006101000a81548173ffffffffffffffffffffffffffffffffffffffff021916908373ffffffffffffffffffffffffffffffffffffffff16021790555081600360006101000a81548173ffffffffffffffffffffffffffffffffffffffff021916908373ffffffffffffffffffffffffffffffffffffffff16021790555080600460006101000a81548173ffffffffffffffffffffffffffffffffffffffff021916908373ffffffffffffffffffffffffffffffffffffffff1602179055505050505061107e8061015d6000396000f3006060604052600436106100e6576000357c0100000000000000000000000000000000000000000000000000000000900463ffffffff16806303a896a1146100eb5780630776298214610126578063079dd4b71461014f57806320863894146101a4578063282b3405146101cd5780632f866f731461020c57806340018a0d146102615780635f0280ba1461028a57806366234ffa1461032f5780636f69c96f146103585780636fa9d0561461038157806399114d84146103d6578063d6939ce01461041a578063ed8907d71461046f578063fd127a411461050f578063fd40d52e14610538575b600080fd5b34156100f657600080fd5b610110600480803560001916906020019091905050610573565b6040518082815260200191505060405180910390f35b341561013157600080fd5b610139610597565b6040518082815260200191505060405180910390f35b341561015a57600080fd5b6101626105a0565b604051808273ffffffffffffffffffffffffffffffffffffffff1673ffffffffffffffffffffffffffffffffffffffff16815260200191505060405180910390f35b34156101af57600080fd5b6101b76105c6565b6040518082815260200191505060405180910390f35b34156101d857600080fd5b6101f26004808035600019169060200190919050506105d2565b604051808215151515815260200191505060405180910390f35b341561021757600080fd5b61021f610721565b604051808273ffffffffffffffffffffffffffffffffffffffff1673ffffffffffffffffffffffffffffffffffffffff16815260200191505060405180910390f35b341561026c57600080fd5b610274610747565b6040518082815260200191505060405180910390f35b341561029557600080fd5b61031560048080356000191690602001909190803573ffffffffffffffffffffffffffffffffffffffff1690602001909190803573ffffffffffffffffffffffffffffffffffffffff1690602001909190803590602001909190803573ffffffffffffffffffffffffffffffffffffffff16906020019091905050610753565b604051808215151515815260200191505060405180910390f35b341561033a57600080fd5b610342610869565b6040518082815260200191505060405180910390f35b341561036357600080fd5b61036b61086e565b6040518082815260200191505060405180910390f35b341561038c57600080fd5b610394610874565b604051808273ffffffffffffffffffffffffffffffffffffffff1673ffffffffffffffffffffffffffffffffffffffff16815260200191505060405180910390f35b34156103e157600080fd5b61040460048080356000191690602001909190803590602001909190505061089a565b6040518082815260200191505060405180910390f35b341561042557600080fd5b61042d610a0e565b604051808273ffffffffffffffffffffffffffffffffffffffff1673ffffffffffffffffffffffffffffffffffffffff16815260200191505060405180910390f35b341561047a57600080fd5b610494600480803560001916906020019091905050610a34565b60405180856fffffffffffffffffffffffffffffffff166fffffffffffffffffffffffffffffffff1681526020018467ffffffffffffffff1667ffffffffffffffff1681526020018360ff1660ff1681526020018266ffffffffffffff1666ffffffffffffff16815260200194505050505060405180910390f35b341561051a57600080fd5b610522610b1a565b6040518082815260200191505060405180910390f35b341561054357600080fd5b61055d600480803560001916906020019091905050610b27565b6040518082815260200191505060405180910390f35b60008060008360001916600019168152602001908152602001600020549050919050565b6018610e100281565b600260009054906101000a900473ffffffffffffffffffffffffffffffffffffffff1681565b601e6018610e10020281565b6000600260009054906101000a900473ffffffffffffffffffffffffffffffffffffffff1673ffffffffffffffffffffffffffffffffffffffff163373ffffffffffffffffffffffffffffffffffffffff1614151561063057600080fd5b3073ffffffffffffffffffffffffffffffffffffffff16600160009054906101000a900473ffffffffffffffffffffffffffffffffffffffff1673ffffffffffffffffffffffffffffffffffffffff1663f6f494c9846000604051602001526040518263ffffffff167c0100000000000000000000000000000000000000000000000000000000028152600401808260001916600019168152602001915050602060405180830381600087803b15156106e857600080fd5b6102c65a03f115156106f957600080fd5b5050506040518051905073ffffffffffffffffffffffffffffffffffffffff16149050919050565b600160009054906101000a900473ffffffffffffffffffffffffffffffffffffffff1681565b60076018610e10020281565b6000600460009054906101000a900473ffffffffffffffffffffffffffffffffffffffff1673ffffffffffffffffffffffffffffffffffffffff163373ffffffffffffffffffffffffffffffffffffffff161415156107b157600080fd5b600360009054906101000a900473ffffffffffffffffffffffffffffffffffffffff1673ffffffffffffffffffffffffffffffffffffffff168273ffffffffffffffffffffffffffffffffffffffff16141561085b5761083483600080896000191660001916815260200190815260200160002054610b3f90919063ffffffff16565b60008088600019166000191681526020019081526020016000208190555060019050610860565b600090505b95945050505050565b600981565b610e1081565b600460009054906101000a900473ffffffffffffffffffffffffffffffffffffffff1681565b60006108a4611010565b600084600160009054906101000a900473ffffffffffffffffffffffffffffffffffffffff1673ffffffffffffffffffffffffffffffffffffffff1663f6f494c9826000604051602001526040518263ffffffff167c0100000000000000000000000000000000000000000000000000000000028152600401808260001916600019168152602001915050602060405180830381600087803b151561094857600080fd5b6102c65a03f1151561095957600080fd5b5050506040518051905073ffffffffffffffffffffffffffffffffffffffff163073ffffffffffffffffffffffffffffffffffffffff1614151561099c57600080fd5b6109a586610b5d565b92506109b18584610de4565b915060008214156109c55760009350610a05565b8260a001518211156109ef576109e8836000015184602001518560a00151610e45565b9350610a05565b610a028360000151846020015184610e45565b93505b50505092915050565b600360009054906101000a900473ffffffffffffffffffffffffffffffffffffffff1681565b60008060008060008060008060008060007fffffffffffffffffffffffffffffffff000000000000000000000000000000006001028c1696506fffffffffffffffff00000000000000006001028c16955067ff000000000000006001028c1694507001000000000000000000000000000000008760019004811515610ab557fe5b049350680100000000000000008660019004811515610ad057fe5b0492506701000000000000008560019004811515610aea57fe5b04915066ffffffffffffff6001028c16905083838383600190049a509a509a509a50505050505050509193509193565b61016d6018610e10020281565b60006020528060005260406000206000915090505481565b6000808284019050838110151515610b5357fe5b8091505092915050565b610b65611010565b600080600080600080600080600080600160009054906101000a900473ffffffffffffffffffffffffffffffffffffffff1673ffffffffffffffffffffffffffffffffffffffff1663314a522e8d6000604051602001526040518263ffffffff167c0100000000000000000000000000000000000000000000000000000000028152600401808260001916600019168152602001915050602060405180830381600087803b1515610c1557600080fd5b6102c65a03f11515610c2657600080fd5b505050604051805190509950610c3b8a610a34565b836fffffffffffffffffffffffffffffffff1693508267ffffffffffffffff1692508160ff1691508066ffffffffffffff169050809950819a50829b50839c5050505050600480811115610c8b57fe5b8711151515610c9957600080fd5b866004811115610ca557fe5b9450610cb085610e81565b9350600160009054906101000a900473ffffffffffffffffffffffffffffffffffffffff1673ffffffffffffffffffffffffffffffffffffffff1663d69dbf638d6000604051602001526040518263ffffffff167c0100000000000000000000000000000000000000000000000000000000028152600401808260001916600019168152602001915050602060405180830381600087803b1515610d5357600080fd5b6102c65a03f11515610d6457600080fd5b505050604051805190509250610d838487610f6e90919063ffffffff16565b9150610d988383610b3f90919063ffffffff16565b905060c0604051908101604052808a8152602001898152602001848152602001828152602001866004811115610dca57fe5b8152602001878152509a5050505050505050505050919050565b6000806000836040015185111515610dff5760009250610e3d565b610e16846040015186610fa990919063ffffffff16565b9150610e258460800151610e81565b9050610e3a8183610fc290919063ffffffff16565b92505b505092915050565b6000806000610e5385610fdd565b9150610e6a84830a87610f6e90919063ffffffff16565b9050610e768185610fed565b925050509392505050565b6000806004811115610e8f57fe5b826004811115610e9b57fe5b1415610eab57610e109050610f69565b60016004811115610eb857fe5b826004811115610ec457fe5b1415610ed7576018610e10029050610f69565b60026004811115610ee457fe5b826004811115610ef057fe5b1415610f065760076018610e1002029050610f69565b60036004811115610f1357fe5b826004811115610f1f57fe5b1415610f3557601e6018610e1002029050610f69565b600480811115610f4157fe5b826004811115610f4d57fe5b1415610f645761016d6018610e1002029050610f69565b600080fd5b919050565b6000806000841415610f835760009150610fa2565b8284029050828482811515610f9457fe5b04141515610f9e57fe5b8091505b5092915050565b6000828211151515610fb757fe5b818303905092915050565b6000808284811515610fd057fe5b0490508091505092915050565b60006009600a0a82019050919050565b600061100882600902600a0a84610fc290919063ffffffff16565b905092915050565b60c060405190810160405280600081526020016000815260200160008152602001600081526020016000600481111561104557fe5b81526020016000815250905600a165627a7a72305820af82b66f924d2ee16c80ac8bf2c62965b1b2e326cb2d35f34204681421dcea500029",
  "source": "/*\n\n  Copyright 2017 Dharma Labs Inc.\n\n  Licensed under the Apache License, Version 2.0 (the \"License\");\n  you may not use this file except in compliance with the License.\n  You may obtain a copy of the License at\n\n    http://www.apache.org/licenses/LICENSE-2.0\n\n  Unless required by applicable law or agreed to in writing, software\n  distributed under the License is distributed on an \"AS IS\" BASIS,\n  WITHOUT WARRANTIES OR CONDITIONS OF ANY KIND, either express or implied.\n  See the License for the specific language governing permissions and\n  limitations under the License.\n\n*/\n\npragma solidity 0.4.18;\n\nimport \"zeppelin-solidity/contracts/math/SafeMath.sol\";\nimport \"../DebtRegistry.sol\";\nimport \"../TermsContract.sol\";\n\n\n/**\n * TODO: Address known issue: given that Solidity must use integers to compute\n *  compound interest functions, we require interestRates passed into\n *  the function have 9 decimals worth of precision.  This means that,\n *  with the following compound interest formula...\n *\n *      V = P(1+r)^t\n *\n *  Can be translated in solidity to...\n *\n *      V * 10^(9t) = P((1+r) * 10^9)^t\n *\n *  Meaning we compute the expected repayment value with ....\n *\n *      V = P((1+r) * 10^9)^t / 10^(9t)\n *\n *  This is all well and good, but there are scenarios in which\n *  the intermediate value V * 10^(9t) overflows a 256-bit unsigned\n *  integer.\n *\n *  Seeking guidance from security auditors for best practices\n *  in emulating fraction exponentiation in Solidity.\n *\n *  ==== ==== ==== ==== ==== ==== ==== ==== ==== ==== ==== ====\n *\n * Example terms contract for issuing debt agreements with compounding interest rates.\n *\n * The compound interest rate formula we're leveraging is\n *  V = P(1 + r/n)^(tn)\n *\n * Given that we assume n = 1 (i.e. compounding happens\n *  once per amortization interval), we can reduce the\n *  formula to\n *  V = P(1 + r)^t\n *\n * Thus, for simplification, we assign the following\n * terms:\n *\n * V := expectedRepaymentValue\n * P := principal\n * (1 + r) := interestRateBase\n * t := termLengthInAmortizationUnits\n *\n */\ncontract CompoundInterestTermsContract is TermsContract {\n    using SafeMath for uint;\n\n    uint public constant INTEREST_RATE_DECIMALS = 9;\n\n    enum AmortizationUnitType { HOURS, DAYS, WEEKS, MONTHS, YEARS }\n\n    struct CompoundInterestParams {\n        uint principal;\n        uint interestRate;\n        uint termStartUnixTimestamp;\n        uint termEndUnixTimestamp;\n        AmortizationUnitType amortizationUnitType;\n        uint termLengthInAmortizationUnits;\n    }\n\n    uint public constant HOUR_LENGTH_IN_SECONDS = 60 * 60;\n    uint public constant DAY_LENGTH_IN_SECONDS = HOUR_LENGTH_IN_SECONDS * 24;\n    uint public constant WEEK_LENGTH_IN_SECONDS = DAY_LENGTH_IN_SECONDS * 7;\n    uint public constant MONTH_LENGTH_IN_SECONDS = DAY_LENGTH_IN_SECONDS * 30;\n    uint public constant YEAR_LENGTH_IN_SECONDS = DAY_LENGTH_IN_SECONDS * 365;\n\n    mapping (bytes32 => uint) public valueRepaid;\n\n    DebtRegistry public debtRegistry;\n\n    address public debtKernel;\n    address public repaymentToken;\n    address public repaymentRouter;\n\n    modifier onlyRouter() {\n        require(msg.sender == repaymentRouter);\n        _;\n    }\n\n    modifier onlyDebtKernel() {\n        require(msg.sender == debtKernel);\n        _;\n    }\n\n    modifier onlyMappedToThisContract(bytes32 agreementId) {\n        require(address(this) == debtRegistry.getTermsContract(agreementId));\n        _;\n    }\n\n    ////////////////////////\n    // EXTERNAL FUNCTIONS //\n    ////////////////////////\n\n    function CompoundInterestTermsContract(\n        address _debtRegistry,\n        address _debtKernel,\n        address _repaymentToken,\n        address _repaymentRouter\n    )\n        public\n    {\n        debtRegistry = DebtRegistry(_debtRegistry);\n\n        debtKernel = _debtKernel;\n        repaymentToken = _repaymentToken;\n        repaymentRouter = _repaymentRouter;\n    }\n\n    /// When called, the registerTermStart function registers the fact that\n    ///    the debt agreement has begun.  Given that the CompoundInterestTermsContract\n    ///    doesn't rely on taking any sorts of actions when the loan term begins,\n    ///    we simply validate DebtKernel is the transaction sender, and return\n    ///    `true` if the debt agreement is associated with this terms contract.\n    /// @param  agreementId bytes32. The agreement id (issuance hash) of the debt agreement to which this pertains.\n    /// @return _success bool. Acknowledgment of whether\n    function registerTermStart(\n        bytes32 agreementId\n    )\n        public\n        onlyDebtKernel\n        returns (bool _success)\n    {\n        return debtRegistry.getTermsContract(agreementId) == address(this);\n    }\n\n\n     /// When called, the registerRepayment function records the debtor's\n     ///  repayment, as well as any auxiliary metadata needed by the contract\n     ///  to determine ex post facto the value repaid (e.g. current USD\n     ///  exchange rate)\n     /// @param  agreementId bytes32. The agreement id (issuance hash) of the debt agreement to which this pertains.\n     /// @param  payer address. The address of the payer.\n     /// @param  beneficiary address. The address of the payment's beneficiary.\n     /// @param  unitsOfRepayment uint. The units-of-value repaid in the transaction.\n     /// @param  tokenAddress address. The address of the token with which the repayment transaction was executed.\n    function registerRepayment(\n        bytes32 agreementId,\n        address payer,\n        address beneficiary,\n        uint256 unitsOfRepayment,\n        address tokenAddress\n    )\n        public\n        onlyRouter\n        returns (bool _success)\n    {\n        if (tokenAddress == repaymentToken) {\n            valueRepaid[agreementId] = valueRepaid[agreementId].add(unitsOfRepayment);\n            return true;\n        }\n\n        return false;\n    }\n\n     /// Returns the cumulative units-of-value expected to be repaid given a block's timestamp.\n     ///  Note this is not a constant function -- this value can vary on basis of any number of\n     ///  conditions (e.g. interest rates can be renegotiated if repayments are delinquent).\n     /// @param  agreementId bytes32. The agreement id (issuance hash) of the debt agreement to which this pertains.\n     /// @param  timestamp uint. The timestamp for which repayment expectation is being queried.\n     /// @return uint256 The cumulative units-of-value expected to be repaid given a block's timestamp.\n    function getExpectedRepaymentValue(\n        bytes32 agreementId,\n        uint256 timestamp\n    )\n        public\n        view\n        onlyMappedToThisContract(agreementId)\n        returns (uint _expectedRepaymentValue)\n    {\n        CompoundInterestParams memory params = unpackParamsForAgreementID(agreementId);\n\n        uint numUnits = numAmortizationUnitsForTimestamp(timestamp, params);\n\n        if (numUnits == 0) {\n            /* The query occurs before the contract was even initialized so the\n            expected value of repayments is 0. */\n            return 0;\n        } else if (numUnits > params.termLengthInAmortizationUnits) {\n            /* the query occurs beyond the contract's term, so the expected\n            value of repayment is the full principal plus interest. */\n            return calculateCompoundInterestExpectedValue(\n                params.principal,\n                params.interestRate,\n                params.termLengthInAmortizationUnits\n            );\n        } else {\n            return calculateCompoundInterestExpectedValue(\n                params.principal,\n                params.interestRate,\n                numUnits\n            );\n        }\n    }\n\n    /// Returns the cumulative units-of-value repaid to date.\n    /// @param agreementId bytes32. The agreement id (issuance hash) of the debt agreement to which this pertains.\n    /// @return uint256 The cumulative units-of-value repaid by the specified block timestamp.\n    function getValueRepaidToDate(bytes32 agreementId)\n        public\n        view\n        returns (uint _valueRepaid)\n    {\n        return valueRepaid[agreementId];\n    }\n\n    /**\n     * Converts the 32-byte hex encoding of the given terms contract\n     * parameters into the principal, interest rate, amortization type,\n     * and term length of a CompoundInterestTermsContract parameterized\n     * by the given parameters.\n     *\n     * @param parameters bytes32 Hex-encoded 32-byte terms contract parameters.\n     * @return uint128 _principal The debt agreement principal amount.\n     * @return uint64 _interestRate The debt agreement's interest rate.\n     * @return uint8 _amortizationUnitType The debt agreement's amortization type.\n     * @return uint56 _termLengthInAmortizationUnits The debt agreement's term length\n     */\n    function unpackParametersFromBytes(bytes32 parameters)\n        public\n        pure\n        returns (\n            uint128 _principal,\n            uint64 _interestRate,\n            uint8 _amortizationUnitType,\n            uint56 _termLengthInAmortizationUnits\n        )\n    {\n        // The first 16 bytes of the parameters represent the principal\n        bytes32 principalShifted =\n            parameters & 0xffffffffffffffffffffffffffffffff00000000000000000000000000000000;\n        // The subsequent 8 bytes represent the interest rate (with 9 decimals of precision)\n        bytes32 interestRateShifted =\n            parameters & 0x00000000000000000000000000000000ffffffffffffffff0000000000000000;\n        // The subsequent byte represents the amortization unit type code\n        bytes32 amortizationUnitTypeShifted =\n            parameters & 0x000000000000000000000000000000000000000000000000ff00000000000000;\n\n\n        // We bit-shift these values, respectively, 16 bytes, 8 bytes, and 7 bytes right using\n        // mathematical operations, so that their 32 byte integer counterparts\n        // correspond to the intended values packed in the 32 byte string\n        uint principal = uint(principalShifted) / 2 ** 128;\n        uint interestRate = uint(interestRateShifted) / 2 ** 64;\n        uint amortizationUnitType = uint(amortizationUnitTypeShifted) / 2 ** 56;\n\n        // The last 7 bytes of the parameters represents the term length of the loan,\n        // as defined in terms of the specified amortization units.\n        // Since this value takes the rightmost place in the parameters string,\n        // we do not need to bit-shift it.\n        bytes32 termLengthInAmortizationUnits =\n            parameters & 0x00000000000000000000000000000000000000000000000000ffffffffffffff;\n\n        return (\n            uint128(principal),\n            uint64(interestRate),\n            uint8(amortizationUnitType),\n            uint56(termLengthInAmortizationUnits)\n        );\n    }\n\n    ////////////////////////\n    // INTERNAL FUNCTIONS //\n    ////////////////////////\n\n    /**\n     * Returns the number of amortization units that have\n     * elapsed between the term start timestamp\n     * specified in `params` and the given `timestamp`\n     *\n     * @param timestamp uint Unix timestamp for which we are querying elapsed amortization units\n     * @param params CompoundInterestParams Unpacked parameters of the debt agreemen\n     * @return uint Number of amortization units elapsed between term start and `timestamp`\n     */\n    function numAmortizationUnitsForTimestamp(\n        uint timestamp,\n        CompoundInterestParams params\n    )\n        internal\n        returns (uint units)\n    {\n        if (timestamp <= params.termStartUnixTimestamp) {\n            return 0;\n        }\n\n        uint delta = timestamp.sub(params.termStartUnixTimestamp);\n        uint amortizationUnitLengthInSeconds =\n            getAmortizationUnitLengthInSeconds(params.amortizationUnitType);\n        return delta.div(amortizationUnitLengthInSeconds);\n    }\n\n    /**\n     * Retrieves terms contract parameters associated\n     * with `agreementId` and unpacks the hex representation\n     * into a struct containing the the fields defined in\n     * the CompoundInterestParams struct\n     *\n     * @param agreementId bytes32 The debt agreement's issuance hash\n     * @return CompoundInterestParams _params\n     */\n    function unpackParamsForAgreementID(\n        bytes32 agreementId\n    )\n        internal\n        returns (CompoundInterestParams _params)\n    {\n        bytes32 parameters = debtRegistry.getTermsContractParameters(agreementId);\n\n        uint principal;\n        uint interestRate;\n        uint amortizationUnitTypeAsUint;\n        uint termLengthInAmortizationUnits;\n\n        (principal, interestRate, amortizationUnitTypeAsUint, termLengthInAmortizationUnits) =\n            unpackParametersFromBytes(parameters);\n\n        // Before we cast to `AmortizationUnitType`, ensure that the raw value being stored is valid.\n        require(amortizationUnitTypeAsUint <= uint(AmortizationUnitType.YEARS));\n\n        AmortizationUnitType amortizationUnitType = AmortizationUnitType(amortizationUnitTypeAsUint);\n\n        uint amortizationUnitLengthInSeconds = getAmortizationUnitLengthInSeconds(amortizationUnitType);\n        uint issuanceBlockTimestamp = debtRegistry.getIssuanceBlockTimestamp(agreementId);\n        uint termLengthInSeconds = termLengthInAmortizationUnits.mul(amortizationUnitLengthInSeconds);\n        uint termEndUnixTimestamp = termLengthInSeconds.add(issuanceBlockTimestamp);\n\n        return CompoundInterestParams({\n            principal: principal,\n            interestRate: interestRate,\n            termStartUnixTimestamp: issuanceBlockTimestamp,\n            termEndUnixTimestamp: termEndUnixTimestamp,\n            amortizationUnitType: amortizationUnitType,\n            termLengthInAmortizationUnits: termLengthInAmortizationUnits\n        });\n    }\n\n    /**\n     * Given a principal amount, interest rate (with 9 decimals of precision),\n     * and a number of amortization units, calculates\n     * the principal + total expected compound interest by time\n     * the specified number of amortization units has elapsed.\n     *\n     * @param principal uint The principal amount\n     * @param interestRate uint The interest rate, with 9 decimals of precision\n     * @param numAmortizationUnits uint The number of amortization units elapsed\n     * @return uint The sum of the principal and compounded interest rate.\n     */\n    function calculateCompoundInterestExpectedValue(\n        uint principal,\n        uint interestRate,\n        uint numAmortizationUnits\n    )\n        internal\n        pure\n        returns (uint _compoundInterestExpectedValue)\n    {\n        uint interestRateBase = toInterestRateBase(interestRate);\n        uint unnormalizedExpectedValue = principal.mul(\n            interestRateBase ** numAmortizationUnits\n        );\n\n        // When exponentiating a number with 9 decimals of precision in\n        // Solidity by a number N, our result ends up 10 ^ (9*N)\n        // overweighted.  Thus, we normalize the value down by a factor\n        // of 10 ^ (9*N)\n        return normalizeDecimalPlaces(unnormalizedExpectedValue, numAmortizationUnits);\n    }\n\n    /**\n     * Returns the interest rate incremented by 1\n     * (with 9 decimal precision), for usage in\n     * the compound interest formula.\n     *\n     * @param interestRate uint A given interest rate with 9 decimal precision\n     * @return uint Interest rate with 9 decimal precision incremented by 1\n     */\n    function toInterestRateBase(uint interestRate)\n        internal\n        pure\n        returns (uint _interestRateBase)\n    {\n        // Since interestRate has 9 decimals of precision, incrementing\n        // it by 1 is the equivalent of adding 10^9\n        return interestRate + 10 ** INTEREST_RATE_DECIMALS;\n    }\n\n\n    /**\n     * Divides the given value by 10^(9 * power).  This is necessary because,\n     * when we exponentiate a uint with 9 decimals of precision,\n     * solidity treats the 9 decimals of precision as significant digits > 1,\n     * and, therefore, this utility proves useful for scaling down\n     * the results of such mathematical operations.\n     *\n     * @param value uint The value we wish to normalize\n     * @param power uint The power by which we will exponentiate 10^9 in normalizing value\n     * @return uint Value divided by 10^(9*power)\n     */\n    function normalizeDecimalPlaces(uint value, uint power)\n        internal\n        pure\n        returns (uint _normalizedValues)\n    {\n        return value.div(10 ** (INTEREST_RATE_DECIMALS*power));\n    }\n\n    /**\n     * Given an amortization unit type, returns that amortization unit's\n     * length in seconds.\n     *\n     * @param amortizationUnitType The amortization unit type\n     * @return _amortizationUnitLengthInSeconds The length of the amortization unit in seconds.\n     */\n    function getAmortizationUnitLengthInSeconds(AmortizationUnitType amortizationUnitType)\n        internal\n        pure\n        returns (uint _amortizationUnitLengthInSeconds)\n    {\n        if (amortizationUnitType == AmortizationUnitType.HOURS) {\n            return HOUR_LENGTH_IN_SECONDS;\n        } else if (amortizationUnitType == AmortizationUnitType.DAYS) {\n            return DAY_LENGTH_IN_SECONDS;\n        } else if (amortizationUnitType == AmortizationUnitType.WEEKS) {\n            return WEEK_LENGTH_IN_SECONDS;\n        } else if (amortizationUnitType == AmortizationUnitType.MONTHS) {\n            return MONTH_LENGTH_IN_SECONDS;\n        } else if (amortizationUnitType == AmortizationUnitType.YEARS) {\n            return YEAR_LENGTH_IN_SECONDS;\n        } else {\n            revert();\n        }\n    }\n}\n",
  "sourcePath": "/Users/nadavhollander/Documents/Dharma/Development/charta/contracts/examples/CompoundInterestTermsContract.sol",
  "compiler": {
    "name": "solc",
    "version": "0.4.18+commit.9cf6e910.Emscripten.clang"
  },
  "schemaVersion": "1.0.1",
  "updatedAt": "2018-03-05T01:01:37.380Z"
}