{
  "contractName": "ContractRegistry",
  "abi": [
    {
      "constant": true,
      "inputs": [],
      "name": "debtKernel",
      "outputs": [
        {
          "name": "",
          "type": "address"
        }
      ],
      "payable": false,
      "stateMutability": "view",
      "type": "function"
    },
    {
      "constant": true,
      "inputs": [],
      "name": "tokenTransferProxy",
      "outputs": [
        {
          "name": "",
          "type": "address"
        }
      ],
      "payable": false,
      "stateMutability": "view",
      "type": "function"
    },
    {
      "constant": true,
      "inputs": [],
      "name": "debtRegistry",
      "outputs": [
        {
          "name": "",
          "type": "address"
        }
      ],
      "payable": false,
      "stateMutability": "view",
      "type": "function"
    },
    {
      "constant": true,
      "inputs": [],
      "name": "repaymentRouter",
      "outputs": [
        {
          "name": "",
          "type": "address"
        }
      ],
      "payable": false,
      "stateMutability": "view",
      "type": "function"
    },
    {
      "constant": true,
      "inputs": [],
      "name": "collateralizer",
      "outputs": [
        {
          "name": "",
          "type": "address"
        }
      ],
      "payable": false,
      "stateMutability": "view",
      "type": "function"
    },
    {
      "constant": true,
      "inputs": [],
      "name": "owner",
      "outputs": [
        {
          "name": "",
          "type": "address"
        }
      ],
      "payable": false,
      "stateMutability": "view",
      "type": "function"
    },
    {
      "constant": true,
      "inputs": [],
      "name": "tokenRegistry",
      "outputs": [
        {
          "name": "",
          "type": "address"
        }
      ],
      "payable": false,
      "stateMutability": "view",
      "type": "function"
    },
    {
      "constant": false,
      "inputs": [
        {
          "name": "contractType",
          "type": "uint8"
        },
        {
          "name": "newAddress",
          "type": "address"
        }
      ],
      "name": "updateAddress",
      "outputs": [],
      "payable": false,
      "stateMutability": "nonpayable",
      "type": "function"
    },
    {
      "constant": false,
      "inputs": [
        {
          "name": "newOwner",
          "type": "address"
        }
      ],
      "name": "transferOwnership",
      "outputs": [],
      "payable": false,
      "stateMutability": "nonpayable",
      "type": "function"
    },
    {
      "constant": true,
      "inputs": [],
      "name": "debtToken",
      "outputs": [
        {
          "name": "",
          "type": "address"
        }
      ],
      "payable": false,
      "stateMutability": "view",
      "type": "function"
    },
    {
      "inputs": [
        {
          "name": "_collateralizer",
          "type": "address"
        },
        {
          "name": "_debtKernel",
          "type": "address"
        },
        {
          "name": "_debtRegistry",
          "type": "address"
        },
        {
          "name": "_debtToken",
          "type": "address"
        },
        {
          "name": "_repaymentRouter",
          "type": "address"
        },
        {
          "name": "_tokenRegistry",
          "type": "address"
        },
        {
          "name": "_tokenTransferProxy",
          "type": "address"
        }
      ],
      "payable": false,
      "stateMutability": "nonpayable",
      "type": "constructor"
    },
    {
      "anonymous": false,
      "inputs": [
        {
          "indexed": true,
          "name": "contractType",
          "type": "uint8"
        },
        {
          "indexed": true,
          "name": "oldAddress",
          "type": "address"
        },
        {
          "indexed": true,
          "name": "newAddress",
          "type": "address"
        }
      ],
      "name": "ContractAddressUpdated",
      "type": "event"
    },
    {
      "anonymous": false,
      "inputs": [
        {
          "indexed": true,
          "name": "previousOwner",
          "type": "address"
        },
        {
          "indexed": true,
          "name": "newOwner",
          "type": "address"
        }
      ],
      "name": "OwnershipTransferred",
      "type": "event"
    }
  ],
  "bytecode": "0x6060604052341561000f57600080fd5b60405160e080610e5683398101604052808051906020019091908051906020019091908051906020019091908051906020019091908051906020019091908051906020019091908051906020019091905050336000806101000a81548173ffffffffffffffffffffffffffffffffffffffff021916908373ffffffffffffffffffffffffffffffffffffffff16021790555086600160006101000a81548173ffffffffffffffffffffffffffffffffffffffff021916908373ffffffffffffffffffffffffffffffffffffffff16021790555085600260006101000a81548173ffffffffffffffffffffffffffffffffffffffff021916908373ffffffffffffffffffffffffffffffffffffffff16021790555084600360006101000a81548173ffffffffffffffffffffffffffffffffffffffff021916908373ffffffffffffffffffffffffffffffffffffffff16021790555083600460006101000a81548173ffffffffffffffffffffffffffffffffffffffff021916908373ffffffffffffffffffffffffffffffffffffffff16021790555082600560006101000a81548173ffffffffffffffffffffffffffffffffffffffff021916908373ffffffffffffffffffffffffffffffffffffffff16021790555081600660006101000a81548173ffffffffffffffffffffffffffffffffffffffff021916908373ffffffffffffffffffffffffffffffffffffffff16021790555080600760006101000a81548173ffffffffffffffffffffffffffffffffffffffff021916908373ffffffffffffffffffffffffffffffffffffffff16021790555050505050505050610bd88061027e6000396000f3006060604052600436106100a4576000357c0100000000000000000000000000000000000000000000000000000000900463ffffffff168063079dd4b7146100a95780630eefdbad146100fe5780632f866f73146101535780636fa9d056146101a8578063869f0511146101fd5780638da5cb5b146102525780639d23c4c7146102a7578063e2aa46bb146102fc578063f2fde38b14610341578063f8d898981461037a575b600080fd5b34156100b457600080fd5b6100bc6103cf565b604051808273ffffffffffffffffffffffffffffffffffffffff1673ffffffffffffffffffffffffffffffffffffffff16815260200191505060405180910390f35b341561010957600080fd5b6101116103f5565b604051808273ffffffffffffffffffffffffffffffffffffffff1673ffffffffffffffffffffffffffffffffffffffff16815260200191505060405180910390f35b341561015e57600080fd5b61016661041b565b604051808273ffffffffffffffffffffffffffffffffffffffff1673ffffffffffffffffffffffffffffffffffffffff16815260200191505060405180910390f35b34156101b357600080fd5b6101bb610441565b604051808273ffffffffffffffffffffffffffffffffffffffff1673ffffffffffffffffffffffffffffffffffffffff16815260200191505060405180910390f35b341561020857600080fd5b610210610467565b604051808273ffffffffffffffffffffffffffffffffffffffff1673ffffffffffffffffffffffffffffffffffffffff16815260200191505060405180910390f35b341561025d57600080fd5b61026561048d565b604051808273ffffffffffffffffffffffffffffffffffffffff1673ffffffffffffffffffffffffffffffffffffffff16815260200191505060405180910390f35b34156102b257600080fd5b6102ba6104b2565b604051808273ffffffffffffffffffffffffffffffffffffffff1673ffffffffffffffffffffffffffffffffffffffff16815260200191505060405180910390f35b341561030757600080fd5b61033f600480803560ff1690602001909190803573ffffffffffffffffffffffffffffffffffffffff169060200190919050506104d8565b005b341561034c57600080fd5b610378600480803573ffffffffffffffffffffffffffffffffffffffff169060200190919050506109b6565b005b341561038557600080fd5b61038d610b0b565b604051808273ffffffffffffffffffffffffffffffffffffffff1673ffffffffffffffffffffffffffffffffffffffff16815260200191505060405180910390f35b600260009054906101000a900473ffffffffffffffffffffffffffffffffffffffff1681565b600760009054906101000a900473ffffffffffffffffffffffffffffffffffffffff1681565b600360009054906101000a900473ffffffffffffffffffffffffffffffffffffffff1681565b600560009054906101000a900473ffffffffffffffffffffffffffffffffffffffff1681565b600160009054906101000a900473ffffffffffffffffffffffffffffffffffffffff1681565b6000809054906101000a900473ffffffffffffffffffffffffffffffffffffffff1681565b600660009054906101000a900473ffffffffffffffffffffffffffffffffffffffff1681565b60008060009054906101000a900473ffffffffffffffffffffffffffffffffffffffff1673ffffffffffffffffffffffffffffffffffffffff163373ffffffffffffffffffffffffffffffffffffffff1614151561053557600080fd5b6000600681111561054257fe5b83600681111561054e57fe5b14156105c957600160009054906101000a900473ffffffffffffffffffffffffffffffffffffffff1690506105838282610b31565b81600160006101000a81548173ffffffffffffffffffffffffffffffffffffffff021916908373ffffffffffffffffffffffffffffffffffffffff16021790555061094b565b600160068111156105d657fe5b8360068111156105e257fe5b141561065d57600260009054906101000a900473ffffffffffffffffffffffffffffffffffffffff1690506106178282610b31565b81600260006101000a81548173ffffffffffffffffffffffffffffffffffffffff021916908373ffffffffffffffffffffffffffffffffffffffff16021790555061094a565b6002600681111561066a57fe5b83600681111561067657fe5b14156106f157600360009054906101000a900473ffffffffffffffffffffffffffffffffffffffff1690506106ab8282610b31565b81600360006101000a81548173ffffffffffffffffffffffffffffffffffffffff021916908373ffffffffffffffffffffffffffffffffffffffff160217905550610949565b600360068111156106fe57fe5b83600681111561070a57fe5b141561078557600460009054906101000a900473ffffffffffffffffffffffffffffffffffffffff16905061073f8282610b31565b81600460006101000a81548173ffffffffffffffffffffffffffffffffffffffff021916908373ffffffffffffffffffffffffffffffffffffffff160217905550610948565b6004600681111561079257fe5b83600681111561079e57fe5b141561081957600560009054906101000a900473ffffffffffffffffffffffffffffffffffffffff1690506107d38282610b31565b81600560006101000a81548173ffffffffffffffffffffffffffffffffffffffff021916908373ffffffffffffffffffffffffffffffffffffffff160217905550610947565b6005600681111561082657fe5b83600681111561083257fe5b14156108ad57600660009054906101000a900473ffffffffffffffffffffffffffffffffffffffff1690506108678282610b31565b81600660006101000a81548173ffffffffffffffffffffffffffffffffffffffff021916908373ffffffffffffffffffffffffffffffffffffffff160217905550610946565b6006808111156108b957fe5b8360068111156108c557fe5b141561094057600760009054906101000a900473ffffffffffffffffffffffffffffffffffffffff1690506108fa8282610b31565b81600760006101000a81548173ffffffffffffffffffffffffffffffffffffffff021916908373ffffffffffffffffffffffffffffffffffffffff160217905550610945565b600080fd5b5b5b5b5b5b5b8173ffffffffffffffffffffffffffffffffffffffff168173ffffffffffffffffffffffffffffffffffffffff1684600681111561098557fe5b7fea5852cbfaa20064a0ffec7659e5b7178c40ecc51d8788b6981bfa062bc6e78860405160405180910390a4505050565b6000809054906101000a900473ffffffffffffffffffffffffffffffffffffffff1673ffffffffffffffffffffffffffffffffffffffff163373ffffffffffffffffffffffffffffffffffffffff16141515610a1157600080fd5b600073ffffffffffffffffffffffffffffffffffffffff168173ffffffffffffffffffffffffffffffffffffffff1614151515610a4d57600080fd5b8073ffffffffffffffffffffffffffffffffffffffff166000809054906101000a900473ffffffffffffffffffffffffffffffffffffffff1673ffffffffffffffffffffffffffffffffffffffff167f8be0079c531659141344cd1fd0a4f28419497f9722a3daafe3b4186f6b6457e060405160405180910390a3806000806101000a81548173ffffffffffffffffffffffffffffffffffffffff021916908373ffffffffffffffffffffffffffffffffffffffff16021790555050565b600460009054906101000a900473ffffffffffffffffffffffffffffffffffffffff1681565b600073ffffffffffffffffffffffffffffffffffffffff168273ffffffffffffffffffffffffffffffffffffffff1614151515610b6d57600080fd5b8073ffffffffffffffffffffffffffffffffffffffff168273ffffffffffffffffffffffffffffffffffffffff1614151515610ba857600080fd5b50505600a165627a7a72305820863aed3d99d08dd18c74da28de24f902c7888dba43fa57be5382cd9453da81520029",
  "source": "pragma solidity 0.4.18;\n\nimport \"zeppelin-solidity/contracts/ownership/Ownable.sol\";\n\nimport \"./Collateralizer.sol\";\nimport \"./DebtKernel.sol\";\nimport \"./DebtRegistry.sol\";\nimport \"./DebtToken.sol\";\nimport \"./RepaymentRouter.sol\";\nimport \"./TokenRegistry.sol\";\nimport \"./TokenTransferProxy.sol\";\n\n\ncontract ContractRegistry is Ownable {\n\n    event ContractAddressUpdated(\n        ContractType indexed contractType,\n        address indexed oldAddress,\n        address indexed newAddress\n    );\n\n    enum ContractType {\n        Collateralizer,\n        DebtKernel,\n        DebtRegistry,\n        DebtToken,\n        RepaymentRouter,\n        TokenRegistry,\n        TokenTransferProxy\n    }\n\n    Collateralizer public collateralizer;\n    DebtKernel public debtKernel;\n    DebtRegistry public  debtRegistry;\n    DebtToken public debtToken;\n    RepaymentRouter public repaymentRouter;\n    TokenRegistry public tokenRegistry;\n    TokenTransferProxy public tokenTransferProxy;\n\n    function ContractRegistry(\n        address _collateralizer,\n        address _debtKernel,\n        address _debtRegistry,\n        address _debtToken,\n        address _repaymentRouter,\n        address _tokenRegistry,\n        address _tokenTransferProxy\n    )\n        public\n    {\n        collateralizer = Collateralizer(_collateralizer);\n        debtKernel = DebtKernel(_debtKernel);\n        debtRegistry = DebtRegistry(_debtRegistry);\n        debtToken = DebtToken(_debtToken);\n        repaymentRouter = RepaymentRouter(_repaymentRouter);\n        tokenRegistry = TokenRegistry(_tokenRegistry);\n        tokenTransferProxy = TokenTransferProxy(_tokenTransferProxy);\n    }\n\n    function updateAddress(\n        ContractType contractType,\n        address newAddress\n    )\n        public\n        onlyOwner\n    {\n        address oldAddress;\n\n        if (contractType == ContractType.Collateralizer) {\n            oldAddress = address(collateralizer);\n            validateNewAddress(newAddress, oldAddress);\n            collateralizer = Collateralizer(newAddress);\n        } else if (contractType == ContractType.DebtKernel) {\n            oldAddress = address(debtKernel);\n            validateNewAddress(newAddress, oldAddress);\n            debtKernel = DebtKernel(newAddress);\n        } else if (contractType == ContractType.DebtRegistry) {\n            oldAddress = address(debtRegistry);\n            validateNewAddress(newAddress, oldAddress);\n            debtRegistry = DebtRegistry(newAddress);\n        } else if (contractType == ContractType.DebtToken) {\n            oldAddress = address(debtToken);\n            validateNewAddress(newAddress, oldAddress);\n            debtToken = DebtToken(newAddress);\n        } else if (contractType == ContractType.RepaymentRouter) {\n            oldAddress = address(repaymentRouter);\n            validateNewAddress(newAddress, oldAddress);\n            repaymentRouter = RepaymentRouter(newAddress);\n        } else if (contractType == ContractType.TokenRegistry) {\n            oldAddress = address(tokenRegistry);\n            validateNewAddress(newAddress, oldAddress);\n            tokenRegistry = TokenRegistry(newAddress);\n        } else if (contractType == ContractType.TokenTransferProxy) {\n            oldAddress = address(tokenTransferProxy);\n            validateNewAddress(newAddress, oldAddress);\n            tokenTransferProxy = TokenTransferProxy(newAddress);\n        } else {\n            revert();\n        }\n\n        ContractAddressUpdated(contractType, oldAddress, newAddress);\n    }\n\n    function validateNewAddress(\n        address newAddress,\n        address oldAddress\n    )\n        internal\n        pure\n    {\n        require(newAddress != address(0)); // new address cannot be null address.\n        require(newAddress != oldAddress); // new address cannot be existing address.\n    }\n}\n",
  "sourcePath": "/Users/graemeboy/Dharma/charta/contracts/ContractRegistry.sol",
  "compiler": {
    "name": "solc",
    "version": "0.4.18+commit.9cf6e910.Emscripten.clang"
  },
  "schemaVersion": "1.0.1",
  "updatedAt": "2018-10-15T20:10:49.383Z"
}