{
  "contractName": "ContractRegistry",
  "abi": [
    {
      "constant": true,
      "inputs": [],
      "name": "debtKernel",
      "outputs": [
        {
          "name": "",
          "type": "address"
        }
      ],
      "payable": false,
      "stateMutability": "view",
      "type": "function"
    },
    {
      "constant": true,
      "inputs": [],
      "name": "tokenTransferProxy",
      "outputs": [
        {
          "name": "",
          "type": "address"
        }
      ],
      "payable": false,
      "stateMutability": "view",
      "type": "function"
    },
    {
      "constant": true,
      "inputs": [],
      "name": "debtRegistry",
      "outputs": [
        {
          "name": "",
          "type": "address"
        }
      ],
      "payable": false,
      "stateMutability": "view",
      "type": "function"
    },
    {
      "constant": true,
      "inputs": [],
      "name": "repaymentRouter",
      "outputs": [
        {
          "name": "",
          "type": "address"
        }
      ],
      "payable": false,
      "stateMutability": "view",
      "type": "function"
    },
    {
      "constant": true,
      "inputs": [],
      "name": "erc721Collateralizer",
      "outputs": [
        {
          "name": "",
          "type": "address"
        }
      ],
      "payable": false,
      "stateMutability": "view",
      "type": "function"
    },
    {
      "constant": true,
      "inputs": [],
      "name": "collateralizer",
      "outputs": [
        {
          "name": "",
          "type": "address"
        }
      ],
      "payable": false,
      "stateMutability": "view",
      "type": "function"
    },
    {
      "constant": true,
      "inputs": [],
      "name": "owner",
      "outputs": [
        {
          "name": "",
          "type": "address"
        }
      ],
      "payable": false,
      "stateMutability": "view",
      "type": "function"
    },
    {
      "constant": true,
      "inputs": [],
      "name": "tokenRegistry",
      "outputs": [
        {
          "name": "",
          "type": "address"
        }
      ],
      "payable": false,
      "stateMutability": "view",
      "type": "function"
    },
    {
      "constant": true,
      "inputs": [],
      "name": "erc721TokenRegistry",
      "outputs": [
        {
          "name": "",
          "type": "address"
        }
      ],
      "payable": false,
      "stateMutability": "view",
      "type": "function"
    },
    {
      "constant": false,
      "inputs": [
        {
          "name": "contractType",
          "type": "uint8"
        },
        {
          "name": "newAddress",
          "type": "address"
        }
      ],
      "name": "updateAddress",
      "outputs": [],
      "payable": false,
      "stateMutability": "nonpayable",
      "type": "function"
    },
    {
      "constant": false,
      "inputs": [
        {
          "name": "newOwner",
          "type": "address"
        }
      ],
      "name": "transferOwnership",
      "outputs": [],
      "payable": false,
      "stateMutability": "nonpayable",
      "type": "function"
    },
    {
      "constant": true,
      "inputs": [],
      "name": "debtToken",
      "outputs": [
        {
          "name": "",
          "type": "address"
        }
      ],
      "payable": false,
      "stateMutability": "view",
      "type": "function"
    },
    {
      "inputs": [
        {
          "name": "_collateralizer",
          "type": "address"
        },
        {
          "name": "_erc721Collateralizer",
          "type": "address"
        },
        {
          "name": "_debtKernel",
          "type": "address"
        },
        {
          "name": "_debtRegistry",
          "type": "address"
        },
        {
          "name": "_debtToken",
          "type": "address"
        },
        {
          "name": "_repaymentRouter",
          "type": "address"
        },
        {
          "name": "_tokenRegistry",
          "type": "address"
        },
        {
          "name": "_erc721tokenRegistry",
          "type": "address"
        },
        {
          "name": "_tokenTransferProxy",
          "type": "address"
        }
      ],
      "payable": false,
      "stateMutability": "nonpayable",
      "type": "constructor"
    },
    {
      "anonymous": false,
      "inputs": [
        {
          "indexed": true,
          "name": "contractType",
          "type": "uint8"
        },
        {
          "indexed": true,
          "name": "oldAddress",
          "type": "address"
        },
        {
          "indexed": true,
          "name": "newAddress",
          "type": "address"
        }
      ],
      "name": "ContractAddressUpdated",
      "type": "event"
    },
    {
      "anonymous": false,
      "inputs": [
        {
          "indexed": true,
          "name": "previousOwner",
          "type": "address"
        },
        {
          "indexed": true,
          "name": "newOwner",
          "type": "address"
        }
      ],
      "name": "OwnershipTransferred",
      "type": "event"
    }
  ],
  "bytecode": "0x6060604052341561000f57600080fd5b6040516101208061112383398101604052808051906020019091908051906020019091908051906020019091908051906020019091908051906020019091908051906020019091908051906020019091908051906020019091908051906020019091905050336000806101000a81548173ffffffffffffffffffffffffffffffffffffffff021916908373ffffffffffffffffffffffffffffffffffffffff16021790555088600160006101000a81548173ffffffffffffffffffffffffffffffffffffffff021916908373ffffffffffffffffffffffffffffffffffffffff16021790555087600260006101000a81548173ffffffffffffffffffffffffffffffffffffffff021916908373ffffffffffffffffffffffffffffffffffffffff16021790555086600360006101000a81548173ffffffffffffffffffffffffffffffffffffffff021916908373ffffffffffffffffffffffffffffffffffffffff16021790555085600460006101000a81548173ffffffffffffffffffffffffffffffffffffffff021916908373ffffffffffffffffffffffffffffffffffffffff16021790555084600560006101000a81548173ffffffffffffffffffffffffffffffffffffffff021916908373ffffffffffffffffffffffffffffffffffffffff16021790555083600660006101000a81548173ffffffffffffffffffffffffffffffffffffffff021916908373ffffffffffffffffffffffffffffffffffffffff16021790555082600760006101000a81548173ffffffffffffffffffffffffffffffffffffffff021916908373ffffffffffffffffffffffffffffffffffffffff16021790555081600860006101000a81548173ffffffffffffffffffffffffffffffffffffffff021916908373ffffffffffffffffffffffffffffffffffffffff16021790555080600960006101000a81548173ffffffffffffffffffffffffffffffffffffffff021916908373ffffffffffffffffffffffffffffffffffffffff160217905550505050505050505050610e0e806103156000396000f3006060604052600436106100ba576000357c0100000000000000000000000000000000000000000000000000000000900463ffffffff168063079dd4b7146100bf5780630eefdbad146101145780632f866f73146101695780636fa9d056146101be5780637903539614610213578063869f0511146102685780638da5cb5b146102bd5780639d23c4c714610312578063bfa723c514610367578063e2aa46bb146103bc578063f2fde38b14610401578063f8d898981461043a575b600080fd5b34156100ca57600080fd5b6100d261048f565b604051808273ffffffffffffffffffffffffffffffffffffffff1673ffffffffffffffffffffffffffffffffffffffff16815260200191505060405180910390f35b341561011f57600080fd5b6101276104b5565b604051808273ffffffffffffffffffffffffffffffffffffffff1673ffffffffffffffffffffffffffffffffffffffff16815260200191505060405180910390f35b341561017457600080fd5b61017c6104db565b604051808273ffffffffffffffffffffffffffffffffffffffff1673ffffffffffffffffffffffffffffffffffffffff16815260200191505060405180910390f35b34156101c957600080fd5b6101d1610501565b604051808273ffffffffffffffffffffffffffffffffffffffff1673ffffffffffffffffffffffffffffffffffffffff16815260200191505060405180910390f35b341561021e57600080fd5b610226610527565b604051808273ffffffffffffffffffffffffffffffffffffffff1673ffffffffffffffffffffffffffffffffffffffff16815260200191505060405180910390f35b341561027357600080fd5b61027b61054d565b604051808273ffffffffffffffffffffffffffffffffffffffff1673ffffffffffffffffffffffffffffffffffffffff16815260200191505060405180910390f35b34156102c857600080fd5b6102d0610573565b604051808273ffffffffffffffffffffffffffffffffffffffff1673ffffffffffffffffffffffffffffffffffffffff16815260200191505060405180910390f35b341561031d57600080fd5b610325610598565b604051808273ffffffffffffffffffffffffffffffffffffffff1673ffffffffffffffffffffffffffffffffffffffff16815260200191505060405180910390f35b341561037257600080fd5b61037a6105be565b604051808273ffffffffffffffffffffffffffffffffffffffff1673ffffffffffffffffffffffffffffffffffffffff16815260200191505060405180910390f35b34156103c757600080fd5b6103ff600480803560ff1690602001909190803573ffffffffffffffffffffffffffffffffffffffff169060200190919050506105e4565b005b341561040c57600080fd5b610438600480803573ffffffffffffffffffffffffffffffffffffffff16906020019091905050610bec565b005b341561044557600080fd5b61044d610d41565b604051808273ffffffffffffffffffffffffffffffffffffffff1673ffffffffffffffffffffffffffffffffffffffff16815260200191505060405180910390f35b600360009054906101000a900473ffffffffffffffffffffffffffffffffffffffff1681565b600960009054906101000a900473ffffffffffffffffffffffffffffffffffffffff1681565b600460009054906101000a900473ffffffffffffffffffffffffffffffffffffffff1681565b600660009054906101000a900473ffffffffffffffffffffffffffffffffffffffff1681565b600260009054906101000a900473ffffffffffffffffffffffffffffffffffffffff1681565b600160009054906101000a900473ffffffffffffffffffffffffffffffffffffffff1681565b6000809054906101000a900473ffffffffffffffffffffffffffffffffffffffff1681565b600760009054906101000a900473ffffffffffffffffffffffffffffffffffffffff1681565b600860009054906101000a900473ffffffffffffffffffffffffffffffffffffffff1681565b60008060009054906101000a900473ffffffffffffffffffffffffffffffffffffffff1673ffffffffffffffffffffffffffffffffffffffff163373ffffffffffffffffffffffffffffffffffffffff1614151561064157600080fd5b6000600881111561064e57fe5b83600881111561065a57fe5b14156106d557600160009054906101000a900473ffffffffffffffffffffffffffffffffffffffff16905061068f8282610d67565b81600160006101000a81548173ffffffffffffffffffffffffffffffffffffffff021916908373ffffffffffffffffffffffffffffffffffffffff160217905550610b81565b600160088111156106e257fe5b8360088111156106ee57fe5b141561076957600260009054906101000a900473ffffffffffffffffffffffffffffffffffffffff1690506107238282610d67565b81600260006101000a81548173ffffffffffffffffffffffffffffffffffffffff021916908373ffffffffffffffffffffffffffffffffffffffff160217905550610b80565b6002600881111561077657fe5b83600881111561078257fe5b14156107fd57600360009054906101000a900473ffffffffffffffffffffffffffffffffffffffff1690506107b78282610d67565b81600360006101000a81548173ffffffffffffffffffffffffffffffffffffffff021916908373ffffffffffffffffffffffffffffffffffffffff160217905550610b7f565b6003600881111561080a57fe5b83600881111561081657fe5b141561089157600460009054906101000a900473ffffffffffffffffffffffffffffffffffffffff16905061084b8282610d67565b81600460006101000a81548173ffffffffffffffffffffffffffffffffffffffff021916908373ffffffffffffffffffffffffffffffffffffffff160217905550610b7e565b6004600881111561089e57fe5b8360088111156108aa57fe5b141561092557600560009054906101000a900473ffffffffffffffffffffffffffffffffffffffff1690506108df8282610d67565b81600560006101000a81548173ffffffffffffffffffffffffffffffffffffffff021916908373ffffffffffffffffffffffffffffffffffffffff160217905550610b7d565b6005600881111561093257fe5b83600881111561093e57fe5b14156109b957600660009054906101000a900473ffffffffffffffffffffffffffffffffffffffff1690506109738282610d67565b81600660006101000a81548173ffffffffffffffffffffffffffffffffffffffff021916908373ffffffffffffffffffffffffffffffffffffffff160217905550610b7c565b600660088111156109c657fe5b8360088111156109d257fe5b1415610a4d57600760009054906101000a900473ffffffffffffffffffffffffffffffffffffffff169050610a078282610d67565b81600760006101000a81548173ffffffffffffffffffffffffffffffffffffffff021916908373ffffffffffffffffffffffffffffffffffffffff160217905550610b7b565b60076008811115610a5a57fe5b836008811115610a6657fe5b1415610ae157600860009054906101000a900473ffffffffffffffffffffffffffffffffffffffff169050610a9b8282610d67565b81600760006101000a81548173ffffffffffffffffffffffffffffffffffffffff021916908373ffffffffffffffffffffffffffffffffffffffff160217905550610b7a565b600880811115610aed57fe5b836008811115610af957fe5b1415610b7457600960009054906101000a900473ffffffffffffffffffffffffffffffffffffffff169050610b2e8282610d67565b81600960006101000a81548173ffffffffffffffffffffffffffffffffffffffff021916908373ffffffffffffffffffffffffffffffffffffffff160217905550610b79565b600080fd5b5b5b5b5b5b5b5b5b8173ffffffffffffffffffffffffffffffffffffffff168173ffffffffffffffffffffffffffffffffffffffff16846008811115610bbb57fe5b7fea5852cbfaa20064a0ffec7659e5b7178c40ecc51d8788b6981bfa062bc6e78860405160405180910390a4505050565b6000809054906101000a900473ffffffffffffffffffffffffffffffffffffffff1673ffffffffffffffffffffffffffffffffffffffff163373ffffffffffffffffffffffffffffffffffffffff16141515610c4757600080fd5b600073ffffffffffffffffffffffffffffffffffffffff168173ffffffffffffffffffffffffffffffffffffffff1614151515610c8357600080fd5b8073ffffffffffffffffffffffffffffffffffffffff166000809054906101000a900473ffffffffffffffffffffffffffffffffffffffff1673ffffffffffffffffffffffffffffffffffffffff167f8be0079c531659141344cd1fd0a4f28419497f9722a3daafe3b4186f6b6457e060405160405180910390a3806000806101000a81548173ffffffffffffffffffffffffffffffffffffffff021916908373ffffffffffffffffffffffffffffffffffffffff16021790555050565b600560009054906101000a900473ffffffffffffffffffffffffffffffffffffffff1681565b600073ffffffffffffffffffffffffffffffffffffffff168273ffffffffffffffffffffffffffffffffffffffff1614151515610da357600080fd5b8073ffffffffffffffffffffffffffffffffffffffff168273ffffffffffffffffffffffffffffffffffffffff1614151515610dde57600080fd5b50505600a165627a7a7230582091a3bb27fd5c86a4152cc7c44c824a9dfcc64e6bb28a44e7d09f2a2f555c91c90029",
  "source": "pragma solidity 0.4.18;\n\nimport \"zeppelin-solidity/contracts/ownership/Ownable.sol\";\n\nimport \"./Collateralizer.sol\";\nimport \"./ERC721Collateralizer.sol\";\nimport \"./DebtKernel.sol\";\nimport \"./DebtRegistry.sol\";\nimport \"./DebtToken.sol\";\nimport \"./RepaymentRouter.sol\";\nimport \"./TokenRegistry.sol\";\nimport \"./ERC721TokenRegistry.sol\";\nimport \"./TokenTransferProxy.sol\";\n\n\ncontract ContractRegistry is Ownable {\n\n    event ContractAddressUpdated(\n        ContractType indexed contractType,\n        address indexed oldAddress,\n        address indexed newAddress\n    );\n\n    enum ContractType {\n        Collateralizer,\n        ERC721Collateralizer,\n        DebtKernel,\n        DebtRegistry,\n        DebtToken,\n        RepaymentRouter,\n        TokenRegistry,\n        ERC721TokenRegistry,\n        TokenTransferProxy\n    }\n\n    Collateralizer public collateralizer;\n    ERC721Collateralizer public erc721Collateralizer;\n    DebtKernel public debtKernel;\n    DebtRegistry public  debtRegistry;\n    DebtToken public debtToken;\n    RepaymentRouter public repaymentRouter;\n    TokenRegistry public tokenRegistry;\n    ERC721TokenRegistry public erc721TokenRegistry;\n    TokenTransferProxy public tokenTransferProxy;\n\n    function ContractRegistry(\n        address _collateralizer,\n        address _erc721Collateralizer,\n        address _debtKernel,\n        address _debtRegistry,\n        address _debtToken,\n        address _repaymentRouter,\n        address _tokenRegistry,\n        address _erc721tokenRegistry,\n        address _tokenTransferProxy\n    )\n        public\n    {\n        collateralizer = Collateralizer(_collateralizer);\n        erc721Collateralizer = ERC721Collateralizer(_erc721Collateralizer);\n        debtKernel = DebtKernel(_debtKernel);\n        debtRegistry = DebtRegistry(_debtRegistry);\n        debtToken = DebtToken(_debtToken);\n        repaymentRouter = RepaymentRouter(_repaymentRouter);\n        tokenRegistry = TokenRegistry(_tokenRegistry);\n        erc721TokenRegistry = ERC721TokenRegistry(_erc721tokenRegistry);\n        tokenTransferProxy = TokenTransferProxy(_tokenTransferProxy);\n    }\n\n    function updateAddress(\n        ContractType contractType,\n        address newAddress\n    )\n        public\n        onlyOwner\n    {\n        address oldAddress;\n\n        if (contractType == ContractType.Collateralizer) {\n            oldAddress = address(collateralizer);\n            validateNewAddress(newAddress, oldAddress);\n            collateralizer = Collateralizer(newAddress);\n        } else if (contractType == ContractType.ERC721Collateralizer) {\n            oldAddress = address(erc721Collateralizer);\n            validateNewAddress(newAddress, oldAddress);\n            erc721Collateralizer = ERC721Collateralizer(newAddress);\n        } else if (contractType == ContractType.DebtKernel) {\n            oldAddress = address(debtKernel);\n            validateNewAddress(newAddress, oldAddress);\n            debtKernel = DebtKernel(newAddress);\n        } else if (contractType == ContractType.DebtRegistry) {\n            oldAddress = address(debtRegistry);\n            validateNewAddress(newAddress, oldAddress);\n            debtRegistry = DebtRegistry(newAddress);\n        } else if (contractType == ContractType.DebtToken) {\n            oldAddress = address(debtToken);\n            validateNewAddress(newAddress, oldAddress);\n            debtToken = DebtToken(newAddress);\n        } else if (contractType == ContractType.RepaymentRouter) {\n            oldAddress = address(repaymentRouter);\n            validateNewAddress(newAddress, oldAddress);\n            repaymentRouter = RepaymentRouter(newAddress);\n        } else if (contractType == ContractType.TokenRegistry) {\n            oldAddress = address(tokenRegistry);\n            validateNewAddress(newAddress, oldAddress);\n            tokenRegistry = TokenRegistry(newAddress);\n        } else if (contractType == ContractType.ERC721TokenRegistry) {\n            oldAddress = address(erc721TokenRegistry);\n            validateNewAddress(newAddress, oldAddress);\n            tokenRegistry = TokenRegistry(newAddress);\n        } else if (contractType == ContractType.TokenTransferProxy) {\n            oldAddress = address(tokenTransferProxy);\n            validateNewAddress(newAddress, oldAddress);\n            tokenTransferProxy = TokenTransferProxy(newAddress);\n        } else {\n            revert();\n        }\n\n        ContractAddressUpdated(contractType, oldAddress, newAddress);\n    }\n\n    function validateNewAddress(\n        address newAddress,\n        address oldAddress\n    )\n        internal\n        pure\n    {\n        require(newAddress != address(0)); // new address cannot be null address.\n        require(newAddress != oldAddress); // new address cannot be existing address.\n    }\n}\n",
  "sourcePath": "/Users/graemeboy/Dharma/charta/contracts/ContractRegistry.sol",
  "compiler": {
    "name": "solc",
    "version": "0.4.18+commit.9cf6e910.Emscripten.clang"
  },
  "schemaVersion": "1.0.1",
  "updatedAt": "2018-08-24T23:27:49.686Z"
}