{
  "contractName": "CreditorProxy",
  "abi": [
    {
      "constant": false,
      "inputs": [],
      "name": "unpause",
      "outputs": [],
      "payable": false,
      "stateMutability": "nonpayable",
      "type": "function"
    },
    {
      "constant": false,
      "inputs": [
        {
          "name": "creditor",
          "type": "address"
        },
        {
          "name": "orderAddresses",
          "type": "address[6]"
        },
        {
          "name": "orderValues",
          "type": "uint256[8]"
        },
        {
          "name": "orderBytes32",
          "type": "bytes32[1]"
        },
        {
          "name": "signaturesV",
          "type": "uint8[3]"
        },
        {
          "name": "signaturesR",
          "type": "bytes32[3]"
        },
        {
          "name": "signaturesS",
          "type": "bytes32[3]"
        }
      ],
      "name": "fillDebtOffer",
      "outputs": [
        {
          "name": "_agreementId",
          "type": "bytes32"
        }
      ],
      "payable": false,
      "stateMutability": "nonpayable",
      "type": "function"
    },
    {
      "constant": true,
      "inputs": [],
      "name": "paused",
      "outputs": [
        {
          "name": "",
          "type": "bool"
        }
      ],
      "payable": false,
      "stateMutability": "view",
      "type": "function"
    },
    {
      "constant": false,
      "inputs": [],
      "name": "pause",
      "outputs": [],
      "payable": false,
      "stateMutability": "nonpayable",
      "type": "function"
    },
    {
      "constant": true,
      "inputs": [],
      "name": "owner",
      "outputs": [
        {
          "name": "",
          "type": "address"
        }
      ],
      "payable": false,
      "stateMutability": "view",
      "type": "function"
    },
    {
      "constant": false,
      "inputs": [
        {
          "name": "commitmentAddresses",
          "type": "address[5]"
        },
        {
          "name": "commitmentValues",
          "type": "uint256[4]"
        },
        {
          "name": "termsContractParameters",
          "type": "bytes32[1]"
        }
      ],
      "name": "cancelDebtOffer",
      "outputs": [],
      "payable": false,
      "stateMutability": "nonpayable",
      "type": "function"
    },
    {
      "constant": true,
      "inputs": [
        {
          "name": "",
          "type": "bytes32"
        }
      ],
      "name": "debtOfferCancelled",
      "outputs": [
        {
          "name": "",
          "type": "bool"
        }
      ],
      "payable": false,
      "stateMutability": "view",
      "type": "function"
    },
    {
      "constant": true,
      "inputs": [],
      "name": "contractRegistry",
      "outputs": [
        {
          "name": "",
          "type": "address"
        }
      ],
      "payable": false,
      "stateMutability": "view",
      "type": "function"
    },
    {
      "constant": true,
      "inputs": [
        {
          "name": "",
          "type": "bytes32"
        }
      ],
      "name": "debtOfferFilled",
      "outputs": [
        {
          "name": "",
          "type": "bool"
        }
      ],
      "payable": false,
      "stateMutability": "view",
      "type": "function"
    },
    {
      "constant": true,
      "inputs": [],
      "name": "NULL_ISSUANCE_HASH",
      "outputs": [
        {
          "name": "",
          "type": "bytes32"
        }
      ],
      "payable": false,
      "stateMutability": "view",
      "type": "function"
    },
    {
      "constant": true,
      "inputs": [],
      "name": "EXTERNAL_QUERY_GAS_LIMIT",
      "outputs": [
        {
          "name": "",
          "type": "uint16"
        }
      ],
      "payable": false,
      "stateMutability": "view",
      "type": "function"
    },
    {
      "constant": false,
      "inputs": [
        {
          "name": "newOwner",
          "type": "address"
        }
      ],
      "name": "transferOwnership",
      "outputs": [],
      "payable": false,
      "stateMutability": "nonpayable",
      "type": "function"
    },
    {
      "inputs": [
        {
          "name": "_contractRegistry",
          "type": "address"
        }
      ],
      "payable": false,
      "stateMutability": "nonpayable",
      "type": "constructor"
    },
    {
      "anonymous": false,
      "inputs": [
        {
          "indexed": true,
          "name": "_creditor",
          "type": "address"
        },
        {
          "indexed": true,
          "name": "_creditorCommitmentHash",
          "type": "bytes32"
        }
      ],
      "name": "LogDebtOfferCancelled",
      "type": "event"
    },
    {
      "anonymous": false,
      "inputs": [
        {
          "indexed": true,
          "name": "_creditor",
          "type": "address"
        },
        {
          "indexed": true,
          "name": "_creditorCommitmentHash",
          "type": "bytes32"
        },
        {
          "indexed": true,
          "name": "_agreementId",
          "type": "bytes32"
        }
      ],
      "name": "LogDebtOfferFilled",
      "type": "event"
    },
    {
      "anonymous": false,
      "inputs": [
        {
          "indexed": true,
          "name": "_errorId",
          "type": "uint8"
        },
        {
          "indexed": true,
          "name": "_creditor",
          "type": "address"
        },
        {
          "indexed": true,
          "name": "_creditorCommitmentHash",
          "type": "bytes32"
        }
      ],
      "name": "LogError",
      "type": "event"
    },
    {
      "anonymous": false,
      "inputs": [],
      "name": "Pause",
      "type": "event"
    },
    {
      "anonymous": false,
      "inputs": [],
      "name": "Unpause",
      "type": "event"
    },
    {
      "anonymous": false,
      "inputs": [
        {
          "indexed": true,
          "name": "previousOwner",
          "type": "address"
        },
        {
          "indexed": true,
          "name": "newOwner",
          "type": "address"
        }
      ],
      "name": "OwnershipTransferred",
      "type": "event"
    }
  ],
  "bytecode": "0x606060405260008060146101000a81548160ff021916908315150217905550341561002957600080fd5b604051602080611d1483398101604052808051906020019091905050336000806101000a81548173ffffffffffffffffffffffffffffffffffffffff021916908373ffffffffffffffffffffffffffffffffffffffff16021790555080600160006101000a81548173ffffffffffffffffffffffffffffffffffffffff021916908373ffffffffffffffffffffffffffffffffffffffff16021790555050611c3e806100d66000396000f3006060604052600436106100ba576000357c0100000000000000000000000000000000000000000000000000000000900463ffffffff1680633f4ba83a146100bf57806347f7835d146100d45780635c975abb146102325780638456cb591461025f5780638da5cb5b146102745780638f18b00b146102c9578063a318b5f714610367578063abf410e5146103a6578063c1614d00146103fb578063e283040d1461043a578063f06bbf751461046b578063f2fde38b1461049c575b600080fd5b34156100ca57600080fd5b6100d26104d5565b005b34156100df57600080fd5b610214600480803573ffffffffffffffffffffffffffffffffffffffff16906020019091908060c0019060068060200260405190810160405280929190826006602002808284378201915050505050919080610100019060088060200260405190810160405280929190826008602002808284378201915050505050919080602001906001806020026040519081016040528092919082600160200280828437820191505050505091908060600190600380602002604051908101604052809291908260036020028082843782019150505050509190806060019060038060200260405190810160405280929190826003602002808284378201915050505050919080606001906003806020026040519081016040528092919082600360200280828437820191505050505091905050610593565b60405180826000191660001916815260200191505060405180910390f35b341561023d57600080fd5b610245610f75565b604051808215151515815260200191505060405180910390f35b341561026a57600080fd5b610272610f88565b005b341561027f57600080fd5b610287611048565b604051808273ffffffffffffffffffffffffffffffffffffffff1673ffffffffffffffffffffffffffffffffffffffff16815260200191505060405180910390f35b34156102d457600080fd5b6103656004808060a0019060058060200260405190810160405280929190826005602002808284378201915050505050919080608001906004806020026040519081016040528092919082600460200280828437820191505050505091908060200190600180602002604051908101604052809291908260016020028082843782019150505050509190505061106d565b005b341561037257600080fd5b61038c600480803560001916906020019091905050611179565b604051808215151515815260200191505060405180910390f35b34156103b157600080fd5b6103b9611199565b604051808273ffffffffffffffffffffffffffffffffffffffff1673ffffffffffffffffffffffffffffffffffffffff16815260200191505060405180910390f35b341561040657600080fd5b6104206004808035600019169060200190919050506111bf565b604051808215151515815260200191505060405180910390f35b341561044557600080fd5b61044d6111df565b60405180826000191660001916815260200191505060405180910390f35b341561047657600080fd5b61047e6111e7565b604051808261ffff1661ffff16815260200191505060405180910390f35b34156104a757600080fd5b6104d3600480803573ffffffffffffffffffffffffffffffffffffffff169060200190919050506111ed565b005b6000809054906101000a900473ffffffffffffffffffffffffffffffffffffffff1673ffffffffffffffffffffffffffffffffffffffff163373ffffffffffffffffffffffffffffffffffffffff1614151561053057600080fd5b600060149054906101000a900460ff16151561054b57600080fd5b60008060146101000a81548160ff0219169083151502179055507f7805862f689e2f13df9f062ff482ad3ad112aca9e0847911ed832e158c525b3360405160405180910390a1565b600080600080600060149054906101000a900460ff161515156105b557600080fd5b61081160a0604051908101604052808d73ffffffffffffffffffffffffffffffffffffffff1673ffffffffffffffffffffffffffffffffffffffff168152602001600160009054906101000a900473ffffffffffffffffffffffffffffffffffffffff1673ffffffffffffffffffffffffffffffffffffffff1663079dd4b76000604051602001526040518163ffffffff167c0100000000000000000000000000000000000000000000000000000000028152600401602060405180830381600087803b151561068457600080fd5b6102c65a03f1151561069557600080fd5b5050506040518051905073ffffffffffffffffffffffffffffffffffffffff1673ffffffffffffffffffffffffffffffffffffffff1681526020018c60006006811015156106df57fe5b602002015173ffffffffffffffffffffffffffffffffffffffff1673ffffffffffffffffffffffffffffffffffffffff1681526020018c600360068110151561072457fe5b602002015173ffffffffffffffffffffffffffffffffffffffff1673ffffffffffffffffffffffffffffffffffffffff1681526020018c600460068110151561076957fe5b602002015173ffffffffffffffffffffffffffffffffffffffff1673ffffffffffffffffffffffffffffffffffffffff168152506080604051908101604052808c60016008811015156107b857fe5b602002015181526020018c60026008811015156107d157fe5b602002015181526020018c60056008811015156107ea57fe5b602002015181526020018c600760088110151561080357fe5b60200201518152508a611342565b925060036000846000191660001916815260200190815260200160002060009054906101000a900460ff16156108a55782600019168b73ffffffffffffffffffffffffffffffffffffffff166001600381111561086a57fe5b60ff167f2ced8b4371717a8c6ce644dc517a7eaf4c7c0b52e5ab304c4c7472b15588b10260405160405180910390a460006001029350610f67565b60026000846000191660001916815260200190815260200160002060009054906101000a900460ff16156109375782600019168b73ffffffffffffffffffffffffffffffffffffffff16600060038111156108fc57fe5b60ff167f2ced8b4371717a8c6ce644dc517a7eaf4c7c0b52e5ab304c4c7472b15588b10260405160405180910390a460006001029350610f67565b61097d8b8489600160038110151561094b57fe5b602002015189600160038110151561095f57fe5b602002015189600160038110151561097357fe5b6020020151611598565b15156109e75782600019168b73ffffffffffffffffffffffffffffffffffffffff16600260038111156109ac57fe5b60ff167f2ced8b4371717a8c6ce644dc517a7eaf4c7c0b52e5ab304c4c7472b15588b10260405160405180910390a460006001029350610f67565b610a208960056008811015156109f957fe5b60200201518a6002600881101515610a0d57fe5b602002015161169f90919063ffffffff16565b9150610a408b8b6004600681101515610a3557fe5b6020020151846116bd565b1515610aa95782600019168b73ffffffffffffffffffffffffffffffffffffffff16600380811115610a6e57fe5b60ff167f2ced8b4371717a8c6ce644dc517a7eaf4c7c0b52e5ab304c4c7472b15588b10260405160405180910390a460006001029350610f67565b6000821115610add57610ad18a6004600681101515610ac457fe5b60200201518c30856117d9565b1515610adc57600080fd5b5b600160009054906101000a900473ffffffffffffffffffffffffffffffffffffffff1673ffffffffffffffffffffffffffffffffffffffff1663079dd4b76000604051602001526040518163ffffffff167c0100000000000000000000000000000000000000000000000000000000028152600401602060405180830381600087803b1515610b6b57600080fd5b6102c65a03f11515610b7c57600080fd5b5050506040518051905073ffffffffffffffffffffffffffffffffffffffff1663e6488fc9308c8c8c8c8c8c6000604051602001526040518863ffffffff167c0100000000000000000000000000000000000000000000000000000000028152600401808873ffffffffffffffffffffffffffffffffffffffff1673ffffffffffffffffffffffffffffffffffffffff16815260200187600660200280838360005b83811015610c39578082015181840152602081019050610c1e565b5050505090500186600860200280838360005b83811015610c67578082015181840152602081019050610c4c565b5050505090500185600160200280838360005b83811015610c95578082015181840152602081019050610c7a565b5050505090500184600360200280838360005b83811015610cc3578082015181840152602081019050610ca8565b5050505090500183600360200280838360005b83811015610cf1578082015181840152602081019050610cd6565b5050505090500182600360200280838360005b83811015610d1f578082015181840152602081019050610d04565b50505050905001975050505050505050602060405180830381600087803b1515610d4857600080fd5b6102c65a03f11515610d5957600080fd5b505050604051805190509050600060010260001916816000191614151515610d8057600080fd5b600160036000856000191660001916815260200190815260200160002060006101000a81548160ff021916908315150217905550600160009054906101000a900473ffffffffffffffffffffffffffffffffffffffff1673ffffffffffffffffffffffffffffffffffffffff1663f8d898986000604051602001526040518163ffffffff167c0100000000000000000000000000000000000000000000000000000000028152600401602060405180830381600087803b1515610e4257600080fd5b6102c65a03f11515610e5357600080fd5b5050506040518051905073ffffffffffffffffffffffffffffffffffffffff1663a9059cbb8c83600190046040518363ffffffff167c0100000000000000000000000000000000000000000000000000000000028152600401808373ffffffffffffffffffffffffffffffffffffffff1673ffffffffffffffffffffffffffffffffffffffff16815260200182815260200192505050600060405180830381600087803b1515610f0257600080fd5b6102c65a03f11515610f1357600080fd5b505050806000191683600019168c73ffffffffffffffffffffffffffffffffffffffff167f44bca8cc6f9375e3d800b6361e71fdde37e4fc86bdc3a72c4f8f69bbd19a01f360405160405180910390a48093505b505050979650505050505050565b600060149054906101000a900460ff1681565b6000809054906101000a900473ffffffffffffffffffffffffffffffffffffffff1673ffffffffffffffffffffffffffffffffffffffff163373ffffffffffffffffffffffffffffffffffffffff16141515610fe357600080fd5b600060149054906101000a900460ff16151515610fff57600080fd5b6001600060146101000a81548160ff0219169083151502179055507f6985a02210a168e66602d3235cb6db0e70f92b3ba4d376a33c0f3d9434bff62560405160405180910390a1565b6000809054906101000a900473ffffffffffffffffffffffffffffffffffffffff1681565b60008060149054906101000a900460ff1615151561108a57600080fd5b83600060058110151561109957fe5b602002015173ffffffffffffffffffffffffffffffffffffffff163373ffffffffffffffffffffffffffffffffffffffff161415156110d757600080fd5b6110e2848484611342565b9050600160026000836000191660001916815260200190815260200160002060006101000a81548160ff021916908315150217905550806000191684600060058110151561112c57fe5b602002015173ffffffffffffffffffffffffffffffffffffffff167f07d3242876ac355520b94ab74873262d83b5b81dbd5da781118f78cee0bbe74760405160405180910390a350505050565b60026020528060005260406000206000915054906101000a900460ff1681565b600160009054906101000a900473ffffffffffffffffffffffffffffffffffffffff1681565b60036020528060005260406000206000915054906101000a900460ff1681565b600060010281565b611f4081565b6000809054906101000a900473ffffffffffffffffffffffffffffffffffffffff1673ffffffffffffffffffffffffffffffffffffffff163373ffffffffffffffffffffffffffffffffffffffff1614151561124857600080fd5b600073ffffffffffffffffffffffffffffffffffffffff168173ffffffffffffffffffffffffffffffffffffffff161415151561128457600080fd5b8073ffffffffffffffffffffffffffffffffffffffff166000809054906101000a900473ffffffffffffffffffffffffffffffffffffffff1673ffffffffffffffffffffffffffffffffffffffff167f8be0079c531659141344cd1fd0a4f28419497f9722a3daafe3b4186f6b6457e060405160405180910390a3806000806101000a81548173ffffffffffffffffffffffffffffffffffffffff021916908373ffffffffffffffffffffffffffffffffffffffff16021790555050565b600083600060058110151561135357fe5b602002015184600160058110151561136757fe5b602002015185600260058110151561137b57fe5b602002015186600360058110151561138f57fe5b60200201518760046005811015156113a357fe5b60200201518760006004811015156113b757fe5b60200201518860016004811015156113cb57fe5b60200201518960026004811015156113df57fe5b60200201518a60036004811015156113f357fe5b60200201518a600060018110151561140757fe5b6020020151604051808b73ffffffffffffffffffffffffffffffffffffffff1673ffffffffffffffffffffffffffffffffffffffff166c010000000000000000000000000281526014018a73ffffffffffffffffffffffffffffffffffffffff1673ffffffffffffffffffffffffffffffffffffffff166c010000000000000000000000000281526014018973ffffffffffffffffffffffffffffffffffffffff1673ffffffffffffffffffffffffffffffffffffffff166c010000000000000000000000000281526014018873ffffffffffffffffffffffffffffffffffffffff1673ffffffffffffffffffffffffffffffffffffffff166c010000000000000000000000000281526014018773ffffffffffffffffffffffffffffffffffffffff1673ffffffffffffffffffffffffffffffffffffffff166c0100000000000000000000000002815260140186815260200185815260200184815260200183815260200182600019166000191681526020019a5050505050505050505050604051809103902090509392505050565b600060018560405180807f19457468657265756d205369676e6564204d6573736167653a0a333200000000815250601c0182600019166000191681526020019150506040518091039020858585604051600081526020016040526000604051602001526040518085600019166000191681526020018460ff1660ff16815260200183600019166000191681526020018260001916600019168152602001945050505050602060405160208103908084039060008661646e5a03f1151561165d57600080fd5b50506020604051035173ffffffffffffffffffffffffffffffffffffffff168673ffffffffffffffffffffffffffffffffffffffff1614905095945050505050565b60008082840190508381101515156116b357fe5b8091505092915050565b6000806000806116ce8688306118df565b92506116da86886119d7565b9150848210806116e957508483105b156116f757600093506117cf565b6117aa8630600160009054906101000a900473ffffffffffffffffffffffffffffffffffffffff1673ffffffffffffffffffffffffffffffffffffffff16630eefdbad6000604051602001526040518163ffffffff167c0100000000000000000000000000000000000000000000000000000000028152600401602060405180830381600087803b151561178a57600080fd5b6102c65a03f1151561179b57600080fd5b505050604051805190506118df565b9050848110156117ca576117be8686611a9a565b15156117c957600080fd5b5b600193505b5050509392505050565b60008473ffffffffffffffffffffffffffffffffffffffff166323b872dd8585856000604051602001526040518463ffffffff167c0100000000000000000000000000000000000000000000000000000000028152600401808473ffffffffffffffffffffffffffffffffffffffff1673ffffffffffffffffffffffffffffffffffffffff1681526020018373ffffffffffffffffffffffffffffffffffffffff1673ffffffffffffffffffffffffffffffffffffffff1681526020018281526020019350505050602060405180830381600087803b15156118ba57600080fd5b6102c65a03f115156118cb57600080fd5b505050604051805190509050949350505050565b60008373ffffffffffffffffffffffffffffffffffffffff1663dd62ed3e611f4061ffff1685856040518463ffffffff167c0100000000000000000000000000000000000000000000000000000000028152600401808373ffffffffffffffffffffffffffffffffffffffff1673ffffffffffffffffffffffffffffffffffffffff1681526020018273ffffffffffffffffffffffffffffffffffffffff1673ffffffffffffffffffffffffffffffffffffffff16815260200192505050602060405180830381600088803b15156119b657600080fd5b87f115156119c357600080fd5b505050506040518051905090509392505050565b60008273ffffffffffffffffffffffffffffffffffffffff166370a08231611f4061ffff16846040518363ffffffff167c0100000000000000000000000000000000000000000000000000000000028152600401808273ffffffffffffffffffffffffffffffffffffffff1673ffffffffffffffffffffffffffffffffffffffff168152602001915050602060405180830381600088803b1515611a7a57600080fd5b87f11515611a8757600080fd5b5050505060405180519050905092915050565b60008273ffffffffffffffffffffffffffffffffffffffff1663095ea7b3600160009054906101000a900473ffffffffffffffffffffffffffffffffffffffff1673ffffffffffffffffffffffffffffffffffffffff16630eefdbad6000604051602001526040518163ffffffff167c0100000000000000000000000000000000000000000000000000000000028152600401602060405180830381600087803b1515611b4657600080fd5b6102c65a03f11515611b5757600080fd5b50505060405180519050846000604051602001526040518363ffffffff167c0100000000000000000000000000000000000000000000000000000000028152600401808373ffffffffffffffffffffffffffffffffffffffff1673ffffffffffffffffffffffffffffffffffffffff16815260200182815260200192505050602060405180830381600087803b1515611bef57600080fd5b6102c65a03f11515611c0057600080fd5b505050604051805190509050929150505600a165627a7a723058209f0d4f966ecc8c40cd26e38b0cfcc8614288bc1385264476bd4e92086ba5b5960029",
  "source": "/*\n\n  Copyright 2017 Dharma Labs Inc.\n\n  Licensed under the Apache License, Version 2.0 (the \"License\");\n  you may not use this file except in compliance with the License.\n  You may obtain a copy of the License at\n\n    http://www.apache.org/licenses/LICENSE-2.0\n\n  Unless required by applicable law or agreed to in writing, software\n  distributed under the License is distributed on an \"AS IS\" BASIS,\n  WITHOUT WARRANTIES OR CONDITIONS OF ANY KIND, either express or implied.\n  See the License for the specific language governing permissions and\n  limitations under the License.\n\n*/\n\npragma solidity 0.4.18;\n\nimport \"./ContractRegistry.sol\";\nimport \"zeppelin-solidity/contracts/lifecycle/Pausable.sol\";\nimport \"zeppelin-solidity/contracts/math/SafeMath.sol\";\nimport \"zeppelin-solidity/contracts/token/ERC20/ERC20.sol\";\n\n\n/**\n * The CreditorProxy is a thin wrapper around the DebtKernel\n * It implements creditor-driven loans as specified by DIP-1\n *\n * Authors: Bo Henderson <bohendo> & Shivani Gupta <shivgupt> & Dharma Team\n * DIP: https://github.com/dharmaprotocol/DIPs/issues/1\n */\ncontract CreditorProxy is Pausable {\n    using SafeMath for uint;\n\n    enum Errors {\n        DEBT_OFFER_CANCELLED,\n        DEBT_OFFER_ALREADY_FILLED,\n        DEBT_OFFER_NON_CONSENSUAL,\n        CREDITOR_BALANCE_OR_ALLOWANCE_INSUFFICIENT\n    }\n\n    ContractRegistry public contractRegistry;\n\n    bytes32 constant public NULL_ISSUANCE_HASH = bytes32(0);\n    uint16 constant public EXTERNAL_QUERY_GAS_LIMIT = 8000;\n\n    mapping (bytes32 => bool) public debtOfferCancelled;\n    mapping (bytes32 => bool) public debtOfferFilled;\n\n    event LogDebtOfferCancelled(\n        address indexed _creditor,\n        bytes32 indexed _creditorCommitmentHash\n    );\n\n    event LogDebtOfferFilled(\n        address indexed _creditor,\n        bytes32 indexed _creditorCommitmentHash,\n        bytes32 indexed _agreementId\n    );\n\n    event LogError(\n        uint8 indexed _errorId,\n        address indexed _creditor,\n        bytes32 indexed _creditorCommitmentHash\n    );\n\n    function CreditorProxy(address _contractRegistry)\n        public\n    {\n        contractRegistry = ContractRegistry(_contractRegistry);\n    }\n\n    /*\n     * Submit debt order to DebtKernel if it is consensual with creditor's request\n     * Creditor signature in arguments is only used internally,\n     * It will not be verified by the Debt Kernel\n     */\n    function fillDebtOffer(\n        address creditor,\n        address[6] orderAddresses, // repayment-router, debtor, uw, tc, p-token, relayer\n        uint[8] orderValues, // rr, salt, pa, uwFee, rFee, cFee, dFee, expTime\n        bytes32[1] orderBytes32, // tcParams\n        uint8[3] signaturesV, // debtV, credV, uwV\n        bytes32[3] signaturesR,\n        bytes32[3] signaturesS\n    )\n        public\n        whenNotPaused\n        returns (bytes32 _agreementId)\n    {\n\n        bytes32 creditorCommitmentHash = getCreditorCommitmentHash(\n            [\n                creditor,\n                address(contractRegistry.debtKernel()), // debt kernel version\n                orderAddresses[0], // repayment router version\n                orderAddresses[3], // terms contract address\n                orderAddresses[4] // principal token adddress\n\n            ],\n            [\n                orderValues[1], // salt\n                orderValues[2], // principal amount\n                orderValues[5], // creditor fee\n                orderValues[7] // commitmentExpirationTimestampInSec\n            ],\n            orderBytes32 // termsContractParameters\n        );\n\n        if (debtOfferFilled[creditorCommitmentHash]) {\n            LogError(uint8(Errors.DEBT_OFFER_ALREADY_FILLED), creditor, creditorCommitmentHash);\n            return NULL_ISSUANCE_HASH;\n        }\n\n        if (debtOfferCancelled[creditorCommitmentHash]) {\n            LogError(uint8(Errors.DEBT_OFFER_CANCELLED), creditor, creditorCommitmentHash);\n            return NULL_ISSUANCE_HASH;\n        }\n\n        if (!isValidSignature(\n            creditor,\n            creditorCommitmentHash,\n            signaturesV[1],\n            signaturesR[1],\n            signaturesS[1]\n        )) {\n            LogError(\n                uint8(Errors.DEBT_OFFER_NON_CONSENSUAL),\n                creditor,\n                creditorCommitmentHash\n            );\n            return NULL_ISSUANCE_HASH;\n        }\n\n        // principal amount + creditor fee\n        uint totalCreditorPayment = orderValues[2].add(orderValues[5]);\n\n        if (!hasSufficientBalanceAndAllowance(\n            creditor,\n            orderAddresses[4],\n            totalCreditorPayment\n        )) {\n            LogError(\n                uint8(Errors.CREDITOR_BALANCE_OR_ALLOWANCE_INSUFFICIENT),\n                creditor,\n                creditorCommitmentHash\n            );\n            return NULL_ISSUANCE_HASH;\n        }\n\n        // Transfer principal from creditor to CreditorProxy\n        if (totalCreditorPayment > 0) {\n            require(\n                transferTokensFrom(\n                    orderAddresses[4],\n                    creditor,\n                    address(this),\n                    totalCreditorPayment\n                )\n            );\n        }\n\n        // Grant allowance to the TokenTransferProxy for this contract.\n\n\n        // Fill debt order with this contract playing the role of creditor\n        bytes32 agreementId = contractRegistry.debtKernel().fillDebtOrder(\n            address(this),\n            orderAddresses,\n            orderValues,\n            orderBytes32,\n            signaturesV,\n            signaturesR,\n            signaturesS\n        );\n\n        require(agreementId != NULL_ISSUANCE_HASH);\n\n        debtOfferFilled[creditorCommitmentHash] = true;\n\n        // transfer debt token to real creditor\n        contractRegistry.debtToken().transfer(creditor, uint256(agreementId));\n\n        LogDebtOfferFilled(creditor, creditorCommitmentHash, agreementId);\n\n        return agreementId;\n    }\n\n    /**\n     * Allows creditor to prevent a debt offer from being used in the future\n     */\n    function cancelDebtOffer(\n        address[5] commitmentAddresses,\n        uint[4] commitmentValues,\n        bytes32[1] termsContractParameters\n    )\n        public\n        whenNotPaused\n    {\n        // sender must be the creditor\n        require(msg.sender == commitmentAddresses[0]);\n        bytes32 creditorCommitmentHash = getCreditorCommitmentHash(\n            commitmentAddresses,\n            commitmentValues,\n            termsContractParameters\n        );\n        debtOfferCancelled[creditorCommitmentHash] = true;\n        LogDebtOfferCancelled(commitmentAddresses[0], creditorCommitmentHash);\n    }\n\n    ////////////////////////\n    // INTERNAL FUNCTIONS //\n    ////////////////////////\n\n    /**\n     * Returns the messaged signed by the creditor to indicate their commitment\n     */\n    function getCreditorCommitmentHash(\n        address[5] commitmentAddresses,\n        uint[4] commitmentValues,\n        bytes32[1] termsContractParameters\n    )\n        internal\n        pure\n        returns (bytes32 _creditorCommitmentHash)\n    {\n        return keccak256(\n            commitmentAddresses[0], // creditor\n            commitmentAddresses[1], // debt kernel version\n            commitmentAddresses[2], // repayment router version\n            commitmentAddresses[3], // terms contract address\n            commitmentAddresses[4], // principal token address\n            commitmentValues[0], // salt\n            commitmentValues[1], // principal amount\n            commitmentValues[2], // creditor fee\n            commitmentValues[3], // commitmentExpirationTimestampInSec\n            termsContractParameters[0] // terms contract parameters\n        );\n    }\n\n\n    /**\n     * Assert that the creditor has a sufficient token balance and has granted the token transfer\n     * proxy contract sufficient allowance to suffice for the principal and creditor fee.\n     */\n    function hasSufficientBalanceAndAllowance(\n        address creditor,\n        address principalToken,\n        uint totalCreditorPayment\n    )\n        internal\n        returns (bool _isBalanceAndAllowanceSufficient)\n    {\n        // The allowance that this contract has for a creditor's tokens.\n        uint proxyAllowance = getAllowance(principalToken, creditor, address(this));\n        uint creditorBalance = getBalance(principalToken, creditor);\n\n        if (creditorBalance < totalCreditorPayment || proxyAllowance < totalCreditorPayment) {\n            return false;\n        }\n\n        // The allowance that the token transfer proxy has for this contract's tokens.\n        uint tokenTransferAllowance = getAllowance(\n            principalToken,\n            address(this),\n            contractRegistry.tokenTransferProxy()\n        );\n\n        // Ensure the token transfer proxy can transfer tokens from the creditor proxy\n        if (tokenTransferAllowance < totalCreditorPayment) {\n            require(setTokenTransferAllowance(principalToken, totalCreditorPayment));\n        }\n\n        return true;\n    }\n\n    /**\n     * Given a hashed message, a signer's address, and a signature,\n     * returns whether the signature is valid.\n     */\n    function isValidSignature(\n        address signer,\n        bytes32 hash,\n        uint8 v,\n        bytes32 r,\n        bytes32 s\n    )\n        internal\n        pure\n        returns (bool _valid)\n    {\n        return signer == ecrecover(\n            keccak256(\"\\x19Ethereum Signed Message:\\n32\", hash),\n            v,\n            r,\n            s\n        );\n    }\n\n    /**\n     * Helper function for querying an address' balance on a given token.\n     */\n    function getBalance(\n        address token,\n        address owner\n    )\n        internal\n        view\n        returns (uint _balance)\n    {\n        // Limit gas to prevent reentrancy.\n        return ERC20(token).balanceOf.gas(EXTERNAL_QUERY_GAS_LIMIT)(owner);\n    }\n\n    /**\n     * Helper function for querying this contract's allowance for transferring the given token.\n     */\n    function getAllowance(\n        address token,\n        address owner,\n        address granter\n    )\n        internal\n        view\n        returns (uint _allowance)\n    {\n        // Limit gas to prevent reentrancy.\n        return ERC20(token).allowance.gas(EXTERNAL_QUERY_GAS_LIMIT)(\n            owner,\n            granter\n        );\n    }\n\n    /**\n     * Helper function for approving this address' allowance to Dharma's token transfer proxy.\n     */\n    function setTokenTransferAllowance(\n        address token,\n        uint amount\n    )\n        internal\n        returns (bool _success)\n    {\n        return ERC20(token).approve(\n            address(contractRegistry.tokenTransferProxy()),\n            amount\n        );\n    }\n\n\n    /**\n     * Helper function for transferring a specified amount of tokens between two parties.\n     */\n    function transferTokensFrom(\n        address _token,\n        address _from,\n        address _to,\n        uint _amount\n    )\n        internal\n        returns (bool _success)\n    {\n        return ERC20(_token).transferFrom(_from, _to, _amount);\n    }\n}\n",
  "sourcePath": "/Users/graemeboy/Dharma/charta/contracts/CreditorProxy.sol",
  "compiler": {
    "name": "solc",
    "version": "0.4.18+commit.9cf6e910.Emscripten.clang"
  },
  "schemaVersion": "1.0.1",
  "updatedAt": "2018-10-15T20:10:49.389Z"
}