{
  "contractName": "CrowdfundingTokenRegistry",
  "abi": [
    {
      "constant": true,
      "inputs": [],
      "name": "TOKEN_NAME",
      "outputs": [
        {
          "name": "",
          "type": "string"
        }
      ],
      "payable": false,
      "stateMutability": "view",
      "type": "function"
    },
    {
      "constant": true,
      "inputs": [],
      "name": "TOKEN_SYMBOL",
      "outputs": [
        {
          "name": "",
          "type": "string"
        }
      ],
      "payable": false,
      "stateMutability": "view",
      "type": "function"
    },
    {
      "constant": true,
      "inputs": [],
      "name": "contractRegistryAddress",
      "outputs": [
        {
          "name": "",
          "type": "address"
        }
      ],
      "payable": false,
      "stateMutability": "view",
      "type": "function"
    },
    {
      "constant": true,
      "inputs": [
        {
          "name": "",
          "type": "uint256"
        }
      ],
      "name": "crowdfundingTokens",
      "outputs": [
        {
          "name": "",
          "type": "address"
        }
      ],
      "payable": false,
      "stateMutability": "view",
      "type": "function"
    },
    {
      "constant": true,
      "inputs": [],
      "name": "DECIMAL_UNITS",
      "outputs": [
        {
          "name": "",
          "type": "uint8"
        }
      ],
      "payable": false,
      "stateMutability": "view",
      "type": "function"
    },
    {
      "constant": true,
      "inputs": [],
      "name": "TRANSFERS_ENABLED",
      "outputs": [
        {
          "name": "",
          "type": "bool"
        }
      ],
      "payable": false,
      "stateMutability": "view",
      "type": "function"
    },
    {
      "constant": false,
      "inputs": [
        {
          "name": "_from",
          "type": "address"
        },
        {
          "name": "_tokenId",
          "type": "uint256"
        },
        {
          "name": "_data",
          "type": "bytes"
        }
      ],
      "name": "onERC721Received",
      "outputs": [
        {
          "name": "",
          "type": "bytes4"
        }
      ],
      "payable": false,
      "stateMutability": "nonpayable",
      "type": "function"
    },
    {
      "inputs": [
        {
          "name": "_contractRegistryAddress",
          "type": "address"
        }
      ],
      "payable": false,
      "stateMutability": "nonpayable",
      "type": "constructor"
    },
    {
      "anonymous": false,
      "inputs": [
        {
          "indexed": false,
          "name": "_owner",
          "type": "address"
        },
        {
          "indexed": false,
          "name": "_debtToken",
          "type": "address"
        },
        {
          "indexed": false,
          "name": "_agreementId",
          "type": "uint256"
        },
        {
          "indexed": false,
          "name": "_repaymentTokenIndex",
          "type": "uint256"
        }
      ],
      "name": "LogCreateAndRegisterCrowdfundingToken",
      "type": "event"
    }
  ],
  "bytecode": "0x6060604052341561000f57600080fd5b6040516020806132da83398101604052808051906020019091905050806000806101000a81548173ffffffffffffffffffffffffffffffffffffffff021916908373ffffffffffffffffffffffffffffffffffffffff1602179055505061325f8061007b6000396000f300606060405260043610610083576000357c0100000000000000000000000000000000000000000000000000000000900463ffffffff16806318821400146100885780632a9053181461011657806346af6070146101a45780639402e919146101f9578063afb9016a1461025c578063caf03e821461028b578063f0b9e5ba146102b8575b600080fd5b341561009357600080fd5b61009b61038f565b6040518080602001828103825283818151815260200191508051906020019080838360005b838110156100db5780820151818401526020810190506100c0565b50505050905090810190601f1680156101085780820380516001836020036101000a031916815260200191505b509250505060405180910390f35b341561012157600080fd5b6101296103c8565b6040518080602001828103825283818151815260200191508051906020019080838360005b8381101561016957808201518184015260208101905061014e565b50505050905090810190601f1680156101965780820380516001836020036101000a031916815260200191505b509250505060405180910390f35b34156101af57600080fd5b6101b7610401565b604051808273ffffffffffffffffffffffffffffffffffffffff1673ffffffffffffffffffffffffffffffffffffffff16815260200191505060405180910390f35b341561020457600080fd5b61021a6004808035906020019091905050610426565b604051808273ffffffffffffffffffffffffffffffffffffffff1673ffffffffffffffffffffffffffffffffffffffff16815260200191505060405180910390f35b341561026757600080fd5b61026f610459565b604051808260ff1660ff16815260200191505060405180910390f35b341561029657600080fd5b61029e61045e565b604051808215151515815260200191505060405180910390f35b34156102c357600080fd5b61033b600480803573ffffffffffffffffffffffffffffffffffffffff1690602001909190803590602001909190803590602001908201803590602001908080601f01602080910402602001604051908101604052809392919081815260200183838082843782019150505050505091905050610463565b60405180827bffffffffffffffffffffffffffffffffffffffffffffffffffffffff19167bffffffffffffffffffffffffffffffffffffffffffffffffffffffff1916815260200191505060405180910390f35b6040805190810160405280601981526020017f446861726d612043726f776466756e64696e6720546f6b656e0000000000000081525081565b6040805190810160405280600381526020017f444654000000000000000000000000000000000000000000000000000000000081525081565b6000809054906101000a900473ffffffffffffffffffffffffffffffffffffffff1681565b60016020528060005260406000206000915054906101000a900473ffffffffffffffffffffffffffffffffffffffff1681565b601281565b600181565b6000806000806000809054906101000a900473ffffffffffffffffffffffffffffffffffffffff1692508273ffffffffffffffffffffffffffffffffffffffff1663f8d898986000604051602001526040518163ffffffff167c0100000000000000000000000000000000000000000000000000000000028152600401602060405180830381600087803b15156104f957600080fd5b6102c65a03f1151561050a57600080fd5b5050506040518051905073ffffffffffffffffffffffffffffffffffffffff163373ffffffffffffffffffffffffffffffffffffffff1614151561054d57600080fd5b61055685610804565b9150600073ffffffffffffffffffffffffffffffffffffffff168373ffffffffffffffffffffffffffffffffffffffff16639d23c4c76000604051602001526040518163ffffffff167c0100000000000000000000000000000000000000000000000000000000028152600401602060405180830381600087803b15156105dc57600080fd5b6102c65a03f115156105ed57600080fd5b5050506040518051905073ffffffffffffffffffffffffffffffffffffffff16635715c5b7846000604051602001526040518263ffffffff167c010000000000000000000000000000000000000000000000000000000002815260040180828152602001915050602060405180830381600087803b151561066d57600080fd5b6102c65a03f1151561067e57600080fd5b5050506040518051905073ffffffffffffffffffffffffffffffffffffffff16141515156106ab57600080fd5b6106d98733886000809054906101000a900473ffffffffffffffffffffffffffffffffffffffff16866108b9565b9050806001600088815260200190815260200160002060006101000a81548173ffffffffffffffffffffffffffffffffffffffff021916908373ffffffffffffffffffffffffffffffffffffffff1602179055507f26b498477d6b18bfdbc9d1c2b345a09b48971dafaf8819173450abd5c46c64b387338885604051808573ffffffffffffffffffffffffffffffffffffffff1673ffffffffffffffffffffffffffffffffffffffff1681526020018473ffffffffffffffffffffffffffffffffffffffff1673ffffffffffffffffffffffffffffffffffffffff16815260200183815260200182815260200194505050505060405180910390a163f0b9e5ba7c01000000000000000000000000000000000000000000000000000000000293505050509392505050565b600080600090505b82518110156108b0576001810183510360080260020a838281518110151561083057fe5b9060200101517f010000000000000000000000000000000000000000000000000000000000000090047f0100000000000000000000000000000000000000000000000000000000000000027f010000000000000000000000000000000000000000000000000000000000000090040282019150808060010191505061080c565b81915050919050565b6000858585856040805190810160405280601981526020017f446861726d612043726f776466756e64696e6720546f6b656e0000000000000081525060126040805190810160405280600381526020017f4446540000000000000000000000000000000000000000000000000000000000815250886001610938610be0565b808a73ffffffffffffffffffffffffffffffffffffffff1673ffffffffffffffffffffffffffffffffffffffff1681526020018973ffffffffffffffffffffffffffffffffffffffff1673ffffffffffffffffffffffffffffffffffffffff1681526020018881526020018773ffffffffffffffffffffffffffffffffffffffff1673ffffffffffffffffffffffffffffffffffffffff168152602001806020018660ff1660ff1681526020018060200185815260200184151515158152602001838103835288818151815260200191508051906020019080838360005b83811015610a31578082015181840152602081019050610a16565b50505050905090810190601f168015610a5e5780820380516001836020036101000a031916815260200191505b50838103825286818151815260200191508051906020019080838360005b83811015610a97578082015181840152602081019050610a7c565b50505050905090810190601f168015610ac45780820380516001836020036101000a031916815260200191505b509b505050505050505050505050604051809103906000f0801515610ae857600080fd5b90508473ffffffffffffffffffffffffffffffffffffffff166342842e0e3083876040518463ffffffff167c0100000000000000000000000000000000000000000000000000000000028152600401808473ffffffffffffffffffffffffffffffffffffffff1673ffffffffffffffffffffffffffffffffffffffff1681526020018373ffffffffffffffffffffffffffffffffffffffff1673ffffffffffffffffffffffffffffffffffffffff1681526020018281526020019350505050600060405180830381600087803b1515610bc057600080fd5b6102c65a03f11515610bd157600080fd5b50505080905095945050505050565b60405161264380610bf1833901905600606060405234156200001057600080fd5b60405162002643380380620026438339810160405280805190602001909190805190602001909190805190602001909190805190602001909190805182019190602001805190602001909190805182019190602001805190602001909190805190602001909190505088806000806101000a81548173ffffffffffffffffffffffffffffffffffffffff021916908373ffffffffffffffffffffffffffffffffffffffff1602179055505087600460006101000a81548173ffffffffffffffffffffffffffffffffffffffff021916908373ffffffffffffffffffffffffffffffffffffffff1602179055508660058190555085600660006101000a81548173ffffffffffffffffffffffffffffffffffffffff021916908373ffffffffffffffffffffffffffffffffffffffff16021790555084600190805190602001906200015c929190620001c1565b5083600260006101000a81548160ff021916908360ff160217905550826003908051906020019062000190929190620001c1565b508160078190555080600d60006101000a81548160ff02191690831515021790555050505050505050505062000270565b828054600181600116156101000203166002900490600052602060002090601f016020900481019282601f106200020457805160ff191683800117855562000235565b8280016001018555821562000235579182015b828111156200023457825182559160200191906001019062000217565b5b50905062000244919062000248565b5090565b6200026d91905b80821115620002695760008160009055506001016200024f565b5090565b90565b6123c380620002806000396000f300606060405260043610610175576000357c0100000000000000000000000000000000000000000000000000000000900463ffffffff16806304d05ab21461017a57806306fdde031461019d578063095ea7b31461022b57806318160ddd1461028557806323b872dd146102ae578063313ce567146103275780633cebb82314610356578063422b10771461038f578063441a3e70146103e95780634ee2cd7e146104155780635733565e1461046b57806370a0823114610494578063827f32c0146104e157806395d89b411461053b57806396d1d1b7146105c9578063981b24d0146105f2578063a85f376114610629578063a9059cbb14610667578063abf410e5146106c1578063bef97c8714610716578063cae9ca5114610743578063d735d2dc146107e0578063dd62ed3e1461083f578063df8de3e7146108ab578063e2739491146108e4578063f0b9e5ba1461090d578063f41e60c5146109e4578063f77c479114610a09578063f8d8989814610a5e575b600080fd5b341561018557600080fd5b61019b6004808035906020019091905050610ab3565b005b34156101a857600080fd5b6101b0610b32565b6040518080602001828103825283818151815260200191508051906020019080838360005b838110156101f05780820151818401526020810190506101d5565b50505050905090810190601f16801561021d5780820380516001836020036101000a031916815260200191505b509250505060405180910390f35b341561023657600080fd5b61026b600480803573ffffffffffffffffffffffffffffffffffffffff16906020019091908035906020019091905050610bd0565b604051808215151515815260200191505060405180910390f35b341561029057600080fd5b610298610d73565b6040518082815260200191505060405180910390f35b34156102b957600080fd5b61030d600480803573ffffffffffffffffffffffffffffffffffffffff1690602001909190803573ffffffffffffffffffffffffffffffffffffffff16906020019091908035906020019091905050610d83565b604051808215151515815260200191505060405180910390f35b341561033257600080fd5b61033a610f23565b604051808260ff1660ff16815260200191505060405180910390f35b341561036157600080fd5b61038d600480803573ffffffffffffffffffffffffffffffffffffffff16906020019091905050610f36565b005b341561039a57600080fd5b6103cf600480803573ffffffffffffffffffffffffffffffffffffffff16906020019091908035906020019091905050610fd4565b604051808215151515815260200191505060405180910390f35b34156103f457600080fd5b6104136004808035906020019091908035906020019091905050611003565b005b341561042057600080fd5b610455600480803573ffffffffffffffffffffffffffffffffffffffff1690602001909190803590602001909190505061139a565b6040518082815260200191505060405180910390f35b341561047657600080fd5b61047e6114a8565b6040518082815260200191505060405180910390f35b341561049f57600080fd5b6104cb600480803573ffffffffffffffffffffffffffffffffffffffff169060200190919050506114ae565b6040518082815260200191505060405180910390f35b34156104ec57600080fd5b610521600480803573ffffffffffffffffffffffffffffffffffffffff169060200190919080359060200190919050506114c1565b604051808215151515815260200191505060405180910390f35b341561054657600080fd5b61054e61160b565b6040518080602001828103825283818151815260200191508051906020019080838360005b8381101561058e578082015181840152602081019050610573565b50505050905090810190601f1680156105bb5780820380516001836020036101000a031916815260200191505b509250505060405180910390f35b34156105d457600080fd5b6105dc6116a9565b6040518082815260200191505060405180910390f35b34156105fd57600080fd5b61061360048080359060200190919050506116b6565b6040518082815260200191505060405180910390f35b341561063457600080fd5b61064a600480803590602001909190505061170c565b604051808381526020018281526020019250505060405180910390f35b341561067257600080fd5b6106a7600480803573ffffffffffffffffffffffffffffffffffffffff1690602001909190803590602001909190505061173f565b604051808215151515815260200191505060405180910390f35b34156106cc57600080fd5b6106d461176f565b604051808273ffffffffffffffffffffffffffffffffffffffff1673ffffffffffffffffffffffffffffffffffffffff16815260200191505060405180910390f35b341561072157600080fd5b610729611795565b604051808215151515815260200191505060405180910390f35b341561074e57600080fd5b6107c6600480803573ffffffffffffffffffffffffffffffffffffffff1690602001909190803590602001909190803590602001908201803590602001908080601f016020809104026020016040519081016040528093929190818152602001838380828437820191505050505050919050506117a8565b604051808215151515815260200191505060405180910390f35b34156107eb57600080fd5b610829600480803573ffffffffffffffffffffffffffffffffffffffff16906020019091908035906020019091908035906020019091905050611921565b6040518082815260200191505060405180910390f35b341561084a57600080fd5b610895600480803573ffffffffffffffffffffffffffffffffffffffff1690602001909190803573ffffffffffffffffffffffffffffffffffffffff16906020019091905050611a64565b6040518082815260200191505060405180910390f35b34156108b657600080fd5b6108e2600480803573ffffffffffffffffffffffffffffffffffffffff16906020019091905050611aeb565b005b34156108ef57600080fd5b6108f7611e1c565b6040518082815260200191505060405180910390f35b341561091857600080fd5b610990600480803573ffffffffffffffffffffffffffffffffffffffff1690602001909190803590602001909190803590602001908201803590602001908080601f01602080910402602001604051908101604052809392919081815260200183838082843782019150505050505091905050611e22565b60405180827bffffffffffffffffffffffffffffffffffffffffffffffffffffffff19167bffffffffffffffffffffffffffffffffffffffffffffffffffffffff1916815260200191505060405180910390f35b34156109ef57600080fd5b610a0760048080351515906020019091905050611e51565b005b3415610a1457600080fd5b610a1c611ec9565b604051808273ffffffffffffffffffffffffffffffffffffffff1673ffffffffffffffffffffffffffffffffffffffff16815260200191505060405180910390f35b3415610a6957600080fd5b610a71611eee565b604051808273ffffffffffffffffffffffffffffffffffffffff1673ffffffffffffffffffffffffffffffffffffffff16815260200191505060405180910390f35b6000809054906101000a900473ffffffffffffffffffffffffffffffffffffffff1673ffffffffffffffffffffffffffffffffffffffff163373ffffffffffffffffffffffffffffffffffffffff16141515610b0e57600080fd5b6000610b18610d73565b111515610b2457600080fd5b610b2f600882611f14565b50565b60018054600181600116156101000203166002900480601f016020809104026020016040519081016040528092919081815260200182805460018160011615610100020316600290048015610bc85780601f10610b9d57610100808354040283529160200191610bc8565b820191906000526020600020905b815481529060010190602001808311610bab57829003601f168201915b505050505081565b6000600d60009054906101000a900460ff161515610bed57600080fd5b6000821480610c7857506000600b60003373ffffffffffffffffffffffffffffffffffffffff1673ffffffffffffffffffffffffffffffffffffffff16815260200190815260200160002060008573ffffffffffffffffffffffffffffffffffffffff1673ffffffffffffffffffffffffffffffffffffffff16815260200190815260200160002054145b1515610c8357600080fd5b81600b60003373ffffffffffffffffffffffffffffffffffffffff1673ffffffffffffffffffffffffffffffffffffffff16815260200190815260200160002060008573ffffffffffffffffffffffffffffffffffffffff1673ffffffffffffffffffffffffffffffffffffffff168152602001908152602001600020819055508273ffffffffffffffffffffffffffffffffffffffff163373ffffffffffffffffffffffffffffffffffffffff167f8c5be1e5ebec7d5bd14f71427d1e84f3dd0314c0f7b2291e5b200ac8c7c3b925846040518082815260200191505060405180910390a36001905092915050565b6000610d7e436116b6565b905090565b60008060009054906101000a900473ffffffffffffffffffffffffffffffffffffffff1673ffffffffffffffffffffffffffffffffffffffff163373ffffffffffffffffffffffffffffffffffffffff16141515610f0e57600d60009054906101000a900460ff161515610df657600080fd5b81600b60008673ffffffffffffffffffffffffffffffffffffffff1673ffffffffffffffffffffffffffffffffffffffff16815260200190815260200160002060003373ffffffffffffffffffffffffffffffffffffffff1673ffffffffffffffffffffffffffffffffffffffff168152602001908152602001600020541015610e835760009050610f1c565b81600b60008673ffffffffffffffffffffffffffffffffffffffff1673ffffffffffffffffffffffffffffffffffffffff16815260200190815260200160002060003373ffffffffffffffffffffffffffffffffffffffff1673ffffffffffffffffffffffffffffffffffffffff168152602001908152602001600020600082825403925050819055505b610f19848484611fd0565b90505b9392505050565b600260009054906101000a900460ff1681565b6000809054906101000a900473ffffffffffffffffffffffffffffffffffffffff1673ffffffffffffffffffffffffffffffffffffffff163373ffffffffffffffffffffffffffffffffffffffff16141515610f9157600080fd5b806000806101000a81548173ffffffffffffffffffffffffffffffffffffffff021916908373ffffffffffffffffffffffffffffffffffffffff16021790555050565b60096020528160005260406000206020528060005260406000206000915091509054906101000a900460ff1681565b600080600080611012336114ae565b11151561101e57600080fd5b611029338686611921565b925060008311151561103a57600080fd5b600660009054906101000a900473ffffffffffffffffffffffffffffffffffffffff1673ffffffffffffffffffffffffffffffffffffffff16639d23c4c76000604051602001526040518163ffffffff167c0100000000000000000000000000000000000000000000000000000000028152600401602060405180830381600087803b15156110c857600080fd5b6102c65a03f115156110d957600080fd5b5050506040518051905073ffffffffffffffffffffffffffffffffffffffff16635715c5b76007546000604051602001526040518263ffffffff167c010000000000000000000000000000000000000000000000000000000002815260040180828152602001915050602060405180830381600087803b151561115b57600080fd5b6102c65a03f1151561116c57600080fd5b505050604051805190509150828273ffffffffffffffffffffffffffffffffffffffff166370a08231306000604051602001526040518263ffffffff167c0100000000000000000000000000000000000000000000000000000000028152600401808273ffffffffffffffffffffffffffffffffffffffff1673ffffffffffffffffffffffffffffffffffffffff168152602001915050602060405180830381600087803b151561121c57600080fd5b6102c65a03f1151561122d57600080fd5b505050604051805190501015151561124457600080fd5b8173ffffffffffffffffffffffffffffffffffffffff1663a9059cbb33856000604051602001526040518363ffffffff167c0100000000000000000000000000000000000000000000000000000000028152600401808373ffffffffffffffffffffffffffffffffffffffff1673ffffffffffffffffffffffffffffffffffffffff16815260200182815260200192505050602060405180830381600087803b15156112ef57600080fd5b6102c65a03f1151561130057600080fd5b5050506040518051905015611393578490505b8381111515611392576001600960003373ffffffffffffffffffffffffffffffffffffffff1673ffffffffffffffffffffffffffffffffffffffff168152602001908152602001600020600083815260200190815260200160002060006101000a81548160ff0219169083151502179055508080600101915050611313565b5b5050505050565b600080600a60008573ffffffffffffffffffffffffffffffffffffffff1673ffffffffffffffffffffffffffffffffffffffff168152602001908152602001600020805490501480611449575081600a60008573ffffffffffffffffffffffffffffffffffffffff1673ffffffffffffffffffffffffffffffffffffffff168152602001908152602001600020600081548110151561143557fe5b906000526020600020906002020160000154115b1561145757600090506114a2565b61149f600a60008573ffffffffffffffffffffffffffffffffffffffff1673ffffffffffffffffffffffffffffffffffffffff16815260200190815260200160002083612185565b90505b92915050565b60075481565b60006114ba824361139a565b9050919050565b60008060008060009054906101000a900473ffffffffffffffffffffffffffffffffffffffff1673ffffffffffffffffffffffffffffffffffffffff163373ffffffffffffffffffffffffffffffffffffffff1614151561152157600080fd5b611529610d73565b9150818483011015151561153c57600080fd5b611545856114ae565b9050808482011015151561155857600080fd5b611565600c858401611f14565b6115af600a60008773ffffffffffffffffffffffffffffffffffffffff1673ffffffffffffffffffffffffffffffffffffffff168152602001908152602001600020858301611f14565b8473ffffffffffffffffffffffffffffffffffffffff1660007fddf252ad1be2c89b69c2b068fc378daa952ba7f163c4a11628f55a4df523b3ef866040518082815260200191505060405180910390a360019250505092915050565b60038054600181600116156101000203166002900480601f0160208091040260200160405190810160405280929190818152602001828054600181600116156101000203166002900480156116a15780601f10611676576101008083540402835291602001916116a1565b820191906000526020600020905b81548152906001019060200180831161168457829003601f168201915b505050505081565b6000600880549050905090565b600080600c8054905014806116eb575081600c60008154811015156116d757fe5b906000526020600020906002020160000154115b156116f95760009050611707565b611704600c83612185565b90505b919050565b60088181548110151561171b57fe5b90600052602060002090600202016000915090508060000154908060010154905082565b6000600d60009054906101000a900460ff16151561175c57600080fd5b611767338484611fd0565b905092915050565b600660009054906101000a900473ffffffffffffffffffffffffffffffffffffffff1681565b600d60009054906101000a900460ff1681565b60006117b48484610bd0565b15156117bf57600080fd5b8373ffffffffffffffffffffffffffffffffffffffff16638f4ffcb1338530866040518563ffffffff167c0100000000000000000000000000000000000000000000000000000000028152600401808573ffffffffffffffffffffffffffffffffffffffff1673ffffffffffffffffffffffffffffffffffffffff1681526020018481526020018373ffffffffffffffffffffffffffffffffffffffff1673ffffffffffffffffffffffffffffffffffffffff16815260200180602001828103825283818151815260200191508051906020019080838360005b838110156118b4578082015181840152602081019050611899565b50505050905090810190601f1680156118e15780820380516001836020036101000a031916815260200191505b5095505050505050600060405180830381600087803b151561190257600080fd5b6102c65a03f1151561191357600080fd5b505050600190509392505050565b60008060008060008060008060008a1015151561193d57600080fd5b6008805490508910151561195057600080fd5b600960008c73ffffffffffffffffffffffffffffffffffffffff1673ffffffffffffffffffffffffffffffffffffffff16815260200190815260200160002096508995505b8886111515611a535786600087815260200190815260200160002060009054906101000a900460ff16156119c857611a46565b6008868154811015156119d757fe5b9060005260206000209060020201945084600101549350846000015492506119ff8b8461139a565b9150611a0a836116b6565b9050611a43611a3482611a2685886122c290919063ffffffff16565b6122fd90919063ffffffff16565b8961231890919063ffffffff16565b97505b8580600101965050611995565b879750505050505050509392505050565b6000600b60008473ffffffffffffffffffffffffffffffffffffffff1673ffffffffffffffffffffffffffffffffffffffff16815260200190815260200160002060008373ffffffffffffffffffffffffffffffffffffffff1673ffffffffffffffffffffffffffffffffffffffff16815260200190815260200160002054905092915050565b6000806000809054906101000a900473ffffffffffffffffffffffffffffffffffffffff1673ffffffffffffffffffffffffffffffffffffffff163373ffffffffffffffffffffffffffffffffffffffff16141515611b4957600080fd5b60008373ffffffffffffffffffffffffffffffffffffffff161415611be5576000809054906101000a900473ffffffffffffffffffffffffffffffffffffffff1673ffffffffffffffffffffffffffffffffffffffff166108fc3073ffffffffffffffffffffffffffffffffffffffff16319081150290604051600060405180830381858888f193505050501515611be057600080fd5b611e17565b8291508173ffffffffffffffffffffffffffffffffffffffff166370a08231306000604051602001526040518263ffffffff167c0100000000000000000000000000000000000000000000000000000000028152600401808273ffffffffffffffffffffffffffffffffffffffff1673ffffffffffffffffffffffffffffffffffffffff168152602001915050602060405180830381600087803b1515611c8b57600080fd5b6102c65a03f11515611c9c57600080fd5b5050506040518051905090508173ffffffffffffffffffffffffffffffffffffffff1663a9059cbb6000809054906101000a900473ffffffffffffffffffffffffffffffffffffffff16836000604051602001526040518363ffffffff167c0100000000000000000000000000000000000000000000000000000000028152600401808373ffffffffffffffffffffffffffffffffffffffff1673ffffffffffffffffffffffffffffffffffffffff16815260200182815260200192505050602060405180830381600087803b1515611d7457600080fd5b6102c65a03f11515611d8557600080fd5b50505060405180519050506000809054906101000a900473ffffffffffffffffffffffffffffffffffffffff1673ffffffffffffffffffffffffffffffffffffffff168373ffffffffffffffffffffffffffffffffffffffff167ff931edb47c50b4b4104c187b5814a9aef5f709e17e2ecf9617e860cacade929c836040518082815260200191505060405180910390a35b505050565b60055481565b600063f0b9e5ba7c01000000000000000000000000000000000000000000000000000000000290509392505050565b6000809054906101000a900473ffffffffffffffffffffffffffffffffffffffff1673ffffffffffffffffffffffffffffffffffffffff163373ffffffffffffffffffffffffffffffffffffffff16141515611eac57600080fd5b80600d60006101000a81548160ff02191690831515021790555050565b6000809054906101000a900473ffffffffffffffffffffffffffffffffffffffff1681565b600460009054906101000a900473ffffffffffffffffffffffffffffffffffffffff1681565b600080600084805490501480611f4f575043846001868054905003815481101515611f3b57fe5b906000526020600020906002020160000154105b15611f9b5783848054809190600101611f689190612336565b815481101515611f7457fe5b90600052602060002090600202019150438260000181905550828260010181905550611fca565b836001858054905003815481101515611fb057fe5b906000526020600020906002020190508281600101819055505b50505050565b600080600080841415611fe6576001925061217c565b60008573ffffffffffffffffffffffffffffffffffffffff161415801561203957503073ffffffffffffffffffffffffffffffffffffffff168573ffffffffffffffffffffffffffffffffffffffff1614155b151561204457600080fd5b61204e864361139a565b915083821015612061576000925061217c565b6120ab600a60008873ffffffffffffffffffffffffffffffffffffffff1673ffffffffffffffffffffffffffffffffffffffff168152602001908152602001600020858403611f14565b6120b5854361139a565b905080848201101515156120c857600080fd5b612112600a60008773ffffffffffffffffffffffffffffffffffffffff1673ffffffffffffffffffffffffffffffffffffffff168152602001908152602001600020858301611f14565b8473ffffffffffffffffffffffffffffffffffffffff168673ffffffffffffffffffffffffffffffffffffffff167fddf252ad1be2c89b69c2b068fc378daa952ba7f163c4a11628f55a4df523b3ef866040518082815260200191505060405180910390a3600192505b50509392505050565b6000806000806000868054905014156121a157600093506122b9565b8560018780549050038154811015156121b657fe5b906000526020600020906002020160000154851015156121fe578560018780549050038154811015156121e557fe5b90600052602060002090600202016001015493506122b9565b85600081548110151561220d57fe5b90600052602060002090600202016000015485101561222f57600093506122b9565b60009250600186805490500391505b8282111561229657600260018484010181151561225757fe5b04905084868281548110151561226957fe5b90600052602060002090600202016000015411151561228a57809250612291565b6001810391505b61223e565b85838154811015156122a457fe5b90600052602060002090600202016001015493505b50505092915050565b60008060008414156122d757600091506122f6565b82840290508284828115156122e857fe5b041415156122f257fe5b8091505b5092915050565b600080828481151561230b57fe5b0490508091505092915050565b600080828401905083811015151561232c57fe5b8091505092915050565b815481835581811511612363576002028160020283600052602060002091820191016123629190612368565b5b505050565b61239491905b808211156123905760008082016000905560018201600090555060020161236e565b5090565b905600a165627a7a72305820864e94e895c88d96355606e55bae79b02d5acfa7264b1d749b8cbee29c15e2d70029a165627a7a72305820468de4798eee4e4b084199a818f5f1c958ec6cef885df1c4a96d4ce6a9e4c2540029",
  "source": "pragma solidity 0.4.18;\n\nimport \"zeppelin-solidity/contracts/token/ERC721/ERC721Receiver.sol\";\n\nimport \"../ContractRegistry.sol\";\nimport \"../DebtRegistry.sol\";\nimport \"../DebtToken.sol\";\nimport \"../TokenRegistry.sol\";\n\nimport \"./CrowdfundingToken.sol\";\nimport \"./Controlled.sol\";\n\ncontract CrowdfundingTokenRegistry is ERC721Receiver {\n    uint8 constant public DECIMAL_UNITS = 18;\n    bool constant public TRANSFERS_ENABLED = true;\n    string constant public TOKEN_NAME = \"Dharma Crowdfunding Token\";\n    string constant public TOKEN_SYMBOL = \"DFT\";\n\n    event LogCreateAndRegisterCrowdfundingToken(\n        address _owner,\n        address _debtToken,\n        uint _agreementId,\n        uint _repaymentTokenIndex\n    );\n\n    address public contractRegistryAddress;\n\n    // Mapping of Dharma DebtToken agreementId to address of CrowdfundingToken\n    mapping (uint => address) public crowdfundingTokens;\n\n    function CrowdfundingTokenRegistry(\n        address _contractRegistryAddress\n    )\n        public\n    {\n        contractRegistryAddress = _contractRegistryAddress;\n    }\n\n    /**\n     * Transfer a Dharma DebtToken to the CrowdfundingTokenRegistry to trigger the creation of a CrowdfundingToken\n     */\n    function onERC721Received(address _from, uint256 _tokenId, bytes _data)\n        public\n        returns (bytes4)\n    {\n        ContractRegistry contractRegistry = ContractRegistry(contractRegistryAddress);\n\n        // require that the received ERC-721 is a DebtToken\n        require(msg.sender == address(contractRegistry.debtToken()));\n\n        uint repaymentTokenIndex = bytesToUint(_data);\n\n        // require that the given repaymentTokenIndex maps to a token in the registry\n        require(contractRegistry.tokenRegistry().getTokenAddressByIndex(repaymentTokenIndex) != address(0));\n\n        // create a CrowdfundingToken to wrap the DebtToken\n        address crowdfundingToken = createCrowdfundingToken(\n            _from,\n            msg.sender,\n            _tokenId,\n            contractRegistryAddress,\n            repaymentTokenIndex\n        );\n\n        // add the CrowdfundingToken to the registry\n        crowdfundingTokens[_tokenId] = crowdfundingToken;\n\n        LogCreateAndRegisterCrowdfundingToken(\n            _from,\n            msg.sender,\n            _tokenId,\n            repaymentTokenIndex\n        );\n\n        return ERC721_RECEIVED;\n    }\n\n    /**\n     * Creates a new CrowdfundingToken\n     */\n    function createCrowdfundingToken(\n        address _owner,\n        address _debtToken,\n        uint _agreementId,\n        address _contractRegistryAddress,\n        uint _repaymentTokenIndex\n    )\n        internal\n        returns (address crowdfundingToken)\n    {\n        // create the CrowdfundingToken\n        crowdfundingToken =\n            new CrowdfundingToken(\n                _owner,\n                _debtToken,\n                _agreementId,\n                _contractRegistryAddress,\n                TOKEN_NAME,\n                DECIMAL_UNITS,\n                TOKEN_SYMBOL,\n                _repaymentTokenIndex,\n                TRANSFERS_ENABLED\n            );\n\n        // transfer ownership of the DebtToken to the CrowdfundingToken\n        DebtToken(_debtToken).safeTransferFrom(address(this), crowdfundingToken, _agreementId);\n\n        return crowdfundingToken;\n    }\n\n    function bytesToUint(\n        bytes b\n    )\n        internal\n        pure\n        returns (uint unsigned_int)\n    {\n        for(uint i = 0; i < b.length; i++){\n            unsigned_int = unsigned_int + uint(b[i]) * (2 ** (8 * (b.length - (i+1))));\n        }\n        return unsigned_int;\n    }\n}\n",
  "sourcePath": "/Users/chrismin/Documents/dev/dharma/charta/contracts/crowdfunding/CrowdfundingTokenRegistry.sol",
  "compiler": {
    "name": "solc",
    "version": "0.4.18+commit.9cf6e910.Emscripten.clang"
  },
  "schemaVersion": "1.0.1",
  "updatedAt": "2018-07-24T01:56:01.171Z"
}