{
  "contractName": "DebtToken",
  "abi": [
    {
      "constant": true,
      "inputs": [
        {
          "name": "interfaceID",
          "type": "bytes4"
        }
      ],
      "name": "supportsInterface",
      "outputs": [
        {
          "name": "_isSupported",
          "type": "bool"
        }
      ],
      "payable": false,
      "stateMutability": "view",
      "type": "function"
    },
    {
      "constant": true,
      "inputs": [],
      "name": "getAuthorizedMintAgents",
      "outputs": [
        {
          "name": "_agents",
          "type": "address[]"
        }
      ],
      "payable": false,
      "stateMutability": "view",
      "type": "function"
    },
    {
      "constant": true,
      "inputs": [],
      "name": "name",
      "outputs": [
        {
          "name": "",
          "type": "string"
        }
      ],
      "payable": false,
      "stateMutability": "view",
      "type": "function"
    },
    {
      "constant": true,
      "inputs": [
        {
          "name": "_tokenId",
          "type": "uint256"
        }
      ],
      "name": "getApproved",
      "outputs": [
        {
          "name": "",
          "type": "address"
        }
      ],
      "payable": false,
      "stateMutability": "view",
      "type": "function"
    },
    {
      "constant": false,
      "inputs": [
        {
          "name": "_to",
          "type": "address"
        },
        {
          "name": "_tokenId",
          "type": "uint256"
        }
      ],
      "name": "approve",
      "outputs": [],
      "payable": false,
      "stateMutability": "nonpayable",
      "type": "function"
    },
    {
      "constant": true,
      "inputs": [],
      "name": "totalSupply",
      "outputs": [
        {
          "name": "",
          "type": "uint256"
        }
      ],
      "payable": false,
      "stateMutability": "view",
      "type": "function"
    },
    {
      "constant": false,
      "inputs": [
        {
          "name": "_from",
          "type": "address"
        },
        {
          "name": "_to",
          "type": "address"
        },
        {
          "name": "_tokenId",
          "type": "uint256"
        }
      ],
      "name": "transferFrom",
      "outputs": [],
      "payable": false,
      "stateMutability": "nonpayable",
      "type": "function"
    },
    {
      "constant": true,
      "inputs": [
        {
          "name": "_owner",
          "type": "address"
        },
        {
          "name": "_index",
          "type": "uint256"
        }
      ],
      "name": "tokenOfOwnerByIndex",
      "outputs": [
        {
          "name": "",
          "type": "uint256"
        }
      ],
      "payable": false,
      "stateMutability": "view",
      "type": "function"
    },
    {
      "constant": false,
      "inputs": [],
      "name": "unpause",
      "outputs": [],
      "payable": false,
      "stateMutability": "nonpayable",
      "type": "function"
    },
    {
      "constant": false,
      "inputs": [
        {
          "name": "_from",
          "type": "address"
        },
        {
          "name": "_to",
          "type": "address"
        },
        {
          "name": "_tokenId",
          "type": "uint256"
        }
      ],
      "name": "safeTransferFrom",
      "outputs": [],
      "payable": false,
      "stateMutability": "nonpayable",
      "type": "function"
    },
    {
      "constant": true,
      "inputs": [
        {
          "name": "_tokenId",
          "type": "uint256"
        }
      ],
      "name": "exists",
      "outputs": [
        {
          "name": "",
          "type": "bool"
        }
      ],
      "payable": false,
      "stateMutability": "view",
      "type": "function"
    },
    {
      "constant": true,
      "inputs": [
        {
          "name": "_index",
          "type": "uint256"
        }
      ],
      "name": "tokenByIndex",
      "outputs": [
        {
          "name": "",
          "type": "uint256"
        }
      ],
      "payable": false,
      "stateMutability": "view",
      "type": "function"
    },
    {
      "constant": true,
      "inputs": [],
      "name": "paused",
      "outputs": [
        {
          "name": "",
          "type": "bool"
        }
      ],
      "payable": false,
      "stateMutability": "view",
      "type": "function"
    },
    {
      "constant": true,
      "inputs": [
        {
          "name": "_tokenId",
          "type": "uint256"
        }
      ],
      "name": "ownerOf",
      "outputs": [
        {
          "name": "",
          "type": "address"
        }
      ],
      "payable": false,
      "stateMutability": "view",
      "type": "function"
    },
    {
      "constant": true,
      "inputs": [
        {
          "name": "_owner",
          "type": "address"
        }
      ],
      "name": "balanceOf",
      "outputs": [
        {
          "name": "",
          "type": "uint256"
        }
      ],
      "payable": false,
      "stateMutability": "view",
      "type": "function"
    },
    {
      "constant": true,
      "inputs": [],
      "name": "registry",
      "outputs": [
        {
          "name": "",
          "type": "address"
        }
      ],
      "payable": false,
      "stateMutability": "view",
      "type": "function"
    },
    {
      "constant": false,
      "inputs": [
        {
          "name": "_agent",
          "type": "address"
        }
      ],
      "name": "revokeMintAgentAuthorization",
      "outputs": [],
      "payable": false,
      "stateMutability": "nonpayable",
      "type": "function"
    },
    {
      "constant": false,
      "inputs": [],
      "name": "pause",
      "outputs": [],
      "payable": false,
      "stateMutability": "nonpayable",
      "type": "function"
    },
    {
      "constant": true,
      "inputs": [],
      "name": "owner",
      "outputs": [
        {
          "name": "",
          "type": "address"
        }
      ],
      "payable": false,
      "stateMutability": "view",
      "type": "function"
    },
    {
      "constant": true,
      "inputs": [],
      "name": "symbol",
      "outputs": [
        {
          "name": "",
          "type": "string"
        }
      ],
      "payable": false,
      "stateMutability": "view",
      "type": "function"
    },
    {
      "constant": false,
      "inputs": [
        {
          "name": "_version",
          "type": "address"
        },
        {
          "name": "_beneficiary",
          "type": "address"
        },
        {
          "name": "_debtor",
          "type": "address"
        },
        {
          "name": "_underwriter",
          "type": "address"
        },
        {
          "name": "_underwriterRiskRating",
          "type": "uint256"
        },
        {
          "name": "_termsContract",
          "type": "address"
        },
        {
          "name": "_termsContractParameters",
          "type": "bytes32"
        },
        {
          "name": "_salt",
          "type": "uint256"
        }
      ],
      "name": "create",
      "outputs": [
        {
          "name": "_tokenId",
          "type": "uint256"
        }
      ],
      "payable": false,
      "stateMutability": "nonpayable",
      "type": "function"
    },
    {
      "constant": false,
      "inputs": [
        {
          "name": "_agent",
          "type": "address"
        }
      ],
      "name": "addAuthorizedMintAgent",
      "outputs": [],
      "payable": false,
      "stateMutability": "nonpayable",
      "type": "function"
    },
    {
      "constant": false,
      "inputs": [
        {
          "name": "_to",
          "type": "address"
        },
        {
          "name": "_approved",
          "type": "bool"
        }
      ],
      "name": "setApprovalForAll",
      "outputs": [],
      "payable": false,
      "stateMutability": "nonpayable",
      "type": "function"
    },
    {
      "constant": false,
      "inputs": [
        {
          "name": "_to",
          "type": "address"
        },
        {
          "name": "_tokenId",
          "type": "uint256"
        }
      ],
      "name": "transfer",
      "outputs": [],
      "payable": false,
      "stateMutability": "nonpayable",
      "type": "function"
    },
    {
      "constant": false,
      "inputs": [
        {
          "name": "_from",
          "type": "address"
        },
        {
          "name": "_to",
          "type": "address"
        },
        {
          "name": "_tokenId",
          "type": "uint256"
        },
        {
          "name": "_data",
          "type": "bytes"
        }
      ],
      "name": "safeTransferFrom",
      "outputs": [],
      "payable": false,
      "stateMutability": "nonpayable",
      "type": "function"
    },
    {
      "constant": true,
      "inputs": [
        {
          "name": "_tokenId",
          "type": "uint256"
        }
      ],
      "name": "tokenURI",
      "outputs": [
        {
          "name": "",
          "type": "string"
        }
      ],
      "payable": false,
      "stateMutability": "view",
      "type": "function"
    },
    {
      "constant": true,
      "inputs": [
        {
          "name": "_owner",
          "type": "address"
        },
        {
          "name": "_operator",
          "type": "address"
        }
      ],
      "name": "isApprovedForAll",
      "outputs": [
        {
          "name": "",
          "type": "bool"
        }
      ],
      "payable": false,
      "stateMutability": "view",
      "type": "function"
    },
    {
      "constant": false,
      "inputs": [
        {
          "name": "newOwner",
          "type": "address"
        }
      ],
      "name": "transferOwnership",
      "outputs": [],
      "payable": false,
      "stateMutability": "nonpayable",
      "type": "function"
    },
    {
      "inputs": [
        {
          "name": "_registry",
          "type": "address"
        }
      ],
      "payable": false,
      "stateMutability": "nonpayable",
      "type": "constructor"
    },
    {
      "anonymous": false,
      "inputs": [],
      "name": "Pause",
      "type": "event"
    },
    {
      "anonymous": false,
      "inputs": [],
      "name": "Unpause",
      "type": "event"
    },
    {
      "anonymous": false,
      "inputs": [
        {
          "indexed": true,
          "name": "previousOwner",
          "type": "address"
        },
        {
          "indexed": true,
          "name": "newOwner",
          "type": "address"
        }
      ],
      "name": "OwnershipTransferred",
      "type": "event"
    },
    {
      "anonymous": false,
      "inputs": [
        {
          "indexed": true,
          "name": "_from",
          "type": "address"
        },
        {
          "indexed": true,
          "name": "_to",
          "type": "address"
        },
        {
          "indexed": false,
          "name": "_tokenId",
          "type": "uint256"
        }
      ],
      "name": "Transfer",
      "type": "event"
    },
    {
      "anonymous": false,
      "inputs": [
        {
          "indexed": true,
          "name": "_owner",
          "type": "address"
        },
        {
          "indexed": true,
          "name": "_approved",
          "type": "address"
        },
        {
          "indexed": false,
          "name": "_tokenId",
          "type": "uint256"
        }
      ],
      "name": "Approval",
      "type": "event"
    },
    {
      "anonymous": false,
      "inputs": [
        {
          "indexed": true,
          "name": "_owner",
          "type": "address"
        },
        {
          "indexed": true,
          "name": "_operator",
          "type": "address"
        },
        {
          "indexed": false,
          "name": "_approved",
          "type": "bool"
        }
      ],
      "name": "ApprovalForAll",
      "type": "event"
    }
  ],
  "bytecode": "0x60606040526000600b60146101000a81548160ff02191690831515021790555034156200002b57600080fd5b604051602080620030c8833981016040528080519060200190919050506040805190810160405280600981526020017f44656274546f6b656e00000000000000000000000000000000000000000000008152506040805190810160405280600381526020017f44445400000000000000000000000000000000000000000000000000000000008152508160049080519060200190620000cc92919062000171565b508060059080519060200190620000e592919062000171565b50505033600b60006101000a81548173ffffffffffffffffffffffffffffffffffffffff021916908373ffffffffffffffffffffffffffffffffffffffff16021790555080600c60006101000a81548173ffffffffffffffffffffffffffffffffffffffff021916908373ffffffffffffffffffffffffffffffffffffffff1602179055505062000220565b828054600181600116156101000203166002900490600052602060002090601f016020900481019282601f10620001b457805160ff1916838001178555620001e5565b82800160010185558215620001e5579182015b82811115620001e4578251825591602001919060010190620001c7565b5b509050620001f49190620001f8565b5090565b6200021d91905b8082111562000219576000816000905550600101620001ff565b5090565b90565b612e9880620002306000396000f30060606040526004361061016a576000357c0100000000000000000000000000000000000000000000000000000000900463ffffffff16806301ffc9a71461016f5780630343e122146101c957806306fdde0314610233578063081812fc146102c1578063095ea7b31461032457806318160ddd1461036657806323b872dd1461038f5780632f745c59146103f05780633f4ba83a1461044657806342842e0e1461045b5780634f558e79146104bc5780634f6ccce7146104f75780635c975abb1461052e5780636352211e1461055b57806370a08231146105be5780637b1039991461060b57806381ac3fbc146106605780638456cb59146106995780638da5cb5b146106ae57806395d89b411461070357806399f10501146107915780639c0d9c4314610879578063a22cb465146108b2578063a9059cbb146108f6578063b88d4fde14610938578063c87b56dd146109dc578063e985e9c514610a78578063f2fde38b14610ae8575b600080fd5b341561017a57600080fd5b6101af60048080357bffffffffffffffffffffffffffffffffffffffffffffffffffffffff1916906020019091905050610b21565b604051808215151515815260200191505060405180910390f35b34156101d457600080fd5b6101dc610b6f565b6040518080602001828103825283818151815260200191508051906020019060200280838360005b8381101561021f578082015181840152602081019050610204565b505050509050019250505060405180910390f35b341561023e57600080fd5b610246610b86565b6040518080602001828103825283818151815260200191508051906020019080838360005b8381101561028657808201518184015260208101905061026b565b50505050905090810190601f1680156102b35780820380516001836020036101000a031916815260200191505b509250505060405180910390f35b34156102cc57600080fd5b6102e26004808035906020019091905050610c2e565b604051808273ffffffffffffffffffffffffffffffffffffffff1673ffffffffffffffffffffffffffffffffffffffff16815260200191505060405180910390f35b341561032f57600080fd5b610364600480803573ffffffffffffffffffffffffffffffffffffffff16906020019091908035906020019091905050610c6b565b005b341561037157600080fd5b610379610c95565b6040518082815260200191505060405180910390f35b341561039a57600080fd5b6103ee600480803573ffffffffffffffffffffffffffffffffffffffff1690602001909190803573ffffffffffffffffffffffffffffffffffffffff16906020019091908035906020019091905050610ca2565b005b34156103fb57600080fd5b610430600480803573ffffffffffffffffffffffffffffffffffffffff16906020019091908035906020019091905050610cd8565b6040518082815260200191505060405180910390f35b341561045157600080fd5b610459610d50565b005b341561046657600080fd5b6104ba600480803573ffffffffffffffffffffffffffffffffffffffff1690602001909190803573ffffffffffffffffffffffffffffffffffffffff16906020019091908035906020019091905050610e10565b005b34156104c757600080fd5b6104dd6004808035906020019091905050610e46565b604051808215151515815260200191505060405180910390f35b341561050257600080fd5b6105186004808035906020019091905050610eb7565b6040518082815260200191505060405180910390f35b341561053957600080fd5b610541610ef0565b604051808215151515815260200191505060405180910390f35b341561056657600080fd5b61057c6004808035906020019091905050610f03565b604051808273ffffffffffffffffffffffffffffffffffffffff1673ffffffffffffffffffffffffffffffffffffffff16815260200191505060405180910390f35b34156105c957600080fd5b6105f5600480803573ffffffffffffffffffffffffffffffffffffffff16906020019091905050610f80565b6040518082815260200191505060405180910390f35b341561061657600080fd5b61061e611004565b604051808273ffffffffffffffffffffffffffffffffffffffff1673ffffffffffffffffffffffffffffffffffffffff16815260200191505060405180910390f35b341561066b57600080fd5b610697600480803573ffffffffffffffffffffffffffffffffffffffff1690602001909190505061102a565b005b34156106a457600080fd5b6106ac61109d565b005b34156106b957600080fd5b6106c161115e565b604051808273ffffffffffffffffffffffffffffffffffffffff1673ffffffffffffffffffffffffffffffffffffffff16815260200191505060405180910390f35b341561070e57600080fd5b610716611184565b6040518080602001828103825283818151815260200191508051906020019080838360005b8381101561075657808201518184015260208101905061073b565b50505050905090810190601f1680156107835780820380516001836020036101000a031916815260200191505b509250505060405180910390f35b341561079c57600080fd5b610863600480803573ffffffffffffffffffffffffffffffffffffffff1690602001909190803573ffffffffffffffffffffffffffffffffffffffff1690602001909190803573ffffffffffffffffffffffffffffffffffffffff1690602001909190803573ffffffffffffffffffffffffffffffffffffffff1690602001909190803590602001909190803573ffffffffffffffffffffffffffffffffffffffff169060200190919080356000191690602001909190803590602001909190505061122c565b6040518082815260200191505060405180910390f35b341561088457600080fd5b6108b0600480803573ffffffffffffffffffffffffffffffffffffffff1690602001909190505061145e565b005b34156108bd57600080fd5b6108f4600480803573ffffffffffffffffffffffffffffffffffffffff1690602001909190803515159060200190919050506114d1565b005b341561090157600080fd5b610936600480803573ffffffffffffffffffffffffffffffffffffffff169060200190919080359060200190919050506114fb565b005b341561094357600080fd5b6109da600480803573ffffffffffffffffffffffffffffffffffffffff1690602001909190803573ffffffffffffffffffffffffffffffffffffffff1690602001909190803590602001909190803590602001908201803590602001908080601f0160208091040260200160405190810160405280939291908181526020018383808284378201915050505050509190505061150a565b005b34156109e757600080fd5b6109fd6004808035906020019091905050611542565b6040518080602001828103825283818151815260200191508051906020019080838360005b83811015610a3d578082015181840152602081019050610a22565b50505050905090810190601f168015610a6a5780820380516001836020036101000a031916815260200191505b509250505060405180910390f35b3415610a8357600080fd5b610ace600480803573ffffffffffffffffffffffffffffffffffffffff1690602001909190803573ffffffffffffffffffffffffffffffffffffffff16906020019091905050611611565b604051808215151515815260200191505060405180910390f35b3415610af357600080fd5b610b1f600480803573ffffffffffffffffffffffffffffffffffffffff169060200190919050506116a5565b005b60006380ac58cd7c010000000000000000000000000000000000000000000000000000000002827bffffffffffffffffffffffffffffffffffffffffffffffffffffffff1916149050919050565b610b77612d6f565b610b81600d6117fd565b905090565b610b8e612d83565b60048054600181600116156101000203166002900480601f016020809104026020016040519081016040528092919081815260200182805460018160011615610100020316600290048015610c245780601f10610bf957610100808354040283529160200191610c24565b820191906000526020600020905b815481529060010190602001808311610c0757829003601f168201915b5050505050905090565b60006001600083815260200190815260200160002060009054906101000a900473ffffffffffffffffffffffffffffffffffffffff169050919050565b600b60149054906101000a900460ff16151515610c8757600080fd5b610c918282611895565b5050565b6000600880549050905090565b600b60149054906101000a900460ff16151515610cbe57600080fd5b610cc88183611a5b565b610cd3838383611c36565b505050565b6000610ce383610f80565b82101515610cf057600080fd5b600660008473ffffffffffffffffffffffffffffffffffffffff1673ffffffffffffffffffffffffffffffffffffffff16815260200190815260200160002082815481101515610d3c57fe5b906000526020600020900154905092915050565b600b60009054906101000a900473ffffffffffffffffffffffffffffffffffffffff1673ffffffffffffffffffffffffffffffffffffffff163373ffffffffffffffffffffffffffffffffffffffff16141515610dac57600080fd5b600b60149054906101000a900460ff161515610dc757600080fd5b6000600b60146101000a81548160ff0219169083151502179055507f7805862f689e2f13df9f062ff482ad3ad112aca9e0847911ed832e158c525b3360405160405180910390a1565b600b60149054906101000a900460ff16151515610e2c57600080fd5b610e368183611a5b565b610e41838383611d4d565b505050565b60008060008084815260200190815260200160002060009054906101000a900473ffffffffffffffffffffffffffffffffffffffff169050600073ffffffffffffffffffffffffffffffffffffffff168173ffffffffffffffffffffffffffffffffffffffff161415915050919050565b6000610ec1610c95565b82101515610ece57600080fd5b600882815481101515610edd57fe5b9060005260206000209001549050919050565b600b60149054906101000a900460ff1681565b60008060008084815260200190815260200160002060009054906101000a900473ffffffffffffffffffffffffffffffffffffffff169050600073ffffffffffffffffffffffffffffffffffffffff168173ffffffffffffffffffffffffffffffffffffffff1614151515610f7757600080fd5b80915050919050565b60008073ffffffffffffffffffffffffffffffffffffffff168273ffffffffffffffffffffffffffffffffffffffff1614151515610fbd57600080fd5b600260008373ffffffffffffffffffffffffffffffffffffffff1673ffffffffffffffffffffffffffffffffffffffff168152602001908152602001600020549050919050565b600c60009054906101000a900473ffffffffffffffffffffffffffffffffffffffff1681565b600b60009054906101000a900473ffffffffffffffffffffffffffffffffffffffff1673ffffffffffffffffffffffffffffffffffffffff163373ffffffffffffffffffffffffffffffffffffffff1614151561108657600080fd5b61109a81600d611d8590919063ffffffff16565b50565b600b60009054906101000a900473ffffffffffffffffffffffffffffffffffffffff1673ffffffffffffffffffffffffffffffffffffffff163373ffffffffffffffffffffffffffffffffffffffff161415156110f957600080fd5b600b60149054906101000a900460ff1615151561111557600080fd5b6001600b60146101000a81548160ff0219169083151502179055507f6985a02210a168e66602d3235cb6db0e70f92b3ba4d376a33c0f3d9434bff62560405160405180910390a1565b600b60009054906101000a900473ffffffffffffffffffffffffffffffffffffffff1681565b61118c612d83565b60058054600181600116156101000203166002900480601f0160208091040260200160405190810160405280929190818152602001828054600181600116156101000203166002900480156112225780601f106111f757610100808354040283529160200191611222565b820191906000526020600020905b81548152906001019060200180831161120557829003601f168201915b5050505050905090565b600080600b60149054906101000a900460ff1615151561124b57600080fd5b61125f33600d611fc790919063ffffffff16565b151561126a57600080fd5b600c60009054906101000a900473ffffffffffffffffffffffffffffffffffffffff1673ffffffffffffffffffffffffffffffffffffffff1663cf9df5eb8b8b8b8b8b8b8b8b6000604051602001526040518963ffffffff167c0100000000000000000000000000000000000000000000000000000000028152600401808973ffffffffffffffffffffffffffffffffffffffff1673ffffffffffffffffffffffffffffffffffffffff1681526020018873ffffffffffffffffffffffffffffffffffffffff1673ffffffffffffffffffffffffffffffffffffffff1681526020018773ffffffffffffffffffffffffffffffffffffffff1673ffffffffffffffffffffffffffffffffffffffff1681526020018673ffffffffffffffffffffffffffffffffffffffff1673ffffffffffffffffffffffffffffffffffffffff1681526020018581526020018473ffffffffffffffffffffffffffffffffffffffff1673ffffffffffffffffffffffffffffffffffffffff168152602001836000191660001916815260200182815260200198505050505050505050602060405180830381600087803b151561141f57600080fd5b6102c65a03f1151561143057600080fd5b50505060405180519050905061144a898260019004612020565b806001900491505098975050505050505050565b600b60009054906101000a900473ffffffffffffffffffffffffffffffffffffffff1673ffffffffffffffffffffffffffffffffffffffff163373ffffffffffffffffffffffffffffffffffffffff161415156114ba57600080fd5b6114ce81600d61207490919063ffffffff16565b50565b600b60149054906101000a900460ff161515156114ed57600080fd5b6114f7828261219c565b5050565b611506338383610e10565b5050565b600b60149054906101000a900460ff1615151561152657600080fd5b6115308284611a5b565b61153c848484846122d8565b50505050565b61154a612d83565b61155382610e46565b151561155e57600080fd5b600a60008381526020019081526020016000208054600181600116156101000203166002900480601f0160208091040260200160405190810160405280929190818152602001828054600181600116156101000203166002900480156116055780601f106115da57610100808354040283529160200191611605565b820191906000526020600020905b8154815290600101906020018083116115e857829003601f168201915b50505050509050919050565b6000600360008473ffffffffffffffffffffffffffffffffffffffff1673ffffffffffffffffffffffffffffffffffffffff16815260200190815260200160002060008373ffffffffffffffffffffffffffffffffffffffff1673ffffffffffffffffffffffffffffffffffffffff16815260200190815260200160002060009054906101000a900460ff16905092915050565b600b60009054906101000a900473ffffffffffffffffffffffffffffffffffffffff1673ffffffffffffffffffffffffffffffffffffffff163373ffffffffffffffffffffffffffffffffffffffff1614151561170157600080fd5b600073ffffffffffffffffffffffffffffffffffffffff168173ffffffffffffffffffffffffffffffffffffffff161415151561173d57600080fd5b8073ffffffffffffffffffffffffffffffffffffffff16600b60009054906101000a900473ffffffffffffffffffffffffffffffffffffffff1673ffffffffffffffffffffffffffffffffffffffff167f8be0079c531659141344cd1fd0a4f28419497f9722a3daafe3b4186f6b6457e060405160405180910390a380600b60006101000a81548173ffffffffffffffffffffffffffffffffffffffff021916908373ffffffffffffffffffffffffffffffffffffffff16021790555050565b611805612d6f565b8160020180548060200260200160405190810160405280929190818152602001828054801561188957602002820191906000526020600020905b8160009054906101000a900473ffffffffffffffffffffffffffffffffffffffff1673ffffffffffffffffffffffffffffffffffffffff168152602001906001019080831161183f575b50505050509050919050565b60006118a082610f03565b90508073ffffffffffffffffffffffffffffffffffffffff168373ffffffffffffffffffffffffffffffffffffffff16141515156118dd57600080fd5b8073ffffffffffffffffffffffffffffffffffffffff163373ffffffffffffffffffffffffffffffffffffffff16148061191d575061191c8133611611565b5b151561192857600080fd5b600073ffffffffffffffffffffffffffffffffffffffff1661194983610c2e565b73ffffffffffffffffffffffffffffffffffffffff161415806119995750600073ffffffffffffffffffffffffffffffffffffffff168373ffffffffffffffffffffffffffffffffffffffff1614155b15611a5657826001600084815260200190815260200160002060006101000a81548173ffffffffffffffffffffffffffffffffffffffff021916908373ffffffffffffffffffffffffffffffffffffffff1602179055508273ffffffffffffffffffffffffffffffffffffffff168173ffffffffffffffffffffffffffffffffffffffff167f8c5be1e5ebec7d5bd14f71427d1e84f3dd0314c0f7b2291e5b200ac8c7c3b925846040518082815260200191505060405180910390a35b505050565b8073ffffffffffffffffffffffffffffffffffffffff16600c60009054906101000a900473ffffffffffffffffffffffffffffffffffffffff1673ffffffffffffffffffffffffffffffffffffffff1663ba20dda4846001026000604051602001526040518263ffffffff167c0100000000000000000000000000000000000000000000000000000000028152600401808260001916600019168152602001915050602060405180830381600087803b1515611b1657600080fd5b6102c65a03f11515611b2757600080fd5b5050506040518051905073ffffffffffffffffffffffffffffffffffffffff16141515611c3257600c60009054906101000a900473ffffffffffffffffffffffffffffffffffffffff1673ffffffffffffffffffffffffffffffffffffffff16635969549e83600102836040518363ffffffff167c01000000000000000000000000000000000000000000000000000000000281526004018083600019166000191681526020018273ffffffffffffffffffffffffffffffffffffffff1673ffffffffffffffffffffffffffffffffffffffff16815260200192505050600060405180830381600087803b1515611c1d57600080fd5b6102c65a03f11515611c2e57600080fd5b5050505b5050565b80611c413382612317565b1515611c4c57600080fd5b600073ffffffffffffffffffffffffffffffffffffffff168473ffffffffffffffffffffffffffffffffffffffff1614151515611c8857600080fd5b600073ffffffffffffffffffffffffffffffffffffffff168373ffffffffffffffffffffffffffffffffffffffff1614151515611cc457600080fd5b611cce84836123ac565b611cd88483612515565b611ce28383612730565b8273ffffffffffffffffffffffffffffffffffffffff168473ffffffffffffffffffffffffffffffffffffffff167fddf252ad1be2c89b69c2b068fc378daa952ba7f163c4a11628f55a4df523b3ef846040518082815260200191505060405180910390a350505050565b80611d583382612317565b1515611d6357600080fd5b611d7f848484602060405190810160405280600081525061150a565b50505050565b6000806000611d948585611fc7565b1515611d9f57600080fd5b8460010160008573ffffffffffffffffffffffffffffffffffffffff1673ffffffffffffffffffffffffffffffffffffffff168152602001908152602001600020549250600185600201805490500391508460020182815481101515611e0157fe5b906000526020600020900160009054906101000a900473ffffffffffffffffffffffffffffffffffffffff1690508460000160008573ffffffffffffffffffffffffffffffffffffffff1673ffffffffffffffffffffffffffffffffffffffff16815260200190815260200160002060006101000a81549060ff0219169055808560020184815481101515611e9257fe5b906000526020600020900160006101000a81548173ffffffffffffffffffffffffffffffffffffffff021916908373ffffffffffffffffffffffffffffffffffffffff160217905550828560010160008373ffffffffffffffffffffffffffffffffffffffff1673ffffffffffffffffffffffffffffffffffffffff168152602001908152602001600020819055508460010160008573ffffffffffffffffffffffffffffffffffffffff1673ffffffffffffffffffffffffffffffffffffffff168152602001908152602001600020600090558460020182815481101515611f7757fe5b906000526020600020900160006101000a81549073ffffffffffffffffffffffffffffffffffffffff021916905560018560020181818054905003915081611fbf9190612d97565b505050505050565b60008260000160008373ffffffffffffffffffffffffffffffffffffffff1673ffffffffffffffffffffffffffffffffffffffff16815260200190815260200160002060009054906101000a900460ff16905092915050565b61202a8282612804565b60088054905060096000838152602001908152602001600020819055506008805480600101828161205b9190612dc3565b9160005260206000209001600083909190915055505050565b61207e82826128b4565b151561208957600080fd5b60018260000160008373ffffffffffffffffffffffffffffffffffffffff1673ffffffffffffffffffffffffffffffffffffffff16815260200190815260200160002060006101000a81548160ff0219169083151502179055508160020180548060010182816120f99190612def565b9160005260206000209001600083909190916101000a81548173ffffffffffffffffffffffffffffffffffffffff021916908373ffffffffffffffffffffffffffffffffffffffff1602179055505060018260020180549050038260010160008373ffffffffffffffffffffffffffffffffffffffff1673ffffffffffffffffffffffffffffffffffffffff168152602001908152602001600020819055505050565b3373ffffffffffffffffffffffffffffffffffffffff168273ffffffffffffffffffffffffffffffffffffffff16141515156121d757600080fd5b80600360003373ffffffffffffffffffffffffffffffffffffffff1673ffffffffffffffffffffffffffffffffffffffff16815260200190815260200160002060008473ffffffffffffffffffffffffffffffffffffffff1673ffffffffffffffffffffffffffffffffffffffff16815260200190815260200160002060006101000a81548160ff0219169083151502179055508173ffffffffffffffffffffffffffffffffffffffff163373ffffffffffffffffffffffffffffffffffffffff167f17307eab39ab6107e8899845ad3d59bd9653f200f220920489ca2b5937696c3183604051808215151515815260200191505060405180910390a35050565b816122e33382612317565b15156122ee57600080fd5b6122f9858585610ca2565b612305858585856128c9565b151561231057600080fd5b5050505050565b60008061232383610f03565b90508073ffffffffffffffffffffffffffffffffffffffff168473ffffffffffffffffffffffffffffffffffffffff16148061239257508373ffffffffffffffffffffffffffffffffffffffff1661237a84610c2e565b73ffffffffffffffffffffffffffffffffffffffff16145b806123a357506123a28185611611565b5b91505092915050565b8173ffffffffffffffffffffffffffffffffffffffff166123cc82610f03565b73ffffffffffffffffffffffffffffffffffffffff161415156123ee57600080fd5b600073ffffffffffffffffffffffffffffffffffffffff166001600083815260200190815260200160002060009054906101000a900473ffffffffffffffffffffffffffffffffffffffff1673ffffffffffffffffffffffffffffffffffffffff161415156125115760006001600083815260200190815260200160002060006101000a81548173ffffffffffffffffffffffffffffffffffffffff021916908373ffffffffffffffffffffffffffffffffffffffff160217905550600073ffffffffffffffffffffffffffffffffffffffff168273ffffffffffffffffffffffffffffffffffffffff167f8c5be1e5ebec7d5bd14f71427d1e84f3dd0314c0f7b2291e5b200ac8c7c3b925836040518082815260200191505060405180910390a35b5050565b60008060006125248585612a9f565b600760008581526020019081526020016000205492506125906001600660008873ffffffffffffffffffffffffffffffffffffffff1673ffffffffffffffffffffffffffffffffffffffff16815260200190815260200160002080549050612bcd90919063ffffffff16565b9150600660008673ffffffffffffffffffffffffffffffffffffffff1673ffffffffffffffffffffffffffffffffffffffff168152602001908152602001600020828154811015156125de57fe5b906000526020600020900154905080600660008773ffffffffffffffffffffffffffffffffffffffff1673ffffffffffffffffffffffffffffffffffffffff1681526020019081526020016000208481548110151561263957fe5b9060005260206000209001819055506000600660008773ffffffffffffffffffffffffffffffffffffffff1673ffffffffffffffffffffffffffffffffffffffff1681526020019081526020016000208381548110151561269657fe5b906000526020600020900181905550600660008673ffffffffffffffffffffffffffffffffffffffff1673ffffffffffffffffffffffffffffffffffffffff1681526020019081526020016000208054809190600190036126f79190612e1b565b50600060076000868152602001908152602001600020819055508260076000838152602001908152602001600020819055505050505050565b600061273c8383612be6565b600660008473ffffffffffffffffffffffffffffffffffffffff1673ffffffffffffffffffffffffffffffffffffffff168152602001908152602001600020805490509050600660008473ffffffffffffffffffffffffffffffffffffffff1673ffffffffffffffffffffffffffffffffffffffff16815260200190815260200160002080548060010182816127d29190612dc3565b916000526020600020900160008490919091505550806007600084815260200190815260200160002081905550505050565b600073ffffffffffffffffffffffffffffffffffffffff168273ffffffffffffffffffffffffffffffffffffffff161415151561284057600080fd5b61284a8282612730565b8173ffffffffffffffffffffffffffffffffffffffff16600073ffffffffffffffffffffffffffffffffffffffff167fddf252ad1be2c89b69c2b068fc378daa952ba7f163c4a11628f55a4df523b3ef836040518082815260200191505060405180910390a35050565b60006128c08383611fc7565b15905092915050565b6000806128eb8573ffffffffffffffffffffffffffffffffffffffff16612d3e565b15156128fa5760019150612a96565b8473ffffffffffffffffffffffffffffffffffffffff1663f0b9e5ba8786866000604051602001526040518463ffffffff167c0100000000000000000000000000000000000000000000000000000000028152600401808473ffffffffffffffffffffffffffffffffffffffff1673ffffffffffffffffffffffffffffffffffffffff16815260200183815260200180602001828103825283818151815260200191508051906020019080838360005b838110156129c55780820151818401526020810190506129aa565b50505050905090810190601f1680156129f25780820380516001836020036101000a031916815260200191505b50945050505050602060405180830381600087803b1515612a1257600080fd5b6102c65a03f11515612a2357600080fd5b50505060405180519050905063f0b9e5ba7c0100000000000000000000000000000000000000000000000000000000027bffffffffffffffffffffffffffffffffffffffffffffffffffffffff1916817bffffffffffffffffffffffffffffffffffffffffffffffffffffffff19161491505b50949350505050565b8173ffffffffffffffffffffffffffffffffffffffff16612abf82610f03565b73ffffffffffffffffffffffffffffffffffffffff16141515612ae157600080fd5b612b346001600260008573ffffffffffffffffffffffffffffffffffffffff1673ffffffffffffffffffffffffffffffffffffffff16815260200190815260200160002054612bcd90919063ffffffff16565b600260008473ffffffffffffffffffffffffffffffffffffffff1673ffffffffffffffffffffffffffffffffffffffff16815260200190815260200160002081905550600080600083815260200190815260200160002060006101000a81548173ffffffffffffffffffffffffffffffffffffffff021916908373ffffffffffffffffffffffffffffffffffffffff1602179055505050565b6000828211151515612bdb57fe5b818303905092915050565b600073ffffffffffffffffffffffffffffffffffffffff1660008083815260200190815260200160002060009054906101000a900473ffffffffffffffffffffffffffffffffffffffff1673ffffffffffffffffffffffffffffffffffffffff16141515612c5357600080fd5b8160008083815260200190815260200160002060006101000a81548173ffffffffffffffffffffffffffffffffffffffff021916908373ffffffffffffffffffffffffffffffffffffffff160217905550612cf76001600260008573ffffffffffffffffffffffffffffffffffffffff1673ffffffffffffffffffffffffffffffffffffffff16815260200190815260200160002054612d5190919063ffffffff16565b600260008473ffffffffffffffffffffffffffffffffffffffff1673ffffffffffffffffffffffffffffffffffffffff168152602001908152602001600020819055505050565b600080823b905060008111915050919050565b6000808284019050838110151515612d6557fe5b8091505092915050565b602060405190810160405280600081525090565b602060405190810160405280600081525090565b815481835581811511612dbe57818360005260206000209182019101612dbd9190612e47565b5b505050565b815481835581811511612dea57818360005260206000209182019101612de99190612e47565b5b505050565b815481835581811511612e1657818360005260206000209182019101612e159190612e47565b5b505050565b815481835581811511612e4257818360005260206000209182019101612e419190612e47565b5b505050565b612e6991905b80821115612e65576000816000905550600101612e4d565b5090565b905600a165627a7a7230582042458b27219f09d26cf979f27c88de3f971bcd360c59caba92fbee4f85e404f80029",
  "source": "/*\n\n  Copyright 2017 Dharma Labs Inc.\n\n  Licensed under the Apache License, Version 2.0 (the \"License\");\n  you may not use this file except in compliance with the License.\n  You may obtain a copy of the License at\n\n    http://www.apache.org/licenses/LICENSE-2.0\n\n  Unless required by applicable law or agreed to in writing, software\n  distributed under the License is distributed on an \"AS IS\" BASIS,\n  WITHOUT WARRANTIES OR CONDITIONS OF ANY KIND, either express or implied.\n  See the License for the specific language governing permissions and\n  limitations under the License.\n\n*/\n\npragma solidity 0.4.18;\n\nimport \"./DebtRegistry.sol\";\nimport \"./ERC165.sol\";\nimport \"zeppelin-solidity/contracts/lifecycle/Pausable.sol\";\nimport \"zeppelin-solidity/contracts/token/ERC721/ERC721Token.sol\";\nimport \"zeppelin-solidity/contracts/token/ERC20/ERC20.sol\";\n\n\n/**\n * The DebtToken contract governs all business logic for making a debt agreement\n * transferable as an ERC721 non-fungible token.  Additionally, the contract\n * allows authorized contracts to trigger the minting of a debt agreement token\n * and, in turn, the insertion of a debt issuance into the DebtRegsitry.\n *\n * Author: Nadav Hollander -- Github: nadavhollander\n */\ncontract DebtToken is ERC721Token, ERC165, Pausable {\n    using PermissionsLib for PermissionsLib.Permissions;\n\n    DebtRegistry public registry;\n\n    PermissionsLib.Permissions internal tokenCreationPermissions;\n    PermissionsLib.Permissions internal tokenBrokeragePermissions;\n\n    /**\n     * Constructor that sets the address of the debt registry.\n     */\n    function DebtToken(address _registry)\n        public\n        ERC721Token(\"DebtToken\", \"DDT\")\n    {\n        registry = DebtRegistry(_registry);\n    }\n\n    /**\n     * ERC165 interface.\n     * Returns true for ERC721, false otherwise\n     */\n    function supportsInterface(bytes4 interfaceID)\n        external\n        view\n        returns (bool _isSupported)\n    {\n        return interfaceID == 0x80ac58cd; // ERC721\n    }\n\n    /**\n     * Mints a unique debt token and inserts the associated issuance into\n     * the debt registry, if the calling address is authorized to do so.\n     */\n    function create(\n        address _version,\n        address _beneficiary,\n        address _debtor,\n        address _underwriter,\n        uint _underwriterRiskRating,\n        address _termsContract,\n        bytes32 _termsContractParameters,\n        uint _salt\n    )\n        public\n        whenNotPaused\n        returns (uint _tokenId)\n    {\n        require(tokenCreationPermissions.isAuthorized(msg.sender));\n\n        bytes32 entryHash = registry.insert(\n            _version,\n            _beneficiary,\n            _debtor,\n            _underwriter,\n            _underwriterRiskRating,\n            _termsContract,\n            _termsContractParameters,\n            _salt\n        );\n\n        super._mint(_beneficiary, uint(entryHash));\n\n        return uint(entryHash);\n    }\n\n    /**\n     * Adds an address to the list of agents authorized to mint debt tokens.\n     */\n    function addAuthorizedMintAgent(address _agent)\n        public\n        onlyOwner\n    {\n        tokenCreationPermissions.authorize(_agent);\n    }\n\n    /**\n     * Removes an address from the list of agents authorized to mint debt tokens\n     */\n    function revokeMintAgentAuthorization(address _agent)\n        public\n        onlyOwner\n    {\n        tokenCreationPermissions.revokeAuthorization(_agent);\n    }\n\n    /**\n     * Returns the list of agents authorized to mint debt tokens\n     */\n    function getAuthorizedMintAgents()\n        public\n        view\n        returns (address[] _agents)\n    {\n        return tokenCreationPermissions.getAuthorizedAgents();\n    }\n\n    /**\n     * We override approval method of the parent ERC721Token\n     * contract to allow its functionality to be frozen in the case of an emergency\n     */\n    function approve(address _to, uint _tokenId)\n        public\n        whenNotPaused\n    {\n        super.approve(_to, _tokenId);\n    }\n\n    /**\n     * We override setApprovalForAll method of the parent ERC721Token\n     * contract to allow its functionality to be frozen in the case of an emergency\n     */\n    function setApprovalForAll(address _to, bool _approved)\n        public\n        whenNotPaused\n    {\n        super.setApprovalForAll(_to, _approved);\n    }\n\n    /**\n     * Support deprecated ERC721 method\n     */\n    function transfer(address _to, uint _tokenId)\n        public\n    {\n        safeTransferFrom(msg.sender, _to, _tokenId);\n    }\n\n    /**\n     * We override transferFrom methods of the parent ERC721Token\n     * contract to allow its functionality to be frozen in the case of an emergency\n     */\n    function transferFrom(address _from, address _to, uint _tokenId)\n        public\n        whenNotPaused\n    {\n        _modifyBeneficiary(_tokenId, _to);\n        super.transferFrom(_from, _to, _tokenId);\n    }\n\n    /**\n     * We override safeTransferFrom methods of the parent ERC721Token\n     * contract to allow its functionality to be frozen in the case of an emergency\n     */\n    function safeTransferFrom(address _from, address _to, uint _tokenId)\n        public\n        whenNotPaused\n    {\n        _modifyBeneficiary(_tokenId, _to);\n        super.safeTransferFrom(_from, _to, _tokenId);\n    }\n\n    /**\n     * We override safeTransferFrom methods of the parent ERC721Token\n     * contract to allow its functionality to be frozen in the case of an emergency\n     */\n    function safeTransferFrom(address _from, address _to, uint _tokenId, bytes _data)\n        public\n        whenNotPaused\n    {\n        _modifyBeneficiary(_tokenId, _to);\n        super.safeTransferFrom(_from, _to, _tokenId, _data);\n    }\n\n    /**\n     * _modifyBeneficiary mutates the debt registry. This function should be\n     * called every time a token is transferred or minted\n     */\n    function _modifyBeneficiary(uint _tokenId, address _to)\n        internal\n    {\n        if (registry.getBeneficiary(bytes32(_tokenId)) != _to) {\n            registry.modifyBeneficiary(bytes32(_tokenId), _to);\n        }\n    }\n}\n",
  "sourcePath": "/Users/nadavhollander/Documents/Dharma/Development/charta/contracts/DebtToken.sol",
  "compiler": {
    "name": "solc",
    "version": "0.4.18+commit.9cf6e910.Emscripten.clang"
  },
  "schemaVersion": "1.0.1",
  "updatedAt": "2018-04-19T23:50:56.576Z"
}