{
  "contractName": "DharmaMultiSigWallet",
  "abi": [
    {
      "constant": true,
      "inputs": [
        {
          "name": "",
          "type": "uint256"
        }
      ],
      "name": "owners",
      "outputs": [
        {
          "name": "",
          "type": "address"
        }
      ],
      "payable": false,
      "stateMutability": "view",
      "type": "function"
    },
    {
      "constant": false,
      "inputs": [
        {
          "name": "owner",
          "type": "address"
        }
      ],
      "name": "removeOwner",
      "outputs": [],
      "payable": false,
      "stateMutability": "nonpayable",
      "type": "function"
    },
    {
      "constant": true,
      "inputs": [
        {
          "name": "",
          "type": "uint256"
        }
      ],
      "name": "transactionConfirmedBlockTimestamp",
      "outputs": [
        {
          "name": "",
          "type": "uint256"
        }
      ],
      "payable": false,
      "stateMutability": "view",
      "type": "function"
    },
    {
      "constant": false,
      "inputs": [
        {
          "name": "transactionId",
          "type": "uint256"
        }
      ],
      "name": "revokeConfirmation",
      "outputs": [],
      "payable": false,
      "stateMutability": "nonpayable",
      "type": "function"
    },
    {
      "constant": false,
      "inputs": [
        {
          "name": "transactionId",
          "type": "uint256"
        }
      ],
      "name": "executePauseTransactionImmediately",
      "outputs": [],
      "payable": false,
      "stateMutability": "nonpayable",
      "type": "function"
    },
    {
      "constant": true,
      "inputs": [
        {
          "name": "",
          "type": "address"
        }
      ],
      "name": "isOwner",
      "outputs": [
        {
          "name": "",
          "type": "bool"
        }
      ],
      "payable": false,
      "stateMutability": "view",
      "type": "function"
    },
    {
      "constant": true,
      "inputs": [
        {
          "name": "",
          "type": "uint256"
        },
        {
          "name": "",
          "type": "address"
        }
      ],
      "name": "confirmations",
      "outputs": [
        {
          "name": "",
          "type": "bool"
        }
      ],
      "payable": false,
      "stateMutability": "view",
      "type": "function"
    },
    {
      "constant": true,
      "inputs": [
        {
          "name": "pending",
          "type": "bool"
        },
        {
          "name": "executed",
          "type": "bool"
        }
      ],
      "name": "getTransactionCount",
      "outputs": [
        {
          "name": "count",
          "type": "uint256"
        }
      ],
      "payable": false,
      "stateMutability": "view",
      "type": "function"
    },
    {
      "constant": false,
      "inputs": [
        {
          "name": "owner",
          "type": "address"
        }
      ],
      "name": "addOwner",
      "outputs": [],
      "payable": false,
      "stateMutability": "nonpayable",
      "type": "function"
    },
    {
      "constant": true,
      "inputs": [],
      "name": "timelockInSeconds",
      "outputs": [
        {
          "name": "",
          "type": "uint256"
        }
      ],
      "payable": false,
      "stateMutability": "view",
      "type": "function"
    },
    {
      "constant": true,
      "inputs": [
        {
          "name": "transactionId",
          "type": "uint256"
        }
      ],
      "name": "isConfirmed",
      "outputs": [
        {
          "name": "",
          "type": "bool"
        }
      ],
      "payable": false,
      "stateMutability": "view",
      "type": "function"
    },
    {
      "constant": false,
      "inputs": [
        {
          "name": "_timelockInSeconds",
          "type": "uint256"
        }
      ],
      "name": "changeTimeLock",
      "outputs": [],
      "payable": false,
      "stateMutability": "nonpayable",
      "type": "function"
    },
    {
      "constant": true,
      "inputs": [
        {
          "name": "transactionId",
          "type": "uint256"
        }
      ],
      "name": "getConfirmationCount",
      "outputs": [
        {
          "name": "count",
          "type": "uint256"
        }
      ],
      "payable": false,
      "stateMutability": "view",
      "type": "function"
    },
    {
      "constant": true,
      "inputs": [
        {
          "name": "",
          "type": "uint256"
        }
      ],
      "name": "transactions",
      "outputs": [
        {
          "name": "destination",
          "type": "address"
        },
        {
          "name": "value",
          "type": "uint256"
        },
        {
          "name": "data",
          "type": "bytes"
        },
        {
          "name": "executed",
          "type": "bool"
        }
      ],
      "payable": false,
      "stateMutability": "view",
      "type": "function"
    },
    {
      "constant": true,
      "inputs": [],
      "name": "getOwners",
      "outputs": [
        {
          "name": "",
          "type": "address[]"
        }
      ],
      "payable": false,
      "stateMutability": "view",
      "type": "function"
    },
    {
      "constant": true,
      "inputs": [
        {
          "name": "from",
          "type": "uint256"
        },
        {
          "name": "to",
          "type": "uint256"
        },
        {
          "name": "pending",
          "type": "bool"
        },
        {
          "name": "executed",
          "type": "bool"
        }
      ],
      "name": "getTransactionIds",
      "outputs": [
        {
          "name": "_transactionIds",
          "type": "uint256[]"
        }
      ],
      "payable": false,
      "stateMutability": "view",
      "type": "function"
    },
    {
      "constant": true,
      "inputs": [
        {
          "name": "transactionId",
          "type": "uint256"
        }
      ],
      "name": "getConfirmations",
      "outputs": [
        {
          "name": "_confirmations",
          "type": "address[]"
        }
      ],
      "payable": false,
      "stateMutability": "view",
      "type": "function"
    },
    {
      "constant": true,
      "inputs": [],
      "name": "transactionCount",
      "outputs": [
        {
          "name": "",
          "type": "uint256"
        }
      ],
      "payable": false,
      "stateMutability": "view",
      "type": "function"
    },
    {
      "constant": false,
      "inputs": [
        {
          "name": "_required",
          "type": "uint256"
        }
      ],
      "name": "changeRequirement",
      "outputs": [],
      "payable": false,
      "stateMutability": "nonpayable",
      "type": "function"
    },
    {
      "constant": false,
      "inputs": [
        {
          "name": "transactionId",
          "type": "uint256"
        }
      ],
      "name": "confirmTransaction",
      "outputs": [],
      "payable": false,
      "stateMutability": "nonpayable",
      "type": "function"
    },
    {
      "constant": false,
      "inputs": [
        {
          "name": "destination",
          "type": "address"
        },
        {
          "name": "value",
          "type": "uint256"
        },
        {
          "name": "data",
          "type": "bytes"
        }
      ],
      "name": "submitTransaction",
      "outputs": [
        {
          "name": "transactionId",
          "type": "uint256"
        }
      ],
      "payable": false,
      "stateMutability": "nonpayable",
      "type": "function"
    },
    {
      "constant": true,
      "inputs": [],
      "name": "MAX_OWNER_COUNT",
      "outputs": [
        {
          "name": "",
          "type": "uint256"
        }
      ],
      "payable": false,
      "stateMutability": "view",
      "type": "function"
    },
    {
      "constant": true,
      "inputs": [],
      "name": "required",
      "outputs": [
        {
          "name": "",
          "type": "uint256"
        }
      ],
      "payable": false,
      "stateMutability": "view",
      "type": "function"
    },
    {
      "constant": false,
      "inputs": [
        {
          "name": "owner",
          "type": "address"
        },
        {
          "name": "newOwner",
          "type": "address"
        }
      ],
      "name": "replaceOwner",
      "outputs": [],
      "payable": false,
      "stateMutability": "nonpayable",
      "type": "function"
    },
    {
      "constant": false,
      "inputs": [
        {
          "name": "transactionId",
          "type": "uint256"
        }
      ],
      "name": "executeTransaction",
      "outputs": [],
      "payable": false,
      "stateMutability": "nonpayable",
      "type": "function"
    },
    {
      "inputs": [
        {
          "name": "_owners",
          "type": "address[]"
        },
        {
          "name": "_required",
          "type": "uint256"
        },
        {
          "name": "_timelockInSeconds",
          "type": "uint256"
        }
      ],
      "payable": false,
      "stateMutability": "nonpayable",
      "type": "constructor"
    },
    {
      "payable": true,
      "stateMutability": "payable",
      "type": "fallback"
    },
    {
      "anonymous": false,
      "inputs": [
        {
          "indexed": true,
          "name": "transactionId",
          "type": "uint256"
        },
        {
          "indexed": false,
          "name": "confirmationTime",
          "type": "uint256"
        }
      ],
      "name": "ConfirmationTimeSet",
      "type": "event"
    },
    {
      "anonymous": false,
      "inputs": [
        {
          "indexed": false,
          "name": "timelockInSeconds",
          "type": "uint256"
        }
      ],
      "name": "TimeLockChange",
      "type": "event"
    },
    {
      "anonymous": false,
      "inputs": [
        {
          "indexed": true,
          "name": "sender",
          "type": "address"
        },
        {
          "indexed": true,
          "name": "transactionId",
          "type": "uint256"
        }
      ],
      "name": "Confirmation",
      "type": "event"
    },
    {
      "anonymous": false,
      "inputs": [
        {
          "indexed": true,
          "name": "sender",
          "type": "address"
        },
        {
          "indexed": true,
          "name": "transactionId",
          "type": "uint256"
        }
      ],
      "name": "Revocation",
      "type": "event"
    },
    {
      "anonymous": false,
      "inputs": [
        {
          "indexed": true,
          "name": "transactionId",
          "type": "uint256"
        }
      ],
      "name": "Submission",
      "type": "event"
    },
    {
      "anonymous": false,
      "inputs": [
        {
          "indexed": true,
          "name": "transactionId",
          "type": "uint256"
        }
      ],
      "name": "Execution",
      "type": "event"
    },
    {
      "anonymous": false,
      "inputs": [
        {
          "indexed": true,
          "name": "transactionId",
          "type": "uint256"
        }
      ],
      "name": "ExecutionFailure",
      "type": "event"
    },
    {
      "anonymous": false,
      "inputs": [
        {
          "indexed": true,
          "name": "sender",
          "type": "address"
        },
        {
          "indexed": false,
          "name": "value",
          "type": "uint256"
        }
      ],
      "name": "Deposit",
      "type": "event"
    },
    {
      "anonymous": false,
      "inputs": [
        {
          "indexed": true,
          "name": "owner",
          "type": "address"
        }
      ],
      "name": "OwnerAddition",
      "type": "event"
    },
    {
      "anonymous": false,
      "inputs": [
        {
          "indexed": true,
          "name": "owner",
          "type": "address"
        }
      ],
      "name": "OwnerRemoval",
      "type": "event"
    },
    {
      "anonymous": false,
      "inputs": [
        {
          "indexed": false,
          "name": "required",
          "type": "uint256"
        }
      ],
      "name": "RequirementChange",
      "type": "event"
    }
  ],
  "bytecode": "0x606060405234156200001057600080fd5b60405162002765380380620027658339810160405280805182019190602001805190602001909190805190602001909190505082826000825182603282111580156200005c5750818111155b80156200006a575060008114155b801562000078575060008214155b15156200008457600080fd5b600092505b8451831015620001bf57600260008685815181101515620000a657fe5b9060200190602002015173ffffffffffffffffffffffffffffffffffffffff1673ffffffffffffffffffffffffffffffffffffffff16815260200190815260200160002060009054906101000a900460ff16158015620001355750600085848151811015156200011257fe5b9060200190602002015173ffffffffffffffffffffffffffffffffffffffff1614155b15156200014157600080fd5b60016002600087868151811015156200015657fe5b9060200190602002015173ffffffffffffffffffffffffffffffffffffffff1673ffffffffffffffffffffffffffffffffffffffff16815260200190815260200160002060006101000a81548160ff021916908315150217905550828060010193505062000089565b8460039080519060200190620001d7929190620001f4565b5083600481905550505050505080600681905550505050620002c9565b82805482825590600052602060002090810192821562000270579160200282015b828111156200026f5782518260006101000a81548173ffffffffffffffffffffffffffffffffffffffff021916908373ffffffffffffffffffffffffffffffffffffffff1602179055509160200191906001019062000215565b5b5090506200027f919062000283565b5090565b620002c691905b80821115620002c257600081816101000a81549073ffffffffffffffffffffffffffffffffffffffff0219169055506001016200028a565b5090565b90565b61248c80620002d96000396000f300606060405260043610610149576000357c0100000000000000000000000000000000000000000000000000000000900463ffffffff168063025e7c27146101a3578063173825d91461020657806319b83a7b1461023f57806320ea8d8614610276578063215ff46f146102995780632f54bf6e146102bc5780633411c81c1461030d57806354741525146103675780637065cb48146103ab578063733e1b68146103e4578063784547a71461040d5780637ad28c51146104485780638b51d13f1461046b5780639ace38c2146104a2578063a0e67e2b146105a0578063a8abe69a1461060a578063b5dc40c3146106a1578063b77bf60014610719578063ba51a6df14610742578063c01a8c8414610765578063c642747414610788578063d74f8edd14610821578063dc8452cd1461084a578063e20056e614610873578063ee22610b146108cb575b60003411156101a1573373ffffffffffffffffffffffffffffffffffffffff167fe1fffcc4923d04b559f4d29a8bfc6cda04eb5b0d3c460751c2402c5c5cc9109c346040518082815260200191505060405180910390a25b005b34156101ae57600080fd5b6101c460048080359060200190919050506108ee565b604051808273ffffffffffffffffffffffffffffffffffffffff1673ffffffffffffffffffffffffffffffffffffffff16815260200191505060405180910390f35b341561021157600080fd5b61023d600480803573ffffffffffffffffffffffffffffffffffffffff1690602001909190505061092d565b005b341561024a57600080fd5b6102606004808035906020019091905050610bc9565b6040518082815260200191505060405180910390f35b341561028157600080fd5b6102976004808035906020019091905050610be1565b005b34156102a457600080fd5b6102ba6004808035906020019091905050610da0565b005b34156102c757600080fd5b6102f3600480803573ffffffffffffffffffffffffffffffffffffffff16906020019091905050610ebc565b604051808215151515815260200191505060405180910390f35b341561031857600080fd5b61034d600480803590602001909190803573ffffffffffffffffffffffffffffffffffffffff16906020019091905050610edc565b604051808215151515815260200191505060405180910390f35b341561037257600080fd5b610395600480803515159060200190919080351515906020019091905050610f0b565b6040518082815260200191505060405180910390f35b34156103b657600080fd5b6103e2600480803573ffffffffffffffffffffffffffffffffffffffff16906020019091905050610f9d565b005b34156103ef57600080fd5b6103f761119f565b6040518082815260200191505060405180910390f35b341561041857600080fd5b61042e60048080359060200190919050506111a5565b604051808215151515815260200191505060405180910390f35b341561045357600080fd5b610469600480803590602001909190505061128b565b005b341561047657600080fd5b61048c6004808035906020019091905050611306565b6040518082815260200191505060405180910390f35b34156104ad57600080fd5b6104c360048080359060200190919050506113d2565b604051808573ffffffffffffffffffffffffffffffffffffffff1673ffffffffffffffffffffffffffffffffffffffff168152602001848152602001806020018315151515815260200182810382528481815460018160011615610100020316600290048152602001915080546001816001161561010002031660029004801561058e5780601f106105635761010080835404028352916020019161058e565b820191906000526020600020905b81548152906001019060200180831161057157829003601f168201915b50509550505050505060405180910390f35b34156105ab57600080fd5b6105b361142e565b6040518080602001828103825283818151815260200191508051906020019060200280838360005b838110156105f65780820151818401526020810190506105db565b505050509050019250505060405180910390f35b341561061557600080fd5b61064a6004808035906020019091908035906020019091908035151590602001909190803515159060200190919050506114c2565b6040518080602001828103825283818151815260200191508051906020019060200280838360005b8381101561068d578082015181840152602081019050610672565b505050509050019250505060405180910390f35b34156106ac57600080fd5b6106c2600480803590602001909190505061162d565b6040518080602001828103825283818151815260200191508051906020019060200280838360005b838110156107055780820151818401526020810190506106ea565b505050509050019250505060405180910390f35b341561072457600080fd5b61072c611857565b6040518082815260200191505060405180910390f35b341561074d57600080fd5b610763600480803590602001909190505061185d565b005b341561077057600080fd5b6107866004808035906020019091905050611917565b005b341561079357600080fd5b61080b600480803573ffffffffffffffffffffffffffffffffffffffff1690602001909190803590602001909190803590602001908201803590602001908080601f01602080910402602001604051908101604052809392919081815260200183838082843782019150505050505091905050611b1b565b6040518082815260200191505060405180910390f35b341561082c57600080fd5b610834611b3a565b6040518082815260200191505060405180910390f35b341561085557600080fd5b61085d611b3f565b6040518082815260200191505060405180910390f35b341561087e57600080fd5b6108c9600480803573ffffffffffffffffffffffffffffffffffffffff1690602001909190803573ffffffffffffffffffffffffffffffffffffffff16906020019091905050611b45565b005b34156108d657600080fd5b6108ec6004808035906020019091905050611e5c565b005b6003818154811015156108fd57fe5b90600052602060002090016000915054906101000a900473ffffffffffffffffffffffffffffffffffffffff1681565b60003073ffffffffffffffffffffffffffffffffffffffff163373ffffffffffffffffffffffffffffffffffffffff1614151561096957600080fd5b81600260008273ffffffffffffffffffffffffffffffffffffffff1673ffffffffffffffffffffffffffffffffffffffff16815260200190815260200160002060009054906101000a900460ff1615156109c257600080fd5b6000600260008573ffffffffffffffffffffffffffffffffffffffff1673ffffffffffffffffffffffffffffffffffffffff16815260200190815260200160002060006101000a81548160ff021916908315150217905550600091505b600160038054905003821015610b4a578273ffffffffffffffffffffffffffffffffffffffff16600383815481101515610a5557fe5b906000526020600020900160009054906101000a900473ffffffffffffffffffffffffffffffffffffffff1673ffffffffffffffffffffffffffffffffffffffff161415610b3d576003600160038054905003815481101515610ab457fe5b906000526020600020900160009054906101000a900473ffffffffffffffffffffffffffffffffffffffff16600383815481101515610aef57fe5b906000526020600020900160006101000a81548173ffffffffffffffffffffffffffffffffffffffff021916908373ffffffffffffffffffffffffffffffffffffffff160217905550610b4a565b8180600101925050610a1f565b6001600381818054905003915081610b62919061233b565b506003805490506004541115610b8157610b8060038054905061185d565b5b8273ffffffffffffffffffffffffffffffffffffffff167f8001553a916ef2f495d26a907cc54d96ed840d7bda71e73194bf5a9df7a76b9060405160405180910390a2505050565b60076020528060005260406000206000915090505481565b33600260008273ffffffffffffffffffffffffffffffffffffffff1673ffffffffffffffffffffffffffffffffffffffff16815260200190815260200160002060009054906101000a900460ff161515610c3a57600080fd5b81336001600083815260200190815260200160002060008273ffffffffffffffffffffffffffffffffffffffff1673ffffffffffffffffffffffffffffffffffffffff16815260200190815260200160002060009054906101000a900460ff161515610ca557600080fd5b8360008082815260200190815260200160002060030160009054906101000a900460ff16151515610cd557600080fd5b84610cdf816111a5565b151515610ceb57600080fd5b60006001600088815260200190815260200160002060003373ffffffffffffffffffffffffffffffffffffffff1673ffffffffffffffffffffffffffffffffffffffff16815260200190815260200160002060006101000a81548160ff021916908315150217905550853373ffffffffffffffffffffffffffffffffffffffff167ff6a317157440607f36269043eb55f1287a5a19ba2216afeab88cd46cbcfb88e960405160405180910390a3505050505050565b8060008082815260200190815260200160002060030160009054906101000a900460ff16151515610dd057600080fd5b81610dda816111a5565b1515610de557600080fd5b8260008060008381526020019081526020016000209050610ea1816002018054600181600116156101000203166002900480601f016020809104026020016040519081016040528092919081815260200182805460018160011615610100020316600290048015610e975780601f10610e6c57610100808354040283529160200191610e97565b820191906000526020600020905b815481529060010190602001808311610e7a57829003601f168201915b5050505050611ed7565b1515610eac57600080fd5b610eb585612019565b5050505050565b60026020528060005260406000206000915054906101000a900460ff1681565b60016020528160005260406000206020528060005260406000206000915091509054906101000a900460ff1681565b600080600090505b600554811015610f9657838015610f4a575060008082815260200190815260200160002060030160009054906101000a900460ff16155b80610f7d5750828015610f7c575060008082815260200190815260200160002060030160009054906101000a900460ff165b5b15610f89576001820191505b8080600101915050610f13565b5092915050565b3073ffffffffffffffffffffffffffffffffffffffff163373ffffffffffffffffffffffffffffffffffffffff16141515610fd757600080fd5b80600260008273ffffffffffffffffffffffffffffffffffffffff1673ffffffffffffffffffffffffffffffffffffffff16815260200190815260200160002060009054906101000a900460ff1615151561103157600080fd5b8160008173ffffffffffffffffffffffffffffffffffffffff161415151561105857600080fd5b600160038054905001600454603282111580156110755750818111155b8015611082575060008114155b801561108f575060008214155b151561109a57600080fd5b6001600260008773ffffffffffffffffffffffffffffffffffffffff1673ffffffffffffffffffffffffffffffffffffffff16815260200190815260200160002060006101000a81548160ff021916908315150217905550600380548060010182816111069190612367565b9160005260206000209001600087909190916101000a81548173ffffffffffffffffffffffffffffffffffffffff021916908373ffffffffffffffffffffffffffffffffffffffff160217905550508473ffffffffffffffffffffffffffffffffffffffff167ff39e6e1eb0edcf53c221607b54b00cd28f3196fed0a24994dc308b8f611b682d60405160405180910390a25050505050565b60065481565b6000806000809150600090505b600380549050811015611283576001600085815260200190815260200160002060006003838154811015156111e357fe5b906000526020600020900160009054906101000a900473ffffffffffffffffffffffffffffffffffffffff1673ffffffffffffffffffffffffffffffffffffffff1673ffffffffffffffffffffffffffffffffffffffff16815260200190815260200160002060009054906101000a900460ff1615611263576001820191505b6004548214156112765760019250611284565b80806001019150506111b2565b5b5050919050565b3073ffffffffffffffffffffffffffffffffffffffff163373ffffffffffffffffffffffffffffffffffffffff161415156112c557600080fd5b806006819055507fd1c9101a34feff75cccef14a28785a0279cb0b49c1f321f21f5f422e746b4377816040518082815260200191505060405180910390a150565b600080600090505b6003805490508110156113cc5760016000848152602001908152602001600020600060038381548110151561133f57fe5b906000526020600020900160009054906101000a900473ffffffffffffffffffffffffffffffffffffffff1673ffffffffffffffffffffffffffffffffffffffff1673ffffffffffffffffffffffffffffffffffffffff16815260200190815260200160002060009054906101000a900460ff16156113bf576001820191505b808060010191505061130e565b50919050565b60006020528060005260406000206000915090508060000160009054906101000a900473ffffffffffffffffffffffffffffffffffffffff169080600101549080600201908060030160009054906101000a900460ff16905084565b611436612393565b60038054806020026020016040519081016040528092919081815260200182805480156114b857602002820191906000526020600020905b8160009054906101000a900473ffffffffffffffffffffffffffffffffffffffff1673ffffffffffffffffffffffffffffffffffffffff168152602001906001019080831161146e575b5050505050905090565b6114ca6123a7565b6114d26123a7565b6000808688111515156114e457600080fd5b6005546040518059106114f45750595b9080825280602002602001820160405250925060009150600090505b6005548110156115b057858015611547575060008082815260200190815260200160002060030160009054906101000a900460ff16155b8061157a5750848015611579575060008082815260200190815260200160002060030160009054906101000a900460ff165b5b156115a35780838381518110151561158e57fe5b90602001906020020181815250506001820191505b8080600101915050611510565b8787036040518059106115c05750595b908082528060200260200182016040525093508790505b868110156116225782818151811015156115ed57fe5b906020019060200201518489830381518110151561160757fe5b906020019060200201818152505080806001019150506115d7565b505050949350505050565b611635612393565b61163d612393565b6000806003805490506040518059106116535750595b9080825280602002602001820160405250925060009150600090505b6003805490508110156117b2576001600086815260200190815260200160002060006003838154811015156116a057fe5b906000526020600020900160009054906101000a900473ffffffffffffffffffffffffffffffffffffffff1673ffffffffffffffffffffffffffffffffffffffff1673ffffffffffffffffffffffffffffffffffffffff16815260200190815260200160002060009054906101000a900460ff16156117a55760038181548110151561172857fe5b906000526020600020900160009054906101000a900473ffffffffffffffffffffffffffffffffffffffff16838381518110151561176257fe5b9060200190602002019073ffffffffffffffffffffffffffffffffffffffff16908173ffffffffffffffffffffffffffffffffffffffff16815250506001820191505b808060010191505061166f565b816040518059106117c05750595b90808252806020026020018201604052509350600090505b8181101561184f5782818151811015156117ee57fe5b90602001906020020151848281518110151561180657fe5b9060200190602002019073ffffffffffffffffffffffffffffffffffffffff16908173ffffffffffffffffffffffffffffffffffffffff168152505080806001019150506117d8565b505050919050565b60055481565b3073ffffffffffffffffffffffffffffffffffffffff163373ffffffffffffffffffffffffffffffffffffffff1614151561189757600080fd5b60038054905081603282111580156118af5750818111155b80156118bc575060008114155b80156118c9575060008214155b15156118d457600080fd5b826004819055507fa3f1ee9126a074d9326c682f561767f710e927faa811f7a99829d49dc421797a836040518082815260200191505060405180910390a1505050565b33600260008273ffffffffffffffffffffffffffffffffffffffff1673ffffffffffffffffffffffffffffffffffffffff16815260200190815260200160002060009054906101000a900460ff16151561197057600080fd5b81600080600083815260200190815260200160002060000160009054906101000a900473ffffffffffffffffffffffffffffffffffffffff1673ffffffffffffffffffffffffffffffffffffffff16141515156119cc57600080fd5b82336001600083815260200190815260200160002060008273ffffffffffffffffffffffffffffffffffffffff1673ffffffffffffffffffffffffffffffffffffffff16815260200190815260200160002060009054906101000a900460ff16151515611a3857600080fd5b84611a42816111a5565b151515611a4e57600080fd5b600180600088815260200190815260200160002060003373ffffffffffffffffffffffffffffffffffffffff1673ffffffffffffffffffffffffffffffffffffffff16815260200190815260200160002060006101000a81548160ff021916908315150217905550853373ffffffffffffffffffffffffffffffffffffffff167f4a504a94899432a9846e1aa406dceb1bcfd538bb839071d49d1e5e23f5be30ef60405160405180910390a3611b03866111a5565b15611b1357611b128642612195565b5b505050505050565b6000611b288484846121e9565b9050611b3381611917565b9392505050565b603281565b60045481565b60003073ffffffffffffffffffffffffffffffffffffffff163373ffffffffffffffffffffffffffffffffffffffff16141515611b8157600080fd5b82600260008273ffffffffffffffffffffffffffffffffffffffff1673ffffffffffffffffffffffffffffffffffffffff16815260200190815260200160002060009054906101000a900460ff161515611bda57600080fd5b82600260008273ffffffffffffffffffffffffffffffffffffffff1673ffffffffffffffffffffffffffffffffffffffff16815260200190815260200160002060009054906101000a900460ff16151515611c3457600080fd5b600092505b600380549050831015611d1f578473ffffffffffffffffffffffffffffffffffffffff16600384815481101515611c6c57fe5b906000526020600020900160009054906101000a900473ffffffffffffffffffffffffffffffffffffffff1673ffffffffffffffffffffffffffffffffffffffff161415611d125783600384815481101515611cc457fe5b906000526020600020900160006101000a81548173ffffffffffffffffffffffffffffffffffffffff021916908373ffffffffffffffffffffffffffffffffffffffff160217905550611d1f565b8280600101935050611c39565b6000600260008773ffffffffffffffffffffffffffffffffffffffff1673ffffffffffffffffffffffffffffffffffffffff16815260200190815260200160002060006101000a81548160ff0219169083151502179055506001600260008673ffffffffffffffffffffffffffffffffffffffff1673ffffffffffffffffffffffffffffffffffffffff16815260200190815260200160002060006101000a81548160ff0219169083151502179055508473ffffffffffffffffffffffffffffffffffffffff167f8001553a916ef2f495d26a907cc54d96ed840d7bda71e73194bf5a9df7a76b9060405160405180910390a28373ffffffffffffffffffffffffffffffffffffffff167ff39e6e1eb0edcf53c221607b54b00cd28f3196fed0a24994dc308b8f611b682d60405160405180910390a25050505050565b8060008082815260200190815260200160002060030160009054906101000a900460ff16151515611e8c57600080fd5b81611e96816111a5565b1515611ea157600080fd5b826006546007600083815260200190815260200160002054014210151515611ec857600080fd5b611ed184612019565b50505050565b600080600060405180807f7061757365282900000000000000000000000000000000000000000000000000815250600701905060405180910390209150600090505b600481101561200d578181600481101515611f3057fe5b1a7f0100000000000000000000000000000000000000000000000000000000000000027effffffffffffffffffffffffffffffffffffffffffffffffffffffffffffff19168482815181101515611f8357fe5b9060200101517f010000000000000000000000000000000000000000000000000000000000000090047f0100000000000000000000000000000000000000000000000000000000000000027effffffffffffffffffffffffffffffffffffffffffffffffffffffffffffff19161415156120005760009250612012565b8080600101915050611f19565b600192505b5050919050565b6000806000838152602001908152602001600020905060018160030160006101000a81548160ff0219169083151502179055508060000160009054906101000a900473ffffffffffffffffffffffffffffffffffffffff1673ffffffffffffffffffffffffffffffffffffffff1681600101548260020160405180828054600181600116156101000203166002900480156120f55780601f106120ca576101008083540402835291602001916120f5565b820191906000526020600020905b8154815290600101906020018083116120d857829003601f168201915b505091505060006040518083038185876187965a03f1925050501561214657817f33e13ecb54c3076d8e8bb8c2881800a4d972b792045ffae98fdf46df365fed7560405160405180910390a2612191565b817f526441bb6c1aba3c9a4a6ca1d6545da9c2333c8c48343ef398eb858d72b7923660405160405180910390a260008160030160006101000a81548160ff0219169083151502179055505b5050565b806007600084815260200190815260200160002081905550817f0b237afe65f1514fd7ea3f923ea4fe792bdd07000a912b6cd1602a8e7f573c8d826040518082815260200191505060405180910390a25050565b60008360008173ffffffffffffffffffffffffffffffffffffffff161415151561221257600080fd5b60055491506080604051908101604052808673ffffffffffffffffffffffffffffffffffffffff1681526020018581526020018481526020016000151581525060008084815260200190815260200160002060008201518160000160006101000a81548173ffffffffffffffffffffffffffffffffffffffff021916908373ffffffffffffffffffffffffffffffffffffffff1602179055506020820151816001015560408201518160020190805190602001906122d19291906123bb565b5060608201518160030160006101000a81548160ff0219169083151502179055509050506001600560008282540192505081905550817fc0ba8fe4b176c1714197d43b9cc6bcf797a4a7461c5fe8d0ef6e184ae7601e5160405160405180910390a2509392505050565b81548183558181151161236257818360005260206000209182019101612361919061243b565b5b505050565b81548183558181151161238e5781836000526020600020918201910161238d919061243b565b5b505050565b602060405190810160405280600081525090565b602060405190810160405280600081525090565b828054600181600116156101000203166002900490600052602060002090601f016020900481019282601f106123fc57805160ff191683800117855561242a565b8280016001018555821561242a579182015b8281111561242957825182559160200191906001019061240e565b5b509050612437919061243b565b5090565b61245d91905b80821115612459576000816000905550600101612441565b5090565b905600a165627a7a72305820481b8237fc9fda7e8131ac2610c083b1ec5e497b6957b2a9fed6691b3ddb7cdd0029",
  "source": "/*\n\n  Copyright 2018 Dharma Labs Inc.\n\n  Licensed under the Apache License, Version 2.0 (the \"License\");\n  you may not use this file except in compliance with the License.\n  You may obtain a copy of the License at\n\n    http://www.apache.org/licenses/LICENSE-2.0\n\n  Unless required by applicable law or agreed to in writing, software\n  distributed under the License is distributed on an \"AS IS\" BASIS,\n  WITHOUT WARRANTIES OR CONDITIONS OF ANY KIND, either express or implied.\n  See the License for the specific language governing permissions and\n  limitations under the License.\n\n*/\n\npragma solidity 0.4.18;\n\nimport \"./MultiSigWallet.sol\";\n\n\ncontract DharmaMultiSigWallet is MultiSigWallet {\n\n    event ConfirmationTimeSet(uint indexed transactionId, uint confirmationTime);\n    event TimeLockChange(uint timelockInSeconds);\n\n    uint public timelockInSeconds;\n\n    mapping (uint => uint) public transactionConfirmedBlockTimestamp;\n\n    modifier sufficientlyConfirmed(uint transactionId) {\n        require(isConfirmed(transactionId));\n        _;\n    }\n\n    modifier insufficientlyConfirmed(uint transactionId) {\n        require(!isConfirmed(transactionId));\n        _;\n    }\n\n    modifier pastTimeLock(uint transactionId) {\n        require(block.timestamp >= transactionConfirmedBlockTimestamp[transactionId] + timelockInSeconds);\n        _;\n    }\n\n    modifier validPauseTransaction(uint transactionId) {\n        Transaction storage txn = transactions[transactionId];\n\n        require(_isPauseFunctionTransaction(txn.data));\n        _;\n    }\n\n    function DharmaMultiSigWallet(\n        address[] _owners,\n        uint _required,\n        uint _timelockInSeconds\n    )\n        public\n        MultiSigWallet(_owners, _required)\n    {\n        timelockInSeconds = _timelockInSeconds;\n    }\n\n    ////////////////////////\n    // EXTERNAL FUNCTIONS //\n    ////////////////////////\n\n    /**\n     * Changes the duration of the time lock for transactions.  Can only be called by the wallet.\n     */\n    function changeTimeLock(uint _timelockInSeconds)\n        public\n        onlyWallet\n    {\n        timelockInSeconds = _timelockInSeconds;\n        TimeLockChange(_timelockInSeconds);\n    }\n\n    /**\n     * Allows an owner to confirm a transaction if the transaction has\n     * not yet received a sufficient threshold of confirmations.\n     */\n    function confirmTransaction(uint transactionId)\n        public\n        ownerExists(msg.sender)\n        transactionExists(transactionId)\n        notConfirmed(transactionId, msg.sender)\n        insufficientlyConfirmed(transactionId)\n    {\n        confirmations[transactionId][msg.sender] = true;\n        Confirmation(msg.sender, transactionId);\n\n        // If the transaction is now sufficiently confirmed, we record\n        // the timestamp in order to kick off the timelock period\n        if (isConfirmed(transactionId)) {\n            _setConfirmationTime(transactionId, block.timestamp);\n        }\n    }\n\n    /**\n     * Allows an owner to revoke a confirmation they've submitted\n     * previously for the transaction if the transaction has not\n     * already been sufficiently confirmed (and entered the timelock\n     * period).\n     */\n    function revokeConfirmation(uint transactionId)\n        public\n        ownerExists(msg.sender)\n        confirmed(transactionId, msg.sender)\n        notExecuted(transactionId)\n        insufficientlyConfirmed(transactionId)\n    {\n        confirmations[transactionId][msg.sender] = false;\n        Revocation(msg.sender, transactionId);\n    }\n\n    /**\n     * Allows anyone to execute a transaction if it has been\n     * confirmed and the timelock has passed.\n     */\n    function executeTransaction(uint transactionId)\n        public\n        notExecuted(transactionId)\n        sufficientlyConfirmed(transactionId)\n        pastTimeLock(transactionId)\n    {\n        _executeTransaction(transactionId);\n    }\n\n    /**\n     * In case of an emergency, allows anyone to execute a transaction if it has\n     * been confirmed and matches the \"pause\" function signature WITHOUT waiting\n     * for the timelock to pass.\n     */\n    function executePauseTransactionImmediately(uint transactionId)\n        public\n        notExecuted(transactionId)\n        sufficientlyConfirmed(transactionId)\n        validPauseTransaction(transactionId)\n    {\n        _executeTransaction(transactionId);\n    }\n\n    ////////////////////////\n    // INTERNAL FUNCTIONS //\n    ////////////////////////\n\n    /**\n     * Internal helper function that attempts to execute a confirmed transaction.\n     */\n    function _executeTransaction(uint transactionId)\n        internal\n    {\n        Transaction storage txn = transactions[transactionId];\n        txn.executed = true;\n        if (txn.destination.call.value(txn.value)(txn.data))\n            Execution(transactionId);\n        else {\n            ExecutionFailure(transactionId);\n            txn.executed = false;\n        }\n    }\n\n    /**\n     * Internal function that records the time at which\n     * a transaction reached the minimal threshold of\n     * confirmations.\n     */\n    function _setConfirmationTime(uint transactionId, uint confirmationTime)\n        internal\n    {\n        transactionConfirmedBlockTimestamp[transactionId] = confirmationTime;\n        ConfirmationTimeSet(transactionId, confirmationTime);\n    }\n\n    /**\n     * Returns true if the first four bytes of the given data matches\n     * the function selector Method ID for the \"pause\" method --\n     * for more information, see the Ethereum wiki's contract ABI specification:\n     * https://github.com/ethereum/wiki/wiki/Ethereum-Contract-ABI\n     */\n    function _isPauseFunctionTransaction(bytes data)\n        internal\n        view\n        returns (bool)\n    {\n        bytes4 pauseFunctionSignature = bytes4(keccak256(\"pause()\"));\n        for (uint i = 0; i < 4; i++) {\n            if (data[i] != pauseFunctionSignature[i]) {\n                return false;\n            }\n        }\n\n        return true;\n    }\n}\n",
  "sourcePath": "/Users/nadavhollander/Documents/Dharma/Development/charta/contracts/wallet/DharmaMultiSigWallet.sol",
  "compiler": {
    "name": "solc",
    "version": "0.4.18+commit.9cf6e910.Emscripten.clang"
  },
  "schemaVersion": "1.0.1",
  "updatedAt": "2018-05-22T06:24:48.517Z"
}