{
  "contractName": "DummyContract",
  "abi": [
    {
      "constant": true,
      "inputs": [],
      "name": "SECOND_SET",
      "outputs": [
        {
          "name": "",
          "type": "string"
        }
      ],
      "payable": false,
      "stateMutability": "view",
      "type": "function"
    },
    {
      "constant": false,
      "inputs": [
        {
          "name": "agent",
          "type": "address"
        }
      ],
      "name": "revokeInFirstSet",
      "outputs": [],
      "payable": false,
      "stateMutability": "nonpayable",
      "type": "function"
    },
    {
      "constant": true,
      "inputs": [],
      "name": "getSecondSetAuthorizedAgents",
      "outputs": [
        {
          "name": "",
          "type": "address[]"
        }
      ],
      "payable": false,
      "stateMutability": "view",
      "type": "function"
    },
    {
      "constant": true,
      "inputs": [
        {
          "name": "agent",
          "type": "address"
        }
      ],
      "name": "isAuthorizedInSecondSet",
      "outputs": [
        {
          "name": "",
          "type": "bool"
        }
      ],
      "payable": false,
      "stateMutability": "view",
      "type": "function"
    },
    {
      "constant": false,
      "inputs": [
        {
          "name": "agent",
          "type": "address"
        }
      ],
      "name": "revokeInSecondSet",
      "outputs": [],
      "payable": false,
      "stateMutability": "nonpayable",
      "type": "function"
    },
    {
      "constant": true,
      "inputs": [],
      "name": "getFirstSetAuthorizedAgents",
      "outputs": [
        {
          "name": "",
          "type": "address[]"
        }
      ],
      "payable": false,
      "stateMutability": "view",
      "type": "function"
    },
    {
      "constant": false,
      "inputs": [
        {
          "name": "agent",
          "type": "address"
        }
      ],
      "name": "authorizeInSecondSet",
      "outputs": [],
      "payable": false,
      "stateMutability": "nonpayable",
      "type": "function"
    },
    {
      "constant": false,
      "inputs": [
        {
          "name": "agent",
          "type": "address"
        }
      ],
      "name": "authorizeInFirstSet",
      "outputs": [],
      "payable": false,
      "stateMutability": "nonpayable",
      "type": "function"
    },
    {
      "constant": true,
      "inputs": [
        {
          "name": "agent",
          "type": "address"
        }
      ],
      "name": "isAuthorizedInFirstSet",
      "outputs": [
        {
          "name": "",
          "type": "bool"
        }
      ],
      "payable": false,
      "stateMutability": "view",
      "type": "function"
    },
    {
      "constant": true,
      "inputs": [],
      "name": "FIRST_SET",
      "outputs": [
        {
          "name": "",
          "type": "string"
        }
      ],
      "payable": false,
      "stateMutability": "view",
      "type": "function"
    },
    {
      "anonymous": false,
      "inputs": [
        {
          "indexed": true,
          "name": "agent",
          "type": "address"
        },
        {
          "indexed": false,
          "name": "callingContext",
          "type": "string"
        }
      ],
      "name": "Authorized",
      "type": "event"
    },
    {
      "anonymous": false,
      "inputs": [
        {
          "indexed": true,
          "name": "agent",
          "type": "address"
        },
        {
          "indexed": false,
          "name": "callingContext",
          "type": "string"
        }
      ],
      "name": "AuthorizationRevoked",
      "type": "event"
    }
  ],
  "bytecode": "0x6060604052341561000f57600080fd5b610cc68061001e6000396000f3006060604052600436106100a4576000357c0100000000000000000000000000000000000000000000000000000000900463ffffffff1680633dd6020f146100a95780633fe1b53314610137578063589e9a75146101705780637a381130146101da5780638eb509a11461022b578063a224cfac14610264578063b38b5e58146102ce578063bcd3486614610307578063c305630214610340578063ffe1712114610391575b600080fd5b34156100b457600080fd5b6100bc61041f565b6040518080602001828103825283818151815260200191508051906020019080838360005b838110156100fc5780820151818401526020810190506100e1565b50505050905090810190601f1680156101295780820380516001836020036101000a031916815260200191505b509250505060405180910390f35b341561014257600080fd5b61016e600480803573ffffffffffffffffffffffffffffffffffffffff16906020019091905050610458565b005b341561017b57600080fd5b6101836104a6565b6040518080602001828103825283818151815260200191508051906020019060200280838360005b838110156101c65780820151818401526020810190506101ab565b505050509050019250505060405180910390f35b34156101e557600080fd5b610211600480803573ffffffffffffffffffffffffffffffffffffffff169060200190919050506104bd565b604051808215151515815260200191505060405180910390f35b341561023657600080fd5b610262600480803573ffffffffffffffffffffffffffffffffffffffff169060200190919050506104da565b005b341561026f57600080fd5b610277610528565b6040518080602001828103825283818151815260200191508051906020019060200280838360005b838110156102ba57808201518184015260208101905061029f565b505050509050019250505060405180910390f35b34156102d957600080fd5b610305600480803573ffffffffffffffffffffffffffffffffffffffff1690602001909190505061053f565b005b341561031257600080fd5b61033e600480803573ffffffffffffffffffffffffffffffffffffffff1690602001909190505061058d565b005b341561034b57600080fd5b610377600480803573ffffffffffffffffffffffffffffffffffffffff169060200190919050506105db565b604051808215151515815260200191505060405180910390f35b341561039c57600080fd5b6103a46105f8565b6040518080602001828103825283818151815260200191508051906020019080838360005b838110156103e45780820151818401526020810190506103c9565b50505050905090810190601f1680156104115780820380516001836020036101000a031916815260200191505b509250505060405180910390f35b6040805190810160405280601981526020017f64756d6d792d636f6e74726163742d7365636f6e642d7365740000000000000081525081565b6104a3816040805190810160405280601881526020017f64756d6d792d636f6e74726163742d66697273742d736574000000000000000081525060006106319092919063ffffffff16565b50565b6104ae610c09565b6104b86003610927565b905090565b60006104d38260036109bf90919063ffffffff16565b9050919050565b610525816040805190810160405280601981526020017f64756d6d792d636f6e74726163742d7365636f6e642d7365740000000000000081525060036106319092919063ffffffff16565b50565b610530610c09565b61053a6000610927565b905090565b61058a816040805190810160405280601981526020017f64756d6d792d636f6e74726163742d7365636f6e642d736574000000000000008152506003610a189092919063ffffffff16565b50565b6105d8816040805190810160405280601881526020017f64756d6d792d636f6e74726163742d66697273742d73657400000000000000008152506000610a189092919063ffffffff16565b50565b60006105f18260006109bf90919063ffffffff16565b9050919050565b6040805190810160405280601881526020017f64756d6d792d636f6e74726163742d66697273742d736574000000000000000081525081565b600080600061064086866109bf565b151561064b57600080fd5b8560010160008673ffffffffffffffffffffffffffffffffffffffff1673ffffffffffffffffffffffffffffffffffffffff1681526020019081526020016000205492506001866002018054905003915085600201828154811015156106ad57fe5b906000526020600020900160009054906101000a900473ffffffffffffffffffffffffffffffffffffffff1690508560000160008673ffffffffffffffffffffffffffffffffffffffff1673ffffffffffffffffffffffffffffffffffffffff16815260200190815260200160002060006101000a81549060ff021916905580866002018481548110151561073e57fe5b906000526020600020900160006101000a81548173ffffffffffffffffffffffffffffffffffffffff021916908373ffffffffffffffffffffffffffffffffffffffff160217905550828660010160008373ffffffffffffffffffffffffffffffffffffffff1673ffffffffffffffffffffffffffffffffffffffff168152602001908152602001600020819055508560010160008673ffffffffffffffffffffffffffffffffffffffff1673ffffffffffffffffffffffffffffffffffffffff16815260200190815260200160002060009055856002018281548110151561082357fe5b906000526020600020900160006101000a81549073ffffffffffffffffffffffffffffffffffffffff02191690556001866002018181805490500391508161086b9190610c1d565b508473ffffffffffffffffffffffffffffffffffffffff167f0814e4ee85854cea446b4a27a460e5ffb41516230dbc02f226c07907e432241c856040518080602001828103825283818151815260200191508051906020019080838360005b838110156108e55780820151818401526020810190506108ca565b50505050905090810190601f1680156109125780820380516001836020036101000a031916815260200191505b509250505060405180910390a2505050505050565b61092f610c09565b816002018054806020026020016040519081016040528092919081815260200182805480156109b357602002820191906000526020600020905b8160009054906101000a900473ffffffffffffffffffffffffffffffffffffffff1673ffffffffffffffffffffffffffffffffffffffff1681526020019060010190808311610969575b50505050509050919050565b60008260000160008373ffffffffffffffffffffffffffffffffffffffff1673ffffffffffffffffffffffffffffffffffffffff16815260200190815260200160002060009054906101000a900460ff16905092915050565b610a228383610bf4565b1515610a2d57600080fd5b60018360000160008473ffffffffffffffffffffffffffffffffffffffff1673ffffffffffffffffffffffffffffffffffffffff16815260200190815260200160002060006101000a81548160ff021916908315150217905550826002018054806001018281610a9d9190610c49565b9160005260206000209001600084909190916101000a81548173ffffffffffffffffffffffffffffffffffffffff021916908373ffffffffffffffffffffffffffffffffffffffff1602179055505060018360020180549050038360010160008473ffffffffffffffffffffffffffffffffffffffff1673ffffffffffffffffffffffffffffffffffffffff168152602001908152602001600020819055508173ffffffffffffffffffffffffffffffffffffffff167f571925c699f9072cec76b6c6c000571cc8d0bb5c47e5819202e2e9496c6508b5826040518080602001828103825283818151815260200191508051906020019080838360005b83811015610bb5578082015181840152602081019050610b9a565b50505050905090810190601f168015610be25780820380516001836020036101000a031916815260200191505b509250505060405180910390a2505050565b6000610c0083836109bf565b15905092915050565b602060405190810160405280600081525090565b815481835581811511610c4457818360005260206000209182019101610c439190610c75565b5b505050565b815481835581811511610c7057818360005260206000209182019101610c6f9190610c75565b5b505050565b610c9791905b80821115610c93576000816000905550600101610c7b565b5090565b905600a165627a7a723058202769bed327d5c6bc3cf05c5d5e80427c9c9187156116f3f0eab0650430f096920029",
  "source": "/*\n\n  Copyright 2017 Dharma Labs Inc.\n\n  Licensed under the Apache License, Version 2.0 (the \"License\");\n  you may not use this file except in compliance with the License.\n  You may obtain a copy of the License at\n\n    http://www.apache.org/licenses/LICENSE-2.0\n\n  Unless required by applicable law or agreed to in writing, software\n  distributed under the License is distributed on an \"AS IS\" BASIS,\n  WITHOUT WARRANTIES OR CONDITIONS OF ANY KIND, either express or implied.\n  See the License for the specific language governing permissions and\n  limitations under the License.\n\n*/\n\npragma solidity 0.4.18;\n\nimport \"../libraries/PermissionsLib.sol\";\n\n\ncontract DummyContract is PermissionEvents {\n    using PermissionsLib for PermissionsLib.Permissions;\n\n    PermissionsLib.Permissions private firstPermissionSet;\n    PermissionsLib.Permissions private secondPermissionSet;\n\n    string public constant FIRST_SET = \"dummy-contract-first-set\";\n    string public constant SECOND_SET = \"dummy-contract-second-set\";\n\n    function authorizeInFirstSet(address agent) public {\n        firstPermissionSet.authorize(agent, FIRST_SET);\n    }\n\n    function authorizeInSecondSet(address agent) public {\n        secondPermissionSet.authorize(agent, SECOND_SET);\n    }\n\n    function revokeInFirstSet(address agent) public {\n        firstPermissionSet.revokeAuthorization(agent, FIRST_SET);\n    }\n\n    function revokeInSecondSet(address agent) public {\n        secondPermissionSet.revokeAuthorization(agent, SECOND_SET);\n    }\n\n    function isAuthorizedInFirstSet(address agent) public constant returns (bool) {\n        return firstPermissionSet.isAuthorized(agent);\n    }\n\n    function isAuthorizedInSecondSet(address agent) public constant returns (bool) {\n        return secondPermissionSet.isAuthorized(agent);\n    }\n\n    function getFirstSetAuthorizedAgents() public view returns (address[]) {\n        return firstPermissionSet.getAuthorizedAgents();\n    }\n\n    function getSecondSetAuthorizedAgents() public view returns (address[]) {\n        return secondPermissionSet.getAuthorizedAgents();\n    }\n}\n",
  "sourcePath": "/Users/kayvon/dharma/charta/contracts/test/DummyContract.sol",
  "compiler": {
    "name": "solc",
    "version": "0.4.18+commit.9cf6e910.Emscripten.clang"
  },
  "schemaVersion": "1.0.1",
  "updatedAt": "2018-07-02T23:10:14.041Z"
}