{
  "contractName": "DummyCollateralizedContract",
  "abi": [
    {
      "constant": true,
      "inputs": [
        {
          "name": "agreementId",
          "type": "bytes32"
        }
      ],
      "name": "getValueRepaidToDate",
      "outputs": [
        {
          "name": "",
          "type": "uint256"
        }
      ],
      "payable": false,
      "stateMutability": "view",
      "type": "function"
    },
    {
      "constant": false,
      "inputs": [
        {
          "name": "agreementId",
          "type": "bytes32"
        },
        {
          "name": "amount",
          "type": "uint256"
        }
      ],
      "name": "setDummyExpectedRepaymentValue",
      "outputs": [],
      "payable": false,
      "stateMutability": "nonpayable",
      "type": "function"
    },
    {
      "constant": false,
      "inputs": [
        {
          "name": "agreementId",
          "type": "bytes32"
        }
      ],
      "name": "registerTermStart",
      "outputs": [
        {
          "name": "_success",
          "type": "bool"
        }
      ],
      "payable": false,
      "stateMutability": "nonpayable",
      "type": "function"
    },
    {
      "constant": true,
      "inputs": [],
      "name": "debtRegistry",
      "outputs": [
        {
          "name": "",
          "type": "address"
        }
      ],
      "payable": false,
      "stateMutability": "view",
      "type": "function"
    },
    {
      "constant": false,
      "inputs": [
        {
          "name": "agreementID",
          "type": "bytes32"
        }
      ],
      "name": "returnCollateral",
      "outputs": [],
      "payable": false,
      "stateMutability": "nonpayable",
      "type": "function"
    },
    {
      "constant": false,
      "inputs": [
        {
          "name": "agreementId",
          "type": "bytes32"
        },
        {
          "name": "payer",
          "type": "address"
        },
        {
          "name": "beneficiary",
          "type": "address"
        },
        {
          "name": "unitsOfRepayment",
          "type": "uint256"
        },
        {
          "name": "tokenAddress",
          "type": "address"
        }
      ],
      "name": "registerRepayment",
      "outputs": [
        {
          "name": "_success",
          "type": "bool"
        }
      ],
      "payable": false,
      "stateMutability": "nonpayable",
      "type": "function"
    },
    {
      "constant": false,
      "inputs": [
        {
          "name": "agreementId",
          "type": "bytes32"
        },
        {
          "name": "amount",
          "type": "uint256"
        }
      ],
      "name": "mockDummyValueRepaid",
      "outputs": [],
      "payable": false,
      "stateMutability": "nonpayable",
      "type": "function"
    },
    {
      "constant": false,
      "inputs": [
        {
          "name": "agreementID",
          "type": "bytes32"
        },
        {
          "name": "collateralizer",
          "type": "address"
        },
        {
          "name": "token",
          "type": "address"
        },
        {
          "name": "amount",
          "type": "uint256"
        },
        {
          "name": "lockupPeriodEndTimestamp",
          "type": "uint256"
        },
        {
          "name": "withdrawn",
          "type": "bool"
        }
      ],
      "name": "setDummyCollateral",
      "outputs": [],
      "payable": false,
      "stateMutability": "nonpayable",
      "type": "function"
    },
    {
      "constant": true,
      "inputs": [
        {
          "name": "",
          "type": "bytes32"
        }
      ],
      "name": "collateralForAgreementID",
      "outputs": [
        {
          "name": "collateralizer",
          "type": "address"
        },
        {
          "name": "token",
          "type": "address"
        },
        {
          "name": "amount",
          "type": "uint256"
        },
        {
          "name": "lockupPeriod",
          "type": "uint256"
        },
        {
          "name": "withdrawn",
          "type": "bool"
        }
      ],
      "payable": false,
      "stateMutability": "view",
      "type": "function"
    },
    {
      "constant": true,
      "inputs": [
        {
          "name": "agreementId",
          "type": "bytes32"
        },
        {
          "name": "timestamp",
          "type": "uint256"
        }
      ],
      "name": "getExpectedRepaymentValue",
      "outputs": [
        {
          "name": "",
          "type": "uint256"
        }
      ],
      "payable": false,
      "stateMutability": "view",
      "type": "function"
    },
    {
      "constant": false,
      "inputs": [
        {
          "name": "agreementID",
          "type": "bytes32"
        },
        {
          "name": "token",
          "type": "address"
        },
        {
          "name": "amount",
          "type": "uint256"
        },
        {
          "name": "lockupPeriodEndTimestamp",
          "type": "uint256"
        }
      ],
      "name": "collateralize",
      "outputs": [],
      "payable": false,
      "stateMutability": "nonpayable",
      "type": "function"
    },
    {
      "constant": false,
      "inputs": [
        {
          "name": "agreementID",
          "type": "bytes32"
        }
      ],
      "name": "seizeCollateral",
      "outputs": [],
      "payable": false,
      "stateMutability": "nonpayable",
      "type": "function"
    },
    {
      "inputs": [
        {
          "name": "_debtRegistry",
          "type": "address"
        }
      ],
      "payable": false,
      "stateMutability": "nonpayable",
      "type": "constructor"
    },
    {
      "anonymous": false,
      "inputs": [
        {
          "indexed": true,
          "name": "agreementID",
          "type": "bytes32"
        },
        {
          "indexed": false,
          "name": "token",
          "type": "address"
        },
        {
          "indexed": false,
          "name": "amount",
          "type": "uint256"
        }
      ],
      "name": "CollateralLocked",
      "type": "event"
    },
    {
      "anonymous": false,
      "inputs": [
        {
          "indexed": true,
          "name": "agreementID",
          "type": "bytes32"
        },
        {
          "indexed": true,
          "name": "collateralizer",
          "type": "address"
        },
        {
          "indexed": false,
          "name": "token",
          "type": "address"
        },
        {
          "indexed": false,
          "name": "amount",
          "type": "uint256"
        }
      ],
      "name": "CollateralReturned",
      "type": "event"
    },
    {
      "anonymous": false,
      "inputs": [
        {
          "indexed": true,
          "name": "agreementID",
          "type": "bytes32"
        },
        {
          "indexed": true,
          "name": "beneficiary",
          "type": "address"
        },
        {
          "indexed": false,
          "name": "token",
          "type": "address"
        },
        {
          "indexed": false,
          "name": "amount",
          "type": "uint256"
        }
      ],
      "name": "CollateralSeized",
      "type": "event"
    }
  ],
  "bytecode": "0x6060604052341561000f57600080fd5b6040516020806113ff8339810160405280805190602001909190505080806000806101000a81548173ffffffffffffffffffffffffffffffffffffffff021916908373ffffffffffffffffffffffffffffffffffffffff16021790555050506113828061007d6000396000f3006060604052600436106100ba576000357c0100000000000000000000000000000000000000000000000000000000900463ffffffff16806303a896a1146100bf578063109f4600146100fa578063282b34051461012a5780632f866f731461016957806344c4ea95146101be5780635f0280ba146101e55780635f6eb71e1461028a57806375cedbc5146102ba57806378f522bb1461033c57806399114d84146103ef578063e9f7a9dc14610433578063ed8e52bd1461048b575b600080fd5b34156100ca57600080fd5b6100e46004808035600019169060200190919050506104b2565b6040518082815260200191505060405180910390f35b341561010557600080fd5b6101286004808035600019169060200190919080359060200190919050506104d7565b005b341561013557600080fd5b61014f6004808035600019169060200190919050506104fb565b604051808215151515815260200191505060405180910390f35b341561017457600080fd5b61017c610506565b604051808273ffffffffffffffffffffffffffffffffffffffff1673ffffffffffffffffffffffffffffffffffffffff16815260200191505060405180910390f35b34156101c957600080fd5b6101e360048080356000191690602001909190505061052b565b005b34156101f057600080fd5b61027060048080356000191690602001909190803573ffffffffffffffffffffffffffffffffffffffff1690602001909190803573ffffffffffffffffffffffffffffffffffffffff1690602001909190803590602001909190803573ffffffffffffffffffffffffffffffffffffffff16906020019091905050610837565b604051808215151515815260200191505060405180910390f35b341561029557600080fd5b6102b8600480803560001916906020019091908035906020019091905050610845565b005b34156102c557600080fd5b61033a60048080356000191690602001909190803573ffffffffffffffffffffffffffffffffffffffff1690602001909190803573ffffffffffffffffffffffffffffffffffffffff169060200190919080359060200190919080359060200190919080351515906020019091905050610869565b005b341561034757600080fd5b6103616004808035600019169060200190919050506109a7565b604051808673ffffffffffffffffffffffffffffffffffffffff1673ffffffffffffffffffffffffffffffffffffffff1681526020018573ffffffffffffffffffffffffffffffffffffffff1673ffffffffffffffffffffffffffffffffffffffff168152602001848152602001838152602001821515151581526020019550505050505060405180910390f35b34156103fa57600080fd5b61041d600480803560001916906020019091908035906020019091905050610a2a565b6040518082815260200191505060405180910390f35b341561043e57600080fd5b61048960048080356000191690602001909190803573ffffffffffffffffffffffffffffffffffffffff16906020019091908035906020019091908035906020019091905050610a50565b005b341561049657600080fd5b6104b0600480803560001916906020019091905050610f35565b005b6000600260008360001916600019168152602001908152602001600020549050919050565b80600360008460001916600019168152602001908152602001600020819055505050565b600060019050919050565b6000809054906101000a900473ffffffffffffffffffffffffffffffffffffffff1681565b6105336112f8565b60016000836000191660001916815260200190815260200160002060a060405190810160405290816000820160009054906101000a900473ffffffffffffffffffffffffffffffffffffffff1673ffffffffffffffffffffffffffffffffffffffff1673ffffffffffffffffffffffffffffffffffffffff1681526020016001820160009054906101000a900473ffffffffffffffffffffffffffffffffffffffff1673ffffffffffffffffffffffffffffffffffffffff1673ffffffffffffffffffffffffffffffffffffffff16815260200160028201548152602001600382015481526020016004820160009054906101000a900460ff16151515158152505090506000816060015111151561064a57600080fd5b80606001514211151561065c57600080fd5b806080015115151561066d57600080fd5b610676826104b2565b6106808342610a2a565b1115151561068d57600080fd5b6001806000846000191660001916815260200190815260200160002060040160006101000a81548160ff021916908315150217905550806020015173ffffffffffffffffffffffffffffffffffffffff1663a9059cbb826000015183604001516000604051602001526040518363ffffffff167c0100000000000000000000000000000000000000000000000000000000028152600401808373ffffffffffffffffffffffffffffffffffffffff1673ffffffffffffffffffffffffffffffffffffffff16815260200182815260200192505050602060405180830381600087803b151561077a57600080fd5b6102c65a03f1151561078b57600080fd5b5050506040518051905015156107a057600080fd5b806000015173ffffffffffffffffffffffffffffffffffffffff1682600019167f2621540e2b91ca10330d6a7cbd6fb8cab2396f91c4935ad76b1183770819fa1f83602001518460400151604051808373ffffffffffffffffffffffffffffffffffffffff1673ffffffffffffffffffffffffffffffffffffffff1681526020018281526020019250505060405180910390a35050565b600080905095945050505050565b80600260008460001916600019168152602001908152602001600020819055505050565b60a0604051908101604052808673ffffffffffffffffffffffffffffffffffffffff1681526020018573ffffffffffffffffffffffffffffffffffffffff16815260200184815260200183815260200182151581525060016000886000191660001916815260200190815260200160002060008201518160000160006101000a81548173ffffffffffffffffffffffffffffffffffffffff021916908373ffffffffffffffffffffffffffffffffffffffff16021790555060208201518160010160006101000a81548173ffffffffffffffffffffffffffffffffffffffff021916908373ffffffffffffffffffffffffffffffffffffffff160217905550604082015181600201556060820151816003015560808201518160040160006101000a81548160ff021916908315150217905550905050505050505050565b60016020528060005260406000206000915090508060000160009054906101000a900473ffffffffffffffffffffffffffffffffffffffff16908060010160009054906101000a900473ffffffffffffffffffffffffffffffffffffffff16908060020154908060030154908060040160009054906101000a900460ff16905085565b600060036000846000191660001916815260200190815260200160002054905092915050565b6000806000610a5d6112f8565b600086111515610a6c57600080fd5b4285111515610a7a57600080fd5b6000600160008a6000191660001916815260200190815260200160002060030154141515610aa757600080fd5b869350339250309150858473ffffffffffffffffffffffffffffffffffffffff166370a08231856000604051602001526040518263ffffffff167c0100000000000000000000000000000000000000000000000000000000028152600401808273ffffffffffffffffffffffffffffffffffffffff1673ffffffffffffffffffffffffffffffffffffffff168152602001915050602060405180830381600087803b1515610b5457600080fd5b6102c65a03f11515610b6557600080fd5b5050506040518051905010151515610b7c57600080fd5b858473ffffffffffffffffffffffffffffffffffffffff1663dd62ed3e85856000604051602001526040518363ffffffff167c0100000000000000000000000000000000000000000000000000000000028152600401808373ffffffffffffffffffffffffffffffffffffffff1673ffffffffffffffffffffffffffffffffffffffff1681526020018273ffffffffffffffffffffffffffffffffffffffff1673ffffffffffffffffffffffffffffffffffffffff16815260200192505050602060405180830381600087803b1515610c5457600080fd5b6102c65a03f11515610c6557600080fd5b5050506040518051905010151515610c7c57600080fd5b8373ffffffffffffffffffffffffffffffffffffffff166323b872dd8484896000604051602001526040518463ffffffff167c0100000000000000000000000000000000000000000000000000000000028152600401808473ffffffffffffffffffffffffffffffffffffffff1673ffffffffffffffffffffffffffffffffffffffff1681526020018373ffffffffffffffffffffffffffffffffffffffff1673ffffffffffffffffffffffffffffffffffffffff1681526020018281526020019350505050602060405180830381600087803b1515610d5b57600080fd5b6102c65a03f11515610d6c57600080fd5b505050604051805190501515610d8157600080fd5b60a0604051908101604052803373ffffffffffffffffffffffffffffffffffffffff1681526020018873ffffffffffffffffffffffffffffffffffffffff16815260200187815260200186815260200160001515815250905080600160008a6000191660001916815260200190815260200160002060008201518160000160006101000a81548173ffffffffffffffffffffffffffffffffffffffff021916908373ffffffffffffffffffffffffffffffffffffffff16021790555060208201518160010160006101000a81548173ffffffffffffffffffffffffffffffffffffffff021916908373ffffffffffffffffffffffffffffffffffffffff160217905550604082015181600201556060820151816003015560808201518160040160006101000a81548160ff02191690831515021790555090505087600019167f38f12634ebefbe7f6767652aae05e220f95e0ca8ef8353c9c9c5ae439a592aec8888604051808373ffffffffffffffffffffffffffffffffffffffff1673ffffffffffffffffffffffffffffffffffffffff1681526020018281526020019250505060405180910390a25050505050505050565b610f3d6112f8565b600060016000846000191660001916815260200190815260200160002060a060405190810160405290816000820160009054906101000a900473ffffffffffffffffffffffffffffffffffffffff1673ffffffffffffffffffffffffffffffffffffffff1673ffffffffffffffffffffffffffffffffffffffff1681526020016001820160009054906101000a900473ffffffffffffffffffffffffffffffffffffffff1673ffffffffffffffffffffffffffffffffffffffff1673ffffffffffffffffffffffffffffffffffffffff16815260200160028201548152602001600382015481526020016004820160009054906101000a900460ff16151515158152505091506000826060015111151561105657600080fd5b81606001514211151561106857600080fd5b816080015115151561107957600080fd5b611082836104b2565b61108c8442610a2a565b11151561109857600080fd5b6001806000856000191660001916815260200190815260200160002060040160006101000a81548160ff0219169083151502179055506000809054906101000a900473ffffffffffffffffffffffffffffffffffffffff1673ffffffffffffffffffffffffffffffffffffffff1663ba20dda4846000604051602001526040518263ffffffff167c0100000000000000000000000000000000000000000000000000000000028152600401808260001916600019168152602001915050602060405180830381600087803b151561116e57600080fd5b6102c65a03f1151561117f57600080fd5b505050604051805190509050816020015173ffffffffffffffffffffffffffffffffffffffff1663a9059cbb8284604001516000604051602001526040518363ffffffff167c0100000000000000000000000000000000000000000000000000000000028152600401808373ffffffffffffffffffffffffffffffffffffffff1673ffffffffffffffffffffffffffffffffffffffff16815260200182815260200192505050602060405180830381600087803b151561123e57600080fd5b6102c65a03f1151561124f57600080fd5b50505060405180519050151561126457600080fd5b8073ffffffffffffffffffffffffffffffffffffffff1683600019167f50d195a4b80a950617a8e0e18ac9dd4c0236ac72d5e12355d881443823870d3984602001518560400151604051808373ffffffffffffffffffffffffffffffffffffffff1673ffffffffffffffffffffffffffffffffffffffff1681526020018281526020019250505060405180910390a3505050565b60a060405190810160405280600073ffffffffffffffffffffffffffffffffffffffff168152602001600073ffffffffffffffffffffffffffffffffffffffff168152602001600081526020016000815260200160001515815250905600a165627a7a72305820d6f926e58909b455e8e271270b5b5b365eb596de3eb07741f92a3262c3e4d6ab0029",
  "source": "pragma solidity 0.4.18;\n\nimport \"zeppelin-solidity/contracts/math/SafeMath.sol\";\n\nimport \"../../examples/Collateralized.sol\";\n\n\ncontract DummyCollateralizedContract is Collateralized {\n    using SafeMath for uint;\n\n    mapping(bytes32 => uint) internal amountRepaid;\n    mapping(bytes32 => uint) internal expectedRepaymentValue;\n\n    function DummyCollateralizedContract(address _debtRegistry) public Collateralized(_debtRegistry) {}\n\n    /* Naive `TermsContract` interface implementation. */\n\n    function registerTermStart(\n        bytes32 agreementId\n    ) public returns (bool _success) {\n        return true;\n    }\n\n    function registerRepayment(\n        bytes32 agreementId,\n        address payer,\n        address beneficiary,\n        uint256 unitsOfRepayment,\n        address tokenAddress\n    ) public returns (bool _success) {\n        return false;\n    }\n\n    function getExpectedRepaymentValue(\n        bytes32 agreementId,\n        uint256 timestamp\n    ) public view returns (uint256) {\n        return expectedRepaymentValue[agreementId];\n    }\n\n    function getValueRepaidToDate(\n        bytes32 agreementId\n    ) public view returns (uint256) {\n        return amountRepaid[agreementId];\n    }\n\n    /* Dummy functionality used to mock behavior for testing purposes. */\n\n    function setDummyExpectedRepaymentValue(\n        bytes32 agreementId,\n        uint amount\n    ) public {\n        expectedRepaymentValue[agreementId] = amount;\n    }\n\n    function mockDummyValueRepaid(\n        bytes32 agreementId,\n        uint amount\n    ) public {\n        amountRepaid[agreementId] = amount;\n    }\n\n    function setDummyCollateral(\n        bytes32 agreementID,\n        address collateralizer,\n        address token,\n        uint amount,\n        uint lockupPeriodEndTimestamp,\n        bool withdrawn\n    ) public {\n        collateralForAgreementID[agreementID] = Collateral({\n            collateralizer: collateralizer,\n            token: token,\n            amount: amount,\n            lockupPeriod: lockupPeriodEndTimestamp,\n            withdrawn: withdrawn\n        });\n    }\n\n}\n",
  "sourcePath": "/Users/nadavhollander/Documents/Dharma/Development/charta/contracts/test/terms_contracts/DummyCollateralizedContract.sol",
  "compiler": {
    "name": "solc",
    "version": "0.4.18+commit.9cf6e910.Emscripten.clang"
  },
  "schemaVersion": "1.0.1",
  "updatedAt": "2018-03-19T22:46:09.667Z"
}