{
  "contractName": "ERC721Collateralizer",
  "abi": [
    {
      "constant": true,
      "inputs": [],
      "name": "debtKernelAddress",
      "outputs": [
        {
          "name": "",
          "type": "address"
        }
      ],
      "payable": false,
      "stateMutability": "view",
      "type": "function"
    },
    {
      "constant": true,
      "inputs": [],
      "name": "CONTEXT",
      "outputs": [
        {
          "name": "",
          "type": "string"
        }
      ],
      "payable": false,
      "stateMutability": "view",
      "type": "function"
    },
    {
      "constant": true,
      "inputs": [],
      "name": "debtRegistry",
      "outputs": [
        {
          "name": "",
          "type": "address"
        }
      ],
      "payable": false,
      "stateMutability": "view",
      "type": "function"
    },
    {
      "constant": false,
      "inputs": [],
      "name": "unpause",
      "outputs": [],
      "payable": false,
      "stateMutability": "nonpayable",
      "type": "function"
    },
    {
      "constant": false,
      "inputs": [
        {
          "name": "agreementId",
          "type": "bytes32"
        }
      ],
      "name": "returnCollateral",
      "outputs": [],
      "payable": false,
      "stateMutability": "nonpayable",
      "type": "function"
    },
    {
      "constant": true,
      "inputs": [],
      "name": "paused",
      "outputs": [
        {
          "name": "",
          "type": "bool"
        }
      ],
      "payable": false,
      "stateMutability": "view",
      "type": "function"
    },
    {
      "constant": true,
      "inputs": [],
      "name": "SECONDS_IN_DAY",
      "outputs": [
        {
          "name": "",
          "type": "uint256"
        }
      ],
      "payable": false,
      "stateMutability": "view",
      "type": "function"
    },
    {
      "constant": false,
      "inputs": [
        {
          "name": "agreementId",
          "type": "bytes32"
        },
        {
          "name": "collateralizer",
          "type": "address"
        }
      ],
      "name": "collateralize",
      "outputs": [
        {
          "name": "_success",
          "type": "bool"
        }
      ],
      "payable": false,
      "stateMutability": "nonpayable",
      "type": "function"
    },
    {
      "constant": false,
      "inputs": [],
      "name": "pause",
      "outputs": [],
      "payable": false,
      "stateMutability": "nonpayable",
      "type": "function"
    },
    {
      "constant": true,
      "inputs": [],
      "name": "owner",
      "outputs": [
        {
          "name": "",
          "type": "address"
        }
      ],
      "payable": false,
      "stateMutability": "view",
      "type": "function"
    },
    {
      "constant": false,
      "inputs": [
        {
          "name": "agent",
          "type": "address"
        }
      ],
      "name": "revokeCollateralizeAuthorization",
      "outputs": [],
      "payable": false,
      "stateMutability": "nonpayable",
      "type": "function"
    },
    {
      "constant": true,
      "inputs": [],
      "name": "tokenRegistry",
      "outputs": [
        {
          "name": "",
          "type": "address"
        }
      ],
      "payable": false,
      "stateMutability": "view",
      "type": "function"
    },
    {
      "constant": false,
      "inputs": [
        {
          "name": "agent",
          "type": "address"
        }
      ],
      "name": "addAuthorizedCollateralizeAgent",
      "outputs": [],
      "payable": false,
      "stateMutability": "nonpayable",
      "type": "function"
    },
    {
      "constant": true,
      "inputs": [
        {
          "name": "parameters",
          "type": "bytes32"
        }
      ],
      "name": "unpackCollateralParametersFromBytes",
      "outputs": [
        {
          "name": "",
          "type": "uint256"
        },
        {
          "name": "",
          "type": "uint256"
        }
      ],
      "payable": false,
      "stateMutability": "pure",
      "type": "function"
    },
    {
      "constant": true,
      "inputs": [
        {
          "name": "",
          "type": "bytes32"
        }
      ],
      "name": "agreementToCollateralizer",
      "outputs": [
        {
          "name": "",
          "type": "address"
        }
      ],
      "payable": false,
      "stateMutability": "view",
      "type": "function"
    },
    {
      "constant": false,
      "inputs": [
        {
          "name": "agreementId",
          "type": "bytes32"
        }
      ],
      "name": "seizeCollateral",
      "outputs": [],
      "payable": false,
      "stateMutability": "nonpayable",
      "type": "function"
    },
    {
      "constant": false,
      "inputs": [
        {
          "name": "newOwner",
          "type": "address"
        }
      ],
      "name": "transferOwnership",
      "outputs": [],
      "payable": false,
      "stateMutability": "nonpayable",
      "type": "function"
    },
    {
      "constant": true,
      "inputs": [],
      "name": "getAuthorizedCollateralizeAgents",
      "outputs": [
        {
          "name": "",
          "type": "address[]"
        }
      ],
      "payable": false,
      "stateMutability": "view",
      "type": "function"
    },
    {
      "inputs": [
        {
          "name": "_debtKernel",
          "type": "address"
        },
        {
          "name": "_debtRegistry",
          "type": "address"
        },
        {
          "name": "_tokenRegistry",
          "type": "address"
        }
      ],
      "payable": false,
      "stateMutability": "nonpayable",
      "type": "constructor"
    },
    {
      "anonymous": false,
      "inputs": [
        {
          "indexed": true,
          "name": "agreementID",
          "type": "bytes32"
        },
        {
          "indexed": true,
          "name": "token",
          "type": "address"
        },
        {
          "indexed": false,
          "name": "tokenID",
          "type": "uint256"
        }
      ],
      "name": "CollateralLocked",
      "type": "event"
    },
    {
      "anonymous": false,
      "inputs": [
        {
          "indexed": true,
          "name": "agreementID",
          "type": "bytes32"
        },
        {
          "indexed": true,
          "name": "collateralizer",
          "type": "address"
        },
        {
          "indexed": false,
          "name": "token",
          "type": "address"
        },
        {
          "indexed": false,
          "name": "tokenID",
          "type": "uint256"
        }
      ],
      "name": "CollateralReturned",
      "type": "event"
    },
    {
      "anonymous": false,
      "inputs": [
        {
          "indexed": true,
          "name": "agreementID",
          "type": "bytes32"
        },
        {
          "indexed": true,
          "name": "beneficiary",
          "type": "address"
        },
        {
          "indexed": false,
          "name": "token",
          "type": "address"
        },
        {
          "indexed": false,
          "name": "tokenID",
          "type": "uint256"
        }
      ],
      "name": "CollateralSeized",
      "type": "event"
    },
    {
      "anonymous": false,
      "inputs": [
        {
          "indexed": true,
          "name": "agent",
          "type": "address"
        },
        {
          "indexed": false,
          "name": "callingContext",
          "type": "string"
        }
      ],
      "name": "Authorized",
      "type": "event"
    },
    {
      "anonymous": false,
      "inputs": [
        {
          "indexed": true,
          "name": "agent",
          "type": "address"
        },
        {
          "indexed": false,
          "name": "callingContext",
          "type": "string"
        }
      ],
      "name": "AuthorizationRevoked",
      "type": "event"
    },
    {
      "anonymous": false,
      "inputs": [],
      "name": "Pause",
      "type": "event"
    },
    {
      "anonymous": false,
      "inputs": [],
      "name": "Unpause",
      "type": "event"
    },
    {
      "anonymous": false,
      "inputs": [
        {
          "indexed": true,
          "name": "previousOwner",
          "type": "address"
        },
        {
          "indexed": true,
          "name": "newOwner",
          "type": "address"
        }
      ],
      "name": "OwnershipTransferred",
      "type": "event"
    }
  ],
  "bytecode": "0x606060405260008060146101000a81548160ff021916908315150217905550341561002957600080fd5b60405160608061232783398101604052808051906020019091908051906020019091908051906020019091905050336000806101000a81548173ffffffffffffffffffffffffffffffffffffffff021916908373ffffffffffffffffffffffffffffffffffffffff16021790555082600160006101000a81548173ffffffffffffffffffffffffffffffffffffffff021916908373ffffffffffffffffffffffffffffffffffffffff16021790555081600260006101000a81548173ffffffffffffffffffffffffffffffffffffffff021916908373ffffffffffffffffffffffffffffffffffffffff16021790555080600360006101000a81548173ffffffffffffffffffffffffffffffffffffffff021916908373ffffffffffffffffffffffffffffffffffffffff1602179055505050506121bb8061016c6000396000f3006060604052600436106100fb576000357c0100000000000000000000000000000000000000000000000000000000900463ffffffff1680627eb667146101005780632e667c4e146101555780632f866f73146101e35780633f4ba83a1461023857806344c4ea951461024d5780635c975abb1461027457806361a52a36146102a1578063649404bd146102ca5780638456cb59146103285780638da5cb5b1461033d5780639ae1c1f3146103925780639d23c4c7146103cb578063ae72c6ef14610420578063ca06264714610459578063e4b67a4c1461049b578063ed8e52bd14610502578063f2fde38b14610529578063f466f42e14610562575b600080fd5b341561010b57600080fd5b6101136105cc565b604051808273ffffffffffffffffffffffffffffffffffffffff1673ffffffffffffffffffffffffffffffffffffffff16815260200191505060405180910390f35b341561016057600080fd5b6101686105f2565b6040518080602001828103825283818151815260200191508051906020019080838360005b838110156101a857808201518184015260208101905061018d565b50505050905090810190601f1680156101d55780820380516001836020036101000a031916815260200191505b509250505060405180910390f35b34156101ee57600080fd5b6101f661062b565b604051808273ffffffffffffffffffffffffffffffffffffffff1673ffffffffffffffffffffffffffffffffffffffff16815260200191505060405180910390f35b341561024357600080fd5b61024b610651565b005b341561025857600080fd5b61027260048080356000191690602001909190505061070f565b005b341561027f57600080fd5b610287610bd4565b604051808215151515815260200191505060405180910390f35b34156102ac57600080fd5b6102b4610be7565b6040518082815260200191505060405180910390f35b34156102d557600080fd5b61030e60048080356000191690602001909190803573ffffffffffffffffffffffffffffffffffffffff16906020019091905050610bee565b604051808215151515815260200191505060405180910390f35b341561033357600080fd5b61033b611075565b005b341561034857600080fd5b610350611135565b604051808273ffffffffffffffffffffffffffffffffffffffff1673ffffffffffffffffffffffffffffffffffffffff16815260200191505060405180910390f35b341561039d57600080fd5b6103c9600480803573ffffffffffffffffffffffffffffffffffffffff1690602001909190505061115a565b005b34156103d657600080fd5b6103de611203565b604051808273ffffffffffffffffffffffffffffffffffffffff1673ffffffffffffffffffffffffffffffffffffffff16815260200191505060405180910390f35b341561042b57600080fd5b610457600480803573ffffffffffffffffffffffffffffffffffffffff16906020019091905050611229565b005b341561046457600080fd5b61047e6004808035600019169060200190919050506112d2565b604051808381526020018281526020019250505060405180910390f35b34156104a657600080fd5b6104c060048080356000191690602001909190505061132b565b604051808273ffffffffffffffffffffffffffffffffffffffff1673ffffffffffffffffffffffffffffffffffffffff16815260200191505060405180910390f35b341561050d57600080fd5b61052760048080356000191690602001909190505061135e565b005b341561053457600080fd5b610560600480803573ffffffffffffffffffffffffffffffffffffffff16906020019091905050611809565b005b341561056d57600080fd5b61057561195e565b6040518080602001828103825283818151815260200191508051906020019060200280838360005b838110156105b857808201518184015260208101905061059d565b505050509050019250505060405180910390f35b600160009054906101000a900473ffffffffffffffffffffffffffffffffffffffff1681565b6040805190810160405280601481526020017f455243373231436f6c6c61746572616c697a657200000000000000000000000081525081565b600260009054906101000a900473ffffffffffffffffffffffffffffffffffffffff1681565b6000809054906101000a900473ffffffffffffffffffffffffffffffffffffffff1673ffffffffffffffffffffffffffffffffffffffff163373ffffffffffffffffffffffffffffffffffffffff161415156106ac57600080fd5b600060149054906101000a900460ff1615156106c757600080fd5b60008060146101000a81548160ff0219169083151502179055507f7805862f689e2f13df9f062ff482ad3ad112aca9e0847911ed832e158c525b3360405160405180910390a1565b60008060008060008060149054906101000a900460ff1615151561073257600080fd5b61073b86611975565b809550819650829750505050600073ffffffffffffffffffffffffffffffffffffffff168573ffffffffffffffffffffffffffffffffffffffff161415151561078357600080fd5b600073ffffffffffffffffffffffffffffffffffffffff1660046000886000191660001916815260200190815260200160002060009054906101000a900473ffffffffffffffffffffffffffffffffffffffff1673ffffffffffffffffffffffffffffffffffffffff16141515156107fa57600080fd5b8273ffffffffffffffffffffffffffffffffffffffff166303a896a1876000604051602001526040518263ffffffff167c0100000000000000000000000000000000000000000000000000000000028152600401808260001916600019168152602001915050602060405180830381600087803b151561087957600080fd5b6102c65a03f1151561088a57600080fd5b505050604051805190508373ffffffffffffffffffffffffffffffffffffffff166399114d84888673ffffffffffffffffffffffffffffffffffffffff16632762dd8c8b6000604051602001526040518263ffffffff167c0100000000000000000000000000000000000000000000000000000000028152600401808260001916600019168152602001915050602060405180830381600087803b151561093057600080fd5b6102c65a03f1151561094157600080fd5b505050604051805190506000604051602001526040518363ffffffff167c010000000000000000000000000000000000000000000000000000000002815260040180836000191660001916815260200182815260200192505050602060405180830381600087803b15156109b457600080fd5b6102c65a03f115156109c557600080fd5b50505060405180519050111515156109dc57600080fd5b60046000876000191660001916815260200190815260200160002060009054906101000a900473ffffffffffffffffffffffffffffffffffffffff16915060046000876000191660001916815260200190815260200160002060006101000a81549073ffffffffffffffffffffffffffffffffffffffff02191690558490508073ffffffffffffffffffffffffffffffffffffffff166323b872dd3084876040518463ffffffff167c0100000000000000000000000000000000000000000000000000000000028152600401808473ffffffffffffffffffffffffffffffffffffffff1673ffffffffffffffffffffffffffffffffffffffff1681526020018373ffffffffffffffffffffffffffffffffffffffff1673ffffffffffffffffffffffffffffffffffffffff1681526020018281526020019350505050600060405180830381600087803b1515610b3157600080fd5b6102c65a03f11515610b4257600080fd5b5050508173ffffffffffffffffffffffffffffffffffffffff1686600019167f2621540e2b91ca10330d6a7cbd6fb8cab2396f91c4935ad76b1183770819fa1f8787604051808373ffffffffffffffffffffffffffffffffffffffff1673ffffffffffffffffffffffffffffffffffffffff1681526020018281526020019250505060405180910390a3505050505050565b600060149054906101000a900460ff1681565b6201518081565b600080600080600080610c0b336005611b2690919063ffffffff16565b1515610c1657600080fd5b600060149054906101000a900460ff16151515610c3257600080fd5b610c3b88611975565b8095508196508297505050503373ffffffffffffffffffffffffffffffffffffffff168373ffffffffffffffffffffffffffffffffffffffff16141515610c8157600080fd5b600073ffffffffffffffffffffffffffffffffffffffff168573ffffffffffffffffffffffffffffffffffffffff1614151515610cbd57600080fd5b600073ffffffffffffffffffffffffffffffffffffffff16600460008a6000191660001916815260200190815260200160002060009054906101000a900473ffffffffffffffffffffffffffffffffffffffff1673ffffffffffffffffffffffffffffffffffffffff16141515610d3357600080fd5b8491503090508673ffffffffffffffffffffffffffffffffffffffff168273ffffffffffffffffffffffffffffffffffffffff16636352211e866000604051602001526040518263ffffffff167c010000000000000000000000000000000000000000000000000000000002815260040180828152602001915050602060405180830381600087803b1515610dc757600080fd5b6102c65a03f11515610dd857600080fd5b5050506040518051905073ffffffffffffffffffffffffffffffffffffffff16141515610e0457600080fd5b8073ffffffffffffffffffffffffffffffffffffffff168273ffffffffffffffffffffffffffffffffffffffff1663081812fc866000604051602001526040518263ffffffff167c010000000000000000000000000000000000000000000000000000000002815260040180828152602001915050602060405180830381600087803b1515610e9257600080fd5b6102c65a03f11515610ea357600080fd5b5050506040518051905073ffffffffffffffffffffffffffffffffffffffff16141515610ecf57600080fd5b86600460008a6000191660001916815260200190815260200160002060006101000a81548173ffffffffffffffffffffffffffffffffffffffff021916908373ffffffffffffffffffffffffffffffffffffffff1602179055508173ffffffffffffffffffffffffffffffffffffffff166323b872dd8883876040518463ffffffff167c0100000000000000000000000000000000000000000000000000000000028152600401808473ffffffffffffffffffffffffffffffffffffffff1673ffffffffffffffffffffffffffffffffffffffff1681526020018373ffffffffffffffffffffffffffffffffffffffff1673ffffffffffffffffffffffffffffffffffffffff1681526020018281526020019350505050600060405180830381600087803b1515610fff57600080fd5b6102c65a03f1151561101057600080fd5b5050508473ffffffffffffffffffffffffffffffffffffffff1688600019167f38f12634ebefbe7f6767652aae05e220f95e0ca8ef8353c9c9c5ae439a592aec866040518082815260200191505060405180910390a360019550505050505092915050565b6000809054906101000a900473ffffffffffffffffffffffffffffffffffffffff1673ffffffffffffffffffffffffffffffffffffffff163373ffffffffffffffffffffffffffffffffffffffff161415156110d057600080fd5b600060149054906101000a900460ff161515156110ec57600080fd5b6001600060146101000a81548160ff0219169083151502179055507f6985a02210a168e66602d3235cb6db0e70f92b3ba4d376a33c0f3d9434bff62560405160405180910390a1565b6000809054906101000a900473ffffffffffffffffffffffffffffffffffffffff1681565b6000809054906101000a900473ffffffffffffffffffffffffffffffffffffffff1673ffffffffffffffffffffffffffffffffffffffff163373ffffffffffffffffffffffffffffffffffffffff161415156111b557600080fd5b611200816040805190810160405280601481526020017f455243373231436f6c6c61746572616c697a65720000000000000000000000008152506005611b7f9092919063ffffffff16565b50565b600360009054906101000a900473ffffffffffffffffffffffffffffffffffffffff1681565b6000809054906101000a900473ffffffffffffffffffffffffffffffffffffffff1673ffffffffffffffffffffffffffffffffffffffff163373ffffffffffffffffffffffffffffffffffffffff1614151561128457600080fd5b6112cf816040805190810160405280601481526020017f455243373231436f6c6c61746572616c697a65720000000000000000000000008152506005611e759092919063ffffffff16565b50565b60008060008060006d0fffffffffffff000000000000006001028616925066ffffffffffffff60010286169150670100000000000000836001900481151561131657fe5b04905080826001900494509450505050915091565b60046020528060005260406000206000915054906101000a900473ffffffffffffffffffffffffffffffffffffffff1681565b60008060008060008060149054906101000a900460ff1615151561138157600080fd5b61138a86611975565b809550819650829750505050600073ffffffffffffffffffffffffffffffffffffffff168573ffffffffffffffffffffffffffffffffffffffff16141515156113d257600080fd5b600073ffffffffffffffffffffffffffffffffffffffff1660046000886000191660001916815260200190815260200160002060009054906101000a900473ffffffffffffffffffffffffffffffffffffffff1673ffffffffffffffffffffffffffffffffffffffff161415151561144957600080fd5b8273ffffffffffffffffffffffffffffffffffffffff166303a896a1876000604051602001526040518263ffffffff167c0100000000000000000000000000000000000000000000000000000000028152600401808260001916600019168152602001915050602060405180830381600087803b15156114c857600080fd5b6102c65a03f115156114d957600080fd5b505050604051805190508373ffffffffffffffffffffffffffffffffffffffff166399114d8488426000604051602001526040518363ffffffff167c010000000000000000000000000000000000000000000000000000000002815260040180836000191660001916815260200182815260200192505050602060405180830381600087803b151561156a57600080fd5b6102c65a03f1151561157b57600080fd5b5050506040518051905011151561159157600080fd5b60046000876000191660001916815260200190815260200160002060006101000a81549073ffffffffffffffffffffffffffffffffffffffff0219169055600260009054906101000a900473ffffffffffffffffffffffffffffffffffffffff1673ffffffffffffffffffffffffffffffffffffffff1663ba20dda4876000604051602001526040518263ffffffff167c0100000000000000000000000000000000000000000000000000000000028152600401808260001916600019168152602001915050602060405180830381600087803b151561167057600080fd5b6102c65a03f1151561168157600080fd5b5050506040518051905091508490508073ffffffffffffffffffffffffffffffffffffffff166323b872dd3084876040518463ffffffff167c0100000000000000000000000000000000000000000000000000000000028152600401808473ffffffffffffffffffffffffffffffffffffffff1673ffffffffffffffffffffffffffffffffffffffff1681526020018373ffffffffffffffffffffffffffffffffffffffff1673ffffffffffffffffffffffffffffffffffffffff1681526020018281526020019350505050600060405180830381600087803b151561176657600080fd5b6102c65a03f1151561177757600080fd5b5050508173ffffffffffffffffffffffffffffffffffffffff1686600019167f50d195a4b80a950617a8e0e18ac9dd4c0236ac72d5e12355d881443823870d398787604051808373ffffffffffffffffffffffffffffffffffffffff1673ffffffffffffffffffffffffffffffffffffffff1681526020018281526020019250505060405180910390a3505050505050565b6000809054906101000a900473ffffffffffffffffffffffffffffffffffffffff1673ffffffffffffffffffffffffffffffffffffffff163373ffffffffffffffffffffffffffffffffffffffff1614151561186457600080fd5b600073ffffffffffffffffffffffffffffffffffffffff168173ffffffffffffffffffffffffffffffffffffffff16141515156118a057600080fd5b8073ffffffffffffffffffffffffffffffffffffffff166000809054906101000a900473ffffffffffffffffffffffffffffffffffffffff1673ffffffffffffffffffffffffffffffffffffffff167f8be0079c531659141344cd1fd0a4f28419497f9722a3daafe3b4186f6b6457e060405160405180910390a3806000806101000a81548173ffffffffffffffffffffffffffffffffffffffff021916908373ffffffffffffffffffffffffffffffffffffffff16021790555050565b6119666120fe565b6119706005612051565b905090565b600080600080600080600080600260009054906101000a900473ffffffffffffffffffffffffffffffffffffffff1673ffffffffffffffffffffffffffffffffffffffff16636be39bda8a6000604051604001526040518263ffffffff167c01000000000000000000000000000000000000000000000000000000000281526004018082600019166000191681526020019150506040805180830381600087803b1515611a2157600080fd5b6102c65a03f11515611a3257600080fd5b505050604051805190602001805190508095508196505050611a53846112d2565b8093508194505050600360009054906101000a900473ffffffffffffffffffffffffffffffffffffffff1673ffffffffffffffffffffffffffffffffffffffff16635715c5b7846000604051602001526040518263ffffffff167c010000000000000000000000000000000000000000000000000000000002815260040180828152602001915050602060405180830381600087803b1515611af457600080fd5b6102c65a03f11515611b0557600080fd5b50505060405180519050905080828697509750975050505050509193909250565b60008260000160008373ffffffffffffffffffffffffffffffffffffffff1673ffffffffffffffffffffffffffffffffffffffff16815260200190815260200160002060009054906101000a900460ff16905092915050565b6000806000611b8e8686611b26565b1515611b9957600080fd5b8560010160008673ffffffffffffffffffffffffffffffffffffffff1673ffffffffffffffffffffffffffffffffffffffff168152602001908152602001600020549250600186600201805490500391508560020182815481101515611bfb57fe5b906000526020600020900160009054906101000a900473ffffffffffffffffffffffffffffffffffffffff1690508560000160008673ffffffffffffffffffffffffffffffffffffffff1673ffffffffffffffffffffffffffffffffffffffff16815260200190815260200160002060006101000a81549060ff0219169055808660020184815481101515611c8c57fe5b906000526020600020900160006101000a81548173ffffffffffffffffffffffffffffffffffffffff021916908373ffffffffffffffffffffffffffffffffffffffff160217905550828660010160008373ffffffffffffffffffffffffffffffffffffffff1673ffffffffffffffffffffffffffffffffffffffff168152602001908152602001600020819055508560010160008673ffffffffffffffffffffffffffffffffffffffff1673ffffffffffffffffffffffffffffffffffffffff168152602001908152602001600020600090558560020182815481101515611d7157fe5b906000526020600020900160006101000a81549073ffffffffffffffffffffffffffffffffffffffff021916905560018660020181818054905003915081611db99190612112565b508473ffffffffffffffffffffffffffffffffffffffff167f0814e4ee85854cea446b4a27a460e5ffb41516230dbc02f226c07907e432241c856040518080602001828103825283818151815260200191508051906020019080838360005b83811015611e33578082015181840152602081019050611e18565b50505050905090810190601f168015611e605780820380516001836020036101000a031916815260200191505b509250505060405180910390a2505050505050565b611e7f83836120e9565b1515611e8a57600080fd5b60018360000160008473ffffffffffffffffffffffffffffffffffffffff1673ffffffffffffffffffffffffffffffffffffffff16815260200190815260200160002060006101000a81548160ff021916908315150217905550826002018054806001018281611efa919061213e565b9160005260206000209001600084909190916101000a81548173ffffffffffffffffffffffffffffffffffffffff021916908373ffffffffffffffffffffffffffffffffffffffff1602179055505060018360020180549050038360010160008473ffffffffffffffffffffffffffffffffffffffff1673ffffffffffffffffffffffffffffffffffffffff168152602001908152602001600020819055508173ffffffffffffffffffffffffffffffffffffffff167f571925c699f9072cec76b6c6c000571cc8d0bb5c47e5819202e2e9496c6508b5826040518080602001828103825283818151815260200191508051906020019080838360005b83811015612012578082015181840152602081019050611ff7565b50505050905090810190601f16801561203f5780820380516001836020036101000a031916815260200191505b509250505060405180910390a2505050565b6120596120fe565b816002018054806020026020016040519081016040528092919081815260200182805480156120dd57602002820191906000526020600020905b8160009054906101000a900473ffffffffffffffffffffffffffffffffffffffff1673ffffffffffffffffffffffffffffffffffffffff1681526020019060010190808311612093575b50505050509050919050565b60006120f58383611b26565b15905092915050565b602060405190810160405280600081525090565b81548183558181151161213957818360005260206000209182019101612138919061216a565b5b505050565b81548183558181151161216557818360005260206000209182019101612164919061216a565b5b505050565b61218c91905b80821115612188576000816000905550600101612170565b5090565b905600a165627a7a723058207cda80ff86f51d06362222a45bd1b23ee848ed2f5715f0edcb29659d67e7f7780029",
  "source": "/*\n\n  Copyright 2017 Dharma Labs Inc.\n\n  Licensed under the Apache License, Version 2.0 (the \"License\");\n  you may not use this file except in compliance with the License.\n  You may obtain a copy of the License at\n\n    http://www.apache.org/licenses/LICENSE-2.0\n\n  Unless required by applicable law or agreed to in writing, software\n  distributed under the License is distributed on an \"AS IS\" BASIS,\n  WITHOUT WARRANTIES OR CONDITIONS OF ANY KIND, either express or implied.\n  See the License for the specific language governing permissions and\n  limitations under the License.\n\n*/\n\npragma solidity 0.4.18;\n\nimport \"zeppelin-solidity/contracts/math/SafeMath.sol\";\nimport \"zeppelin-solidity/contracts/token/ERC721/ERC721.sol\";\n\nimport \"./TermsContract.sol\";\nimport \"./DebtRegistry.sol\";\nimport \"./ERC721TokenRegistry.sol\";\nimport {PermissionsLib, PermissionEvents} from \"./libraries/PermissionsLib.sol\";\n\n\n/**\n  * Contains functionality for collateralizing NFTs, by transferring them from\n  * a debtor address to this contract as a custodian.\n  */\ncontract ERC721Collateralizer is Pausable, PermissionEvents {\n    using PermissionsLib for PermissionsLib.Permissions;\n    using SafeMath for uint;\n\n    address public debtKernelAddress;\n\n    DebtRegistry public debtRegistry;\n    ERC721TokenRegistry public tokenRegistry;\n\n    // Collateralizer here refers to the owner of the asset that is being collateralized.\n    mapping(bytes32 => address) public agreementToCollateralizer;\n\n    PermissionsLib.Permissions internal collateralizationPermissions;\n\n    uint public constant SECONDS_IN_DAY = 24 * 60 * 60;\n\n    string public constant CONTEXT = \"ERC721Collateralizer\";\n\n    event CollateralLocked(\n        bytes32 indexed agreementID,\n        // The address of the ERC721 contract for the token.\n        address indexed token,\n        // The ID of the token in the ERC721 contract.\n        uint256 tokenID\n    );\n\n    event CollateralReturned(\n        bytes32 indexed agreementID,\n        address indexed collateralizer,\n        address token,\n        uint256 tokenID\n    );\n\n    event CollateralSeized(\n        bytes32 indexed agreementID,\n        address indexed beneficiary,\n        address token,\n        uint256 tokenID\n    );\n\n    modifier onlyAuthorizedToCollateralize() {\n        require(collateralizationPermissions.isAuthorized(msg.sender));\n        _;\n    }\n\n    function ERC721Collateralizer(\n        address _debtKernel,\n        address _debtRegistry,\n        address _tokenRegistry\n    ) public {\n        debtKernelAddress = _debtKernel;\n        debtRegistry = DebtRegistry(_debtRegistry);\n        tokenRegistry = ERC721TokenRegistry(_tokenRegistry);\n    }\n\n    /**\n     * Transfers collateral from the debtor to the current contract, as custodian.\n     *\n     * @param agreementId bytes32 The debt agreement's ID\n     * @param collateralizer address The owner of the asset being collateralized\n     */\n    function collateralize(\n        bytes32 agreementId,\n        address collateralizer\n    )\n        public\n        onlyAuthorizedToCollateralize\n        whenNotPaused\n    returns (bool _success)\n    {\n        // The address of the ERC721 contract.\n        address collateralTokenAddress;\n        // The token ID, associating the collateral token and the given ERC721 contract.\n        uint256 collateralTokenID;\n        // The terms contract according to which this asset is being collateralized.\n        TermsContract termsContract;\n\n        // Fetch all relevant collateralization parameters\n        (\n            collateralTokenAddress,\n            collateralTokenID,\n            termsContract\n        ) = retrieveCollateralParameters(agreementId);\n\n        require(termsContract == msg.sender);\n        require(collateralTokenAddress != address(0));\n\n        /*\n            Ensure that the agreement has not already been collateralized.\n\n            If the agreement has already been collateralized, this check will fail\n            because any valid collateralization must have some sort of valid\n            address associated with it as a collateralizer.  Given that it is impossible\n            to send transactions from address 0x0, this check will only fail\n            when the agreement is already collateralized.\n        */\n        require(agreementToCollateralizer[agreementId] == address(0));\n\n        ERC721 erc721token = ERC721(collateralTokenAddress);\n        address custodian = address(this);\n\n        // Ensure that the collateralizer is the owner of this token ID.\n        require(erc721token.ownerOf(collateralTokenID) == collateralizer);\n\n        // The token must be approved for transfer by this contract.\n        require(erc721token.getApproved(collateralTokenID) == custodian);\n\n        // Store collaterallizer in mapping, effectively demarcating that the\n        // agreement is now collateralized.\n        agreementToCollateralizer[agreementId] = collateralizer;\n\n        // Transfer the collateral asset to this contract.\n        erc721token.transferFrom(collateralizer, custodian, collateralTokenID);\n\n        // Emit an event that collateral has been secured.\n        CollateralLocked(agreementId, collateralTokenAddress, collateralTokenID);\n\n        return true;\n    }\n\n    /**\n     * Returns collateral to the debt agreement's original collateralizer\n     * if and only if the debt agreement's term has lapsed and\n     * the total expected repayment value has been repaid.\n     *\n     * @param agreementId bytes32 The debt agreement's ID\n     */\n    function returnCollateral(\n        bytes32 agreementId\n    )\n        public\n        whenNotPaused\n    {\n        // The address of the ERC721 contract.\n        address collateralTokenAddress;\n        // The token ID, associating the collateral token and the given ERC721 contract.\n        uint256 collateralTokenID;\n        // The terms contract according to which this asset is being collateralized.\n        TermsContract termsContract;\n\n        // Fetch all relevant collateralization parameters.\n        (\n            collateralTokenAddress,\n            collateralTokenID,\n            termsContract\n        ) = retrieveCollateralParameters(agreementId);\n\n        // Ensure a valid form of collateral is tied to this agreement id.\n        require(collateralTokenAddress != address(0));\n\n        // Withdrawal can only occur if the collateral has yet to be withdrawn.\n        // When we withdraw collateral, we reset the collateral agreement\n        // in a gas-efficient manner by resetting the address of the collateralizer to 0.\n        require(agreementToCollateralizer[agreementId] != address(0));\n\n        // Ensure that the debt is not in a state of default.\n        require(\n            termsContract.getExpectedRepaymentValue(\n                agreementId,\n                termsContract.getTermEndTimestamp(agreementId)\n            ) <= termsContract.getValueRepaidToDate(agreementId)\n        );\n\n        // Determine collateralizer of the collateral.\n        address collateralizer = agreementToCollateralizer[agreementId];\n\n        // Mark agreement's collateral as withdrawn by setting the agreement's\n        // collateralizer to 0x0.\n        delete agreementToCollateralizer[agreementId];\n\n        ERC721 collateralToken = ERC721(collateralTokenAddress);\n\n        // Transfer the collateral this contract was holding in escrow back to collateralizer.\n        collateralToken.transferFrom(address(this), collateralizer, collateralTokenID);\n\n        // Log the return event.\n        CollateralReturned(\n            agreementId,\n            collateralizer,\n            collateralTokenAddress,\n            collateralTokenID\n        );\n    }\n\n    /**\n     * Seizes the collateral from the given debt agreement and\n     * transfers it to the debt agreement's current beneficiary\n     * (i.e. the person who \"owns\" the debt).\n     *\n     * @param agreementId bytes32 The debt agreement's ID\n     */\n    function seizeCollateral(\n        bytes32 agreementId\n    )\n        public\n        whenNotPaused\n    {\n\n        // The address of the ERC721 contract.\n        address collateralTokenAddress;\n        // The token ID, associating the collateral token and the given ERC721 contract.\n        uint256 collateralTokenID;\n        // The terms contract according to which this asset is being collateralized.\n        TermsContract termsContract;\n\n        // Fetch all relevant collateralization parameters.\n        (\n            collateralTokenAddress,\n            collateralTokenID,\n            termsContract\n        ) = retrieveCollateralParameters(agreementId);\n\n        // Ensure a valid form of collateral is tied to this agreement id.\n        require(collateralTokenAddress != address(0));\n\n        // Seizure can only occur if the collateral has yet to be withdrawn.\n        // When we withdraw collateral, we reset the collateral agreement\n        // in a gas-efficient manner by resetting the address of the collateralizer to 0.\n        require(agreementToCollateralizer[agreementId] != address(0));\n\n        // Ensure debt is in a state of default.\n        require(\n            termsContract.getExpectedRepaymentValue(\n                agreementId,\n                block.timestamp\n            ) > termsContract.getValueRepaidToDate(agreementId)\n        );\n\n        // Mark agreement's collateral as withdrawn by setting the agreement's\n        // collateralizer to 0x0.\n        delete agreementToCollateralizer[agreementId];\n\n        // Determine beneficiary of the collateral to be seized.\n        address beneficiary = debtRegistry.getBeneficiary(agreementId);\n\n        ERC721 collateralToken = ERC721(collateralTokenAddress);\n\n        // Transfer the collateral this contract was holding in escrow to beneficiary.\n        collateralToken.transferFrom(address(this), beneficiary, collateralTokenID);\n\n        // Log the seizure event.\n        CollateralSeized(\n            agreementId,\n            beneficiary,\n            collateralTokenAddress,\n            collateralTokenID\n        );\n    }\n\n    /**\n     * Adds an address to the list of agents authorized\n     * to invoke the `collateralize` function.\n     */\n    function addAuthorizedCollateralizeAgent(address agent)\n        public\n        onlyOwner\n    {\n        collateralizationPermissions.authorize(agent, CONTEXT);\n    }\n\n    /**\n     * Removes an address from the list of agents authorized\n     * to invoke the `collateralize` function.\n     */\n    function revokeCollateralizeAuthorization(address agent)\n        public\n        onlyOwner\n    {\n        collateralizationPermissions.revokeAuthorization(agent, CONTEXT);\n    }\n\n    /**\n    * Returns the list of agents authorized to invoke the 'collateralize' function.\n    */\n    function getAuthorizedCollateralizeAgents()\n        public\n        view\n        returns (address[])\n    {\n        return collateralizationPermissions.getAuthorizedAgents();\n    }\n\n    /**\n     * Unpacks collateralization-specific parameters from their tightly-packed\n     * representation in a terms contract parameter string.\n     */\n    function unpackCollateralParametersFromBytes(bytes32 parameters)\n        public\n        pure\n        returns (uint, uint)\n    {\n        bytes32 collateralTokenIndexShifted =\n            parameters & 0x0000000000000000000000000000000000000fffffffffffff00000000000000;\n        bytes32 tokenIdShifted =\n            parameters & 0x00000000000000000000000000000000000000000000000000ffffffffffffff;\n\n        // Shift the token index value 14 places to the right.\n        uint collateralTokenIndex = uint(collateralTokenIndexShifted) / 2 ** 56;\n\n        return (\n            collateralTokenIndex,\n            uint(tokenIdShifted)\n        );\n    }\n\n    function retrieveCollateralParameters(bytes32 agreementId)\n        internal\n        view\n        returns (\n            address _collateralTokenAddress,\n            uint256 _tokenID,\n            TermsContract _termsContract\n        )\n    {\n        address termsContractAddress;\n        bytes32 termsContractParameters;\n\n        // Pull the terms contract and associated parameters for the agreement.\n        (termsContractAddress, termsContractParameters) = debtRegistry.getTerms(agreementId);\n\n        uint collateralTokenIndex;\n        uint256 tokenID;\n\n        // Unpack terms contract parameters in order to get collateralization-specific params.\n        (\n            collateralTokenIndex,\n            tokenID,\n        ) = unpackCollateralParametersFromBytes(termsContractParameters);\n\n        // Resolve address of token associated with this agreement in token registry.\n        address collateralTokenAddress = tokenRegistry.getTokenAddressByIndex(collateralTokenIndex);\n\n        return (\n            collateralTokenAddress,\n            tokenID,\n            TermsContract(termsContractAddress)\n        );\n    }\n}\n",
  "sourcePath": "/Users/graemeboy/Dharma/charta/contracts/ERC721Collateralizer.sol",
  "compiler": {
    "name": "solc",
    "version": "0.4.18+commit.9cf6e910.Emscripten.clang"
  },
  "schemaVersion": "1.0.1",
  "updatedAt": "2018-08-24T23:27:49.709Z"
}