{
  "contractName": "LTVDecisionEngine",
  "abi": [
    {
      "constant": false,
      "inputs": [
        {
          "name": "principalTokenPrice",
          "type": "uint256"
        },
        {
          "name": "collateralTokenPrice",
          "type": "uint256"
        },
        {
          "name": "principalAmount",
          "type": "uint256"
        },
        {
          "name": "collateralAmount",
          "type": "uint256"
        }
      ],
      "name": "computeLTV",
      "outputs": [
        {
          "name": "",
          "type": "uint256"
        }
      ],
      "payable": false,
      "stateMutability": "nonpayable",
      "type": "function"
    },
    {
      "constant": false,
      "inputs": [
        {
          "name": "priceFeedOperator",
          "type": "address"
        },
        {
          "name": "creditor",
          "type": "address"
        },
        {
          "name": "principalTokenPrice",
          "type": "uint256"
        },
        {
          "name": "collateralTokenPrice",
          "type": "uint256"
        },
        {
          "name": "principalAmount",
          "type": "uint256"
        },
        {
          "name": "collateralAmount",
          "type": "uint256"
        },
        {
          "name": "maxLTV",
          "type": "uint256"
        },
        {
          "name": "creditorSignature",
          "type": "bytes32"
        },
        {
          "name": "expirationTimestamp",
          "type": "uint256"
        }
      ],
      "name": "evaluate",
      "outputs": [
        {
          "name": "",
          "type": "bool"
        }
      ],
      "payable": false,
      "stateMutability": "nonpayable",
      "type": "function"
    },
    {
      "inputs": [],
      "payable": false,
      "stateMutability": "nonpayable",
      "type": "constructor"
    },
    {
      "anonymous": false,
      "inputs": [
        {
          "indexed": false,
          "name": "errorIndex",
          "type": "uint8"
        }
      ],
      "name": "LogError",
      "type": "event"
    }
  ],
  "bytecode": "0x6060604052341561000f57600080fd5b61021b8061001e6000396000f30060606040526004361061004c576000357c0100000000000000000000000000000000000000000000000000000000900463ffffffff168063c2c8c7b514610051578063e62df66c146100a3575b600080fd5b341561005c57600080fd5b61008d6004808035906020019091908035906020019091908035906020019091908035906020019091905050610156565b6040518082815260200191505060405180910390f35b34156100ae57600080fd5b61013c600480803573ffffffffffffffffffffffffffffffffffffffff1690602001909190803573ffffffffffffffffffffffffffffffffffffffff1690602001909190803590602001909190803590602001909190803590602001909190803590602001909190803590602001909190803560001916906020019091908035906020019091905050610172565b604051808215151515815260200191505060405180910390f35b6000828583860281151561016657fe5b04029050949350505050565b60008061018189898989610156565b9050848111156101dc577f0489f2369368f4688acd012107ac5a7d98ca739b913449d852f35d871e433cc36004808111156101b857fe5b604051808260ff1660ff16815260200191505060405180910390a1600091506101e1565b600191505b5099985050505050505050505600a165627a7a72305820db9c9d87b7059f0bf4c2a9dbd7d8d0190c4c56332c3ed010c860e52f07a2a9790029",
  "source": "import \"zeppelin-solidity/contracts/math/SafeMath.sol\";\n\n/**\n * A decision engine for creditor-driven loans, that can evaluate whether or not a creditor\n * should fill a loan, depending on the loan-to-value ratio of the principal and collateral amounts.\n * These amounts are defined by prices that are signed by the relayer.\n */\ncontract LTVDecisionEngine {\n    using SafeMath for uint;\n\n    enum Errors {\n        INVALID_CREDITOR_SIGNATURE,\n        INVALID_PRINCIPAL_PRICE_SIGNATURE,\n        INVALID_COLLATERAL_PRICE_SIGNATURE,\n        AGREEMENT_EXPIRED,\n        LTV_EXCEEDS_MAX\n    }\n\n    event LogError(\n        // Corresponds to the Errors enum listed above.\n        uint8 errorIndex\n    );\n\n    function LTVDecisionEngine()\n        public {}\n\n    // Required params:\n    // Creditor address\n    // LTV ratio\n    // Price feed operator address\n    // Price of principal token\n    // price of collateral token\n    // Signature and date for principal token price\n    // Signature and date for collateral token price\n    // Expiration date\n    // Decision engine address\n    // Signature for creditor on:\n        // LTV ratio\n        // Price feed operator\n        // Principal token\n        // Collateral token\n        // Principal amount\n        // Expiration date\n        // Decision engine address\n    // NOTE: Decision engine address is used in the CreditorProxy, but signature is validated here.\n    function evaluate(\n        address priceFeedOperator,\n        address creditor,\n        uint principalTokenPrice,\n        uint collateralTokenPrice,\n        uint principalAmount,\n        uint collateralAmount,\n        uint maxLTV,\n        bytes32 creditorSignature,\n        uint expirationTimestamp\n    )\n        public\n        returns (bool) {\n        // CHECK SIGNATURES\n        // Get the address of the price feed operator.\n        // Check that the price feed operator has signed the principal token price, recently enough.\n        // Check that the price feed operator has signed the collateral token price, recently enough.\n        // Get the creditor address.\n        // Check that the creditor signed the hash of relevant parameters (outlined above.)\n\n        // CHECK EXPIRATIONAl\n\n        uint givenLTV = computeLTV(\n            principalTokenPrice,\n            collateralTokenPrice,\n            principalAmount,\n            collateralAmount\n        );\n\n        if (givenLTV > maxLTV) {\n            LogError(uint8(Errors.LTV_EXCEEDS_MAX));\n            return false;\n        }\n\n        return true;\n    }\n\n    function computeLTV(\n        uint principalTokenPrice,\n        uint collateralTokenPrice,\n        uint principalAmount,\n        uint collateralAmount\n    ) returns (uint) {\n        return collateralTokenPrice * collateralAmount / principalTokenPrice * principalAmount;\n    }\n}\n",
  "sourcePath": "/Users/graemeboy/Dharma/charta/contracts/decision_engines/LTVDecisionEngine.sol",
  "compiler": {
    "name": "solc",
    "version": "0.4.18+commit.9cf6e910.Emscripten.clang"
  },
  "schemaVersion": "1.0.1",
  "updatedAt": "2018-09-28T20:51:14.517Z"
}