{
  "contractName": "MockDebtToken",
  "abi": [
    {
      "constant": false,
      "inputs": [
        {
          "name": "_tokenId",
          "type": "uint256"
        },
        {
          "name": "_zeroExExchangeContract",
          "type": "address"
        },
        {
          "name": "_zeroExOrderAddresses",
          "type": "address[5]"
        },
        {
          "name": "_zeroExOrderValues",
          "type": "uint256[6]"
        },
        {
          "name": "_v",
          "type": "uint8"
        },
        {
          "name": "_r",
          "type": "bytes32"
        },
        {
          "name": "_s",
          "type": "bytes32"
        }
      ],
      "name": "brokerZeroExOrder",
      "outputs": [],
      "payable": false,
      "stateMutability": "nonpayable",
      "type": "function"
    },
    {
      "constant": true,
      "inputs": [
        {
          "name": "_to",
          "type": "address"
        },
        {
          "name": "_tokenId",
          "type": "uint256"
        }
      ],
      "name": "wasTransferCalledWith",
      "outputs": [
        {
          "name": "wasCalled",
          "type": "bool"
        }
      ],
      "payable": false,
      "stateMutability": "view",
      "type": "function"
    },
    {
      "constant": true,
      "inputs": [
        {
          "name": "functionName",
          "type": "string"
        },
        {
          "name": "argsSignature",
          "type": "bytes32"
        }
      ],
      "name": "getMockReturnValue",
      "outputs": [
        {
          "name": "_mockReturnValue",
          "type": "bytes32"
        }
      ],
      "payable": false,
      "stateMutability": "view",
      "type": "function"
    },
    {
      "constant": false,
      "inputs": [
        {
          "name": "_tokenId",
          "type": "uint256"
        },
        {
          "name": "_owner",
          "type": "address"
        }
      ],
      "name": "mockOwnerOfFor",
      "outputs": [],
      "payable": false,
      "stateMutability": "nonpayable",
      "type": "function"
    },
    {
      "constant": true,
      "inputs": [
        {
          "name": "_tokenId",
          "type": "uint256"
        },
        {
          "name": "_zeroExExchangeContract",
          "type": "address"
        },
        {
          "name": "_zeroExOrderAddresses",
          "type": "address[5]"
        },
        {
          "name": "_zeroExOrderValues",
          "type": "uint256[6]"
        },
        {
          "name": "_v",
          "type": "uint8"
        },
        {
          "name": "_r",
          "type": "bytes32"
        },
        {
          "name": "_s",
          "type": "bytes32"
        }
      ],
      "name": "getBrokerZeroExCallSignature",
      "outputs": [
        {
          "name": "callSig",
          "type": "bytes32"
        }
      ],
      "payable": false,
      "stateMutability": "pure",
      "type": "function"
    },
    {
      "constant": true,
      "inputs": [
        {
          "name": "_tokenId",
          "type": "uint256"
        }
      ],
      "name": "exists",
      "outputs": [
        {
          "name": "_exists",
          "type": "bool"
        }
      ],
      "payable": false,
      "stateMutability": "view",
      "type": "function"
    },
    {
      "constant": true,
      "inputs": [
        {
          "name": "_tokenId",
          "type": "uint256"
        }
      ],
      "name": "ownerOf",
      "outputs": [
        {
          "name": "_owner",
          "type": "address"
        }
      ],
      "payable": false,
      "stateMutability": "view",
      "type": "function"
    },
    {
      "constant": false,
      "inputs": [
        {
          "name": "functionName",
          "type": "string"
        },
        {
          "name": "argsSignature",
          "type": "bytes32"
        },
        {
          "name": "returnValue",
          "type": "bytes32"
        }
      ],
      "name": "mockReturnValue",
      "outputs": [],
      "payable": false,
      "stateMutability": "nonpayable",
      "type": "function"
    },
    {
      "constant": false,
      "inputs": [
        {
          "name": "_version",
          "type": "address"
        },
        {
          "name": "_beneficiary",
          "type": "address"
        },
        {
          "name": "_debtor",
          "type": "address"
        },
        {
          "name": "_underwriter",
          "type": "address"
        },
        {
          "name": "_underwriterRiskRating",
          "type": "uint256"
        },
        {
          "name": "_termsContract",
          "type": "address"
        },
        {
          "name": "_termsContractParameters",
          "type": "bytes32"
        },
        {
          "name": "_salt",
          "type": "uint256"
        }
      ],
      "name": "create",
      "outputs": [
        {
          "name": "_tokenId",
          "type": "uint256"
        }
      ],
      "payable": false,
      "stateMutability": "nonpayable",
      "type": "function"
    },
    {
      "constant": false,
      "inputs": [
        {
          "name": "_to",
          "type": "address"
        },
        {
          "name": "_tokenId",
          "type": "uint256"
        }
      ],
      "name": "transfer",
      "outputs": [
        {
          "name": "success",
          "type": "bool"
        }
      ],
      "payable": false,
      "stateMutability": "nonpayable",
      "type": "function"
    },
    {
      "constant": true,
      "inputs": [
        {
          "name": "_version",
          "type": "address"
        },
        {
          "name": "_beneficiary",
          "type": "address"
        },
        {
          "name": "_debtor",
          "type": "address"
        },
        {
          "name": "_underwriter",
          "type": "address"
        },
        {
          "name": "_underwriterRiskRating",
          "type": "uint256"
        },
        {
          "name": "_termsContract",
          "type": "address"
        },
        {
          "name": "_termsContractParameters",
          "type": "bytes32"
        },
        {
          "name": "_salt",
          "type": "uint256"
        }
      ],
      "name": "wasCreateCalledWith",
      "outputs": [
        {
          "name": "wasCalled",
          "type": "bool"
        }
      ],
      "payable": false,
      "stateMutability": "view",
      "type": "function"
    },
    {
      "constant": false,
      "inputs": [],
      "name": "reset",
      "outputs": [],
      "payable": false,
      "stateMutability": "nonpayable",
      "type": "function"
    },
    {
      "constant": true,
      "inputs": [
        {
          "name": "_tokenId",
          "type": "uint256"
        },
        {
          "name": "_zeroExExchangeContract",
          "type": "address"
        },
        {
          "name": "_zeroExOrderAddresses",
          "type": "address[5]"
        },
        {
          "name": "_zeroExOrderValues",
          "type": "uint256[6]"
        },
        {
          "name": "_v",
          "type": "uint8"
        },
        {
          "name": "_r",
          "type": "bytes32"
        },
        {
          "name": "_s",
          "type": "bytes32"
        }
      ],
      "name": "wasBrokerZeroExOrderCalledWith",
      "outputs": [
        {
          "name": "wasCalled",
          "type": "bool"
        }
      ],
      "payable": false,
      "stateMutability": "view",
      "type": "function"
    },
    {
      "constant": false,
      "inputs": [
        {
          "name": "_tokenId",
          "type": "uint256"
        }
      ],
      "name": "mockCreateReturnValue",
      "outputs": [],
      "payable": false,
      "stateMutability": "nonpayable",
      "type": "function"
    }
  ],
  "bytecode": "0x6060604052341561000f57600080fd5b611b9f8061001e6000396000f3006060604052600436106100cf576000357c0100000000000000000000000000000000000000000000000000000000900463ffffffff168062faf107146100d45780630e81bd9f1461019457806313101858146101ee57806313d2a2ab14610274578063491aa112146102b65780634f558e79146103925780636352211e146103cd57806380da20d41461043057806399f10501146104a7578063a9059cbb1461058f578063b742f563146105e9578063d826f88f146106d5578063d9151ab5146106ea578063e18b2126146107c2575b600080fd5b34156100df57600080fd5b610192600480803590602001909190803573ffffffffffffffffffffffffffffffffffffffff16906020019091908060a001906005806020026040519081016040528092919082600560200280828437820191505050505091908060c00190600680602002604051908101604052809291908260066020028082843782019150505050509190803560ff1690602001909190803560001916906020019091908035600019169060200190919050506107e5565b005b341561019f57600080fd5b6101d4600480803573ffffffffffffffffffffffffffffffffffffffff16906020019091908035906020019091905050610935565b604051808215151515815260200191505060405180910390f35b34156101f957600080fd5b610256600480803590602001908201803590602001908080601f01602080910402602001604051908101604052809392919081815260200183838082843782019150505050505091908035600019169060200190919050506109d6565b60405180826000191660001916815260200191505060405180910390f35b341561027f57600080fd5b6102b4600480803590602001909190803573ffffffffffffffffffffffffffffffffffffffff16906020019091905050610a65565b005b34156102c157600080fd5b610374600480803590602001909190803573ffffffffffffffffffffffffffffffffffffffff16906020019091908060a001906005806020026040519081016040528092919082600560200280828437820191505050505091908060c00190600680602002604051908101604052809291908260066020028082843782019150505050509190803560ff169060200190919080356000191690602001909190803560001916906020019091905050610ad7565b60405180826000191660001916815260200191505060405180910390f35b341561039d57600080fd5b6103b36004808035906020019091905050610bef565b604051808215151515815260200191505060405180910390f35b34156103d857600080fd5b6103ee6004808035906020019091905050610c30565b604051808273ffffffffffffffffffffffffffffffffffffffff1673ffffffffffffffffffffffffffffffffffffffff16815260200191505060405180910390f35b341561043b57600080fd5b6104a5600480803590602001908201803590602001908080601f016020809104026020016040519081016040528093929190818152602001838380828437820191505050505050919080356000191690602001909190803560001916906020019091905050610c81565b005b34156104b257600080fd5b610579600480803573ffffffffffffffffffffffffffffffffffffffff1690602001909190803573ffffffffffffffffffffffffffffffffffffffff1690602001909190803573ffffffffffffffffffffffffffffffffffffffff1690602001909190803573ffffffffffffffffffffffffffffffffffffffff1690602001909190803590602001909190803573ffffffffffffffffffffffffffffffffffffffff1690602001909190803560001916906020019091908035906020019091905050610dab565b6040518082815260200191505060405180910390f35b341561059a57600080fd5b6105cf600480803573ffffffffffffffffffffffffffffffffffffffff16906020019091908035906020019091905050610fc2565b604051808215151515815260200191505060405180910390f35b34156105f457600080fd5b6106bb600480803573ffffffffffffffffffffffffffffffffffffffff1690602001909190803573ffffffffffffffffffffffffffffffffffffffff1690602001909190803573ffffffffffffffffffffffffffffffffffffffff1690602001909190803573ffffffffffffffffffffffffffffffffffffffff1690602001909190803590602001909190803573ffffffffffffffffffffffffffffffffffffffff1690602001909190803560001916906020019091908035906020019091905050611065565b604051808215151515815260200191505060405180910390f35b34156106e057600080fd5b6106e8611230565b005b34156106f557600080fd5b6107a8600480803590602001909190803573ffffffffffffffffffffffffffffffffffffffff16906020019091908060a001906005806020026040519081016040528092919082600560200280828437820191505050505091908060c00190600680602002604051908101604052809291908260066020028082843782019150505050509190803560ff169060200190919080356000191690602001909190803560001916906020019091905050611527565b604051808215151515815260200191505060405180910390f35b34156107cd57600080fd5b6107e3600480803590602001909190505061167d565b005b61092c6040805190810160405280601181526020017f62726f6b65725a65726f45784f7264657200000000000000000000000000000081525088888888888888604051808881526020018773ffffffffffffffffffffffffffffffffffffffff1673ffffffffffffffffffffffffffffffffffffffff166c0100000000000000000000000002815260140186600560200280838360005b8381101561089757808201518184015260208101905061087c565b5050505090500185600660200280838360005b838110156108c55780820151818401526020810190506108aa565b505050509050018460ff1660ff167f01000000000000000000000000000000000000000000000000000000000000000281526001018360001916600019168152602001826000191660001916815260200197505050505050505060405180910390206116c7565b50505050505050565b60006109ce6040805190810160405280600881526020017f7472616e736665720000000000000000000000000000000000000000000000008152508484604051808373ffffffffffffffffffffffffffffffffffffffff1673ffffffffffffffffffffffffffffffffffffffff166c01000000000000000000000000028152601401828152602001925050506040518091039020611800565b905092915050565b60006001836040518082805190602001908083835b602083101515610a1057805182526020820191506020810190506020830392506109eb565b6001836020036101000a03801982511681845116808217855250505050505090500191505090815260200160405180910390206000836000191660001916815260200190815260200160002054905092915050565b610ad36040805190810160405280600781526020017f6f776e65724f6600000000000000000000000000000000000000000000000000815250836040518082815260200191505060405180910390208373ffffffffffffffffffffffffffffffffffffffff16600102610c81565b5050565b600087878787878787604051808881526020018773ffffffffffffffffffffffffffffffffffffffff1673ffffffffffffffffffffffffffffffffffffffff166c0100000000000000000000000002815260140186600560200280838360005b83811015610b52578082015181840152602081019050610b37565b5050505090500185600660200280838360005b83811015610b80578082015181840152602081019050610b65565b505050509050018460ff1660ff167f01000000000000000000000000000000000000000000000000000000000000000281526001018360001916600019168152602001826000191660001916815260200197505050505050505060405180910390209050979650505050505050565b60008073ffffffffffffffffffffffffffffffffffffffff16610c118361189c565b73ffffffffffffffffffffffffffffffffffffffff1614159050919050565b6000610c3b8261189c565b9050600073ffffffffffffffffffffffffffffffffffffffff168173ffffffffffffffffffffffffffffffffffffffff1614151515610c7957600080fd5b809050919050565b6000836040518082805190602001908083835b602083101515610cb95780518252602082019150602081019050602083039250610c94565b6001836020036101000a03801982511681845116808217855250505050505090500191505090815260200160405180910390208054806001018281610cfe9190611aaa565b916000526020600020900160008490919091509060001916905550806001846040518082805190602001908083835b602083101515610d525780518252602082019150602081019050602083039250610d2d565b6001836020036101000a0380198251168184511680821785525050505050509050019150509081526020016040518091039020600084600019166000191681526020019081526020016000208160001916905550505050565b6000808989898989898989604051808973ffffffffffffffffffffffffffffffffffffffff1673ffffffffffffffffffffffffffffffffffffffff166c010000000000000000000000000281526014018873ffffffffffffffffffffffffffffffffffffffff1673ffffffffffffffffffffffffffffffffffffffff166c010000000000000000000000000281526014018773ffffffffffffffffffffffffffffffffffffffff1673ffffffffffffffffffffffffffffffffffffffff166c010000000000000000000000000281526014018673ffffffffffffffffffffffffffffffffffffffff1673ffffffffffffffffffffffffffffffffffffffff166c010000000000000000000000000281526014018581526020018473ffffffffffffffffffffffffffffffffffffffff1673ffffffffffffffffffffffffffffffffffffffff166c0100000000000000000000000002815260140183600019166000191681526020018281526020019850505050505050505060405180910390209050610f6c6040805190810160405280600681526020017f6372656174650000000000000000000000000000000000000000000000000000815250826116c7565b610faf6040805190810160405280600681526020017f637265617465000000000000000000000000000000000000000000000000000081525060006001026109d6565b6001900491505098975050505050505050565b600061105b6040805190810160405280600881526020017f7472616e736665720000000000000000000000000000000000000000000000008152508484604051808373ffffffffffffffffffffffffffffffffffffffff1673ffffffffffffffffffffffffffffffffffffffff166c010000000000000000000000000281526014018281526020019250505060405180910390206116c7565b6001905092915050565b60006112226040805190810160405280600681526020017f63726561746500000000000000000000000000000000000000000000000000008152508a8a8a8a8a8a8a8a604051808973ffffffffffffffffffffffffffffffffffffffff1673ffffffffffffffffffffffffffffffffffffffff166c010000000000000000000000000281526014018873ffffffffffffffffffffffffffffffffffffffff1673ffffffffffffffffffffffffffffffffffffffff166c010000000000000000000000000281526014018773ffffffffffffffffffffffffffffffffffffffff1673ffffffffffffffffffffffffffffffffffffffff166c010000000000000000000000000281526014018673ffffffffffffffffffffffffffffffffffffffff1673ffffffffffffffffffffffffffffffffffffffff166c010000000000000000000000000281526014018581526020018473ffffffffffffffffffffffffffffffffffffffff1673ffffffffffffffffffffffffffffffffffffffff166c010000000000000000000000000281526014018360001916600019168152602001828152602001985050505050505050506040518091039020611800565b905098975050505050505050565b600061123a611ad6565b600080600093505b600a841015611521576112536118fd565b84600a8110151561126057fe5b602002015192506000835114151561151457600091505b6000836040518082805190602001908083835b6020831015156112af578051825260208201915060208101905060208303925061128a565b6001836020036101000a03801982511681845116808217855250505050505090500191505090815260200160405180910390208054905082101561149c576000836040518082805190602001908083835b6020831015156113255780518252602082019150602081019050602083039250611300565b6001836020036101000a03801982511681845116808217855250505050505090500191505090815260200160405180910390208281548110151561136557fe5b90600052602060002090015490506002836040518082805190602001908083835b6020831015156113ab5780518252602082019150602081019050602083039250611386565b6001836020036101000a03801982511681845116808217855250505050505090500191505090815260200160405180910390206000826000191660001916815260200190815260200160002060006101000a81549060ff02191690556001836040518082805190602001908083835b60208310151561143f578051825260208201915060208101905060208303925061141a565b6001836020036101000a038019825116818451168082178552505050505050905001915050908152602001604051809103902060008260001916600019168152602001908152602001600020600090558180600101925050611277565b6000836040518082805190602001908083835b6020831015156114d457805182526020820191506020810190506020830392506114af565b6001836020036101000a038019825116818451168082178552505050505050905001915050908152602001604051809103902060006115139190611aea565b5b8380600101945050611242565b50505050565b60006116706040805190810160405280601181526020017f62726f6b65725a65726f45784f7264657200000000000000000000000000000081525089898989898989604051808881526020018773ffffffffffffffffffffffffffffffffffffffff1673ffffffffffffffffffffffffffffffffffffffff166c0100000000000000000000000002815260140186600560200280838360005b838110156115db5780820151818401526020810190506115c0565b5050505090500185600660200280838360005b838110156116095780820151818401526020810190506115ee565b505050509050018460ff1660ff167f0100000000000000000000000000000000000000000000000000000000000000028152600101836000191660001916815260200182600019166000191681526020019750505050505050506040518091039020611800565b9050979650505050505050565b6116c46040805190810160405280600681526020017f6372656174650000000000000000000000000000000000000000000000000000815250600060010283600102610c81565b50565b60016002836040518082805190602001908083835b60208310151561170157805182526020820191506020810190506020830392506116dc565b6001836020036101000a03801982511681845116808217855250505050505090500191505090815260200160405180910390206000836000191660001916815260200190815260200160002060006101000a81548160ff0219169083151502179055506000826040518082805190602001908083835b60208310151561179c5780518252602082019150602081019050602083039250611777565b6001836020036101000a038019825116818451168082178552505050505050905001915050908152602001604051809103902080548060010182816117e19190611aaa565b9160005260206000209001600083909190915090600019169055505050565b60006002836040518082805190602001908083835b60208310151561183a5780518252602082019150602081019050602083039250611815565b6001836020036101000a03801982511681845116808217855250505050505090500191505090815260200160405180910390206000836000191660001916815260200190815260200160002060009054906101000a900460ff16905092915050565b60006118f26040805190810160405280600781526020017f6f776e65724f6600000000000000000000000000000000000000000000000000815250836040518082815260200191505060405180910390206109d6565b600190049050919050565b611905611b0b565b610140604051908101604052806040805190810160405280600681526020017f637265617465000000000000000000000000000000000000000000000000000081525081526020016040805190810160405280601181526020017f62726f6b65725a65726f45784f7264657200000000000000000000000000000081525081526020016040805190810160405280600781526020017f6f776e65724f660000000000000000000000000000000000000000000000000081525081526020016040805190810160405280600881526020017f7472616e7366657200000000000000000000000000000000000000000000000081525081526020016040805190810160405280600681526020017f65786973747300000000000000000000000000000000000000000000000000008152508152602001602060405190810160405280600081525081526020016020604051908101604052806000815250815260200160206040519081016040528060008152508152602001602060405190810160405280600081525081526020016020604051908101604052806000815250815250905090565b815481835581811511611ad157818360005260206000209182019101611ad09190611b3a565b5b505050565b602060405190810160405280600081525090565b5080546000825590600052602060002090810190611b089190611b3a565b50565b61014060405190810160405280600a905b611b24611b5f565b815260200190600190039081611b1c5790505090565b611b5c91905b80821115611b58576000816000905550600101611b40565b5090565b90565b6020604051908101604052806000815250905600a165627a7a72305820b35e30b4d7ef6536541624c5884aa0b2962cf9d4ea8391fd289756f0fb8966810029",
  "source": "/*\n\n  Copyright 2017 Dharma Labs Inc.\n\n  Licensed under the Apache License, Version 2.0 (the \"License\");\n  you may not use this file except in compliance with the License.\n  You may obtain a copy of the License at\n\n    http://www.apache.org/licenses/LICENSE-2.0\n\n  Unless required by applicable law or agreed to in writing, software\n  distributed under the License is distributed on an \"AS IS\" BASIS,\n  WITHOUT WARRANTIES OR CONDITIONS OF ANY KIND, either express or implied.\n  See the License for the specific language governing permissions and\n  limitations under the License.\n\n*/\n\npragma solidity 0.4.18;\n\nimport \"./MockContract.sol\";\nimport \"zeppelin-solidity/contracts/token/ERC20/ERC20.sol\";\n\n\ncontract MockDebtToken is MockContract {\n    function create(\n        address _version,\n        address _beneficiary,\n        address _debtor,\n        address _underwriter,\n        uint _underwriterRiskRating,\n        address _termsContract,\n        bytes32 _termsContractParameters,\n        uint _salt\n    )\n        public\n        returns (uint _tokenId)\n    {\n        bytes32 argsSignature = keccak256(\n            _version,\n            _beneficiary,\n            _debtor,\n            _underwriter,\n            _underwriterRiskRating,\n            _termsContract,\n            _termsContractParameters,\n            _salt\n        );\n\n        functionCalledWithArgs(\"create\", argsSignature);\n\n        return uint(getMockReturnValue(\"create\", DEFAULT_SIGNATURE_ARGS));\n    }\n\n    function brokerZeroExOrder(\n        uint _tokenId,\n        address _zeroExExchangeContract,\n        address[5] _zeroExOrderAddresses,\n        uint[6] _zeroExOrderValues,\n        uint8 _v,\n        bytes32 _r,\n        bytes32 _s\n    )\n        public\n    {\n        functionCalledWithArgs(\"brokerZeroExOrder\", keccak256(\n            _tokenId,\n            _zeroExExchangeContract,\n            _zeroExOrderAddresses,\n            _zeroExOrderValues,\n            _v,\n            _r,\n            _s\n        ));\n    }\n\n    function mockCreateReturnValue(uint _tokenId)\n        public\n    {\n        mockReturnValue(\"create\", DEFAULT_SIGNATURE_ARGS, bytes32(_tokenId));\n    }\n\n    function wasCreateCalledWith(\n        address _version,\n        address _beneficiary,\n        address _debtor,\n        address _underwriter,\n        uint _underwriterRiskRating,\n        address _termsContract,\n        bytes32 _termsContractParameters,\n        uint _salt\n    )\n        public\n        view\n        returns (bool wasCalled)\n    {\n        return wasFunctionCalledWithArgs(\"create\", keccak256(\n            _version,\n            _beneficiary,\n            _debtor,\n            _underwriter,\n            _underwriterRiskRating,\n            _termsContract,\n            _termsContractParameters,\n            _salt\n        ));\n    }\n\n    function wasBrokerZeroExOrderCalledWith(\n        uint _tokenId,\n        address _zeroExExchangeContract,\n        address[5] _zeroExOrderAddresses,\n        uint[6] _zeroExOrderValues,\n        uint8 _v,\n        bytes32 _r,\n        bytes32 _s\n    )\n        public\n        view\n        returns (bool wasCalled)\n    {\n        return wasFunctionCalledWithArgs(\"brokerZeroExOrder\", keccak256(\n            _tokenId,\n            _zeroExExchangeContract,\n            _zeroExOrderAddresses,\n            _zeroExOrderValues,\n            _v,\n            _r,\n            _s\n        ));\n    }\n\n    function getBrokerZeroExCallSignature(\n        uint _tokenId,\n        address _zeroExExchangeContract,\n        address[5] _zeroExOrderAddresses,\n        uint[6] _zeroExOrderValues,\n        uint8 _v,\n        bytes32 _r,\n        bytes32 _s\n    )\n        public\n        pure\n        returns (bytes32 callSig)\n    {\n        return keccak256(\n            _tokenId,\n            _zeroExExchangeContract,\n            _zeroExOrderAddresses,\n            _zeroExOrderValues,\n            _v,\n            _r,\n            _s\n        );\n    }\n\n    function transfer(address _to, uint _tokenId)\n        public\n        returns (bool success)\n    {\n        functionCalledWithArgs(\"transfer\", keccak256(_to, _tokenId));\n\n        return true;\n    }\n\n    function wasTransferCalledWith(address _to, uint _tokenId)\n        public\n        view\n        returns (bool wasCalled)\n    {\n        return wasFunctionCalledWithArgs(\"transfer\", keccak256(_to, _tokenId));\n    }\n\n    function ownerOf(uint _tokenId)\n        public\n        view\n        returns (address _owner)\n    {\n        _owner = _getOwner(_tokenId);\n        require(_owner != address(0));\n        return _owner;\n    }\n\n    function mockOwnerOfFor(uint _tokenId, address _owner)\n        public\n    {\n        mockReturnValue(\"ownerOf\", keccak256(_tokenId), bytes32(_owner));\n    }\n\n    function exists(uint _tokenId)\n        public\n        view\n        returns (bool _exists)\n    {\n        return _getOwner(_tokenId) != address(0);\n    }\n\n    function _getOwner(uint _tokenId)\n        private\n        view\n        returns (address _owner)\n    {\n        return address(getMockReturnValue(\"ownerOf\", keccak256(_tokenId)));\n    }\n\n    function getFunctionList()\n        internal\n        returns (string[10] functionNames)\n    {\n        return [\"create\", \"brokerZeroExOrder\", \"ownerOf\", \"transfer\", \"exists\", \"\", \"\", \"\", \"\", \"\"];\n    }\n}\n",
  "sourcePath": "/Users/nadavhollander/Documents/Dharma/Development/charta/contracts/test/mocks/MockDebtToken.sol",
  "compiler": {
    "name": "solc",
    "version": "0.4.18+commit.9cf6e910.Emscripten.clang"
  },
  "schemaVersion": "1.0.1",
  "updatedAt": "2018-04-05T21:29:41.216Z"
}