{
  "contractName": "MockERC721Token",
  "abi": [
    {
      "constant": true,
      "inputs": [
        {
          "name": "_tokenId",
          "type": "uint256"
        }
      ],
      "name": "getApproved",
      "outputs": [
        {
          "name": "_approved",
          "type": "address"
        }
      ],
      "payable": false,
      "stateMutability": "view",
      "type": "function"
    },
    {
      "constant": true,
      "inputs": [
        {
          "name": "_to",
          "type": "address"
        },
        {
          "name": "_tokenId",
          "type": "uint256"
        }
      ],
      "name": "wasTransferCalledWith",
      "outputs": [
        {
          "name": "wasCalled",
          "type": "bool"
        }
      ],
      "payable": false,
      "stateMutability": "view",
      "type": "function"
    },
    {
      "constant": true,
      "inputs": [],
      "name": "implementsERC721",
      "outputs": [
        {
          "name": "_implementsERC721",
          "type": "bool"
        }
      ],
      "payable": false,
      "stateMutability": "pure",
      "type": "function"
    },
    {
      "constant": true,
      "inputs": [
        {
          "name": "functionName",
          "type": "string"
        },
        {
          "name": "argsSignature",
          "type": "bytes32"
        }
      ],
      "name": "getMockReturnValue",
      "outputs": [
        {
          "name": "_mockReturnValue",
          "type": "bytes32"
        }
      ],
      "payable": false,
      "stateMutability": "view",
      "type": "function"
    },
    {
      "constant": false,
      "inputs": [
        {
          "name": "_tokenId",
          "type": "uint256"
        },
        {
          "name": "_owner",
          "type": "address"
        }
      ],
      "name": "mockOwnerOfFor",
      "outputs": [],
      "payable": false,
      "stateMutability": "nonpayable",
      "type": "function"
    },
    {
      "constant": false,
      "inputs": [
        {
          "name": "_from",
          "type": "address"
        },
        {
          "name": "_to",
          "type": "address"
        },
        {
          "name": "_tokenId",
          "type": "uint256"
        }
      ],
      "name": "transferFrom",
      "outputs": [
        {
          "name": "_success",
          "type": "bool"
        }
      ],
      "payable": false,
      "stateMutability": "nonpayable",
      "type": "function"
    },
    {
      "constant": false,
      "inputs": [
        {
          "name": "_owner",
          "type": "address"
        },
        {
          "name": "_balance",
          "type": "uint256"
        }
      ],
      "name": "mockBalanceOfFor",
      "outputs": [],
      "payable": false,
      "stateMutability": "nonpayable",
      "type": "function"
    },
    {
      "constant": true,
      "inputs": [
        {
          "name": "_tokenId",
          "type": "uint256"
        }
      ],
      "name": "ownerOf",
      "outputs": [
        {
          "name": "_owner",
          "type": "address"
        }
      ],
      "payable": false,
      "stateMutability": "view",
      "type": "function"
    },
    {
      "constant": true,
      "inputs": [
        {
          "name": "_owner",
          "type": "address"
        }
      ],
      "name": "balanceOf",
      "outputs": [
        {
          "name": "_balance",
          "type": "uint256"
        }
      ],
      "payable": false,
      "stateMutability": "view",
      "type": "function"
    },
    {
      "constant": true,
      "inputs": [
        {
          "name": "_from",
          "type": "address"
        },
        {
          "name": "_to",
          "type": "address"
        },
        {
          "name": "_tokenId",
          "type": "uint256"
        }
      ],
      "name": "wasTransferFromCalledWith",
      "outputs": [
        {
          "name": "wasCalled",
          "type": "bool"
        }
      ],
      "payable": false,
      "stateMutability": "view",
      "type": "function"
    },
    {
      "constant": false,
      "inputs": [
        {
          "name": "functionName",
          "type": "string"
        },
        {
          "name": "argsSignature",
          "type": "bytes32"
        },
        {
          "name": "returnValue",
          "type": "bytes32"
        }
      ],
      "name": "mockReturnValue",
      "outputs": [],
      "payable": false,
      "stateMutability": "nonpayable",
      "type": "function"
    },
    {
      "constant": false,
      "inputs": [
        {
          "name": "_to",
          "type": "address"
        },
        {
          "name": "_tokenId",
          "type": "uint256"
        }
      ],
      "name": "transfer",
      "outputs": [
        {
          "name": "_success",
          "type": "bool"
        }
      ],
      "payable": false,
      "stateMutability": "nonpayable",
      "type": "function"
    },
    {
      "constant": false,
      "inputs": [
        {
          "name": "_tokenId",
          "type": "uint256"
        },
        {
          "name": "_approved",
          "type": "address"
        }
      ],
      "name": "mockGetApprovedFor",
      "outputs": [],
      "payable": false,
      "stateMutability": "nonpayable",
      "type": "function"
    },
    {
      "constant": false,
      "inputs": [],
      "name": "reset",
      "outputs": [],
      "payable": false,
      "stateMutability": "nonpayable",
      "type": "function"
    }
  ],
  "bytecode": "0x6060604052341561000f57600080fd5b6113f68061001e6000396000f3006060604052600436106100d0576000357c0100000000000000000000000000000000000000000000000000000000900463ffffffff168063081812fc146100d55780630e81bd9f146101385780631051db341461019257806313101858146101bf57806313d2a2ab1461024557806323b872dd1461028757806351d5d7a9146103005780636352211e1461034257806370a08231146103a5578063771a7009146103f257806380da20d41461046b578063a9059cbb146104e2578063c97773671461053c578063d826f88f1461057e575b600080fd5b34156100e057600080fd5b6100f66004808035906020019091905050610593565b604051808273ffffffffffffffffffffffffffffffffffffffff1673ffffffffffffffffffffffffffffffffffffffff16815260200191505060405180910390f35b341561014357600080fd5b610178600480803573ffffffffffffffffffffffffffffffffffffffff169060200190919080359060200190919050506105f4565b604051808215151515815260200191505060405180910390f35b341561019d57600080fd5b6101a5610646565b604051808215151515815260200191505060405180910390f35b34156101ca57600080fd5b610227600480803590602001908201803590602001908080601f016020809104026020016040519081016040528093929190818152602001838380828437820191505050505050919080356000191690602001909190505061064f565b60405180826000191660001916815260200191505060405180910390f35b341561025057600080fd5b610285600480803590602001909190803573ffffffffffffffffffffffffffffffffffffffff169060200190919050506106de565b005b341561029257600080fd5b6102e6600480803573ffffffffffffffffffffffffffffffffffffffff1690602001909190803573ffffffffffffffffffffffffffffffffffffffff16906020019091908035906020019091905050610750565b604051808215151515815260200191505060405180910390f35b341561030b57600080fd5b610340600480803573ffffffffffffffffffffffffffffffffffffffff169060200190919080359060200190919050506107a6565b005b341561034d57600080fd5b610363600480803590602001909190505061083d565b604051808273ffffffffffffffffffffffffffffffffffffffff1673ffffffffffffffffffffffffffffffffffffffff16815260200191505060405180910390f35b34156103b057600080fd5b6103dc600480803573ffffffffffffffffffffffffffffffffffffffff1690602001909190505061089e565b6040518082815260200191505060405180910390f35b34156103fd57600080fd5b610451600480803573ffffffffffffffffffffffffffffffffffffffff1690602001909190803573ffffffffffffffffffffffffffffffffffffffff1690602001909190803590602001909190505061093a565b604051808215151515815260200191505060405180910390f35b341561047657600080fd5b6104e0600480803590602001908201803590602001908080601f01602080910402602001604051908101604052809392919081815260200183838082843782019150505050505091908035600019169060200190919080356000191690602001909190505061098e565b005b34156104ed57600080fd5b610522600480803573ffffffffffffffffffffffffffffffffffffffff16906020019091908035906020019091905050610ab8565b604051808215151515815260200191505060405180910390f35b341561054757600080fd5b61057c600480803590602001909190803573ffffffffffffffffffffffffffffffffffffffff16906020019091905050610b0c565b005b341561058957600080fd5b610591610b7e565b005b60006105e96040805190810160405280600b81526020017f676574417070726f7665640000000000000000000000000000000000000000008152508360405180828152602001915050604051809103902061064f565b600190049050919050565b600061063e6040805190810160405280600881526020017f7472616e736665720000000000000000000000000000000000000000000000008152506106398585610e75565b610ed8565b905092915050565b60006001905090565b60006001836040518082805190602001908083835b6020831015156106895780518252602082019150602081019050602083039250610664565b6001836020036101000a03801982511681845116808217855250505050505090500191505090815260200160405180910390206000836000191660001916815260200190815260200160002054905092915050565b61074c6040805190810160405280600781526020017f6f776e65724f6600000000000000000000000000000000000000000000000000815250836040518082815260200191505060405180910390208373ffffffffffffffffffffffffffffffffffffffff1660010261098e565b5050565b600061079b6040805190810160405280600c81526020017f7472616e7366657246726f6d0000000000000000000000000000000000000000815250610796868686610f74565b61101b565b600190509392505050565b6108396040805190810160405280600981526020017f62616c616e63654f66000000000000000000000000000000000000000000000081525083604051808273ffffffffffffffffffffffffffffffffffffffff1673ffffffffffffffffffffffffffffffffffffffff166c0100000000000000000000000002815260140191505060405180910390208360010261098e565b5050565b60006108936040805190810160405280600781526020017f6f776e65724f66000000000000000000000000000000000000000000000000008152508360405180828152602001915050604051809103902061064f565b600190049050919050565b600061092f6040805190810160405280600981526020017f62616c616e63654f66000000000000000000000000000000000000000000000081525083604051808273ffffffffffffffffffffffffffffffffffffffff1673ffffffffffffffffffffffffffffffffffffffff166c01000000000000000000000000028152601401915050604051809103902061064f565b600190049050919050565b60006109856040805190810160405280600c81526020017f7472616e7366657246726f6d0000000000000000000000000000000000000000815250610980868686610f74565b610ed8565b90509392505050565b6000836040518082805190602001908083835b6020831015156109c657805182526020820191506020810190506020830392506109a1565b6001836020036101000a03801982511681845116808217855250505050505090500191505090815260200160405180910390208054806001018281610a0b9190611301565b916000526020600020900160008490919091509060001916905550806001846040518082805190602001908083835b602083101515610a5f5780518252602082019150602081019050602083039250610a3a565b6001836020036101000a0380198251168184511680821785525050505050509050019150509081526020016040518091039020600084600019166000191681526020019081526020016000208160001916905550505050565b6000610b026040805190810160405280600881526020017f7472616e73666572000000000000000000000000000000000000000000000000815250610afd8585610e75565b61101b565b6001905092915050565b610b7a6040805190810160405280600b81526020017f676574417070726f766564000000000000000000000000000000000000000000815250836040518082815260200191505060405180910390208373ffffffffffffffffffffffffffffffffffffffff1660010261098e565b5050565b6000610b8861132d565b600080600093505b600a841015610e6f57610ba1611154565b84600a81101515610bae57fe5b6020020151925060008351141515610e6257600091505b6000836040518082805190602001908083835b602083101515610bfd5780518252602082019150602081019050602083039250610bd8565b6001836020036101000a038019825116818451168082178552505050505050905001915050908152602001604051809103902080549050821015610dea576000836040518082805190602001908083835b602083101515610c735780518252602082019150602081019050602083039250610c4e565b6001836020036101000a038019825116818451168082178552505050505050905001915050908152602001604051809103902082815481101515610cb357fe5b90600052602060002090015490506002836040518082805190602001908083835b602083101515610cf95780518252602082019150602081019050602083039250610cd4565b6001836020036101000a03801982511681845116808217855250505050505090500191505090815260200160405180910390206000826000191660001916815260200190815260200160002060006101000a81549060ff02191690556001836040518082805190602001908083835b602083101515610d8d5780518252602082019150602081019050602083039250610d68565b6001836020036101000a038019825116818451168082178552505050505050905001915050908152602001604051809103902060008260001916600019168152602001908152602001600020600090558180600101925050610bc5565b6000836040518082805190602001908083835b602083101515610e225780518252602082019150602081019050602083039250610dfd565b6001836020036101000a03801982511681845116808217855250505050505090500191505090815260200160405180910390206000610e619190611341565b5b8380600101945050610b90565b50505050565b60008282604051808373ffffffffffffffffffffffffffffffffffffffff1673ffffffffffffffffffffffffffffffffffffffff166c01000000000000000000000000028152601401828152602001925050506040518091039020905092915050565b60006002836040518082805190602001908083835b602083101515610f125780518252602082019150602081019050602083039250610eed565b6001836020036101000a03801982511681845116808217855250505050505090500191505090815260200160405180910390206000836000191660001916815260200190815260200160002060009054906101000a900460ff16905092915050565b6000838383604051808473ffffffffffffffffffffffffffffffffffffffff1673ffffffffffffffffffffffffffffffffffffffff166c010000000000000000000000000281526014018373ffffffffffffffffffffffffffffffffffffffff1673ffffffffffffffffffffffffffffffffffffffff166c010000000000000000000000000281526014018281526020019350505050604051809103902090509392505050565b60016002836040518082805190602001908083835b6020831015156110555780518252602082019150602081019050602083039250611030565b6001836020036101000a03801982511681845116808217855250505050505090500191505090815260200160405180910390206000836000191660001916815260200190815260200160002060006101000a81548160ff0219169083151502179055506000826040518082805190602001908083835b6020831015156110f057805182526020820191506020810190506020830392506110cb565b6001836020036101000a038019825116818451168082178552505050505050905001915050908152602001604051809103902080548060010182816111359190611301565b9160005260206000209001600083909190915090600019169055505050565b61115c611362565b610140604051908101604052806040805190810160405280600881526020017f7472616e7366657200000000000000000000000000000000000000000000000081525081526020016040805190810160405280600c81526020017f7472616e7366657246726f6d000000000000000000000000000000000000000081525081526020016040805190810160405280600781526020017f6f776e65724f660000000000000000000000000000000000000000000000000081525081526020016040805190810160405280600981526020017f62616c616e63654f66000000000000000000000000000000000000000000000081525081526020016040805190810160405280600b81526020017f676574417070726f7665640000000000000000000000000000000000000000008152508152602001602060405190810160405280600081525081526020016020604051908101604052806000815250815260200160206040519081016040528060008152508152602001602060405190810160405280600081525081526020016020604051908101604052806000815250815250905090565b815481835581811511611328578183600052602060002091820191016113279190611391565b5b505050565b602060405190810160405280600081525090565b508054600082559060005260206000209081019061135f9190611391565b50565b61014060405190810160405280600a905b61137b6113b6565b8152602001906001900390816113735790505090565b6113b391905b808211156113af576000816000905550600101611397565b5090565b90565b6020604051908101604052806000815250905600a165627a7a72305820a0369ebffd9fa7d276744c9f727b4f43a64088c7c906714cf2a90e0f4e6de5250029",
  "source": "/*\n\n  Copyright 2017 Dharma Labs Inc.\n\n  Licensed under the Apache License, Version 2.0 (the \"License\");\n  you may not use this file except in compliance with the License.\n  You may obtain a copy of the License at\n\n    http://www.apache.org/licenses/LICENSE-2.0\n\n  Unless required by applicable law or agreed to in writing, software\n  distributed under the License is distributed on an \"AS IS\" BASIS,\n  WITHOUT WARRANTIES OR CONDITIONS OF ANY KIND, either express or implied.\n  See the License for the specific language governing permissions and\n  limitations under the License.\n\n*/\n\npragma solidity 0.4.18;\n\nimport \"./MockContract.sol\";\n\n\ncontract MockERC721Token is MockContract {\n    function transfer(\n        address _to,\n        uint _tokenId\n    )\n        public\n        returns (bool _success)\n    {\n        functionCalledWithArgs(\"transfer\", getTransferArgsSignature(\n            _to,\n            _tokenId\n        ));\n\n        return true;\n    }\n\n    function wasTransferCalledWith(\n        address _to,\n        uint _tokenId\n    )\n        public\n        view\n        returns (bool wasCalled)\n    {\n        return wasFunctionCalledWithArgs(\"transfer\", getTransferArgsSignature(\n            _to,\n            _tokenId\n        ));\n    }\n\n    function transferFrom(\n        address _from,\n        address _to,\n        uint _tokenId\n    )\n        public\n        returns (bool _success)\n    {\n        functionCalledWithArgs(\"transferFrom\", getTransferFromArgsSignature(\n            _from,\n            _to,\n            _tokenId\n        ));\n\n        return true;\n    }\n\n    function wasTransferFromCalledWith(\n        address _from,\n        address _to,\n        uint _tokenId\n    )\n        public\n        view\n        returns (bool wasCalled)\n    {\n        return wasFunctionCalledWithArgs(\"transferFrom\", getTransferFromArgsSignature(\n            _from,\n            _to,\n            _tokenId\n        ));\n    }\n\n    function balanceOf(address _owner) public view returns (uint _balance) {\n        return uint(getMockReturnValue(\"balanceOf\", keccak256(_owner)));\n    }\n\n    function mockBalanceOfFor(address _owner, uint _balance) public {\n        mockReturnValue(\"balanceOf\", keccak256(_owner), bytes32(_balance));\n    }\n\n    function ownerOf(uint _tokenId) public view returns (address _owner) {\n        return address(getMockReturnValue(\"ownerOf\", keccak256(_tokenId)));\n    }\n\n    function mockOwnerOfFor(uint _tokenId, address _owner) public {\n        mockReturnValue(\"ownerOf\", keccak256(_tokenId), bytes32(_owner));\n    }\n\n    function getApproved(uint _tokenId) public view returns (address _approved) {\n        return address(getMockReturnValue(\"getApproved\", keccak256(_tokenId)));\n    }\n\n    function mockGetApprovedFor(uint _tokenId, address _approved) public {\n        mockReturnValue(\"getApproved\", keccak256(_tokenId), bytes32(_approved));\n    }\n\n    function implementsERC721() public pure returns (bool _implementsERC721) {\n        return true;\n    }\n\n    function getTransferArgsSignature(\n        address _to,\n        uint _tokenId\n    )\n        internal\n        pure\n        returns (bytes32 args)\n    {\n        return keccak256(\n            _to,\n            _tokenId\n        );\n    }\n\n    function getTransferFromArgsSignature(\n        address _from,\n        address _to,\n        uint _tokenId\n    )\n        internal\n        pure\n        returns (bytes32 argsSignature)\n    {\n        return keccak256(\n            _from,\n            _to,\n            _tokenId\n        );\n    }\n\n    function getFunctionList()\n        internal\n        returns (string[10] functionNames)\n    {\n        return [\"transfer\", \"transferFrom\", \"ownerOf\", \"balanceOf\", \"getApproved\", \"\", \"\", \"\", \"\", \"\"];\n    }\n}\n",
  "sourcePath": "/Users/nadavhollander/Documents/Dharma/Development/charta/contracts/test/mocks/MockERC721Token.sol",
  "compiler": {
    "name": "solc",
    "version": "0.4.18+commit.9cf6e910.Emscripten.clang"
  },
  "schemaVersion": "1.0.1",
  "updatedAt": "2018-05-21T18:05:01.079Z"
}