{
  "contractName": "MockDebtRegistry",
  "abi": [
    {
      "constant": true,
      "inputs": [
        {
          "name": "functionName",
          "type": "string"
        },
        {
          "name": "argsSignature",
          "type": "bytes32"
        }
      ],
      "name": "getMockReturnValue",
      "outputs": [
        {
          "name": "_mockReturnValue",
          "type": "bytes32"
        }
      ],
      "payable": false,
      "stateMutability": "view",
      "type": "function"
    },
    {
      "constant": false,
      "inputs": [
        {
          "name": "agreementId",
          "type": "bytes32"
        },
        {
          "name": "termsContract",
          "type": "address"
        }
      ],
      "name": "mockGetTermsContractReturnValueFor",
      "outputs": [],
      "payable": false,
      "stateMutability": "nonpayable",
      "type": "function"
    },
    {
      "constant": true,
      "inputs": [
        {
          "name": "_version",
          "type": "address"
        },
        {
          "name": "_beneficiary",
          "type": "address"
        },
        {
          "name": "_debtor",
          "type": "address"
        },
        {
          "name": "_underwriter",
          "type": "address"
        },
        {
          "name": "_underwriterRiskRating",
          "type": "uint256"
        },
        {
          "name": "_termsContract",
          "type": "address"
        },
        {
          "name": "_termsContractParameters",
          "type": "bytes32"
        },
        {
          "name": "_salt",
          "type": "uint256"
        }
      ],
      "name": "wasInsertCalledWith",
      "outputs": [
        {
          "name": "_wasCalled",
          "type": "bool"
        }
      ],
      "payable": false,
      "stateMutability": "view",
      "type": "function"
    },
    {
      "constant": true,
      "inputs": [
        {
          "name": "agreementId",
          "type": "bytes32"
        }
      ],
      "name": "getTermsContractParameters",
      "outputs": [
        {
          "name": "",
          "type": "bytes32"
        }
      ],
      "payable": false,
      "stateMutability": "view",
      "type": "function"
    },
    {
      "constant": false,
      "inputs": [
        {
          "name": "agreementId",
          "type": "bytes32"
        },
        {
          "name": "newBeneficiary",
          "type": "address"
        }
      ],
      "name": "modifyBeneficiary",
      "outputs": [],
      "payable": false,
      "stateMutability": "nonpayable",
      "type": "function"
    },
    {
      "constant": true,
      "inputs": [
        {
          "name": "agreementId",
          "type": "bytes32"
        }
      ],
      "name": "getTerms",
      "outputs": [
        {
          "name": "_termsContract",
          "type": "address"
        },
        {
          "name": "_termsContractParameters",
          "type": "bytes32"
        }
      ],
      "payable": false,
      "stateMutability": "view",
      "type": "function"
    },
    {
      "constant": false,
      "inputs": [
        {
          "name": "agreementId",
          "type": "bytes32"
        },
        {
          "name": "params",
          "type": "bytes32"
        }
      ],
      "name": "mockGetTermsContractParameters",
      "outputs": [],
      "payable": false,
      "stateMutability": "nonpayable",
      "type": "function"
    },
    {
      "constant": false,
      "inputs": [
        {
          "name": "functionName",
          "type": "string"
        },
        {
          "name": "argsSignature",
          "type": "bytes32"
        },
        {
          "name": "returnValue",
          "type": "bytes32"
        }
      ],
      "name": "mockReturnValue",
      "outputs": [],
      "payable": false,
      "stateMutability": "nonpayable",
      "type": "function"
    },
    {
      "constant": false,
      "inputs": [
        {
          "name": "agreementId",
          "type": "bytes32"
        },
        {
          "name": "timestamp",
          "type": "uint256"
        }
      ],
      "name": "mockGetIssuanceBlockTimestamp",
      "outputs": [],
      "payable": false,
      "stateMutability": "nonpayable",
      "type": "function"
    },
    {
      "constant": false,
      "inputs": [
        {
          "name": "agreementId",
          "type": "bytes32"
        }
      ],
      "name": "doesEntryExist",
      "outputs": [
        {
          "name": "",
          "type": "bool"
        }
      ],
      "payable": false,
      "stateMutability": "nonpayable",
      "type": "function"
    },
    {
      "constant": false,
      "inputs": [
        {
          "name": "agreementId",
          "type": "bytes32"
        }
      ],
      "name": "mockInsertReturnValue",
      "outputs": [],
      "payable": false,
      "stateMutability": "nonpayable",
      "type": "function"
    },
    {
      "constant": false,
      "inputs": [
        {
          "name": "agreementId",
          "type": "bytes32"
        },
        {
          "name": "exists",
          "type": "bool"
        }
      ],
      "name": "mockDoesEntryExist",
      "outputs": [],
      "payable": false,
      "stateMutability": "nonpayable",
      "type": "function"
    },
    {
      "constant": false,
      "inputs": [
        {
          "name": "agreementId",
          "type": "bytes32"
        },
        {
          "name": "termsContract",
          "type": "address"
        },
        {
          "name": "termsContractParameters",
          "type": "bytes32"
        }
      ],
      "name": "mockGetTermsReturnValueFor",
      "outputs": [],
      "payable": false,
      "stateMutability": "nonpayable",
      "type": "function"
    },
    {
      "constant": true,
      "inputs": [
        {
          "name": "agreementId",
          "type": "bytes32"
        }
      ],
      "name": "getBeneficiary",
      "outputs": [
        {
          "name": "_mockBeneficiary",
          "type": "address"
        }
      ],
      "payable": false,
      "stateMutability": "view",
      "type": "function"
    },
    {
      "constant": false,
      "inputs": [
        {
          "name": "_version",
          "type": "address"
        },
        {
          "name": "_beneficiary",
          "type": "address"
        },
        {
          "name": "_debtor",
          "type": "address"
        },
        {
          "name": "_underwriter",
          "type": "address"
        },
        {
          "name": "_underwriterRiskRating",
          "type": "uint256"
        },
        {
          "name": "_termsContract",
          "type": "address"
        },
        {
          "name": "_termsContractParameters",
          "type": "bytes32"
        },
        {
          "name": "_salt",
          "type": "uint256"
        }
      ],
      "name": "insert",
      "outputs": [
        {
          "name": "_agreementId",
          "type": "bytes32"
        }
      ],
      "payable": false,
      "stateMutability": "nonpayable",
      "type": "function"
    },
    {
      "constant": true,
      "inputs": [
        {
          "name": "agreementId",
          "type": "bytes32"
        }
      ],
      "name": "getIssuanceBlockTimestamp",
      "outputs": [
        {
          "name": "timestamp",
          "type": "uint256"
        }
      ],
      "payable": false,
      "stateMutability": "view",
      "type": "function"
    },
    {
      "constant": false,
      "inputs": [],
      "name": "reset",
      "outputs": [],
      "payable": false,
      "stateMutability": "nonpayable",
      "type": "function"
    },
    {
      "constant": false,
      "inputs": [
        {
          "name": "agreementId",
          "type": "bytes32"
        },
        {
          "name": "beneficiary",
          "type": "address"
        }
      ],
      "name": "mockGetBeneficiaryReturnValueFor",
      "outputs": [],
      "payable": false,
      "stateMutability": "nonpayable",
      "type": "function"
    },
    {
      "constant": true,
      "inputs": [
        {
          "name": "agreementId",
          "type": "bytes32"
        },
        {
          "name": "newBeneficiary",
          "type": "address"
        }
      ],
      "name": "wasModifyBeneficiaryCalledWith",
      "outputs": [
        {
          "name": "_wasCalled",
          "type": "bool"
        }
      ],
      "payable": false,
      "stateMutability": "view",
      "type": "function"
    },
    {
      "constant": true,
      "inputs": [
        {
          "name": "agreementId",
          "type": "bytes32"
        }
      ],
      "name": "getTermsContract",
      "outputs": [
        {
          "name": "_termsContract",
          "type": "address"
        }
      ],
      "payable": false,
      "stateMutability": "view",
      "type": "function"
    }
  ],
  "bytecode": "0x6060604052341561000f57600080fd5b611be98061001e6000396000f300606060405260043610610112576000357c0100000000000000000000000000000000000000000000000000000000900463ffffffff168063131018581461011757806318d2efef1461019d578063212e5da1146101e3578063314a522e146102cf5780635969549e146103125780636be39bda146103585780636ea5f93a146103ce57806380da20d4146104025780638dc8a7b2146104795780639758af1e146104a95780639feff4cc146104e8578063a1bc7ef01461050f578063b4045ae914610541578063ba20dda414610594578063cf9df5eb146105fb578063d69dbf63146106eb578063d826f88f14610726578063f0450a5c1461073b578063f6a6189614610781578063f6f494c9146107df575b600080fd5b341561012257600080fd5b61017f600480803590602001908201803590602001908080601f0160208091040260200160405190810160405280939291908181526020018383808284378201915050505050509190803560001916906020019091905050610846565b60405180826000191660001916815260200191505060405180910390f35b34156101a857600080fd5b6101e160048080356000191690602001909190803573ffffffffffffffffffffffffffffffffffffffff169060200190919050506108d5565b005b34156101ee57600080fd5b6102b5600480803573ffffffffffffffffffffffffffffffffffffffff1690602001909190803573ffffffffffffffffffffffffffffffffffffffff1690602001909190803573ffffffffffffffffffffffffffffffffffffffff1690602001909190803573ffffffffffffffffffffffffffffffffffffffff1690602001909190803590602001909190803573ffffffffffffffffffffffffffffffffffffffff1690602001909190803560001916906020019091908035906020019091905050610932565b604051808215151515815260200191505060405180910390f35b34156102da57600080fd5b6102f4600480803560001916906020019091905050610afd565b60405180826000191660001916815260200191505060405180910390f35b341561031d57600080fd5b61035660048080356000191690602001909190803573ffffffffffffffffffffffffffffffffffffffff16906020019091905050610b45565b005b341561036357600080fd5b61037d600480803560001916906020019091905050610bf2565b604051808373ffffffffffffffffffffffffffffffffffffffff1673ffffffffffffffffffffffffffffffffffffffff16815260200182600019166000191681526020019250505060405180910390f35b34156103d957600080fd5b61040060048080356000191690602001909190803560001916906020019091905050610c80565b005b341561040d57600080fd5b610477600480803590602001908201803590602001908080601f016020809104026020016040519081016040528093929190818152602001838380828437820191505050505050919080356000191690602001909190803560001916906020019091905050610cc4565b005b341561048457600080fd5b6104a7600480803560001916906020019091908035906020019091905050610dee565b005b34156104b457600080fd5b6104ce600480803560001916906020019091905050610e35565b604051808215151515815260200191505060405180910390f35b34156104f357600080fd5b61050d600480803560001916906020019091905050610e9e565b005b341561051a57600080fd5b61053f6004808035600019169060200190919080351515906020019091905050610ee5565b005b341561054c57600080fd5b61059260048080356000191690602001909190803573ffffffffffffffffffffffffffffffffffffffff1690602001909190803560001916906020019091905050610f3c565b005b341561059f57600080fd5b6105b9600480803560001916906020019091905050610fda565b604051808273ffffffffffffffffffffffffffffffffffffffff1673ffffffffffffffffffffffffffffffffffffffff16815260200191505060405180910390f35b341561060657600080fd5b6106cd600480803573ffffffffffffffffffffffffffffffffffffffff1690602001909190803573ffffffffffffffffffffffffffffffffffffffff1690602001909190803573ffffffffffffffffffffffffffffffffffffffff1690602001909190803573ffffffffffffffffffffffffffffffffffffffff1690602001909190803590602001909190803573ffffffffffffffffffffffffffffffffffffffff1690602001909190803560001916906020019091908035906020019091905050611026565b60405180826000191660001916815260200191505060405180910390f35b34156106f657600080fd5b610710600480803560001916906020019091905050611249565b6040518082815260200191505060405180910390f35b341561073157600080fd5b610739611295565b005b341561074657600080fd5b61077f60048080356000191690602001909190803573ffffffffffffffffffffffffffffffffffffffff1690602001909190505061158c565b005b341561078c57600080fd5b6107c560048080356000191690602001909190803573ffffffffffffffffffffffffffffffffffffffff169060200190919050506115e9565b604051808215151515815260200191505060405180910390f35b34156107ea57600080fd5b610804600480803560001916906020019091905050611692565b604051808273ffffffffffffffffffffffffffffffffffffffff1673ffffffffffffffffffffffffffffffffffffffff16815260200191505060405180910390f35b60006001836040518082805190602001908083835b602083101515610880578051825260208201915060208101905060208303925061085b565b6001836020036101000a03801982511681845116808217855250505050505090500191505090815260200160405180910390206000836000191660001916815260200190815260200160002054905092915050565b61092e6040805190810160405280601081526020017f6765745465726d73436f6e747261637400000000000000000000000000000000815250838373ffffffffffffffffffffffffffffffffffffffff16600102610cc4565b5050565b6000610aef6040805190810160405280600681526020017f696e7365727400000000000000000000000000000000000000000000000000008152508a8a8a8a8a8a8a8a604051808973ffffffffffffffffffffffffffffffffffffffff1673ffffffffffffffffffffffffffffffffffffffff166c010000000000000000000000000281526014018873ffffffffffffffffffffffffffffffffffffffff1673ffffffffffffffffffffffffffffffffffffffff166c010000000000000000000000000281526014018773ffffffffffffffffffffffffffffffffffffffff1673ffffffffffffffffffffffffffffffffffffffff166c010000000000000000000000000281526014018673ffffffffffffffffffffffffffffffffffffffff1673ffffffffffffffffffffffffffffffffffffffff166c010000000000000000000000000281526014018581526020018473ffffffffffffffffffffffffffffffffffffffff1673ffffffffffffffffffffffffffffffffffffffff166c0100000000000000000000000002815260140183600019166000191681526020018281526020019850505050505050505060405180910390206116de565b905098975050505050505050565b6000610b3e6040805190810160405280601a81526020017f6765745465726d73436f6e7472616374506172616d657465727300000000000081525083610846565b9050919050565b610be46040805190810160405280601181526020017f6d6f6469667942656e656669636961727900000000000000000000000000000081525083836040518083600019166000191681526020018273ffffffffffffffffffffffffffffffffffffffff1673ffffffffffffffffffffffffffffffffffffffff166c0100000000000000000000000002815260140192505050604051809103902061177a565b610bee828261158c565b5050565b600080610c346040805190810160405280601681526020017f6765745465726d735f7465726d73436f6e74726163740000000000000000000081525084610846565b60019004610c776040805190810160405280602081526020017f6765745465726d735f7465726d73436f6e7472616374506172616d657465727381525085610846565b91509150915091565b610cc06040805190810160405280601a81526020017f6765745465726d73436f6e7472616374506172616d65746572730000000000008152508383610cc4565b5050565b6000836040518082805190602001908083835b602083101515610cfc5780518252602082019150602081019050602083039250610cd7565b6001836020036101000a03801982511681845116808217855250505050505090500191505090815260200160405180910390208054806001018281610d419190611af4565b916000526020600020900160008490919091509060001916905550806001846040518082805190602001908083835b602083101515610d955780518252602082019150602081019050602083039250610d70565b6001836020036101000a0380198251168184511680821785525050505050509050019150509081526020016040518091039020600084600019166000191681526020019081526020016000208160001916905550505050565b610e316040805190810160405280601981526020017f67657449737375616e6365426c6f636b54696d657374616d70000000000000008152508383600102610cc4565b5050565b600080610e776040805190810160405280600e81526020017f646f6573456e747279457869737400000000000000000000000000000000000081525084610846565b9050600060010260001916816000191614610e93576001610e96565b60005b915050919050565b610ee26040805190810160405280600681526020017f696e736572740000000000000000000000000000000000000000000000000000815250600060010283610cc4565b50565b610f386040805190810160405280600e81526020017f646f6573456e74727945786973740000000000000000000000000000000000008152508383610f2e576000600102610f33565b600180025b610cc4565b5050565b610f956040805190810160405280601681526020017f6765745465726d735f7465726d73436f6e747261637400000000000000000000815250848473ffffffffffffffffffffffffffffffffffffffff16600102610cc4565b610fd56040805190810160405280602081526020017f6765745465726d735f7465726d73436f6e7472616374506172616d65746572738152508483610cc4565b505050565b600061101b6040805190810160405280600e81526020017f67657442656e656669636961727900000000000000000000000000000000000081525083610846565b600190049050919050565b60008060008a8a8a8a8a8a8a8a604051808973ffffffffffffffffffffffffffffffffffffffff1673ffffffffffffffffffffffffffffffffffffffff166c010000000000000000000000000281526014018873ffffffffffffffffffffffffffffffffffffffff1673ffffffffffffffffffffffffffffffffffffffff166c010000000000000000000000000281526014018773ffffffffffffffffffffffffffffffffffffffff1673ffffffffffffffffffffffffffffffffffffffff166c010000000000000000000000000281526014018673ffffffffffffffffffffffffffffffffffffffff1673ffffffffffffffffffffffffffffffffffffffff166c010000000000000000000000000281526014018581526020018473ffffffffffffffffffffffffffffffffffffffff1673ffffffffffffffffffffffffffffffffffffffff166c01000000000000000000000000028152601401836000191660001916815260200182815260200198505050505050505050604051809103902091506111e96040805190810160405280600681526020017f696e7365727400000000000000000000000000000000000000000000000000008152508361177a565b61122c6040805190810160405280600681526020017f696e7365727400000000000000000000000000000000000000000000000000008152506000600102610846565b9050611238818b61158c565b809250505098975050505050505050565b600061128a6040805190810160405280601981526020017f67657449737375616e6365426c6f636b54696d657374616d700000000000000081525083610846565b600190049050919050565b600061129f611b20565b600080600093505b600a841015611586576112b86118b3565b84600a811015156112c557fe5b602002015192506000835114151561157957600091505b6000836040518082805190602001908083835b60208310151561131457805182526020820191506020810190506020830392506112ef565b6001836020036101000a038019825116818451168082178552505050505050905001915050908152602001604051809103902080549050821015611501576000836040518082805190602001908083835b60208310151561138a5780518252602082019150602081019050602083039250611365565b6001836020036101000a0380198251168184511680821785525050505050509050019150509081526020016040518091039020828154811015156113ca57fe5b90600052602060002090015490506002836040518082805190602001908083835b60208310151561141057805182526020820191506020810190506020830392506113eb565b6001836020036101000a03801982511681845116808217855250505050505090500191505090815260200160405180910390206000826000191660001916815260200190815260200160002060006101000a81549060ff02191690556001836040518082805190602001908083835b6020831015156114a4578051825260208201915060208101905060208303925061147f565b6001836020036101000a0380198251168184511680821785525050505050509050019150509081526020016040518091039020600082600019166000191681526020019081526020016000206000905581806001019250506112dc565b6000836040518082805190602001908083835b6020831015156115395780518252602082019150602081019050602083039250611514565b6001836020036101000a038019825116818451168082178552505050505050905001915050908152602001604051809103902060006115789190611b34565b5b83806001019450506112a7565b50505050565b6115e56040805190810160405280600e81526020017f67657442656e6566696369617279000000000000000000000000000000000000815250838373ffffffffffffffffffffffffffffffffffffffff16600102610cc4565b5050565b600061168a6040805190810160405280601181526020017f6d6f6469667942656e656669636961727900000000000000000000000000000081525084846040518083600019166000191681526020018273ffffffffffffffffffffffffffffffffffffffff1673ffffffffffffffffffffffffffffffffffffffff166c010000000000000000000000000281526014019250505060405180910390206116de565b905092915050565b60006116d36040805190810160405280601081526020017f6765745465726d73436f6e74726163740000000000000000000000000000000081525083610846565b600190049050919050565b60006002836040518082805190602001908083835b60208310151561171857805182526020820191506020810190506020830392506116f3565b6001836020036101000a03801982511681845116808217855250505050505090500191505090815260200160405180910390206000836000191660001916815260200190815260200160002060009054906101000a900460ff16905092915050565b60016002836040518082805190602001908083835b6020831015156117b4578051825260208201915060208101905060208303925061178f565b6001836020036101000a03801982511681845116808217855250505050505090500191505090815260200160405180910390206000836000191660001916815260200190815260200160002060006101000a81548160ff0219169083151502179055506000826040518082805190602001908083835b60208310151561184f578051825260208201915060208101905060208303925061182a565b6001836020036101000a038019825116818451168082178552505050505050905001915050908152602001604051809103902080548060010182816118949190611af4565b9160005260206000209001600083909190915090600019169055505050565b6118bb611b55565b610140604051908101604052806040805190810160405280600681526020017f696e73657274000000000000000000000000000000000000000000000000000081525081526020016040805190810160405280601181526020017f6d6f6469667942656e656669636961727900000000000000000000000000000081525081526020016040805190810160405280600e81526020017f67657442656e656669636961727900000000000000000000000000000000000081525081526020016040805190810160405280601681526020017f6765745465726d735f7465726d73436f6e74726163740000000000000000000081525081526020016040805190810160405280602081526020017f6765745465726d735f7465726d73436f6e7472616374506172616d657465727381525081526020016040805190810160405280601081526020017f6765745465726d73436f6e74726163740000000000000000000000000000000081525081526020016040805190810160405280601a81526020017f6765745465726d73436f6e7472616374506172616d657465727300000000000081525081526020016040805190810160405280601981526020017f67657449737375616e6365426c6f636b54696d657374616d700000000000000081525081526020016040805190810160405280600e81526020017f646f6573456e747279457869737400000000000000000000000000000000000081525081526020016020604051908101604052806000815250815250905090565b815481835581811511611b1b57818360005260206000209182019101611b1a9190611b84565b5b505050565b602060405190810160405280600081525090565b5080546000825590600052602060002090810190611b529190611b84565b50565b61014060405190810160405280600a905b611b6e611ba9565b815260200190600190039081611b665790505090565b611ba691905b80821115611ba2576000816000905550600101611b8a565b5090565b90565b6020604051908101604052806000815250905600a165627a7a72305820d42d17f1d7d6c364c8db2d2d212ec6be4c906e28519c72f3669f0ed6fdf8848a0029",
  "source": "/*\n\n  Copyright 2017 Dharma Labs Inc.\n\n  Licensed under the Apache License, Version 2.0 (the \"License\");\n  you may not use this file except in compliance with the License.\n  You may obtain a copy of the License at\n\n    http://www.apache.org/licenses/LICENSE-2.0\n\n  Unless required by applicable law or agreed to in writing, software\n  distributed under the License is distributed on an \"AS IS\" BASIS,\n  WITHOUT WARRANTIES OR CONDITIONS OF ANY KIND, either express or implied.\n  See the License for the specific language governing permissions and\n  limitations under the License.\n\n*/\n\npragma solidity 0.4.18;\n\nimport \"./MockContract.sol\";\n\n\ncontract MockDebtRegistry is MockContract {\n    function insert(\n        address _version,\n        address _beneficiary,\n        address _debtor,\n        address _underwriter,\n        uint _underwriterRiskRating,\n        address _termsContract,\n        bytes32 _termsContractParameters,\n        uint _salt\n    )\n        public\n        returns (bytes32 _agreementId)\n    {\n        bytes32 argsSignature = keccak256(\n            _version,\n            _beneficiary,\n            _debtor,\n            _underwriter,\n            _underwriterRiskRating,\n            _termsContract,\n            _termsContractParameters,\n            _salt\n        );\n\n        functionCalledWithArgs(\"insert\", argsSignature);\n\n        bytes32 agreementId = getMockReturnValue(\"insert\", DEFAULT_SIGNATURE_ARGS);\n\n        mockGetBeneficiaryReturnValueFor(agreementId, _beneficiary);\n\n        return agreementId;\n    }\n\n    function modifyBeneficiary(bytes32 agreementId, address newBeneficiary)\n        public\n    {\n        functionCalledWithArgs(\"modifyBeneficiary\",\n            keccak256(agreementId, newBeneficiary));\n\n        mockGetBeneficiaryReturnValueFor(agreementId, newBeneficiary);\n    }\n\n    function getBeneficiary(bytes32 agreementId)\n        public\n        view\n        returns (address _mockBeneficiary)\n    {\n        return address(getMockReturnValue(\"getBeneficiary\", agreementId));\n    }\n\n    function doesEntryExist(bytes32 agreementId) public returns (bool) {\n        bytes32 mockReturnValue = getMockReturnValue(\"doesEntryExist\", agreementId);\n        return mockReturnValue == bytes32(0) ? false : true;\n    }\n\n    function mockDoesEntryExist(bytes32 agreementId, bool exists) public {\n        mockReturnValue(\"doesEntryExist\", agreementId, exists ? bytes32(1) : bytes32(0));\n    }\n\n    function mockInsertReturnValue(bytes32 agreementId) public {\n        mockReturnValue(\"insert\", DEFAULT_SIGNATURE_ARGS, agreementId);\n    }\n\n    function mockGetBeneficiaryReturnValueFor(bytes32 agreementId, address beneficiary)\n        public\n    {\n        mockReturnValue(\"getBeneficiary\", agreementId, bytes32(beneficiary));\n    }\n\n    function getTerms(bytes32 agreementId)\n        public\n        view\n        returns (address _termsContract, bytes32 _termsContractParameters)\n    {\n        return (\n            address(getMockReturnValue(\"getTerms_termsContract\", agreementId)),\n            getMockReturnValue(\"getTerms_termsContractParameters\", agreementId)\n        );\n    }\n\n    function mockGetTermsReturnValueFor(\n        bytes32 agreementId,\n        address termsContract,\n        bytes32 termsContractParameters\n    )\n        public\n    {\n        mockReturnValue(\"getTerms_termsContract\", agreementId, bytes32(termsContract));\n        mockReturnValue(\"getTerms_termsContractParameters\", agreementId, termsContractParameters);\n    }\n\n    function getTermsContract(bytes32 agreementId)\n        public\n        view\n        returns (address _termsContract)\n    {\n        return address(getMockReturnValue(\"getTermsContract\", agreementId));\n    }\n\n    function getIssuanceBlockTimestamp(bytes32 agreementId)\n        public\n        view\n        returns (uint timestamp)\n    {\n        return uint(getMockReturnValue(\"getIssuanceBlockTimestamp\", agreementId));\n    }\n\n    function mockGetIssuanceBlockTimestamp(\n        bytes32 agreementId,\n        uint timestamp\n    )\n        public\n    {\n        mockReturnValue(\"getIssuanceBlockTimestamp\", agreementId, bytes32(timestamp));\n    }\n\n    function getTermsContractParameters(bytes32 agreementId)\n        public\n        view\n        returns (bytes32)\n    {\n        return getMockReturnValue(\"getTermsContractParameters\", agreementId);\n    }\n\n    function mockGetTermsContractParameters(\n        bytes32 agreementId,\n        bytes32 params\n    )\n        public\n    {\n        mockReturnValue(\"getTermsContractParameters\", agreementId, params);\n    }\n\n    function mockGetTermsContractReturnValueFor(\n        bytes32 agreementId,\n        address termsContract\n    )\n        public\n    {\n        mockReturnValue(\"getTermsContract\", agreementId, bytes32(termsContract));\n    }\n\n    function wasInsertCalledWith(\n        address _version,\n        address _beneficiary,\n        address _debtor,\n        address _underwriter,\n        uint _underwriterRiskRating,\n        address _termsContract,\n        bytes32 _termsContractParameters,\n        uint _salt\n    )\n        public\n        view\n        returns (bool _wasCalled)\n    {\n        return wasFunctionCalledWithArgs(\"insert\", keccak256(\n            _version,\n            _beneficiary,\n            _debtor,\n            _underwriter,\n            _underwriterRiskRating,\n            _termsContract,\n            _termsContractParameters,\n            _salt\n        ));\n    }\n\n    function wasModifyBeneficiaryCalledWith(bytes32 agreementId, address newBeneficiary)\n        public\n        view\n        returns (bool _wasCalled)\n    {\n        return wasFunctionCalledWithArgs(\"modifyBeneficiary\",\n            keccak256(agreementId, newBeneficiary));\n    }\n\n    function getFunctionList()\n        internal\n        returns (string[10] functionNames)\n    {\n        return [\n            \"insert\",\n            \"modifyBeneficiary\",\n            \"getBeneficiary\",\n            \"getTerms_termsContract\",\n            \"getTerms_termsContractParameters\",\n            \"getTermsContract\",\n            \"getTermsContractParameters\",\n            \"getIssuanceBlockTimestamp\",\n            \"doesEntryExist\",\n            \"\"\n        ];\n    }\n}\n",
  "sourcePath": "/Users/kayvon/dharma/charta/contracts/test/mocks/MockDebtRegistry.sol",
  "compiler": {
    "name": "solc",
    "version": "0.4.18+commit.9cf6e910.Emscripten.clang"
  },
  "schemaVersion": "1.0.1",
  "updatedAt": "2018-07-02T23:10:14.046Z"
}