{
  "contractName": "MockTokenRegistry",
  "abi": [
    {
      "constant": true,
      "inputs": [
        {
          "name": "functionName",
          "type": "string"
        },
        {
          "name": "argsSignature",
          "type": "bytes32"
        }
      ],
      "name": "getMockReturnValue",
      "outputs": [
        {
          "name": "_mockReturnValue",
          "type": "bytes32"
        }
      ],
      "payable": false,
      "stateMutability": "view",
      "type": "function"
    },
    {
      "constant": true,
      "inputs": [
        {
          "name": "symbol",
          "type": "string"
        }
      ],
      "name": "getTokenAddressBySymbol",
      "outputs": [
        {
          "name": "",
          "type": "address"
        }
      ],
      "payable": false,
      "stateMutability": "view",
      "type": "function"
    },
    {
      "constant": true,
      "inputs": [
        {
          "name": "index",
          "type": "uint256"
        }
      ],
      "name": "getTokenAddressByIndex",
      "outputs": [
        {
          "name": "",
          "type": "address"
        }
      ],
      "payable": false,
      "stateMutability": "view",
      "type": "function"
    },
    {
      "constant": false,
      "inputs": [
        {
          "name": "functionName",
          "type": "string"
        },
        {
          "name": "argsSignature",
          "type": "bytes32"
        },
        {
          "name": "returnValue",
          "type": "bytes32"
        }
      ],
      "name": "mockReturnValue",
      "outputs": [],
      "payable": false,
      "stateMutability": "nonpayable",
      "type": "function"
    },
    {
      "constant": false,
      "inputs": [
        {
          "name": "symbol",
          "type": "string"
        },
        {
          "name": "token",
          "type": "address"
        }
      ],
      "name": "mockGetTokenAddressBySymbol",
      "outputs": [],
      "payable": false,
      "stateMutability": "nonpayable",
      "type": "function"
    },
    {
      "constant": false,
      "inputs": [],
      "name": "reset",
      "outputs": [],
      "payable": false,
      "stateMutability": "nonpayable",
      "type": "function"
    },
    {
      "constant": false,
      "inputs": [
        {
          "name": "index",
          "type": "uint256"
        },
        {
          "name": "token",
          "type": "address"
        }
      ],
      "name": "mockGetTokenAddressByIndex",
      "outputs": [],
      "payable": false,
      "stateMutability": "nonpayable",
      "type": "function"
    }
  ],
  "bytecode": "0x6060604052341561000f57600080fd5b610c7b8061001e6000396000f300606060405260043610610083576000357c0100000000000000000000000000000000000000000000000000000000900463ffffffff16806313101858146100885780633550b6d91461010e5780635715c5b7146101ab57806380da20d41461020e5780639a22471514610285578063d826f88f14610301578063e1f1956414610316575b600080fd5b341561009357600080fd5b6100f0600480803590602001908201803590602001908080601f0160208091040260200160405190810160405280939291908181526020018383808284378201915050505050509190803560001916906020019091905050610358565b60405180826000191660001916815260200191505060405180910390f35b341561011957600080fd5b610169600480803590602001908201803590602001908080601f016020809104026020016040519081016040528093929190818152602001838380828437820191505050505050919050506103e7565b604051808273ffffffffffffffffffffffffffffffffffffffff1673ffffffffffffffffffffffffffffffffffffffff16815260200191505060405180910390f35b34156101b657600080fd5b6101cc6004808035906020019091905050610495565b604051808273ffffffffffffffffffffffffffffffffffffffff1673ffffffffffffffffffffffffffffffffffffffff16815260200191505060405180910390f35b341561021957600080fd5b610283600480803590602001908201803590602001908080601f0160208091040260200160405190810160405280939291908181526020018383808284378201915050505050509190803560001916906020019091908035600019169060200190919050506104f6565b005b341561029057600080fd5b6102ff600480803590602001908201803590602001908080601f0160208091040260200160405190810160405280939291908181526020018383808284378201915050505050509190803573ffffffffffffffffffffffffffffffffffffffff16906020019091905050610620565b005b341561030c57600080fd5b6103146106df565b005b341561032157600080fd5b610356600480803590602001909190803573ffffffffffffffffffffffffffffffffffffffff169060200190919050506109d6565b005b60006001836040518082805190602001908083835b602083101515610392578051825260208201915060208101905060208303925061036d565b6001836020036101000a03801982511681845116808217855250505050505090500191505090815260200160405180910390206000836000191660001916815260200190815260200160002054905092915050565b600061048a6040805190810160405280601781526020017f676574546f6b656e41646472657373427953796d626f6c000000000000000000815250836040518082805190602001908083835b6020831015156104585780518252602082019150602081019050602083039250610433565b6001836020036101000a0380198251168184511680821785525050505050509050019150506040518091039020610358565b600190049050919050565b60006104eb6040805190810160405280601681526020017f676574546f6b656e416464726573734279496e6465780000000000000000000081525083604051808281526020019150506040518091039020610358565b600190049050919050565b6000836040518082805190602001908083835b60208310151561052e5780518252602082019150602081019050602083039250610509565b6001836020036101000a038019825116818451168082178552505050505050905001915050908152602001604051809103902080548060010182816105739190610b86565b916000526020600020900160008490919091509060001916905550806001846040518082805190602001908083835b6020831015156105c757805182526020820191506020810190506020830392506105a2565b6001836020036101000a0380198251168184511680821785525050505050509050019150509081526020016040518091039020600084600019166000191681526020019081526020016000208160001916905550505050565b6106db6040805190810160405280601781526020017f676574546f6b656e41646472657373427953796d626f6c000000000000000000815250836040518082805190602001908083835b60208310151561068f578051825260208201915060208101905060208303925061066a565b6001836020036101000a03801982511681845116808217855250505050505090500191505060405180910390208373ffffffffffffffffffffffffffffffffffffffff166001026104f6565b5050565b60006106e9610bb2565b600080600093505b600a8410156109d057610702610a48565b84600a8110151561070f57fe5b60200201519250600083511415156109c357600091505b6000836040518082805190602001908083835b60208310151561075e5780518252602082019150602081019050602083039250610739565b6001836020036101000a03801982511681845116808217855250505050505090500191505090815260200160405180910390208054905082101561094b576000836040518082805190602001908083835b6020831015156107d457805182526020820191506020810190506020830392506107af565b6001836020036101000a03801982511681845116808217855250505050505090500191505090815260200160405180910390208281548110151561081457fe5b90600052602060002090015490506002836040518082805190602001908083835b60208310151561085a5780518252602082019150602081019050602083039250610835565b6001836020036101000a03801982511681845116808217855250505050505090500191505090815260200160405180910390206000826000191660001916815260200190815260200160002060006101000a81549060ff02191690556001836040518082805190602001908083835b6020831015156108ee57805182526020820191506020810190506020830392506108c9565b6001836020036101000a038019825116818451168082178552505050505050905001915050908152602001604051809103902060008260001916600019168152602001908152602001600020600090558180600101925050610726565b6000836040518082805190602001908083835b602083101515610983578051825260208201915060208101905060208303925061095e565b6001836020036101000a038019825116818451168082178552505050505050905001915050908152602001604051809103902060006109c29190610bc6565b5b83806001019450506106f1565b50505050565b610a446040805190810160405280601681526020017f676574546f6b656e416464726573734279496e64657800000000000000000000815250836040518082815260200191505060405180910390208373ffffffffffffffffffffffffffffffffffffffff166001026104f6565b5050565b610a50610be7565b610140604051908101604052806040805190810160405280601781526020017f676574546f6b656e41646472657373427953796d626f6c00000000000000000081525081526020016040805190810160405280601681526020017f676574546f6b656e416464726573734279496e646578000000000000000000008152508152602001602060405190810160405280600081525081526020016020604051908101604052806000815250815260200160206040519081016040528060008152508152602001602060405190810160405280600081525081526020016020604051908101604052806000815250815260200160206040519081016040528060008152508152602001602060405190810160405280600081525081526020016020604051908101604052806000815250815250905090565b815481835581811511610bad57818360005260206000209182019101610bac9190610c16565b5b505050565b602060405190810160405280600081525090565b5080546000825590600052602060002090810190610be49190610c16565b50565b61014060405190810160405280600a905b610c00610c3b565b815260200190600190039081610bf85790505090565b610c3891905b80821115610c34576000816000905550600101610c1c565b5090565b90565b6020604051908101604052806000815250905600a165627a7a723058209cb701e32bf165977bd5586d506811cb88300142a2fa893bb1018312372e1cc50029",
  "source": "/*\n\n  Copyright 2017 Dharma Labs Inc.\n\n  Licensed under the Apache License, Version 2.0 (the \"License\");\n  you may not use this file except in compliance with the License.\n  You may obtain a copy of the License at\n\n    http://www.apache.org/licenses/LICENSE-2.0\n\n  Unless required by applicable law or agreed to in writing, software\n  distributed under the License is distributed on an \"AS IS\" BASIS,\n  WITHOUT WARRANTIES OR CONDITIONS OF ANY KIND, either express or implied.\n  See the License for the specific language governing permissions and\n  limitations under the License.\n\n*/\n\npragma solidity 0.4.18;\n\nimport \"./MockContract.sol\";\n\n\ncontract MockTokenRegistry is MockContract {\n    function getTokenAddressBySymbol(string symbol)\n        public\n        view\n        returns (address)\n    {\n        return address(getMockReturnValue(\"getTokenAddressBySymbol\", keccak256(symbol)));\n    }\n\n    function getTokenAddressByIndex(uint index)\n        public\n        view\n        returns (address)\n    {\n        return address(getMockReturnValue(\"getTokenAddressByIndex\", keccak256(index)));\n    }\n\n    function mockGetTokenAddressBySymbol(string symbol, address token)\n        public\n    {\n        mockReturnValue(\"getTokenAddressBySymbol\", keccak256(symbol), bytes32(token));\n    }\n\n    function mockGetTokenAddressByIndex(uint index, address token)\n        public\n    {\n        mockReturnValue(\"getTokenAddressByIndex\", keccak256(index), bytes32(token));\n    }\n\n    function getFunctionList()\n        internal\n        returns (string[10] functionNames)\n    {\n        return [\"getTokenAddressBySymbol\", \"getTokenAddressByIndex\", \"\", \"\", \"\", \"\", \"\", \"\", \"\", \"\"];\n    }\n}\n",
  "sourcePath": "/Users/graemeboy/Dharma/charta/contracts/test/mocks/MockTokenRegistry.sol",
  "compiler": {
    "name": "solc",
    "version": "0.4.18+commit.9cf6e910.Emscripten.clang"
  },
  "schemaVersion": "1.0.1",
  "updatedAt": "2018-10-15T20:10:47.709Z"
}