{
  "contractName": "SimpleInterestTermsContract",
  "abi": [
    {
      "constant": true,
      "inputs": [
        {
          "name": "agreementId",
          "type": "bytes32"
        }
      ],
      "name": "getValueRepaidToDate",
      "outputs": [
        {
          "name": "_valueRepaid",
          "type": "uint256"
        }
      ],
      "payable": false,
      "stateMutability": "view",
      "type": "function"
    },
    {
      "constant": true,
      "inputs": [],
      "name": "DAY_LENGTH_IN_SECONDS",
      "outputs": [
        {
          "name": "",
          "type": "uint256"
        }
      ],
      "payable": false,
      "stateMutability": "view",
      "type": "function"
    },
    {
      "constant": true,
      "inputs": [],
      "name": "MONTH_LENGTH_IN_SECONDS",
      "outputs": [
        {
          "name": "",
          "type": "uint256"
        }
      ],
      "payable": false,
      "stateMutability": "view",
      "type": "function"
    },
    {
      "constant": true,
      "inputs": [
        {
          "name": "_agreementId",
          "type": "bytes32"
        }
      ],
      "name": "getTermEndTimestamp",
      "outputs": [
        {
          "name": "",
          "type": "uint256"
        }
      ],
      "payable": false,
      "stateMutability": "view",
      "type": "function"
    },
    {
      "constant": true,
      "inputs": [],
      "name": "WEEK_LENGTH_IN_SECONDS",
      "outputs": [
        {
          "name": "",
          "type": "uint256"
        }
      ],
      "payable": false,
      "stateMutability": "view",
      "type": "function"
    },
    {
      "constant": false,
      "inputs": [
        {
          "name": "agreementId",
          "type": "bytes32"
        },
        {
          "name": "payer",
          "type": "address"
        },
        {
          "name": "beneficiary",
          "type": "address"
        },
        {
          "name": "unitsOfRepayment",
          "type": "uint256"
        },
        {
          "name": "tokenAddress",
          "type": "address"
        }
      ],
      "name": "registerRepayment",
      "outputs": [
        {
          "name": "_success",
          "type": "bool"
        }
      ],
      "payable": false,
      "stateMutability": "nonpayable",
      "type": "function"
    },
    {
      "constant": true,
      "inputs": [],
      "name": "HOUR_LENGTH_IN_SECONDS",
      "outputs": [
        {
          "name": "",
          "type": "uint256"
        }
      ],
      "payable": false,
      "stateMutability": "view",
      "type": "function"
    },
    {
      "constant": true,
      "inputs": [],
      "name": "NUM_AMORTIZATION_UNIT_TYPES",
      "outputs": [
        {
          "name": "",
          "type": "uint256"
        }
      ],
      "payable": false,
      "stateMutability": "view",
      "type": "function"
    },
    {
      "constant": true,
      "inputs": [],
      "name": "INTEREST_RATE_SCALING_FACTOR_PERCENT",
      "outputs": [
        {
          "name": "",
          "type": "uint256"
        }
      ],
      "payable": false,
      "stateMutability": "view",
      "type": "function"
    },
    {
      "constant": false,
      "inputs": [
        {
          "name": "agreementId",
          "type": "bytes32"
        },
        {
          "name": "debtor",
          "type": "address"
        }
      ],
      "name": "registerTermStart",
      "outputs": [
        {
          "name": "_success",
          "type": "bool"
        }
      ],
      "payable": false,
      "stateMutability": "nonpayable",
      "type": "function"
    },
    {
      "constant": true,
      "inputs": [
        {
          "name": "agreementId",
          "type": "bytes32"
        },
        {
          "name": "timestamp",
          "type": "uint256"
        }
      ],
      "name": "getExpectedRepaymentValue",
      "outputs": [
        {
          "name": "_expectedRepaymentValue",
          "type": "uint256"
        }
      ],
      "payable": false,
      "stateMutability": "view",
      "type": "function"
    },
    {
      "constant": true,
      "inputs": [],
      "name": "contractRegistry",
      "outputs": [
        {
          "name": "",
          "type": "address"
        }
      ],
      "payable": false,
      "stateMutability": "view",
      "type": "function"
    },
    {
      "constant": true,
      "inputs": [],
      "name": "INTEREST_RATE_SCALING_FACTOR_MULTIPLIER",
      "outputs": [
        {
          "name": "",
          "type": "uint256"
        }
      ],
      "payable": false,
      "stateMutability": "view",
      "type": "function"
    },
    {
      "constant": true,
      "inputs": [
        {
          "name": "parameters",
          "type": "bytes32"
        }
      ],
      "name": "unpackParametersFromBytes",
      "outputs": [
        {
          "name": "_principalTokenIndex",
          "type": "uint256"
        },
        {
          "name": "_principalAmount",
          "type": "uint256"
        },
        {
          "name": "_interestRate",
          "type": "uint256"
        },
        {
          "name": "_amortizationUnitType",
          "type": "uint256"
        },
        {
          "name": "_termLengthInAmortizationUnits",
          "type": "uint256"
        }
      ],
      "payable": false,
      "stateMutability": "pure",
      "type": "function"
    },
    {
      "constant": true,
      "inputs": [],
      "name": "YEAR_LENGTH_IN_SECONDS",
      "outputs": [
        {
          "name": "",
          "type": "uint256"
        }
      ],
      "payable": false,
      "stateMutability": "view",
      "type": "function"
    },
    {
      "constant": true,
      "inputs": [
        {
          "name": "",
          "type": "bytes32"
        }
      ],
      "name": "valueRepaid",
      "outputs": [
        {
          "name": "",
          "type": "uint256"
        }
      ],
      "payable": false,
      "stateMutability": "view",
      "type": "function"
    },
    {
      "inputs": [
        {
          "name": "_contractRegistry",
          "type": "address"
        }
      ],
      "payable": false,
      "stateMutability": "nonpayable",
      "type": "constructor"
    },
    {
      "anonymous": false,
      "inputs": [
        {
          "indexed": true,
          "name": "agreementId",
          "type": "bytes32"
        },
        {
          "indexed": true,
          "name": "principalToken",
          "type": "address"
        },
        {
          "indexed": false,
          "name": "principalAmount",
          "type": "uint256"
        },
        {
          "indexed": false,
          "name": "interestRate",
          "type": "uint256"
        },
        {
          "indexed": true,
          "name": "amortizationUnitType",
          "type": "uint256"
        },
        {
          "indexed": false,
          "name": "termLengthInAmortizationUnits",
          "type": "uint256"
        }
      ],
      "name": "LogSimpleInterestTermStart",
      "type": "event"
    },
    {
      "anonymous": false,
      "inputs": [
        {
          "indexed": false,
          "name": "agreementId",
          "type": "bytes32"
        },
        {
          "indexed": false,
          "name": "payer",
          "type": "address"
        },
        {
          "indexed": false,
          "name": "beneficiary",
          "type": "address"
        },
        {
          "indexed": false,
          "name": "unitsOfRepayment",
          "type": "uint256"
        },
        {
          "indexed": false,
          "name": "tokenAddress",
          "type": "address"
        }
      ],
      "name": "LogRegisterRepayment",
      "type": "event"
    }
  ],
  "bytecode": "0x6060604052341561000f57600080fd5b6040516020806117e78339810160405280805190602001909190505080600160006101000a81548173ffffffffffffffffffffffffffffffffffffffff021916908373ffffffffffffffffffffffffffffffffffffffff1602179055505061176b8061007c6000396000f3006060604052600436106100e6576000357c0100000000000000000000000000000000000000000000000000000000900463ffffffff16806303a896a1146100eb5780630776298214610126578063208638941461014f5780632762dd8c1461017857806340018a0d146101b35780635f0280ba146101dc5780636f69c96f146102815780638b47e58a146102aa57806393529cdf146102d3578063977a5e64146102fc57806399114d841461035a578063abf410e51461039e578063de53a13c146103f3578063ed8907d71461041c578063fd127a4114610473578063fd40d52e1461049c575b600080fd5b34156100f657600080fd5b6101106004808035600019169060200190919050506104d7565b6040518082815260200191505060405180910390f35b341561013157600080fd5b6101396104fb565b6040518082815260200191505060405180910390f35b341561015a57600080fd5b610162610504565b6040518082815260200191505060405180910390f35b341561018357600080fd5b61019d600480803560001916906020019091905050610510565b6040518082815260200191505060405180910390f35b34156101be57600080fd5b6101c6610532565b6040518082815260200191505060405180910390f35b34156101e757600080fd5b61026760048080356000191690602001909190803573ffffffffffffffffffffffffffffffffffffffff1690602001909190803573ffffffffffffffffffffffffffffffffffffffff1690602001909190803590602001909190803573ffffffffffffffffffffffffffffffffffffffff1690602001909190505061053e565b604051808215151515815260200191505060405180910390f35b341561028c57600080fd5b6102946107b3565b6040518082815260200191505060405180910390f35b34156102b557600080fd5b6102bd6107b9565b6040518082815260200191505060405180910390f35b34156102de57600080fd5b6102e66107be565b6040518082815260200191505060405180910390f35b341561030757600080fd5b61034060048080356000191690602001909190803573ffffffffffffffffffffffffffffffffffffffff169060200190919050506107c4565b604051808215151515815260200191505060405180910390f35b341561036557600080fd5b610388600480803560001916906020019091908035906020019091905050610c55565b6040518082815260200191505060405180910390f35b34156103a957600080fd5b6103b1610e61565b604051808273ffffffffffffffffffffffffffffffffffffffff1673ffffffffffffffffffffffffffffffffffffffff16815260200191505060405180910390f35b34156103fe57600080fd5b610406610e87565b6040518082815260200191505060405180910390f35b341561042757600080fd5b610441600480803560001916906020019091905050610e90565b604051808681526020018581526020018481526020018381526020018281526020019550505050505060405180910390f35b341561047e57600080fd5b610486610f88565b6040518082815260200191505060405180910390f35b34156104a757600080fd5b6104c1600480803560001916906020019091905050610f95565b6040518082815260200191505060405180910390f35b60008060008360001916600019168152602001908152602001600020549050919050565b6018610e100281565b601e6018610e10020281565b600061051a6116e0565b61052383610fad565b90508060600151915050919050565b60076018610e10020281565b60006105486116e0565b600160009054906101000a900473ffffffffffffffffffffffffffffffffffffffff1673ffffffffffffffffffffffffffffffffffffffff16636fa9d0566000604051602001526040518163ffffffff167c0100000000000000000000000000000000000000000000000000000000028152600401602060405180830381600087803b15156105d657600080fd5b6102c65a03f115156105e757600080fd5b5050506040518051905073ffffffffffffffffffffffffffffffffffffffff163373ffffffffffffffffffffffffffffffffffffffff1614151561062a57600080fd5b61063387610fad565b9050806000015173ffffffffffffffffffffffffffffffffffffffff168373ffffffffffffffffffffffffffffffffffffffff1614156107a45761069a846000808a60001916600019168152602001908152602001600020546114a990919063ffffffff16565b6000808960001916600019168152602001908152602001600020819055507ff1a888d220228f843ac3044ef257c80642e6434d1ddc7ebee0a2813cced3406c87878787876040518086600019166000191681526020018573ffffffffffffffffffffffffffffffffffffffff1673ffffffffffffffffffffffffffffffffffffffff1681526020018473ffffffffffffffffffffffffffffffffffffffff1673ffffffffffffffffffffffffffffffffffffffff1681526020018381526020018273ffffffffffffffffffffffffffffffffffffffff1673ffffffffffffffffffffffffffffffffffffffff1681526020019550505050505060405180910390a1600191506107a9565b600091505b5095945050505050565b610e1081565b600581565b61271081565b6000806000806000806000806000600160009054906101000a900473ffffffffffffffffffffffffffffffffffffffff1673ffffffffffffffffffffffffffffffffffffffff1663079dd4b76000604051602001526040518163ffffffff167c0100000000000000000000000000000000000000000000000000000000028152600401602060405180830381600087803b151561086057600080fd5b6102c65a03f1151561087157600080fd5b5050506040518051905073ffffffffffffffffffffffffffffffffffffffff163373ffffffffffffffffffffffffffffffffffffffff161415156108b457600080fd5b600160009054906101000a900473ffffffffffffffffffffffffffffffffffffffff1673ffffffffffffffffffffffffffffffffffffffff16632f866f736000604051602001526040518163ffffffff167c0100000000000000000000000000000000000000000000000000000000028152600401602060405180830381600087803b151561094257600080fd5b6102c65a03f1151561095357600080fd5b5050506040518051905073ffffffffffffffffffffffffffffffffffffffff16636be39bda8c6000604051604001526040518263ffffffff167c01000000000000000000000000000000000000000000000000000000000281526004018082600019166000191681526020019150506040805180830381600087803b15156109da57600080fd5b6102c65a03f115156109eb57600080fd5b505050604051805190602001805190508098508199505050610a0c87610e90565b809650819750829850839950849a505050505050600160009054906101000a900473ffffffffffffffffffffffffffffffffffffffff1673ffffffffffffffffffffffffffffffffffffffff16639d23c4c76000604051602001526040518163ffffffff167c0100000000000000000000000000000000000000000000000000000000028152600401602060405180830381600087803b1515610aae57600080fd5b6102c65a03f11515610abf57600080fd5b5050506040518051905073ffffffffffffffffffffffffffffffffffffffff16635715c5b7876000604051602001526040518263ffffffff167c010000000000000000000000000000000000000000000000000000000002815260040180828152602001915050602060405180830381600087803b1515610b3f57600080fd5b6102c65a03f11515610b5057600080fd5b505050604051805190509050600073ffffffffffffffffffffffffffffffffffffffff168173ffffffffffffffffffffffffffffffffffffffff1614158015610b995750600583105b8015610bd057503073ffffffffffffffffffffffffffffffffffffffff168873ffffffffffffffffffffffffffffffffffffffff16145b15610c4257828173ffffffffffffffffffffffffffffffffffffffff168c600019167f2c500aaec6833a053693d8c2a18a3ed5649a4609699abaf7778c3d389cc40c0588888760405180848152602001838152602001828152602001935050505060405180910390a460019850610c47565b600098505b505050505050505092915050565b6000610c5f6116e0565b60008085600160009054906101000a900473ffffffffffffffffffffffffffffffffffffffff1673ffffffffffffffffffffffffffffffffffffffff16632f866f736000604051602001526040518163ffffffff167c0100000000000000000000000000000000000000000000000000000000028152600401602060405180830381600087803b1515610cf157600080fd5b6102c65a03f11515610d0257600080fd5b5050506040518051905073ffffffffffffffffffffffffffffffffffffffff1663f6f494c9826000604051602001526040518263ffffffff167c0100000000000000000000000000000000000000000000000000000000028152600401808260001916600019168152602001915050602060405180830381600087803b1515610d8a57600080fd5b6102c65a03f11515610d9b57600080fd5b5050506040518051905073ffffffffffffffffffffffffffffffffffffffff163073ffffffffffffffffffffffffffffffffffffffff16141515610dde57600080fd5b610de787610fad565b9350610df2846114c7565b9250836040015186111515610e0a5760009450610e57565b836060015186101515610e1f57829450610e57565b610e29868561151d565b9150610e548460a00151610e46848661156790919063ffffffff16565b6115a290919063ffffffff16565b94505b5050505092915050565b600160009054906101000a900473ffffffffffffffffffffffffffffffffffffffff1681565b60646127100281565b6000806000806000806000806000807fff000000000000000000000000000000000000000000000000000000000000006001028b1694507effffffffffffffffffffffff000000000000000000000000000000000000006001028b16935072ffffff000000000000000000000000000000006001028b1692506ff00000000000000000000000000000006001028b1691506f0ffff0000000000000000000000000006001028b169050610f448560f86115bd565b610f4f8560986115bd565b610f5a8560806115bd565b610f6585607c6115bd565b610f7085606c6115bd565b99509950995099509950505050505091939590929450565b61016d6018610e10020281565b60006020528060005260406000206000915090505481565b610fb56116e0565b600080600080600080600080600080600080600160009054906101000a900473ffffffffffffffffffffffffffffffffffffffff1673ffffffffffffffffffffffffffffffffffffffff16632f866f736000604051602001526040518163ffffffff167c0100000000000000000000000000000000000000000000000000000000028152600401602060405180830381600087803b151561105557600080fd5b6102c65a03f1151561106657600080fd5b5050506040518051905073ffffffffffffffffffffffffffffffffffffffff1663314a522e8f6000604051602001526040518263ffffffff167c0100000000000000000000000000000000000000000000000000000000028152600401808260001916600019168152602001915050602060405180830381600087803b15156110ee57600080fd5b6102c65a03f115156110ff57600080fd5b505050604051805190509b506111148c610e90565b809b50819c50829d50839e50849f505050505050600160009054906101000a900473ffffffffffffffffffffffffffffffffffffffff1673ffffffffffffffffffffffffffffffffffffffff16639d23c4c76000604051602001526040518163ffffffff167c0100000000000000000000000000000000000000000000000000000000028152600401602060405180830381600087803b15156111b657600080fd5b6102c65a03f115156111c757600080fd5b5050506040518051905073ffffffffffffffffffffffffffffffffffffffff16635715c5b78c6000604051602001526040518263ffffffff167c010000000000000000000000000000000000000000000000000000000002815260040180828152602001915050602060405180830381600087803b151561124757600080fd5b6102c65a03f1151561125857600080fd5b505050604051805190509550600073ffffffffffffffffffffffffffffffffffffffff168673ffffffffffffffffffffffffffffffffffffffff16141515156112a057600080fd5b6004808111156112ac57fe5b88111515156112ba57600080fd5b8760048111156112c657fe5b94506112d1856115da565b9350600160009054906101000a900473ffffffffffffffffffffffffffffffffffffffff1673ffffffffffffffffffffffffffffffffffffffff16632f866f736000604051602001526040518163ffffffff167c0100000000000000000000000000000000000000000000000000000000028152600401602060405180830381600087803b151561136157600080fd5b6102c65a03f1151561137257600080fd5b5050506040518051905073ffffffffffffffffffffffffffffffffffffffff1663d69dbf638f6000604051602001526040518263ffffffff167c0100000000000000000000000000000000000000000000000000000000028152600401808260001916600019168152602001915050602060405180830381600087803b15156113fa57600080fd5b6102c65a03f1151561140b57600080fd5b50505060405180519050925061142a848861156790919063ffffffff16565b915061143f83836114a990919063ffffffff16565b905060e0604051908101604052808773ffffffffffffffffffffffffffffffffffffffff1681526020018b815260200184815260200182815260200186600481111561148757fe5b81526020018881526020018a8152509c50505050505050505050505050919050565b60008082840190508381101515156114bd57fe5b8091505092915050565b6000806114fc6064612710026114ee8560c00151866020015161156790919063ffffffff16565b6115a290919063ffffffff16565b90506115158184602001516114a990919063ffffffff16565b915050919050565b60008060006115398460400151866116c790919063ffffffff16565b915061154884608001516115da565b905061155d81836115a290919063ffffffff16565b9250505092915050565b600080600084141561157c576000915061159b565b828402905082848281151561158d57fe5b0414151561159757fe5b8091505b5092915050565b60008082848115156115b057fe5b0490508091505092915050565b60008160020a83600190048115156115d157fe5b04905092915050565b60008060048111156115e857fe5b8260048111156115f457fe5b141561160457610e1090506116c2565b6001600481111561161157fe5b82600481111561161d57fe5b1415611630576018610e100290506116c2565b6002600481111561163d57fe5b82600481111561164957fe5b141561165f5760076018610e10020290506116c2565b6003600481111561166c57fe5b82600481111561167857fe5b141561168e57601e6018610e10020290506116c2565b60048081111561169a57fe5b8260048111156116a657fe5b14156116bd5761016d6018610e10020290506116c2565b600080fd5b919050565b60008282111515156116d557fe5b818303905092915050565b60e060405190810160405280600073ffffffffffffffffffffffffffffffffffffffff1681526020016000815260200160008152602001600081526020016000600481111561172b57fe5b8152602001600081526020016000815250905600a165627a7a7230582015d8c2fa565deace648d986e19b0648d2d92ea39ca6a9f59110808654cfeb02e0029",
  "source": "/*\n\n  Copyright 2017 Dharma Labs Inc.\n\n  Licensed under the Apache License, Version 2.0 (the \"License\");\n  you may not use this file except in compliance with the License.\n  You may obtain a copy of the License at\n\n    http://www.apache.org/licenses/LICENSE-2.0\n\n  Unless required by applicable law or agreed to in writing, software\n  distributed under the License is distributed on an \"AS IS\" BASIS,\n  WITHOUT WARRANTIES OR CONDITIONS OF ANY KIND, either express or implied.\n  See the License for the specific language governing permissions and\n  limitations under the License.\n\n*/\n\npragma solidity 0.4.18;\n\nimport \"zeppelin-solidity/contracts/math/SafeMath.sol\";\n\nimport \"../ContractRegistry.sol\";\n\n\ncontract SimpleInterestTermsContract is TermsContract {\n    using SafeMath for uint;\n\n    enum AmortizationUnitType { HOURS, DAYS, WEEKS, MONTHS, YEARS }\n    uint public constant NUM_AMORTIZATION_UNIT_TYPES = 5;\n\n    struct SimpleInterestParams {\n        address principalTokenAddress;\n        uint principalAmount;\n        uint termStartUnixTimestamp;\n        uint termEndUnixTimestamp;\n        AmortizationUnitType amortizationUnitType;\n        uint termLengthInAmortizationUnits;\n\n        // Given that Solidity does not support floating points, we encode\n        // interest rates as percentages scaled up by a factor of 10,000\n        // As such, interest rates can, at a maximum, have 4 decimal places\n        // of precision.\n        uint interestRate;\n    }\n\n    uint public constant HOUR_LENGTH_IN_SECONDS = 60 * 60;\n    uint public constant DAY_LENGTH_IN_SECONDS = HOUR_LENGTH_IN_SECONDS * 24;\n    uint public constant WEEK_LENGTH_IN_SECONDS = DAY_LENGTH_IN_SECONDS * 7;\n    uint public constant MONTH_LENGTH_IN_SECONDS = DAY_LENGTH_IN_SECONDS * 30;\n    uint public constant YEAR_LENGTH_IN_SECONDS = DAY_LENGTH_IN_SECONDS * 365;\n\n    // To convert an encoded interest rate into its equivalent in percents,\n    // divide it by INTEREST_RATE_SCALING_FACTOR_PERCENT -- e.g.\n    //     10,000 => 1% interest rate\n    uint public constant INTEREST_RATE_SCALING_FACTOR_PERCENT = 10 ** 4;\n    // To convert an encoded interest rate into its equivalent multiplier\n    // (for purposes of calculating total interest), divide it by INTEREST_RATE_SCALING_FACTOR_PERCENT -- e.g.\n    //     10,000 => 0.01 interest multiplier\n    uint public constant INTEREST_RATE_SCALING_FACTOR_MULTIPLIER = INTEREST_RATE_SCALING_FACTOR_PERCENT * 100;\n\n    mapping (bytes32 => uint) public valueRepaid;\n\n    ContractRegistry public contractRegistry;\n\n    event LogSimpleInterestTermStart(\n        bytes32 indexed agreementId,\n        address indexed principalToken,\n        uint principalAmount,\n        uint interestRate,\n        uint indexed amortizationUnitType,\n        uint termLengthInAmortizationUnits\n    );\n\n    event LogRegisterRepayment(\n        bytes32 agreementId,\n        address payer,\n        address beneficiary,\n        uint256 unitsOfRepayment,\n        address tokenAddress\n    );\n\n    modifier onlyRouter() {\n        require(msg.sender == address(contractRegistry.repaymentRouter()));\n        _;\n    }\n\n    modifier onlyMappedToThisContract(bytes32 agreementId) {\n        require(address(this) == contractRegistry.debtRegistry().getTermsContract(agreementId));\n        _;\n    }\n\n    modifier onlyDebtKernel() {\n        require(msg.sender == address(contractRegistry.debtKernel()));\n        _;\n    }\n\n    function SimpleInterestTermsContract(\n        address _contractRegistry\n    )\n        public\n    {\n        contractRegistry = ContractRegistry(_contractRegistry);\n    }\n\n    /// When called, the registerTermStart function registers the fact that\n    ///    the debt agreement has begun.  Given that the SimpleInterestTermsContract\n    ///    doesn't rely on taking any sorts of actions when the loan term begins,\n    ///    we simply validate DebtKernel is the transaction sender, and return\n    ///    `true` if the debt agreement is associated with this terms contract.\n    /// @param  agreementId bytes32. The agreement id (issuance hash) of the debt agreement to which this pertains.\n    /// @param  debtor address. The debtor in this particular issuance.\n    /// @return _success bool. Acknowledgment of whether\n    function registerTermStart(\n        bytes32 agreementId,\n        address debtor\n    )\n        public\n        onlyDebtKernel\n        returns (bool _success)\n    {\n        address termsContract;\n        bytes32 termsContractParameters;\n\n        (termsContract, termsContractParameters) = contractRegistry.debtRegistry().getTerms(agreementId);\n\n        uint principalTokenIndex;\n        uint principalAmount;\n        uint interestRate;\n        uint amortizationUnitType;\n        uint termLengthInAmortizationUnits;\n\n        (principalTokenIndex, principalAmount, interestRate, amortizationUnitType, termLengthInAmortizationUnits) =\n            unpackParametersFromBytes(termsContractParameters);\n\n        address principalTokenAddress =\n            contractRegistry.tokenRegistry().getTokenAddressByIndex(principalTokenIndex);\n\n        // Returns true (i.e. valid) if the specified principal token is valid,\n        // the specified amortization unit type is valid, and the terms contract\n        // associated with the agreement is this one.  We need not check\n        // if any of the other simple interest parameters are valid, because\n        // it is impossible to encode invalid values for them.\n        if (principalTokenAddress != address(0) &&\n            amortizationUnitType < NUM_AMORTIZATION_UNIT_TYPES &&\n            termsContract == address(this)) {\n            LogSimpleInterestTermStart(\n                agreementId,\n                principalTokenAddress,\n                principalAmount,\n                interestRate,\n                amortizationUnitType,\n                termLengthInAmortizationUnits\n            );\n\n            return true;\n        }\n\n        return false;\n    }\n\n     /// When called, the registerRepayment function records the debtor's\n     ///  repayment, as well as any auxiliary metadata needed by the contract\n     ///  to determine ex post facto the value repaid (e.g. current USD\n     ///  exchange rate)\n     /// @param  agreementId bytes32. The agreement id (issuance hash) of the debt agreement to which this pertains.\n     /// @param  payer address. The address of the payer.\n     /// @param  beneficiary address. The address of the payment's beneficiary.\n     /// @param  unitsOfRepayment uint. The units-of-value repaid in the transaction.\n     /// @param  tokenAddress address. The address of the token with which the repayment transaction was executed.\n    function registerRepayment(\n        bytes32 agreementId,\n        address payer,\n        address beneficiary,\n        uint256 unitsOfRepayment,\n        address tokenAddress\n    )\n        public\n        onlyRouter\n        returns (bool _success)\n    {\n        SimpleInterestParams memory params = unpackParamsForAgreementID(agreementId);\n\n        if (tokenAddress == params.principalTokenAddress) {\n            valueRepaid[agreementId] = valueRepaid[agreementId].add(unitsOfRepayment);\n\n            LogRegisterRepayment(\n                agreementId,\n                payer,\n                beneficiary,\n                unitsOfRepayment,\n                tokenAddress\n            );\n\n            return true;\n        }\n\n        return false;\n    }\n\n     /// Returns the cumulative units-of-value expected to be repaid given a block's timestamp.\n     ///  Note this is not a constant function -- this value can vary on basis of any number of\n     ///  conditions (e.g. interest rates can be renegotiated if repayments are delinquent).\n     /// @param  agreementId bytes32. The agreement id (issuance hash) of the debt agreement to which this pertains.\n     /// @param  timestamp uint. The timestamp for which repayment expectation is being queried.\n     /// @return uint256 The cumulative units-of-value expected to be repaid given a block's timestamp.\n    function getExpectedRepaymentValue(\n        bytes32 agreementId,\n        uint256 timestamp\n    )\n        public\n        view\n        onlyMappedToThisContract(agreementId)\n        returns (uint _expectedRepaymentValue)\n    {\n        SimpleInterestParams memory params = unpackParamsForAgreementID(agreementId);\n        uint principalPlusInterest = calculateTotalPrincipalPlusInterest(params);\n\n        if (timestamp <= params.termStartUnixTimestamp) {\n            /* The query occurs before the contract was even initialized so the\n            expected value of repayments is 0. */\n            return 0;\n        } else if (timestamp >= params.termEndUnixTimestamp) {\n            /* the query occurs beyond the contract's term, so the expected\n            value of repayment is the full principal plus interest. */\n            return principalPlusInterest;\n        } else {\n            uint numUnits = numAmortizationUnitsForTimestamp(timestamp, params);\n            return principalPlusInterest.mul(numUnits).div(params.termLengthInAmortizationUnits);\n        }\n    }\n\n     /// Returns the cumulative units-of-value repaid to date.\n     /// @param agreementId bytes32. The agreement id (issuance hash) of the debt agreement to which this pertains.\n     /// @return uint256 The cumulative units-of-value repaid by the specified block timestamp.\n    function getValueRepaidToDate(bytes32 agreementId)\n        public\n        view\n        returns (uint _valueRepaid)\n    {\n        return valueRepaid[agreementId];\n    }\n\n    function unpackParametersFromBytes(bytes32 parameters)\n        public\n        pure\n        returns (\n            uint _principalTokenIndex,\n            uint _principalAmount,\n            uint _interestRate,\n            uint _amortizationUnitType,\n            uint _termLengthInAmortizationUnits\n        )\n    {\n        // The first byte of the parameters encodes the principal token's index in the\n        // token registry.\n        bytes32 principalTokenIndexShifted =\n            parameters & 0xff00000000000000000000000000000000000000000000000000000000000000;\n        // The subsequent 12 bytes of the parameters encode the principal amount.\n        bytes32 principalAmountShifted =\n            parameters & 0x00ffffffffffffffffffffffff00000000000000000000000000000000000000;\n        // The subsequent 3 bytes of the parameters encode the interest rate.\n        bytes32 interestRateShifted =\n            parameters & 0x00000000000000000000000000ffffff00000000000000000000000000000000;\n        // The subsequent 4 bits (half byte) encode the amortization unit type code.\n        bytes32 amortizationUnitTypeShifted =\n            parameters & 0x00000000000000000000000000000000f0000000000000000000000000000000;\n        // The subsequent 2 bytes encode the term length, as denominated in\n        // the encoded amortization unit.\n        bytes32 termLengthInAmortizationUnitsShifted =\n            parameters & 0x000000000000000000000000000000000ffff000000000000000000000000000;\n\n        // Note that the remaining 108 bits are reserved for any parameters relevant to a\n        // collateralized terms contracts.\n\n        /*\n        We then bit shift left each of these values so that the 32-byte uint\n        counterpart correctly represents the value that was originally packed\n        into the 32 byte string.\n\n        The below chart summarizes where in the 32 byte string each value\n        terminates -- which indicates the extent to which each value must be bit\n        shifted left.\n\n                                        Location (bytes)\tLocation (bits)\n                                        32                  256\n        principalTokenIndex\t            31\t                248\n        principalAmount\t                19                  152\n        interestRate                    16                  128\n        amortizationUnitType            15.5                124\n        termLengthInAmortizationUnits   13.5                108\n        */\n        return (\n            bitShiftRight(principalTokenIndexShifted, 248),\n            bitShiftRight(principalAmountShifted, 152),\n            bitShiftRight(interestRateShifted, 128),\n            bitShiftRight(amortizationUnitTypeShifted, 124),\n            bitShiftRight(termLengthInAmortizationUnitsShifted, 108)\n        );\n    }\n\n    function getTermEndTimestamp(\n        bytes32 _agreementId\n    ) public view returns (uint)\n    {\n        SimpleInterestParams memory params = unpackParamsForAgreementID(_agreementId);\n\n        return params.termEndUnixTimestamp;\n    }\n\n    function bitShiftRight(bytes32 value, uint amount)\n        internal\n        pure\n        returns (uint)\n    {\n        return uint(value) / 2 ** amount;\n    }\n\n    function numAmortizationUnitsForTimestamp(\n        uint timestamp,\n        SimpleInterestParams params\n    )\n        internal\n        returns (uint units)\n    {\n        uint delta = timestamp.sub(params.termStartUnixTimestamp);\n        uint amortizationUnitLengthInSeconds = getAmortizationUnitLengthInSeconds(params.amortizationUnitType);\n        return delta.div(amortizationUnitLengthInSeconds);\n    }\n\n    /**\n     * Calculates the total repayment value expected at the end of the loan's term.\n     *\n     * This computation assumes that interest is paid per amortization period.\n     *\n     * @param params SimpleInterestParams. The parameters that define the simple interest loan.\n     * @return uint The total repayment value expected at the end of the loan's term.\n     */\n    function calculateTotalPrincipalPlusInterest(\n        SimpleInterestParams params\n    )\n        internal\n        returns (uint _principalPlusInterest)\n    {\n        // Since we represent decimal interest rates using their\n        // scaled-up, fixed point representation, we have to\n        // downscale the result of the interest payment computation\n        // by the multiplier scaling factor we choose for interest rates.\n        uint totalInterest = params.principalAmount\n            .mul(params.interestRate)\n            .div(INTEREST_RATE_SCALING_FACTOR_MULTIPLIER);\n\n        return params.principalAmount.add(totalInterest);\n    }\n\n    function unpackParamsForAgreementID(\n        bytes32 agreementId\n    )\n        internal\n        returns (SimpleInterestParams params)\n    {\n        bytes32 parameters = contractRegistry.debtRegistry().getTermsContractParameters(agreementId);\n\n        // Index of the token used for principal payments in the Token Registry\n        uint principalTokenIndex;\n        // The principal amount denominated in the aforementioned token.\n        uint principalAmount;\n        // The interest rate accrued per amortization unit.\n        uint interestRate;\n        // The amortization unit in which the repayments installments schedule is defined.\n        uint rawAmortizationUnitType;\n        // The debt's entire term's length, denominated in the aforementioned amortization units\n        uint termLengthInAmortizationUnits;\n\n        (principalTokenIndex, principalAmount, interestRate, rawAmortizationUnitType, termLengthInAmortizationUnits) =\n            unpackParametersFromBytes(parameters);\n\n        address principalTokenAddress =\n            contractRegistry.tokenRegistry().getTokenAddressByIndex(principalTokenIndex);\n\n        // Ensure that the encoded principal token address is valid\n        require(principalTokenAddress != address(0));\n\n        // Before we cast to `AmortizationUnitType`, ensure that the raw value being stored is valid.\n        require(rawAmortizationUnitType <= uint(AmortizationUnitType.YEARS));\n\n        AmortizationUnitType amortizationUnitType = AmortizationUnitType(rawAmortizationUnitType);\n\n        uint amortizationUnitLengthInSeconds =\n            getAmortizationUnitLengthInSeconds(amortizationUnitType);\n        uint issuanceBlockTimestamp =\n            contractRegistry.debtRegistry().getIssuanceBlockTimestamp(agreementId);\n        uint termLengthInSeconds =\n            termLengthInAmortizationUnits.mul(amortizationUnitLengthInSeconds);\n        uint termEndUnixTimestamp =\n            termLengthInSeconds.add(issuanceBlockTimestamp);\n\n        return SimpleInterestParams({\n            principalTokenAddress: principalTokenAddress,\n            principalAmount: principalAmount,\n            interestRate: interestRate,\n            termStartUnixTimestamp: issuanceBlockTimestamp,\n            termEndUnixTimestamp: termEndUnixTimestamp,\n            amortizationUnitType: amortizationUnitType,\n            termLengthInAmortizationUnits: termLengthInAmortizationUnits\n        });\n    }\n\n    function getAmortizationUnitLengthInSeconds(AmortizationUnitType amortizationUnitType)\n        internal\n        pure\n        returns (uint _amortizationUnitLengthInSeconds)\n    {\n        if (amortizationUnitType == AmortizationUnitType.HOURS) {\n            return HOUR_LENGTH_IN_SECONDS;\n        } else if (amortizationUnitType == AmortizationUnitType.DAYS) {\n            return DAY_LENGTH_IN_SECONDS;\n        } else if (amortizationUnitType == AmortizationUnitType.WEEKS) {\n            return WEEK_LENGTH_IN_SECONDS;\n        } else if (amortizationUnitType == AmortizationUnitType.MONTHS) {\n            return MONTH_LENGTH_IN_SECONDS;\n        } else if (amortizationUnitType == AmortizationUnitType.YEARS) {\n            return YEAR_LENGTH_IN_SECONDS;\n        } else {\n            revert();\n        }\n    }\n}\n",
  "sourcePath": "/Users/chrismin/Documents/dev/dharma/charta/contracts/examples/SimpleInterestTermsContract.sol",
  "compiler": {
    "name": "solc",
    "version": "0.4.18+commit.9cf6e910.Emscripten.clang"
  },
  "schemaVersion": "1.0.1",
  "updatedAt": "2018-07-24T01:55:45.014Z"
}