{
  "contractName": "TermsContractRegistry",
  "abi": [
    {
      "constant": false,
      "inputs": [
        {
          "name": "tokenAddress",
          "type": "address"
        },
        {
          "name": "termsContract",
          "type": "address"
        }
      ],
      "name": "setCompoundInterestTermsContractAddress",
      "outputs": [],
      "payable": false,
      "stateMutability": "nonpayable",
      "type": "function"
    },
    {
      "constant": false,
      "inputs": [
        {
          "name": "tokenAddress",
          "type": "address"
        },
        {
          "name": "termsContract",
          "type": "address"
        }
      ],
      "name": "setSimpleInterestTermsContractAddress",
      "outputs": [],
      "payable": false,
      "stateMutability": "nonpayable",
      "type": "function"
    },
    {
      "constant": true,
      "inputs": [
        {
          "name": "tokenAddress",
          "type": "address"
        }
      ],
      "name": "getCompoundInterestTermsContractAddress",
      "outputs": [
        {
          "name": "",
          "type": "address"
        }
      ],
      "payable": false,
      "stateMutability": "view",
      "type": "function"
    },
    {
      "constant": true,
      "inputs": [
        {
          "name": "tokenAddress",
          "type": "address"
        }
      ],
      "name": "getSimpleInterestTermsContractAddress",
      "outputs": [
        {
          "name": "",
          "type": "address"
        }
      ],
      "payable": false,
      "stateMutability": "view",
      "type": "function"
    },
    {
      "constant": true,
      "inputs": [
        {
          "name": "",
          "type": "bytes32"
        }
      ],
      "name": "symbolToTermsContractAddress",
      "outputs": [
        {
          "name": "",
          "type": "address"
        }
      ],
      "payable": false,
      "stateMutability": "view",
      "type": "function"
    }
  ],
  "bytecode": "0x6060604052341561000f57600080fd5b6105fc8061001e6000396000f30060606040526004361061006d576000357c0100000000000000000000000000000000000000000000000000000000900463ffffffff168063092bf7b7146100725780631ad43dc0146100ca578063281ad757146101225780636ae369c11461019b5780639ef3daf614610214575b600080fd5b341561007d57600080fd5b6100c8600480803573ffffffffffffffffffffffffffffffffffffffff1690602001909190803573ffffffffffffffffffffffffffffffffffffffff1690602001909190505061027b565b005b34156100d557600080fd5b610120600480803573ffffffffffffffffffffffffffffffffffffffff1690602001909190803573ffffffffffffffffffffffffffffffffffffffff16906020019091905050610350565b005b341561012d57600080fd5b610159600480803573ffffffffffffffffffffffffffffffffffffffff16906020019091905050610425565b604051808273ffffffffffffffffffffffffffffffffffffffff1673ffffffffffffffffffffffffffffffffffffffff16815260200191505060405180910390f35b34156101a657600080fd5b6101d2600480803573ffffffffffffffffffffffffffffffffffffffff169060200190919050506104e1565b604051808273ffffffffffffffffffffffffffffffffffffffff1673ffffffffffffffffffffffffffffffffffffffff16815260200191505060405180910390f35b341561021f57600080fd5b61023960048080356000191690602001909190505061059d565b604051808273ffffffffffffffffffffffffffffffffffffffff1673ffffffffffffffffffffffffffffffffffffffff16815260200191505060405180910390f35b8060008084604051808273ffffffffffffffffffffffffffffffffffffffff1673ffffffffffffffffffffffffffffffffffffffff166c01000000000000000000000000028152601401807f436f6d706f756e64496e7465726573745465726d73436f6e7472616374000000815250601d0191505060405180910390206000191660001916815260200190815260200160002060006101000a81548173ffffffffffffffffffffffffffffffffffffffff021916908373ffffffffffffffffffffffffffffffffffffffff1602179055505050565b8060008084604051808273ffffffffffffffffffffffffffffffffffffffff1673ffffffffffffffffffffffffffffffffffffffff166c01000000000000000000000000028152601401807f53696d706c65496e7465726573745465726d73436f6e74726163740000000000815250601b0191505060405180910390206000191660001916815260200190815260200160002060006101000a81548173ffffffffffffffffffffffffffffffffffffffff021916908373ffffffffffffffffffffffffffffffffffffffff1602179055505050565b600080600083604051808273ffffffffffffffffffffffffffffffffffffffff1673ffffffffffffffffffffffffffffffffffffffff166c01000000000000000000000000028152601401807f436f6d706f756e64496e7465726573745465726d73436f6e7472616374000000815250601d0191505060405180910390206000191660001916815260200190815260200160002060009054906101000a900473ffffffffffffffffffffffffffffffffffffffff169050919050565b600080600083604051808273ffffffffffffffffffffffffffffffffffffffff1673ffffffffffffffffffffffffffffffffffffffff166c01000000000000000000000000028152601401807f53696d706c65496e7465726573745465726d73436f6e74726163740000000000815250601b0191505060405180910390206000191660001916815260200190815260200160002060009054906101000a900473ffffffffffffffffffffffffffffffffffffffff169050919050565b60006020528060005260406000206000915054906101000a900473ffffffffffffffffffffffffffffffffffffffff16815600a165627a7a7230582005ba9e45f691f612d7cd477f5585d35294380e724653eb55ae5cee7b083449e20029",
  "source": "pragma solidity 0.4.18;\n\n\ncontract TermsContractRegistry {\n    mapping (bytes32 => address) public symbolToTermsContractAddress;\n\n    function setSimpleInterestTermsContractAddress(\n        address tokenAddress,\n        address termsContract\n    )\n        public\n    {\n        symbolToTermsContractAddress[keccak256(\n            tokenAddress,\n            \"SimpleInterestTermsContract\"\n        )] = termsContract;\n    }\n\n    function getSimpleInterestTermsContractAddress(\n        address tokenAddress\n    )\n        public\n        view\n        returns (address)\n    {\n        return symbolToTermsContractAddress[keccak256(\n            tokenAddress,\n            \"SimpleInterestTermsContract\"\n        )];\n    }\n\n    function setCompoundInterestTermsContractAddress(\n        address tokenAddress,\n        address termsContract\n    )\n        public\n    {\n        symbolToTermsContractAddress[keccak256(\n            tokenAddress,\n            \"CompoundInterestTermsContract\"\n        )] = termsContract;\n    }\n\n    function getCompoundInterestTermsContractAddress(\n        address tokenAddress\n    )\n        public\n        view\n        returns (address)\n    {\n        return symbolToTermsContractAddress[keccak256(\n            tokenAddress,\n            \"CompoundInterestTermsContract\"\n        )];\n    }\n}\n",
  "sourcePath": "/Users/nadavhollander/Documents/Dharma/Development/charta/contracts/examples/TermsContractRegistry.sol",
  "compiler": {
    "name": "solc",
    "version": "0.4.18+commit.9cf6e910.Emscripten.clang"
  },
  "schemaVersion": "1.0.1",
  "updatedAt": "2018-03-19T22:49:37.113Z"
}