{
  "contractName": "TokenTransferProxy",
  "abi": [
    {
      "constant": false,
      "inputs": [
        {
          "name": "_agent",
          "type": "address"
        }
      ],
      "name": "addAuthorizedTransferAgent",
      "outputs": [],
      "payable": false,
      "stateMutability": "nonpayable",
      "type": "function"
    },
    {
      "constant": false,
      "inputs": [
        {
          "name": "_token",
          "type": "address"
        },
        {
          "name": "_from",
          "type": "address"
        },
        {
          "name": "_to",
          "type": "address"
        },
        {
          "name": "_amount",
          "type": "uint256"
        }
      ],
      "name": "transferFrom",
      "outputs": [
        {
          "name": "_success",
          "type": "bool"
        }
      ],
      "payable": false,
      "stateMutability": "nonpayable",
      "type": "function"
    },
    {
      "constant": true,
      "inputs": [],
      "name": "CONTEXT",
      "outputs": [
        {
          "name": "",
          "type": "string"
        }
      ],
      "payable": false,
      "stateMutability": "view",
      "type": "function"
    },
    {
      "constant": false,
      "inputs": [],
      "name": "unpause",
      "outputs": [],
      "payable": false,
      "stateMutability": "nonpayable",
      "type": "function"
    },
    {
      "constant": true,
      "inputs": [],
      "name": "paused",
      "outputs": [
        {
          "name": "",
          "type": "bool"
        }
      ],
      "payable": false,
      "stateMutability": "view",
      "type": "function"
    },
    {
      "constant": false,
      "inputs": [],
      "name": "pause",
      "outputs": [],
      "payable": false,
      "stateMutability": "nonpayable",
      "type": "function"
    },
    {
      "constant": true,
      "inputs": [],
      "name": "owner",
      "outputs": [
        {
          "name": "",
          "type": "address"
        }
      ],
      "payable": false,
      "stateMutability": "view",
      "type": "function"
    },
    {
      "constant": false,
      "inputs": [
        {
          "name": "_agent",
          "type": "address"
        }
      ],
      "name": "revokeTransferAgentAuthorization",
      "outputs": [],
      "payable": false,
      "stateMutability": "nonpayable",
      "type": "function"
    },
    {
      "constant": true,
      "inputs": [],
      "name": "getAuthorizedTransferAgents",
      "outputs": [
        {
          "name": "authorizedAgents",
          "type": "address[]"
        }
      ],
      "payable": false,
      "stateMutability": "view",
      "type": "function"
    },
    {
      "constant": false,
      "inputs": [
        {
          "name": "newOwner",
          "type": "address"
        }
      ],
      "name": "transferOwnership",
      "outputs": [],
      "payable": false,
      "stateMutability": "nonpayable",
      "type": "function"
    },
    {
      "anonymous": false,
      "inputs": [
        {
          "indexed": true,
          "name": "agent",
          "type": "address"
        },
        {
          "indexed": false,
          "name": "callingContext",
          "type": "string"
        }
      ],
      "name": "Authorized",
      "type": "event"
    },
    {
      "anonymous": false,
      "inputs": [
        {
          "indexed": true,
          "name": "agent",
          "type": "address"
        },
        {
          "indexed": false,
          "name": "callingContext",
          "type": "string"
        }
      ],
      "name": "AuthorizationRevoked",
      "type": "event"
    },
    {
      "anonymous": false,
      "inputs": [],
      "name": "Pause",
      "type": "event"
    },
    {
      "anonymous": false,
      "inputs": [],
      "name": "Unpause",
      "type": "event"
    },
    {
      "anonymous": false,
      "inputs": [
        {
          "indexed": true,
          "name": "previousOwner",
          "type": "address"
        },
        {
          "indexed": true,
          "name": "newOwner",
          "type": "address"
        }
      ],
      "name": "OwnershipTransferred",
      "type": "event"
    }
  ],
  "bytecode": "0x606060405260008060146101000a81548160ff021916908315150217905550336000806101000a81548173ffffffffffffffffffffffffffffffffffffffff021916908373ffffffffffffffffffffffffffffffffffffffff160217905550610ff78061006d6000396000f3006060604052600436106100a4576000357c0100000000000000000000000000000000000000000000000000000000900463ffffffff1680630a8f7b52146100a957806315dacbea146100e25780632e667c4e1461017a5780633f4ba83a146102085780635c975abb1461021d5780638456cb591461024a5780638da5cb5b1461025f57806394ae6e71146102b45780639c200302146102ed578063f2fde38b14610357575b600080fd5b34156100b457600080fd5b6100e0600480803573ffffffffffffffffffffffffffffffffffffffff16906020019091905050610390565b005b34156100ed57600080fd5b610160600480803573ffffffffffffffffffffffffffffffffffffffff1690602001909190803573ffffffffffffffffffffffffffffffffffffffff1690602001909190803573ffffffffffffffffffffffffffffffffffffffff16906020019091908035906020019091905050610439565b604051808215151515815260200191505060405180910390f35b341561018557600080fd5b61018d61055e565b6040518080602001828103825283818151815260200191508051906020019080838360005b838110156101cd5780820151818401526020810190506101b2565b50505050905090810190601f1680156101fa5780820380516001836020036101000a031916815260200191505b509250505060405180910390f35b341561021357600080fd5b61021b610597565b005b341561022857600080fd5b610230610655565b604051808215151515815260200191505060405180910390f35b341561025557600080fd5b61025d610668565b005b341561026a57600080fd5b610272610728565b604051808273ffffffffffffffffffffffffffffffffffffffff1673ffffffffffffffffffffffffffffffffffffffff16815260200191505060405180910390f35b34156102bf57600080fd5b6102eb600480803573ffffffffffffffffffffffffffffffffffffffff1690602001909190505061074d565b005b34156102f857600080fd5b6103006107f6565b6040518080602001828103825283818151815260200191508051906020019060200280838360005b83811015610343578082015181840152602081019050610328565b505050509050019250505060405180910390f35b341561036257600080fd5b61038e600480803573ffffffffffffffffffffffffffffffffffffffff1690602001909190505061080d565b005b6000809054906101000a900473ffffffffffffffffffffffffffffffffffffffff1673ffffffffffffffffffffffffffffffffffffffff163373ffffffffffffffffffffffffffffffffffffffff161415156103eb57600080fd5b610436816040805190810160405280601481526020017f746f6b656e2d7472616e736665722d70726f787900000000000000000000000081525060016109629092919063ffffffff16565b50565b600061044f336001610b3e90919063ffffffff16565b151561045a57600080fd5b8473ffffffffffffffffffffffffffffffffffffffff166323b872dd8585856000604051602001526040518463ffffffff167c0100000000000000000000000000000000000000000000000000000000028152600401808473ffffffffffffffffffffffffffffffffffffffff1673ffffffffffffffffffffffffffffffffffffffff1681526020018373ffffffffffffffffffffffffffffffffffffffff1673ffffffffffffffffffffffffffffffffffffffff1681526020018281526020019350505050602060405180830381600087803b151561053957600080fd5b6102c65a03f1151561054a57600080fd5b505050604051805190509050949350505050565b6040805190810160405280601481526020017f746f6b656e2d7472616e736665722d70726f787900000000000000000000000081525081565b6000809054906101000a900473ffffffffffffffffffffffffffffffffffffffff1673ffffffffffffffffffffffffffffffffffffffff163373ffffffffffffffffffffffffffffffffffffffff161415156105f257600080fd5b600060149054906101000a900460ff16151561060d57600080fd5b60008060146101000a81548160ff0219169083151502179055507f7805862f689e2f13df9f062ff482ad3ad112aca9e0847911ed832e158c525b3360405160405180910390a1565b600060149054906101000a900460ff1681565b6000809054906101000a900473ffffffffffffffffffffffffffffffffffffffff1673ffffffffffffffffffffffffffffffffffffffff163373ffffffffffffffffffffffffffffffffffffffff161415156106c357600080fd5b600060149054906101000a900460ff161515156106df57600080fd5b6001600060146101000a81548160ff0219169083151502179055507f6985a02210a168e66602d3235cb6db0e70f92b3ba4d376a33c0f3d9434bff62560405160405180910390a1565b6000809054906101000a900473ffffffffffffffffffffffffffffffffffffffff1681565b6000809054906101000a900473ffffffffffffffffffffffffffffffffffffffff1673ffffffffffffffffffffffffffffffffffffffff163373ffffffffffffffffffffffffffffffffffffffff161415156107a857600080fd5b6107f3816040805190810160405280601481526020017f746f6b656e2d7472616e736665722d70726f78790000000000000000000000008152506001610b979092919063ffffffff16565b50565b6107fe610f3a565b6108086001610e8d565b905090565b6000809054906101000a900473ffffffffffffffffffffffffffffffffffffffff1673ffffffffffffffffffffffffffffffffffffffff163373ffffffffffffffffffffffffffffffffffffffff1614151561086857600080fd5b600073ffffffffffffffffffffffffffffffffffffffff168173ffffffffffffffffffffffffffffffffffffffff16141515156108a457600080fd5b8073ffffffffffffffffffffffffffffffffffffffff166000809054906101000a900473ffffffffffffffffffffffffffffffffffffffff1673ffffffffffffffffffffffffffffffffffffffff167f8be0079c531659141344cd1fd0a4f28419497f9722a3daafe3b4186f6b6457e060405160405180910390a3806000806101000a81548173ffffffffffffffffffffffffffffffffffffffff021916908373ffffffffffffffffffffffffffffffffffffffff16021790555050565b61096c8383610f25565b151561097757600080fd5b60018360000160008473ffffffffffffffffffffffffffffffffffffffff1673ffffffffffffffffffffffffffffffffffffffff16815260200190815260200160002060006101000a81548160ff0219169083151502179055508260020180548060010182816109e79190610f4e565b9160005260206000209001600084909190916101000a81548173ffffffffffffffffffffffffffffffffffffffff021916908373ffffffffffffffffffffffffffffffffffffffff1602179055505060018360020180549050038360010160008473ffffffffffffffffffffffffffffffffffffffff1673ffffffffffffffffffffffffffffffffffffffff168152602001908152602001600020819055508173ffffffffffffffffffffffffffffffffffffffff167f571925c699f9072cec76b6c6c000571cc8d0bb5c47e5819202e2e9496c6508b5826040518080602001828103825283818151815260200191508051906020019080838360005b83811015610aff578082015181840152602081019050610ae4565b50505050905090810190601f168015610b2c5780820380516001836020036101000a031916815260200191505b509250505060405180910390a2505050565b60008260000160008373ffffffffffffffffffffffffffffffffffffffff1673ffffffffffffffffffffffffffffffffffffffff16815260200190815260200160002060009054906101000a900460ff16905092915050565b6000806000610ba68686610b3e565b1515610bb157600080fd5b8560010160008673ffffffffffffffffffffffffffffffffffffffff1673ffffffffffffffffffffffffffffffffffffffff168152602001908152602001600020549250600186600201805490500391508560020182815481101515610c1357fe5b906000526020600020900160009054906101000a900473ffffffffffffffffffffffffffffffffffffffff1690508560000160008673ffffffffffffffffffffffffffffffffffffffff1673ffffffffffffffffffffffffffffffffffffffff16815260200190815260200160002060006101000a81549060ff0219169055808660020184815481101515610ca457fe5b906000526020600020900160006101000a81548173ffffffffffffffffffffffffffffffffffffffff021916908373ffffffffffffffffffffffffffffffffffffffff160217905550828660010160008373ffffffffffffffffffffffffffffffffffffffff1673ffffffffffffffffffffffffffffffffffffffff168152602001908152602001600020819055508560010160008673ffffffffffffffffffffffffffffffffffffffff1673ffffffffffffffffffffffffffffffffffffffff168152602001908152602001600020600090558560020182815481101515610d8957fe5b906000526020600020900160006101000a81549073ffffffffffffffffffffffffffffffffffffffff021916905560018660020181818054905003915081610dd19190610f7a565b508473ffffffffffffffffffffffffffffffffffffffff167f0814e4ee85854cea446b4a27a460e5ffb41516230dbc02f226c07907e432241c856040518080602001828103825283818151815260200191508051906020019080838360005b83811015610e4b578082015181840152602081019050610e30565b50505050905090810190601f168015610e785780820380516001836020036101000a031916815260200191505b509250505060405180910390a2505050505050565b610e95610f3a565b81600201805480602002602001604051908101604052809291908181526020018280548015610f1957602002820191906000526020600020905b8160009054906101000a900473ffffffffffffffffffffffffffffffffffffffff1673ffffffffffffffffffffffffffffffffffffffff1681526020019060010190808311610ecf575b50505050509050919050565b6000610f318383610b3e565b15905092915050565b602060405190810160405280600081525090565b815481835581811511610f7557818360005260206000209182019101610f749190610fa6565b5b505050565b815481835581811511610fa157818360005260206000209182019101610fa09190610fa6565b5b505050565b610fc891905b80821115610fc4576000816000905550600101610fac565b5090565b905600a165627a7a72305820383d85b95b8eb7fcd8d360f3a320d02a110cad60dc66987b14a9756d2c5bcc610029",
  "source": "/*\n\n  Copyright 2017 Dharma Labs Inc.\n\n  Licensed under the Apache License, Version 2.0 (the \"License\");\n  you may not use this file except in compliance with the License.\n  You may obtain a copy of the License at\n\n    http://www.apache.org/licenses/LICENSE-2.0\n\n  Unless required by applicable law or agreed to in writing, software\n  distributed under the License is distributed on an \"AS IS\" BASIS,\n  WITHOUT WARRANTIES OR CONDITIONS OF ANY KIND, either express or implied.\n  See the License for the specific language governing permissions and\n  limitations under the License.\n\n*/\n\npragma solidity 0.4.18;\n\nimport \"./DebtRegistry.sol\";\nimport { PermissionsLib, PermissionEvents } from \"./libraries/PermissionsLib.sol\";\nimport \"zeppelin-solidity/contracts/lifecycle/Pausable.sol\";\nimport \"zeppelin-solidity/contracts/token/ERC20/ERC20.sol\";\n\n\n/**\n * The TokenTransferProxy is a proxy contract for transfering principal\n * and fee payments and repayments between agents and keepers in the Dharma\n * ecosystem.  It is decoupled from the DebtKernel in order to make upgrades to the\n * protocol contracts smoother -- if the DebtKernel or RepyamentRouter is upgraded to a new contract,\n * creditors will not have to grant new transfer approvals to a new contract's address.\n *\n * Author: Nadav Hollander -- Github: nadavhollander\n */\ncontract TokenTransferProxy is Pausable, PermissionEvents {\n    using PermissionsLib for PermissionsLib.Permissions;\n\n    PermissionsLib.Permissions internal tokenTransferPermissions;\n\n    string public constant CONTEXT = \"token-transfer-proxy\";\n\n    /**\n     * Add address to list of agents authorized to initiate `transferFrom` calls\n     */\n    function addAuthorizedTransferAgent(address _agent)\n        public\n        onlyOwner\n    {\n        tokenTransferPermissions.authorize(_agent, CONTEXT);\n    }\n\n    /**\n     * Remove address from list of agents authorized to initiate `transferFrom` calls\n     */\n    function revokeTransferAgentAuthorization(address _agent)\n        public\n        onlyOwner\n    {\n        tokenTransferPermissions.revokeAuthorization(_agent, CONTEXT);\n    }\n\n    /**\n     * Return list of agents authorized to initiate `transferFrom` calls\n     */\n    function getAuthorizedTransferAgents()\n        public\n        view\n        returns (address[] authorizedAgents)\n    {\n        return tokenTransferPermissions.getAuthorizedAgents();\n    }\n\n    /**\n     * Transfer specified token amount from _from address to _to address on give token\n     */\n    function transferFrom(\n        address _token,\n        address _from,\n        address _to,\n        uint _amount\n    )\n        public\n        returns (bool _success)\n    {\n        require(tokenTransferPermissions.isAuthorized(msg.sender));\n\n        return ERC20(_token).transferFrom(_from, _to, _amount);\n    }\n}\n",
  "sourcePath": "/Users/graemeboy/Dharma/charta/contracts/TokenTransferProxy.sol",
  "compiler": {
    "name": "solc",
    "version": "0.4.18+commit.9cf6e910.Emscripten.clang"
  },
  "schemaVersion": "1.0.1",
  "updatedAt": "2018-08-26T18:11:48.441Z"
}