{
  "contractName": "TokenRegistry",
  "abi": [
    {
      "constant": false,
      "inputs": [
        {
          "name": "symbol",
          "type": "string"
        },
        {
          "name": "token",
          "type": "address"
        }
      ],
      "name": "setTokenAddress",
      "outputs": [],
      "payable": false,
      "stateMutability": "nonpayable",
      "type": "function"
    },
    {
      "constant": true,
      "inputs": [
        {
          "name": "",
          "type": "bytes32"
        }
      ],
      "name": "symbolToTokenAddress",
      "outputs": [
        {
          "name": "",
          "type": "address"
        }
      ],
      "payable": false,
      "stateMutability": "view",
      "type": "function"
    },
    {
      "constant": true,
      "inputs": [
        {
          "name": "symbol",
          "type": "string"
        }
      ],
      "name": "getTokenAddressBySymbol",
      "outputs": [
        {
          "name": "",
          "type": "address"
        }
      ],
      "payable": false,
      "stateMutability": "view",
      "type": "function"
    },
    {
      "constant": true,
      "inputs": [
        {
          "name": "index",
          "type": "uint256"
        }
      ],
      "name": "getTokenAddressByIndex",
      "outputs": [
        {
          "name": "",
          "type": "address"
        }
      ],
      "payable": false,
      "stateMutability": "view",
      "type": "function"
    },
    {
      "constant": true,
      "inputs": [
        {
          "name": "newOwner",
          "type": "address"
        }
      ],
      "name": "tokenSymbolHashListLength",
      "outputs": [
        {
          "name": "",
          "type": "uint8"
        }
      ],
      "payable": false,
      "stateMutability": "view",
      "type": "function"
    },
    {
      "anonymous": false,
      "inputs": [
        {
          "indexed": true,
          "name": "previousOwner",
          "type": "address"
        },
        {
          "indexed": true,
          "name": "newOwner",
          "type": "address"
        }
      ],
      "name": "owner",
      "type": "function",
      "constant": true,
      "outputs": [
        {
          "name": "",
          "type": "address"
        }
      ],
      "payable": false,
      "stateMutability": "view"
    },
    {
      "constant": true,
      "inputs": [
        {
          "name": "",
          "type": "uint256"
        }
      ],
      "name": "tokenSymbolHashList",
      "outputs": [
        {
          "name": "",
          "type": "bytes32"
        }
      ],
      "payable": false,
      "stateMutability": "view",
      "type": "function"
    },
    {
      "constant": false,
      "inputs": [
        {
          "name": "newOwner",
          "type": "address"
        }
      ],
      "name": "transferOwnership",
      "outputs": [],
      "payable": false,
      "stateMutability": "nonpayable",
      "type": "function"
    },
    {
      "anonymous": false,
      "inputs": [
        {
          "indexed": true,
          "name": "previousOwner",
          "type": "address"
        },
        {
          "indexed": true,
          "name": "newOwner",
          "type": "address"
        }
      ],
      "name": "OwnershipTransferred",
      "type": "event"
    }
  ],
  "bytecode": "0x6060604052336000806101000a81548173ffffffffffffffffffffffffffffffffffffffff021916908373ffffffffffffffffffffffffffffffffffffffff16021790555061088c806100536000396000f30060606040526004361061008e576000357c0100000000000000000000000000000000000000000000000000000000900463ffffffff16806317456e5614610093578063202b96881461010f5780633550b6d9146101765780635715c5b714610213578063658f8d66146102765780638da5cb5b146102a5578063b1d4bc1b146102fa578063f2fde38b14610339575b600080fd5b341561009e57600080fd5b61010d600480803590602001908201803590602001908080601f0160208091040260200160405190810160405280939291908181526020018383808284378201915050505050509190803573ffffffffffffffffffffffffffffffffffffffff16906020019091905050610372565b005b341561011a57600080fd5b610134600480803560001916906020019091905050610587565b604051808273ffffffffffffffffffffffffffffffffffffffff1673ffffffffffffffffffffffffffffffffffffffff16815260200191505060405180910390f35b341561018157600080fd5b6101d1600480803590602001908201803590602001908080601f016020809104026020016040519081016040528093929190818152602001838380828437820191505050505050919050506105ba565b604051808273ffffffffffffffffffffffffffffffffffffffff1673ffffffffffffffffffffffffffffffffffffffff16815260200191505060405180910390f35b341561021e57600080fd5b6102346004808035906020019091905050610661565b604051808273ffffffffffffffffffffffffffffffffffffffff1673ffffffffffffffffffffffffffffffffffffffff16815260200191505060405180910390f35b341561028157600080fd5b6102896106b7565b604051808260ff1660ff16815260200191505060405180910390f35b34156102b057600080fd5b6102b86106cb565b604051808273ffffffffffffffffffffffffffffffffffffffff1673ffffffffffffffffffffffffffffffffffffffff16815260200191505060405180910390f35b341561030557600080fd5b61031b60048080359060200190919050506106f0565b60405180826000191660001916815260200191505060405180910390f35b341561034457600080fd5b610370600480803573ffffffffffffffffffffffffffffffffffffffff1690602001909190505061070b565b005b60008060009054906101000a900473ffffffffffffffffffffffffffffffffffffffff1673ffffffffffffffffffffffffffffffffffffffff163373ffffffffffffffffffffffffffffffffffffffff161415156103cf57600080fd5b61010061010260009054906101000a900460ff1660ff161015156103f257600080fd5b826040518082805190602001908083835b6020831015156104285780518252602082019150602081019050602083039250610403565b6001836020036101000a03801982511681845116808217855250505050505090500191505060405180910390209050600073ffffffffffffffffffffffffffffffffffffffff1660016000836000191660001916815260200190815260200160002060009054906101000a900473ffffffffffffffffffffffffffffffffffffffff1673ffffffffffffffffffffffffffffffffffffffff1614156105285780600261010260009054906101000a900460ff1660ff16610100811015156104eb57fe5b018160001916905550610102600081819054906101000a900460ff168092919060010191906101000a81548160ff021916908360ff160217905550505b8160016000836000191660001916815260200190815260200160002060006101000a81548173ffffffffffffffffffffffffffffffffffffffff021916908373ffffffffffffffffffffffffffffffffffffffff160217905550505050565b60016020528060005260406000206000915054906101000a900473ffffffffffffffffffffffffffffffffffffffff1681565b600060016000836040518082805190602001908083835b6020831015156105f657805182526020820191506020810190506020830392506105d1565b6001836020036101000a03801982511681845116808217855250505050505090500191505060405180910390206000191660001916815260200190815260200160002060009054906101000a900473ffffffffffffffffffffffffffffffffffffffff169050919050565b6000600160006002846101008110151561067757fe5b01546000191660001916815260200190815260200160002060009054906101000a900473ffffffffffffffffffffffffffffffffffffffff169050919050565b61010260009054906101000a900460ff1681565b6000809054906101000a900473ffffffffffffffffffffffffffffffffffffffff1681565b6002816101008110151561070057fe5b016000915090505481565b6000809054906101000a900473ffffffffffffffffffffffffffffffffffffffff1673ffffffffffffffffffffffffffffffffffffffff163373ffffffffffffffffffffffffffffffffffffffff1614151561076657600080fd5b600073ffffffffffffffffffffffffffffffffffffffff168173ffffffffffffffffffffffffffffffffffffffff16141515156107a257600080fd5b8073ffffffffffffffffffffffffffffffffffffffff166000809054906101000a900473ffffffffffffffffffffffffffffffffffffffff1673ffffffffffffffffffffffffffffffffffffffff167f8be0079c531659141344cd1fd0a4f28419497f9722a3daafe3b4186f6b6457e060405160405180910390a3806000806101000a81548173ffffffffffffffffffffffffffffffffffffffff021916908373ffffffffffffffffffffffffffffffffffffffff160217905550505600a165627a7a723058206725e40e3ad539d66334123ba9998ae19a461cc73eba783c6ee9ac496b10fa690029",
  "source": "pragma solidity 0.4.18;\n\nimport \"zeppelin-solidity/contracts/ownership/Ownable.sol\";\n\n\n/**\n * The TokenRegistry is a basic registry mapping token symbols\n * to their known, deployed addresses on the current blockchain.\n *\n * Note that the TokenRegistry does *not* mediate any of the\n * core protocol's business logic, but, rather, is a helpful\n * utility for Terms Contracts to use in encoding, decoding, and\n * resolving the addresses of currently deployed tokens.\n *\n * At this point in time, administration of the Token Registry is\n * under Dharma Labs' control.  With more sophisticated decentralized\n * governance mechanisms, we intend to shift ownership of this utility\n * contract to the Dharma community.\n */\ncontract TokenRegistry is Ownable {\n    mapping (bytes32 => address) public symbolToTokenAddress;\n    bytes32[256] public tokenSymbolHashList;\n    uint8 public tokenSymbolHashListLength;\n\n    /**\n     * Maps the given symbol to the given token address.\n     */\n    function setTokenAddress(string symbol, address token) public onlyOwner {\n        require(tokenSymbolHashListLength < 256);\n\n        bytes32 symbolHash = keccak256(symbol);\n\n        if (symbolToTokenAddress[symbolHash] == address(0)) {\n            tokenSymbolHashList[tokenSymbolHashListLength] = symbolHash;\n            tokenSymbolHashListLength++;\n        }\n\n        symbolToTokenAddress[symbolHash] = token;\n    }\n\n    /**\n     * Given a symbol, resolves the current address of the token the symbol is mapped to.\n     */\n    function getTokenAddressBySymbol(string symbol) public view returns (address) {\n        return symbolToTokenAddress[keccak256(symbol)];\n    }\n\n    /**\n     * Given the known index of a token within the registry's symbol hash list,\n     * returns the address of the token mapped to the symbol at that index.\n     *\n     * This is a useful utility for compactly encoding the address of a token into a\n     * TermsContractParameters string -- by encoding a token by its index in a\n     * a 256 slot array, we can represent a token by a 1 byte uint instead of a 20 byte address.\n     */\n    function getTokenAddressByIndex(uint index) public view returns (address) {\n        return symbolToTokenAddress[tokenSymbolHashList[index]];\n    }\n}\n",
  "sourcePath": "/Users/nadavhollander/Documents/Dharma/Development/charta/contracts/TokenRegistry.sol",
  "compiler": {
    "name": "solc",
    "version": "0.4.18+commit.9cf6e910.Emscripten.clang"
  },
  "schemaVersion": "1.0.1",
  "updatedAt": "2018-03-19T22:49:37.118Z"
}