{
  "contractName": "TokenRegistry",
  "abi": [
    {
      "constant": true,
      "inputs": [
        {
          "name": "_symbol",
          "type": "string"
        }
      ],
      "name": "getTokenIndexBySymbol",
      "outputs": [
        {
          "name": "",
          "type": "uint256"
        }
      ],
      "payable": false,
      "stateMutability": "view",
      "type": "function"
    },
    {
      "constant": true,
      "inputs": [
        {
          "name": "_symbol",
          "type": "string"
        }
      ],
      "name": "getTokenAddressBySymbol",
      "outputs": [
        {
          "name": "",
          "type": "address"
        }
      ],
      "payable": false,
      "stateMutability": "view",
      "type": "function"
    },
    {
      "constant": true,
      "inputs": [
        {
          "name": "",
          "type": "bytes32"
        }
      ],
      "name": "symbolHashToTokenAttributes",
      "outputs": [
        {
          "name": "tokenAddress",
          "type": "address"
        },
        {
          "name": "tokenIndex",
          "type": "uint256"
        },
        {
          "name": "numDecimals",
          "type": "uint256"
        }
      ],
      "payable": false,
      "stateMutability": "view",
      "type": "function"
    },
    {
      "constant": false,
      "inputs": [
        {
          "name": "_symbol",
          "type": "string"
        },
        {
          "name": "_tokenAddress",
          "type": "address"
        },
        {
          "name": "_numDecimals",
          "type": "uint256"
        }
      ],
      "name": "setTokenAttributes",
      "outputs": [],
      "payable": false,
      "stateMutability": "nonpayable",
      "type": "function"
    },
    {
      "constant": true,
      "inputs": [
        {
          "name": "_index",
          "type": "uint256"
        }
      ],
      "name": "getTokenAddressByIndex",
      "outputs": [
        {
          "name": "",
          "type": "address"
        }
      ],
      "payable": false,
      "stateMutability": "view",
      "type": "function"
    },
    {
      "constant": true,
      "inputs": [
        {
          "name": "_index",
          "type": "uint256"
        }
      ],
      "name": "getTokenSymbolByIndex",
      "outputs": [
        {
          "name": "",
          "type": "string"
        }
      ],
      "payable": false,
      "stateMutability": "view",
      "type": "function"
    },
    {
      "constant": true,
      "inputs": [
        {
          "name": "_symbol",
          "type": "string"
        }
      ],
      "name": "getNumDecimalsFromSymbol",
      "outputs": [
        {
          "name": "",
          "type": "uint256"
        }
      ],
      "payable": false,
      "stateMutability": "view",
      "type": "function"
    },
    {
      "constant": true,
      "inputs": [
        {
          "name": "_index",
          "type": "uint256"
        }
      ],
      "name": "getNumDecimalsByIndex",
      "outputs": [
        {
          "name": "",
          "type": "uint256"
        }
      ],
      "payable": false,
      "stateMutability": "view",
      "type": "function"
    },
    {
      "constant": true,
      "inputs": [],
      "name": "owner",
      "outputs": [
        {
          "name": "",
          "type": "address"
        }
      ],
      "payable": false,
      "stateMutability": "view",
      "type": "function"
    },
    {
      "constant": true,
      "inputs": [
        {
          "name": "",
          "type": "uint256"
        }
      ],
      "name": "tokenSymbolList",
      "outputs": [
        {
          "name": "",
          "type": "string"
        }
      ],
      "payable": false,
      "stateMutability": "view",
      "type": "function"
    },
    {
      "constant": true,
      "inputs": [],
      "name": "tokenSymbolListLength",
      "outputs": [
        {
          "name": "",
          "type": "uint8"
        }
      ],
      "payable": false,
      "stateMutability": "view",
      "type": "function"
    },
    {
      "constant": false,
      "inputs": [
        {
          "name": "newOwner",
          "type": "address"
        }
      ],
      "name": "transferOwnership",
      "outputs": [],
      "payable": false,
      "stateMutability": "nonpayable",
      "type": "function"
    },
    {
      "anonymous": false,
      "inputs": [
        {
          "indexed": true,
          "name": "previousOwner",
          "type": "address"
        },
        {
          "indexed": true,
          "name": "newOwner",
          "type": "address"
        }
      ],
      "name": "OwnershipTransferred",
      "type": "event"
    }
  ],
  "bytecode": "0x6060604052336000806101000a81548173ffffffffffffffffffffffffffffffffffffffff021916908373ffffffffffffffffffffffffffffffffffffffff160217905550611040806100536000396000f3006060604052600436106100ba576000357c0100000000000000000000000000000000000000000000000000000000900463ffffffff1680632e1e1bb3146100bf5780633550b6d9146101305780633dbe284a146101cd5780635644061c146102425780635715c5b7146102c75780636e7cbb0d1461032a57806380ec8587146103c657806382f69430146104375780638da5cb5b1461046e57806395f121bf146104c3578063c51ccb401461055f578063f2fde38b1461058e575b600080fd5b34156100ca57600080fd5b61011a600480803590602001908201803590602001908080601f016020809104026020016040519081016040528093929190818152602001838380828437820191505050505050919050506105c7565b6040518082815260200191505060405180910390f35b341561013b57600080fd5b61018b600480803590602001908201803590602001908080601f0160208091040260200160405190810160405280939291908181526020018383808284378201915050505050509190505061065c565b604051808273ffffffffffffffffffffffffffffffffffffffff1673ffffffffffffffffffffffffffffffffffffffff16815260200191505060405180910390f35b34156101d857600080fd5b6101f2600480803560001916906020019091905050610711565b604051808473ffffffffffffffffffffffffffffffffffffffff1673ffffffffffffffffffffffffffffffffffffffff168152602001838152602001828152602001935050505060405180910390f35b341561024d57600080fd5b6102c5600480803590602001908201803590602001908080601f0160208091040260200160405190810160405280939291908181526020018383808284378201915050505050509190803573ffffffffffffffffffffffffffffffffffffffff1690602001909190803590602001909190505061075b565b005b34156102d257600080fd5b6102e86004808035906020019091905050610aa8565b604051808273ffffffffffffffffffffffffffffffffffffffff1673ffffffffffffffffffffffffffffffffffffffff16815260200191505060405180910390f35b341561033557600080fd5b61034b6004808035906020019091905050610b68565b6040518080602001828103825283818151815260200191508051906020019080838360005b8381101561038b578082015181840152602081019050610370565b50505050905090810190601f1680156103b85780820380516001836020036101000a031916815260200191505b509250505060405180910390f35b34156103d157600080fd5b610421600480803590602001908201803590602001908080601f01602080910402602001604051908101604052809392919081815260200183838082843782019150505050505091905050610c21565b6040518082815260200191505060405180910390f35b341561044257600080fd5b6104586004808035906020019091905050610cb6565b6040518082815260200191505060405180910390f35b341561047957600080fd5b610481610ce2565b604051808273ffffffffffffffffffffffffffffffffffffffff1673ffffffffffffffffffffffffffffffffffffffff16815260200191505060405180910390f35b34156104ce57600080fd5b6104e46004808035906020019091905050610d07565b6040518080602001828103825283818151815260200191508051906020019080838360005b83811015610524578082015181840152602081019050610509565b50505050905090810190601f1680156105515780820380516001836020036101000a031916815260200191505b509250505060405180910390f35b341561056a57600080fd5b610572610dba565b604051808260ff1660ff16815260200191505060405180910390f35b341561059957600080fd5b6105c5600480803573ffffffffffffffffffffffffffffffffffffffff16906020019091905050610dce565b005b6000806000836040518082805190602001908083835b60208310151561060257805182526020820191506020810190506020830392506105dd565b6001836020036101000a038019825116818451168082178552505050505050905001915050604051809103902091506001600083600019166000191681526020019081526020016000209050806001015492505050919050565b6000806000836040518082805190602001908083835b6020831015156106975780518252602082019150602081019050602083039250610672565b6001836020036101000a0380198251168184511680821785525050505050509050019150506040518091039020915060016000836000191660001916815260200190815260200160002090508060000160009054906101000a900473ffffffffffffffffffffffffffffffffffffffff1692505050919050565b60016020528060005260406000206000915090508060000160009054906101000a900473ffffffffffffffffffffffffffffffffffffffff16908060010154908060020154905083565b6000610765610f23565b6000809054906101000a900473ffffffffffffffffffffffffffffffffffffffff1673ffffffffffffffffffffffffffffffffffffffff163373ffffffffffffffffffffffffffffffffffffffff161415156107c057600080fd5b61010061010260009054906101000a900460ff1660ff161015156107e357600080fd5b846040518082805190602001908083835b60208310151561081957805182526020820191506020810190506020830392506107f4565b6001836020036101000a03801982511681845116808217855250505050505090500191505060405180910390209150600160008360001916600019168152602001908152602001600020606060405190810160405290816000820160009054906101000a900473ffffffffffffffffffffffffffffffffffffffff1673ffffffffffffffffffffffffffffffffffffffff1673ffffffffffffffffffffffffffffffffffffffff168152602001600182015481526020016002820154815250509050600073ffffffffffffffffffffffffffffffffffffffff16816000015173ffffffffffffffffffffffffffffffffffffffff1614156109e45783816000019073ffffffffffffffffffffffffffffffffffffffff16908173ffffffffffffffffffffffffffffffffffffffff16815250508281604001818152505061010260009054906101000a900460ff1660ff1681602001818152505084600261010260009054906101000a900460ff1660ff166101008110151561099757fe5b0190805190602001906109ab929190610f5b565b50610102600081819054906101000a900460ff168092919060010191906101000a81548160ff021916908360ff16021790555050610a27565b83816000019073ffffffffffffffffffffffffffffffffffffffff16908173ffffffffffffffffffffffffffffffffffffffff1681525050828160400181815250505b8060016000846000191660001916815260200190815260200160002060008201518160000160006101000a81548173ffffffffffffffffffffffffffffffffffffffff021916908373ffffffffffffffffffffffffffffffffffffffff16021790555060208201518160010155604082015181600201559050505050505050565b60008060028361010081101515610abb57fe5b019050610b60818054600181600116156101000203166002900480601f016020809104026020016040519081016040528092919081815260200182805460018160011615610100020316600290048015610b565780601f10610b2b57610100808354040283529160200191610b56565b820191906000526020600020905b815481529060010190602001808311610b3957829003601f168201915b505050505061065c565b915050919050565b610b70610fdb565b60028261010081101515610b8057fe5b018054600181600116156101000203166002900480601f016020809104026020016040519081016040528092919081815260200182805460018160011615610100020316600290048015610c155780601f10610bea57610100808354040283529160200191610c15565b820191906000526020600020905b815481529060010190602001808311610bf857829003601f168201915b50505050509050919050565b6000806000836040518082805190602001908083835b602083101515610c5c5780518252602082019150602081019050602083039250610c37565b6001836020036101000a038019825116818451168082178552505050505050905001915050604051809103902091506001600083600019166000191681526020019081526020016000209050806002015492505050919050565b6000610cc0610fdb565b6000610ccb84610b68565b9150610cd682610c21565b90508092505050919050565b6000809054906101000a900473ffffffffffffffffffffffffffffffffffffffff1681565b60028161010081101515610d1757fe5b016000915090508054600181600116156101000203166002900480601f016020809104026020016040519081016040528092919081815260200182805460018160011615610100020316600290048015610db25780601f10610d8757610100808354040283529160200191610db2565b820191906000526020600020905b815481529060010190602001808311610d9557829003601f168201915b505050505081565b61010260009054906101000a900460ff1681565b6000809054906101000a900473ffffffffffffffffffffffffffffffffffffffff1673ffffffffffffffffffffffffffffffffffffffff163373ffffffffffffffffffffffffffffffffffffffff16141515610e2957600080fd5b600073ffffffffffffffffffffffffffffffffffffffff168173ffffffffffffffffffffffffffffffffffffffff1614151515610e6557600080fd5b8073ffffffffffffffffffffffffffffffffffffffff166000809054906101000a900473ffffffffffffffffffffffffffffffffffffffff1673ffffffffffffffffffffffffffffffffffffffff167f8be0079c531659141344cd1fd0a4f28419497f9722a3daafe3b4186f6b6457e060405160405180910390a3806000806101000a81548173ffffffffffffffffffffffffffffffffffffffff021916908373ffffffffffffffffffffffffffffffffffffffff16021790555050565b606060405190810160405280600073ffffffffffffffffffffffffffffffffffffffff16815260200160008152602001600081525090565b828054600181600116156101000203166002900490600052602060002090601f016020900481019282601f10610f9c57805160ff1916838001178555610fca565b82800160010185558215610fca579182015b82811115610fc9578251825591602001919060010190610fae565b5b509050610fd79190610fef565b5090565b602060405190810160405280600081525090565b61101191905b8082111561100d576000816000905550600101610ff5565b5090565b905600a165627a7a723058202c3ff281b6947c3c4294c7ffb1913a9e8eb392c23b968a83ade86fb5b4d912e70029",
  "source": "pragma solidity 0.4.18;\n\nimport \"zeppelin-solidity/contracts/ownership/Ownable.sol\";\n\n\n/**\n * The TokenRegistry is a basic registry mapping token symbols\n * to their known, deployed addresses on the current blockchain.\n *\n * Note that the TokenRegistry does *not* mediate any of the\n * core protocol's business logic, but, rather, is a helpful\n * utility for Terms Contracts to use in encoding, decoding, and\n * resolving the addresses of currently deployed tokens.\n *\n * At this point in time, administration of the Token Registry is\n * under Dharma Labs' control.  With more sophisticated decentralized\n * governance mechanisms, we intend to shift ownership of this utility\n * contract to the Dharma community.\n */\ncontract TokenRegistry is Ownable {\n    mapping (bytes32 => TokenAttributes) public symbolHashToTokenAttributes;\n    string[256] public tokenSymbolList;\n    uint8 public tokenSymbolListLength;\n\n    struct TokenAttributes {\n        // The ERC20 contract address.\n        address tokenAddress;\n        // The index in `tokenSymbolList` where the token's symbol can be found.\n        uint tokenIndex;\n        // The number of digits that come after the decimal place when displaying token value.\n        uint numDecimals;\n    }\n\n    /**\n     * Maps the given symbol to the given token attributes.\n     */\n    function setTokenAttributes(\n        string _symbol,\n        address _tokenAddress,\n        uint _numDecimals\n    )\n        public onlyOwner\n    {\n        require(tokenSymbolListLength < 256);\n\n        bytes32 symbolHash = keccak256(_symbol);\n\n        // Attempt to retrieve the token's attributes from the registry.\n        TokenAttributes memory attributes = symbolHashToTokenAttributes[symbolHash];\n\n        if (attributes.tokenAddress == address(0)) {\n            // The token has not yet been added to the registry.\n            attributes.tokenAddress = _tokenAddress;\n            attributes.numDecimals = _numDecimals;\n            attributes.tokenIndex = tokenSymbolListLength;\n\n            tokenSymbolList[tokenSymbolListLength] = _symbol;\n            tokenSymbolListLength++;\n        } else {\n            // The token has already been added to the registry; update attributes.\n            attributes.tokenAddress = _tokenAddress;\n            attributes.numDecimals = _numDecimals;\n        }\n\n        // Update this contract's storage.\n        symbolHashToTokenAttributes[symbolHash] = attributes;\n    }\n\n    /**\n     * Given a symbol, resolves the current address of the token the symbol is mapped to.\n     */\n    function getTokenAddressBySymbol(string _symbol) public view returns (address) {\n        bytes32 symbolHash = keccak256(_symbol);\n\n        TokenAttributes storage attributes = symbolHashToTokenAttributes[symbolHash];\n\n        return attributes.tokenAddress;\n    }\n\n    /**\n     * Given the known index of a token within the registry's symbol list,\n     * returns the address of the token mapped to the symbol at that index.\n     *\n     * This is a useful utility for compactly encoding the address of a token into a\n     * TermsContractParameters string -- by encoding a token by its index in a\n     * a 256 slot array, we can represent a token by a 1 byte uint instead of a 20 byte address.\n     */\n    function getTokenAddressByIndex(uint _index) public view returns (address) {\n        string storage symbol = tokenSymbolList[_index];\n\n        return getTokenAddressBySymbol(symbol);\n    }\n\n    /**\n     * Given a symbol, resolves the index of the token the symbol is mapped to within the registry's\n     * symbol list.\n     */\n    function getTokenIndexBySymbol(string _symbol) public view returns (uint) {\n        bytes32 symbolHash = keccak256(_symbol);\n\n        TokenAttributes storage attributes = symbolHashToTokenAttributes[symbolHash];\n\n        return attributes.tokenIndex;\n    }\n\n    /**\n     * Given an index, resolves the symbol of the token at that index in the registry's\n     * token symbol list.\n     */\n    function getTokenSymbolByIndex(uint _index) public view returns (string) {\n        return tokenSymbolList[_index];\n    }\n\n    /**\n     * Given the symbol for a token, returns the number of decimals as provided in\n     * the associated TokensAttribute struct.\n     *\n     * Example:\n     *   getNumDecimalsFromSymbol(\"REP\");\n     *   => 18\n     */\n    function getNumDecimalsFromSymbol(string _symbol) public view returns (uint) {\n        bytes32 symbolHash = keccak256(_symbol);\n\n        TokenAttributes storage attributes = symbolHashToTokenAttributes[symbolHash];\n\n        return attributes.numDecimals;\n    }\n\n    /**\n     * Given the index for a token in the registry, returns the number of decimals as provided in\n     * the associated TokensAttribute struct.\n     *\n     * Example:\n     *   getNumDecimalsByIndex(1);\n     *   => 18\n     */\n    function getNumDecimalsByIndex(uint _index) public view returns (uint) {\n        string memory symbol = getTokenSymbolByIndex(_index);\n\n        uint numDecimals = getNumDecimalsFromSymbol(symbol);\n\n        return numDecimals;\n    }\n}\n",
  "sourcePath": "/Users/nadavhollander/Documents/Dharma/Development/charta/contracts/TokenRegistry.sol",
  "compiler": {
    "name": "solc",
    "version": "0.4.18+commit.9cf6e910.Emscripten.clang"
  },
  "schemaVersion": "1.0.1",
  "updatedAt": "2018-04-19T23:50:56.620Z"
}