{
  "contractName": "TokenRegistry",
  "abi": [
    {
      "constant": true,
      "inputs": [
        {
          "name": "_index",
          "type": "uint256"
        }
      ],
      "name": "getTokenAttributesByIndex",
      "outputs": [
        {
          "name": "",
          "type": "address"
        },
        {
          "name": "",
          "type": "string"
        },
        {
          "name": "",
          "type": "string"
        },
        {
          "name": "",
          "type": "uint8"
        }
      ],
      "payable": false,
      "stateMutability": "view",
      "type": "function"
    },
    {
      "constant": true,
      "inputs": [
        {
          "name": "_symbol",
          "type": "string"
        }
      ],
      "name": "getTokenIndexBySymbol",
      "outputs": [
        {
          "name": "",
          "type": "uint256"
        }
      ],
      "payable": false,
      "stateMutability": "view",
      "type": "function"
    },
    {
      "constant": true,
      "inputs": [
        {
          "name": "_symbol",
          "type": "string"
        }
      ],
      "name": "getTokenAddressBySymbol",
      "outputs": [
        {
          "name": "",
          "type": "address"
        }
      ],
      "payable": false,
      "stateMutability": "view",
      "type": "function"
    },
    {
      "constant": true,
      "inputs": [
        {
          "name": "",
          "type": "bytes32"
        }
      ],
      "name": "symbolHashToTokenAttributes",
      "outputs": [
        {
          "name": "tokenAddress",
          "type": "address"
        },
        {
          "name": "tokenIndex",
          "type": "uint256"
        },
        {
          "name": "name",
          "type": "string"
        },
        {
          "name": "numDecimals",
          "type": "uint8"
        }
      ],
      "payable": false,
      "stateMutability": "view",
      "type": "function"
    },
    {
      "constant": false,
      "inputs": [
        {
          "name": "_symbol",
          "type": "string"
        },
        {
          "name": "_tokenAddress",
          "type": "address"
        },
        {
          "name": "_tokenName",
          "type": "string"
        },
        {
          "name": "_numDecimals",
          "type": "uint8"
        }
      ],
      "name": "setTokenAttributes",
      "outputs": [],
      "payable": false,
      "stateMutability": "nonpayable",
      "type": "function"
    },
    {
      "constant": true,
      "inputs": [
        {
          "name": "_index",
          "type": "uint256"
        }
      ],
      "name": "getTokenAddressByIndex",
      "outputs": [
        {
          "name": "",
          "type": "address"
        }
      ],
      "payable": false,
      "stateMutability": "view",
      "type": "function"
    },
    {
      "constant": true,
      "inputs": [
        {
          "name": "_index",
          "type": "uint256"
        }
      ],
      "name": "getTokenSymbolByIndex",
      "outputs": [
        {
          "name": "",
          "type": "string"
        }
      ],
      "payable": false,
      "stateMutability": "view",
      "type": "function"
    },
    {
      "constant": true,
      "inputs": [
        {
          "name": "_symbol",
          "type": "string"
        }
      ],
      "name": "getTokenAttributesBySymbol",
      "outputs": [
        {
          "name": "",
          "type": "address"
        },
        {
          "name": "",
          "type": "uint256"
        },
        {
          "name": "",
          "type": "string"
        },
        {
          "name": "",
          "type": "uint256"
        }
      ],
      "payable": false,
      "stateMutability": "view",
      "type": "function"
    },
    {
      "constant": true,
      "inputs": [
        {
          "name": "_symbol",
          "type": "string"
        }
      ],
      "name": "getNumDecimalsFromSymbol",
      "outputs": [
        {
          "name": "",
          "type": "uint8"
        }
      ],
      "payable": false,
      "stateMutability": "view",
      "type": "function"
    },
    {
      "constant": true,
      "inputs": [
        {
          "name": "_index",
          "type": "uint256"
        }
      ],
      "name": "getNumDecimalsByIndex",
      "outputs": [
        {
          "name": "",
          "type": "uint8"
        }
      ],
      "payable": false,
      "stateMutability": "view",
      "type": "function"
    },
    {
      "constant": true,
      "inputs": [],
      "name": "owner",
      "outputs": [
        {
          "name": "",
          "type": "address"
        }
      ],
      "payable": false,
      "stateMutability": "view",
      "type": "function"
    },
    {
      "constant": true,
      "inputs": [
        {
          "name": "",
          "type": "uint256"
        }
      ],
      "name": "tokenSymbolList",
      "outputs": [
        {
          "name": "",
          "type": "string"
        }
      ],
      "payable": false,
      "stateMutability": "view",
      "type": "function"
    },
    {
      "constant": true,
      "inputs": [
        {
          "name": "_symbol",
          "type": "string"
        }
      ],
      "name": "getTokenNameBySymbol",
      "outputs": [
        {
          "name": "",
          "type": "string"
        }
      ],
      "payable": false,
      "stateMutability": "view",
      "type": "function"
    },
    {
      "constant": true,
      "inputs": [],
      "name": "tokenSymbolListLength",
      "outputs": [
        {
          "name": "",
          "type": "uint8"
        }
      ],
      "payable": false,
      "stateMutability": "view",
      "type": "function"
    },
    {
      "constant": false,
      "inputs": [
        {
          "name": "newOwner",
          "type": "address"
        }
      ],
      "name": "transferOwnership",
      "outputs": [],
      "payable": false,
      "stateMutability": "nonpayable",
      "type": "function"
    },
    {
      "constant": true,
      "inputs": [
        {
          "name": "_index",
          "type": "uint256"
        }
      ],
      "name": "getTokenNameByIndex",
      "outputs": [
        {
          "name": "",
          "type": "string"
        }
      ],
      "payable": false,
      "stateMutability": "view",
      "type": "function"
    },
    {
      "anonymous": false,
      "inputs": [
        {
          "indexed": true,
          "name": "previousOwner",
          "type": "address"
        },
        {
          "indexed": true,
          "name": "newOwner",
          "type": "address"
        }
      ],
      "name": "OwnershipTransferred",
      "type": "event"
    }
  ],
  "bytecode": "0x6060604052336000806101000a81548173ffffffffffffffffffffffffffffffffffffffff021916908373ffffffffffffffffffffffffffffffffffffffff160217905550611b4a806100536000396000f3006060604052600436106100e6576000357c0100000000000000000000000000000000000000000000000000000000900463ffffffff1680631e71f8d1146100eb5780632e1e1bb3146102335780633550b6d9146102a45780633dbe284a1461034157806351d658d2146104455780635715c5b7146105105780636e7cbb0d146105735780638052348b1461060f57806380ec85871461072657806382f694301461079d5780638da5cb5b146107da57806395f121bf1461082f578063bd7b564d146108cb578063c51ccb40146109a1578063f2fde38b146109d0578063fa7f369714610a09575b600080fd5b34156100f657600080fd5b61010c6004808035906020019091905050610aa5565b604051808573ffffffffffffffffffffffffffffffffffffffff1673ffffffffffffffffffffffffffffffffffffffff16815260200180602001806020018460ff1660ff168152602001838103835286818151815260200191508051906020019080838360005b8381101561018e578082015181840152602081019050610173565b50505050905090810190601f1680156101bb5780820380516001836020036101000a031916815260200191505b50838103825285818151815260200191508051906020019080838360005b838110156101f45780820151818401526020810190506101d9565b50505050905090810190601f1680156102215780820380516001836020036101000a031916815260200191505b50965050505050505060405180910390f35b341561023e57600080fd5b61028e600480803590602001908201803590602001908080601f01602080910402602001604051908101604052809392919081815260200183838082843782019150505050505091905050610c3b565b6040518082815260200191505060405180910390f35b34156102af57600080fd5b6102ff600480803590602001908201803590602001908080601f01602080910402602001604051908101604052809392919081815260200183838082843782019150505050505091905050610cd0565b604051808273ffffffffffffffffffffffffffffffffffffffff1673ffffffffffffffffffffffffffffffffffffffff16815260200191505060405180910390f35b341561034c57600080fd5b610366600480803560001916906020019091905050610d85565b604051808573ffffffffffffffffffffffffffffffffffffffff1673ffffffffffffffffffffffffffffffffffffffff168152602001848152602001806020018360ff1660ff1681526020018281038252848181546001816001161561010002031660029004815260200191508054600181600116156101000203166002900480156104335780601f1061040857610100808354040283529160200191610433565b820191906000526020600020905b81548152906001019060200180831161041657829003601f168201915b50509550505050505060405180910390f35b341561045057600080fd5b61050e600480803590602001908201803590602001908080601f0160208091040260200160405190810160405280939291908181526020018383808284378201915050505050509190803573ffffffffffffffffffffffffffffffffffffffff1690602001909190803590602001908201803590602001908080601f0160208091040260200160405190810160405280939291908181526020018383808284378201915050505050509190803560ff16906020019091905050610de1565b005b341561051b57600080fd5b6105316004808035906020019091905050611217565b604051808273ffffffffffffffffffffffffffffffffffffffff1673ffffffffffffffffffffffffffffffffffffffff16815260200191505060405180910390f35b341561057e57600080fd5b61059460048080359060200190919050506112d7565b6040518080602001828103825283818151815260200191508051906020019080838360005b838110156105d45780820151818401526020810190506105b9565b50505050905090810190601f1680156106015780820380516001836020036101000a031916815260200191505b509250505060405180910390f35b341561061a57600080fd5b61066a600480803590602001908201803590602001908080601f01602080910402602001604051908101604052809392919081815260200183838082843782019150505050505091905050611390565b604051808573ffffffffffffffffffffffffffffffffffffffff1673ffffffffffffffffffffffffffffffffffffffff16815260200184815260200180602001838152602001828103825284818151815260200191508051906020019080838360005b838110156106e85780820151818401526020810190506106cd565b50505050905090810190601f1680156107155780820380516001836020036101000a031916815260200191505b509550505050505060405180910390f35b341561073157600080fd5b610781600480803590602001908201803590602001908080601f01602080910402602001604051908101604052809392919081815260200183838082843782019150505050505091905050611515565b604051808260ff1660ff16815260200191505060405180910390f35b34156107a857600080fd5b6107be60048080359060200190919050506115b7565b604051808260ff1660ff16815260200191505060405180910390f35b34156107e557600080fd5b6107ed6115dd565b604051808273ffffffffffffffffffffffffffffffffffffffff1673ffffffffffffffffffffffffffffffffffffffff16815260200191505060405180910390f35b341561083a57600080fd5b6108506004808035906020019091905050611602565b6040518080602001828103825283818151815260200191508051906020019080838360005b83811015610890578082015181840152602081019050610875565b50505050905090810190601f1680156108bd5780820380516001836020036101000a031916815260200191505b509250505060405180910390f35b34156108d657600080fd5b610926600480803590602001908201803590602001908080601f016020809104026020016040519081016040528093929190818152602001838380828437820191505050505050919050506116b5565b6040518080602001828103825283818151815260200191508051906020019080838360005b8381101561096657808201518184015260208101905061094b565b50505050905090810190601f1680156109935780820380516001836020036101000a031916815260200191505b509250505060405180910390f35b34156109ac57600080fd5b6109b46117e8565b604051808260ff1660ff16815260200191505060405180910390f35b34156109db57600080fd5b610a07600480803573ffffffffffffffffffffffffffffffffffffffff169060200190919050506117fc565b005b3415610a1457600080fd5b610a2a6004808035906020019091905050611951565b6040518080602001828103825283818151815260200191508051906020019080838360005b83811015610a6a578082015181840152602081019050610a4f565b50505050905090810190601f168015610a975780820380516001836020036101000a031916815260200191505b509250505060405180910390f35b6000610aaf611989565b610ab7611989565b6000610ac1611989565b600080610acd886112d7565b9250826040518082805190602001908083835b602083101515610b055780518252602082019150602081019050602083039250610ae0565b6001836020036101000a0380198251168184511680821785525050505050509050019150506040518091039020915060016000836000191660001916815260200190815260200160002090508060000160009054906101000a900473ffffffffffffffffffffffffffffffffffffffff1683826002018360030160009054906101000a900460ff16818054600181600116156101000203166002900480601f016020809104026020016040519081016040528092919081815260200182805460018160011615610100020316600290048015610c225780601f10610bf757610100808354040283529160200191610c22565b820191906000526020600020905b815481529060010190602001808311610c0557829003601f168201915b5050505050915096509650965096505050509193509193565b6000806000836040518082805190602001908083835b602083101515610c765780518252602082019150602081019050602083039250610c51565b6001836020036101000a038019825116818451168082178552505050505050905001915050604051809103902091506001600083600019166000191681526020019081526020016000209050806001015492505050919050565b6000806000836040518082805190602001908083835b602083101515610d0b5780518252602082019150602081019050602083039250610ce6565b6001836020036101000a0380198251168184511680821785525050505050509050019150506040518091039020915060016000836000191660001916815260200190815260200160002090508060000160009054906101000a900473ffffffffffffffffffffffffffffffffffffffff1692505050919050565b60016020528060005260406000206000915090508060000160009054906101000a900473ffffffffffffffffffffffffffffffffffffffff169080600101549080600201908060030160009054906101000a900460ff16905084565b6000610deb61199d565b6000809054906101000a900473ffffffffffffffffffffffffffffffffffffffff1673ffffffffffffffffffffffffffffffffffffffff163373ffffffffffffffffffffffffffffffffffffffff16141515610e4657600080fd5b856040518082805190602001908083835b602083101515610e7c5780518252602082019150602081019050602083039250610e57565b6001836020036101000a03801982511681845116808217855250505050505090500191505060405180910390209150600160008360001916600019168152602001908152602001600020608060405190810160405290816000820160009054906101000a900473ffffffffffffffffffffffffffffffffffffffff1673ffffffffffffffffffffffffffffffffffffffff1673ffffffffffffffffffffffffffffffffffffffff16815260200160018201548152602001600282018054600181600116156101000203166002900480601f016020809104026020016040519081016040528092919081815260200182805460018160011615610100020316600290048015610fcb5780601f10610fa057610100808354040283529160200191610fcb565b820191906000526020600020905b815481529060010190602001808311610fae57829003601f168201915b505050505081526020016003820160009054906101000a900460ff1660ff1660ff16815250509050600073ffffffffffffffffffffffffffffffffffffffff16816000015173ffffffffffffffffffffffffffffffffffffffff16141561110d5784816000019073ffffffffffffffffffffffffffffffffffffffff16908173ffffffffffffffffffffffffffffffffffffffff168152505082816060019060ff16908160ff168152505083816040018190525061010260009054906101000a900460ff1660ff1681602001818152505085600261010260009054906101000a900460ff1660ff16610100811015156110c057fe5b0190805190602001906110d49291906119e5565b50610102600081819054906101000a900460ff168092919060010191906101000a81548160ff021916908360ff16021790555050611161565b84816000019073ffffffffffffffffffffffffffffffffffffffff16908173ffffffffffffffffffffffffffffffffffffffff168152505082816060019060ff16908160ff16815250508381604001819052505b8060016000846000191660001916815260200190815260200160002060008201518160000160006101000a81548173ffffffffffffffffffffffffffffffffffffffff021916908373ffffffffffffffffffffffffffffffffffffffff1602179055506020820151816001015560408201518160020190805190602001906111ea929190611a65565b5060608201518160030160006101000a81548160ff021916908360ff160217905550905050505050505050565b6000806002836101008110151561122a57fe5b0190506112cf818054600181600116156101000203166002900480601f0160208091040260200160405190810160405280929190818152602001828054600181600116156101000203166002900480156112c55780601f1061129a576101008083540402835291602001916112c5565b820191906000526020600020905b8154815290600101906020018083116112a857829003601f168201915b5050505050610cd0565b915050919050565b6112df611989565b600282610100811015156112ef57fe5b018054600181600116156101000203166002900480601f0160208091040260200160405190810160405280929190818152602001828054600181600116156101000203166002900480156113845780601f1061135957610100808354040283529160200191611384565b820191906000526020600020905b81548152906001019060200180831161136757829003601f168201915b50505050509050919050565b60008061139b611989565b6000806000866040518082805190602001908083835b6020831015156113d657805182526020820191506020810190506020830392506113b1565b6001836020036101000a0380198251168184511680821785525050505050509050019150506040518091039020915060016000836000191660001916815260200190815260200160002090508060000160009054906101000a900473ffffffffffffffffffffffffffffffffffffffff168160010154826002018360030160009054906101000a900460ff16818054600181600116156101000203166002900480601f0160208091040260200160405190810160405280929190818152602001828054600181600116156101000203166002900480156114f75780601f106114cc576101008083540402835291602001916114f7565b820191906000526020600020905b8154815290600101906020018083116114da57829003601f168201915b505050505091508060ff169050955095509550955050509193509193565b6000806000836040518082805190602001908083835b602083101515611550578051825260208201915060208101905060208303925061152b565b6001836020036101000a0380198251168184511680821785525050505050509050019150506040518091039020915060016000836000191660001916815260200190815260200160002090508060030160009054906101000a900460ff1692505050919050565b60006115c1611989565b6115ca836112d7565b90506115d581611515565b915050919050565b6000809054906101000a900473ffffffffffffffffffffffffffffffffffffffff1681565b6002816101008110151561161257fe5b016000915090508054600181600116156101000203166002900480601f0160208091040260200160405190810160405280929190818152602001828054600181600116156101000203166002900480156116ad5780601f10611682576101008083540402835291602001916116ad565b820191906000526020600020905b81548152906001019060200180831161169057829003601f168201915b505050505081565b6116bd611989565b600080836040518082805190602001908083835b6020831015156116f657805182526020820191506020810190506020830392506116d1565b6001836020036101000a038019825116818451168082178552505050505050905001915050604051809103902091506001600083600019166000191681526020019081526020016000209050806002018054600181600116156101000203166002900480601f0160208091040260200160405190810160405280929190818152602001828054600181600116156101000203166002900480156117da5780601f106117af576101008083540402835291602001916117da565b820191906000526020600020905b8154815290600101906020018083116117bd57829003601f168201915b505050505092505050919050565b61010260009054906101000a900460ff1681565b6000809054906101000a900473ffffffffffffffffffffffffffffffffffffffff1673ffffffffffffffffffffffffffffffffffffffff163373ffffffffffffffffffffffffffffffffffffffff1614151561185757600080fd5b600073ffffffffffffffffffffffffffffffffffffffff168173ffffffffffffffffffffffffffffffffffffffff161415151561189357600080fd5b8073ffffffffffffffffffffffffffffffffffffffff166000809054906101000a900473ffffffffffffffffffffffffffffffffffffffff1673ffffffffffffffffffffffffffffffffffffffff167f8be0079c531659141344cd1fd0a4f28419497f9722a3daafe3b4186f6b6457e060405160405180910390a3806000806101000a81548173ffffffffffffffffffffffffffffffffffffffff021916908373ffffffffffffffffffffffffffffffffffffffff16021790555050565b611959611989565b611961611989565b611969611989565b611972846112d7565b915061197d826116b5565b90508092505050919050565b602060405190810160405280600081525090565b608060405190810160405280600073ffffffffffffffffffffffffffffffffffffffff168152602001600081526020016119d5611ae5565b8152602001600060ff1681525090565b828054600181600116156101000203166002900490600052602060002090601f016020900481019282601f10611a2657805160ff1916838001178555611a54565b82800160010185558215611a54579182015b82811115611a53578251825591602001919060010190611a38565b5b509050611a619190611af9565b5090565b828054600181600116156101000203166002900490600052602060002090601f016020900481019282601f10611aa657805160ff1916838001178555611ad4565b82800160010185558215611ad4579182015b82811115611ad3578251825591602001919060010190611ab8565b5b509050611ae19190611af9565b5090565b602060405190810160405280600081525090565b611b1b91905b80821115611b17576000816000905550600101611aff565b5090565b905600a165627a7a723058204d982a9c1a4b043f378126db2a600bd5789bdcacb95f71450120c3e1ca13995f0029",
  "source": "pragma solidity 0.4.18;\n\nimport \"zeppelin-solidity/contracts/ownership/Ownable.sol\";\n\n\n/**\n * The TokenRegistry is a basic registry mapping token symbols\n * to their known, deployed addresses on the current blockchain.\n *\n * Note that the TokenRegistry does *not* mediate any of the\n * core protocol's business logic, but, rather, is a helpful\n * utility for Terms Contracts to use in encoding, decoding, and\n * resolving the addresses of currently deployed tokens.\n *\n * At this point in time, administration of the Token Registry is\n * under Dharma Labs' control.  With more sophisticated decentralized\n * governance mechanisms, we intend to shift ownership of this utility\n * contract to the Dharma community.\n */\ncontract TokenRegistry is Ownable {\n    mapping (bytes32 => TokenAttributes) public symbolHashToTokenAttributes;\n    string[256] public tokenSymbolList;\n    uint8 public tokenSymbolListLength;\n\n    struct TokenAttributes {\n        // The ERC20 contract address.\n        address tokenAddress;\n        // The index in `tokenSymbolList` where the token's symbol can be found.\n        uint tokenIndex;\n        // The name of the given token, e.g. \"Canonical Wrapped Ether\"\n        string name;\n        // The number of digits that come after the decimal place when displaying token value.\n        uint8 numDecimals;\n    }\n\n    /**\n     * Maps the given symbol to the given token attributes.\n     */\n    function setTokenAttributes(\n        string _symbol,\n        address _tokenAddress,\n        string _tokenName,\n        uint8 _numDecimals\n    )\n        public onlyOwner\n    {\n        bytes32 symbolHash = keccak256(_symbol);\n\n        // Attempt to retrieve the token's attributes from the registry.\n        TokenAttributes memory attributes = symbolHashToTokenAttributes[symbolHash];\n\n        if (attributes.tokenAddress == address(0)) {\n            // The token has not yet been added to the registry.\n            attributes.tokenAddress = _tokenAddress;\n            attributes.numDecimals = _numDecimals;\n            attributes.name = _tokenName;\n            attributes.tokenIndex = tokenSymbolListLength;\n\n            tokenSymbolList[tokenSymbolListLength] = _symbol;\n            tokenSymbolListLength++;\n        } else {\n            // The token has already been added to the registry; update attributes.\n            attributes.tokenAddress = _tokenAddress;\n            attributes.numDecimals = _numDecimals;\n            attributes.name = _tokenName;\n        }\n\n        // Update this contract's storage.\n        symbolHashToTokenAttributes[symbolHash] = attributes;\n    }\n\n    /**\n     * Given a symbol, resolves the current address of the token the symbol is mapped to.\n     */\n    function getTokenAddressBySymbol(string _symbol) public view returns (address) {\n        bytes32 symbolHash = keccak256(_symbol);\n\n        TokenAttributes storage attributes = symbolHashToTokenAttributes[symbolHash];\n\n        return attributes.tokenAddress;\n    }\n\n    /**\n     * Given the known index of a token within the registry's symbol list,\n     * returns the address of the token mapped to the symbol at that index.\n     *\n     * This is a useful utility for compactly encoding the address of a token into a\n     * TermsContractParameters string -- by encoding a token by its index in a\n     * a 256 slot array, we can represent a token by a 1 byte uint instead of a 20 byte address.\n     */\n    function getTokenAddressByIndex(uint _index) public view returns (address) {\n        string storage symbol = tokenSymbolList[_index];\n\n        return getTokenAddressBySymbol(symbol);\n    }\n\n    /**\n     * Given a symbol, resolves the index of the token the symbol is mapped to within the registry's\n     * symbol list.\n     */\n    function getTokenIndexBySymbol(string _symbol) public view returns (uint) {\n        bytes32 symbolHash = keccak256(_symbol);\n\n        TokenAttributes storage attributes = symbolHashToTokenAttributes[symbolHash];\n\n        return attributes.tokenIndex;\n    }\n\n    /**\n     * Given an index, resolves the symbol of the token at that index in the registry's\n     * token symbol list.\n     */\n    function getTokenSymbolByIndex(uint _index) public view returns (string) {\n        return tokenSymbolList[_index];\n    }\n\n    /**\n     * Given a symbol, returns the name of the token the symbol is mapped to within the registry's\n     * symbol list.\n     */\n    function getTokenNameBySymbol(string _symbol) public view returns (string) {\n        bytes32 symbolHash = keccak256(_symbol);\n\n        TokenAttributes storage attributes = symbolHashToTokenAttributes[symbolHash];\n\n        return attributes.name;\n    }\n\n    /**\n     * Given the symbol for a token, returns the number of decimals as provided in\n     * the associated TokensAttribute struct.\n     *\n     * Example:\n     *   getNumDecimalsFromSymbol(\"REP\");\n     *   => 18\n     */\n    function getNumDecimalsFromSymbol(string _symbol) public view returns (uint8) {\n        bytes32 symbolHash = keccak256(_symbol);\n\n        TokenAttributes storage attributes = symbolHashToTokenAttributes[symbolHash];\n\n        return attributes.numDecimals;\n    }\n\n    /**\n     * Given the index for a token in the registry, returns the number of decimals as provided in\n     * the associated TokensAttribute struct.\n     *\n     * Example:\n     *   getNumDecimalsByIndex(1);\n     *   => 18\n     */\n    function getNumDecimalsByIndex(uint _index) public view returns (uint8) {\n        string memory symbol = getTokenSymbolByIndex(_index);\n\n        return getNumDecimalsFromSymbol(symbol);\n    }\n\n    /**\n     * Given the index for a token in the registry, returns the name of the token as provided in\n     * the associated TokensAttribute struct.\n     *\n     * Example:\n     *   getTokenNameByIndex(1);\n     *   => \"Canonical Wrapped Ether\"\n     */\n    function getTokenNameByIndex(uint _index) public view returns (string) {\n        string memory symbol = getTokenSymbolByIndex(_index);\n\n        string memory tokenName = getTokenNameBySymbol(symbol);\n\n        return tokenName;\n    }\n\n    /**\n     * Given the symbol for a token in the registry, returns a tuple containing the token's address,\n     * the token's index in the registry, the token's name, and the number of decimals.\n     *\n     * Example:\n     *   getTokenAttributesBySymbol(\"WETH\");\n     *   => [\"0xc02aaa39b223fe8d0a0e5c4f27ead9083c756cc2\", 1, \"Canonical Wrapped Ether\", 18]\n     */\n    function getTokenAttributesBySymbol(string _symbol)\n        public\n        view\n        returns (\n            address,\n            uint,\n            string,\n            uint\n        )\n    {\n        bytes32 symbolHash = keccak256(_symbol);\n\n        TokenAttributes storage attributes = symbolHashToTokenAttributes[symbolHash];\n\n        return (\n            attributes.tokenAddress,\n            attributes.tokenIndex,\n            attributes.name,\n            attributes.numDecimals\n        );\n    }\n\n    /**\n     * Given the index for a token in the registry, returns a tuple containing the token's address,\n     * the token's symbol, the token's name, and the number of decimals.\n     *\n     * Example:\n     *   getTokenAttributesByIndex(1);\n     *   => [\"0xc02aaa39b223fe8d0a0e5c4f27ead9083c756cc2\", \"WETH\", \"Canonical Wrapped Ether\", 18]\n     */\n    function getTokenAttributesByIndex(uint _index)\n        public\n        view\n        returns (\n            address,\n            string,\n            string,\n            uint8\n        )\n    {\n        string memory symbol = getTokenSymbolByIndex(_index);\n\n        bytes32 symbolHash = keccak256(symbol);\n\n        TokenAttributes storage attributes = symbolHashToTokenAttributes[symbolHash];\n\n        return (\n            attributes.tokenAddress,\n            symbol,\n            attributes.name,\n            attributes.numDecimals\n        );\n    }\n}\n",
  "sourcePath": "/Users/graemeboy/Dharma/charta/contracts/TokenRegistry.sol",
  "compiler": {
    "name": "solc",
    "version": "0.4.18+commit.9cf6e910.Emscripten.clang"
  },
  "schemaVersion": "1.0.1",
  "updatedAt": "2018-09-26T17:52:33.952Z"
}