{
  "contractName": "TokenRegistry",
  "abi": [
    {
      "constant": true,
      "inputs": [
        {
          "name": "",
          "type": "bytes32"
        }
      ],
      "name": "symbolHashToTokenIndex",
      "outputs": [
        {
          "name": "",
          "type": "uint256"
        }
      ],
      "payable": false,
      "stateMutability": "view",
      "type": "function"
    },
    {
      "constant": false,
      "inputs": [
        {
          "name": "symbol",
          "type": "string"
        },
        {
          "name": "token",
          "type": "address"
        }
      ],
      "name": "setTokenAddress",
      "outputs": [],
      "payable": false,
      "stateMutability": "nonpayable",
      "type": "function"
    },
    {
      "constant": true,
      "inputs": [
        {
          "name": "symbol",
          "type": "string"
        }
      ],
      "name": "getTokenIndexBySymbol",
      "outputs": [
        {
          "name": "",
          "type": "uint256"
        }
      ],
      "payable": false,
      "stateMutability": "view",
      "type": "function"
    },
    {
      "constant": true,
      "inputs": [
        {
          "name": "symbol",
          "type": "string"
        }
      ],
      "name": "getTokenAddressBySymbol",
      "outputs": [
        {
          "name": "",
          "type": "address"
        }
      ],
      "payable": false,
      "stateMutability": "view",
      "type": "function"
    },
    {
      "constant": true,
      "inputs": [
        {
          "name": "index",
          "type": "uint256"
        }
      ],
      "name": "getTokenAddressByIndex",
      "outputs": [
        {
          "name": "",
          "type": "address"
        }
      ],
      "payable": false,
      "stateMutability": "view",
      "type": "function"
    },
    {
      "constant": true,
      "inputs": [
        {
          "name": "index",
          "type": "uint256"
        }
      ],
      "name": "getTokenSymbolByIndex",
      "outputs": [
        {
          "name": "",
          "type": "string"
        }
      ],
      "payable": false,
      "stateMutability": "view",
      "type": "function"
    },
    {
      "constant": true,
      "inputs": [],
      "name": "owner",
      "outputs": [
        {
          "name": "",
          "type": "address"
        }
      ],
      "payable": false,
      "stateMutability": "view",
      "type": "function"
    },
    {
      "constant": true,
      "inputs": [
        {
          "name": "",
          "type": "uint256"
        }
      ],
      "name": "tokenSymbolList",
      "outputs": [
        {
          "name": "",
          "type": "string"
        }
      ],
      "payable": false,
      "stateMutability": "view",
      "type": "function"
    },
    {
      "constant": true,
      "inputs": [],
      "name": "tokenSymbolListLength",
      "outputs": [
        {
          "name": "",
          "type": "uint8"
        }
      ],
      "payable": false,
      "stateMutability": "view",
      "type": "function"
    },
    {
      "constant": true,
      "inputs": [
        {
          "name": "",
          "type": "bytes32"
        }
      ],
      "name": "symbolHashToTokenAddress",
      "outputs": [
        {
          "name": "",
          "type": "address"
        }
      ],
      "payable": false,
      "stateMutability": "view",
      "type": "function"
    },
    {
      "constant": false,
      "inputs": [
        {
          "name": "newOwner",
          "type": "address"
        }
      ],
      "name": "transferOwnership",
      "outputs": [],
      "payable": false,
      "stateMutability": "nonpayable",
      "type": "function"
    },
    {
      "anonymous": false,
      "inputs": [
        {
          "indexed": true,
          "name": "previousOwner",
          "type": "address"
        },
        {
          "indexed": true,
          "name": "newOwner",
          "type": "address"
        }
      ],
      "name": "OwnershipTransferred",
      "type": "event"
    }
  ],
  "bytecode": "0x6060604052336000806101000a81548173ffffffffffffffffffffffffffffffffffffffff021916908373ffffffffffffffffffffffffffffffffffffffff160217905550610da6806100536000396000f3006060604052600436106100af576000357c0100000000000000000000000000000000000000000000000000000000900463ffffffff16806313b435ff146100b457806317456e56146100ef5780632e1e1bb31461016b5780633550b6d9146101dc5780635715c5b7146102795780636e7cbb0d146102dc5780638da5cb5b1461037857806395f121bf146103cd578063c51ccb4014610469578063deb5f37614610498578063f2fde38b146104ff575b600080fd5b34156100bf57600080fd5b6100d9600480803560001916906020019091905050610538565b6040518082815260200191505060405180910390f35b34156100fa57600080fd5b610169600480803590602001908201803590602001908080601f0160208091040260200160405190810160405280939291908181526020018383808284378201915050505050509190803573ffffffffffffffffffffffffffffffffffffffff16906020019091905050610550565b005b341561017657600080fd5b6101c6600480803590602001908201803590602001908080601f016020809104026020016040519081016040528093929190818152602001838380828437820191505050505050919050506107a4565b6040518082815260200191505060405180910390f35b34156101e757600080fd5b610237600480803590602001908201803590602001908080601f0160208091040260200160405190810160405280939291908181526020018383808284378201915050505050509190505061082b565b604051808273ffffffffffffffffffffffffffffffffffffffff1673ffffffffffffffffffffffffffffffffffffffff16815260200191505060405180910390f35b341561028457600080fd5b61029a60048080359060200190919050506108d2565b604051808273ffffffffffffffffffffffffffffffffffffffff1673ffffffffffffffffffffffffffffffffffffffff16815260200191505060405180910390f35b34156102e757600080fd5b6102fd6004808035906020019091905050610994565b6040518080602001828103825283818151815260200191508051906020019080838360005b8381101561033d578082015181840152602081019050610322565b50505050905090810190601f16801561036a5780820380516001836020036101000a031916815260200191505b509250505060405180910390f35b341561038357600080fd5b61038b610a4d565b604051808273ffffffffffffffffffffffffffffffffffffffff1673ffffffffffffffffffffffffffffffffffffffff16815260200191505060405180910390f35b34156103d857600080fd5b6103ee6004808035906020019091905050610a72565b6040518080602001828103825283818151815260200191508051906020019080838360005b8381101561042e578082015181840152602081019050610413565b50505050905090810190601f16801561045b5780820380516001836020036101000a031916815260200191505b509250505060405180910390f35b341561047457600080fd5b61047c610b25565b604051808260ff1660ff16815260200191505060405180910390f35b34156104a357600080fd5b6104bd600480803560001916906020019091905050610b39565b604051808273ffffffffffffffffffffffffffffffffffffffff1673ffffffffffffffffffffffffffffffffffffffff16815260200191505060405180910390f35b341561050a57600080fd5b610536600480803573ffffffffffffffffffffffffffffffffffffffff16906020019091905050610b6c565b005b60026020528060005260406000206000915090505481565b60008060009054906101000a900473ffffffffffffffffffffffffffffffffffffffff1673ffffffffffffffffffffffffffffffffffffffff163373ffffffffffffffffffffffffffffffffffffffff161415156105ad57600080fd5b61010061010360009054906101000a900460ff1660ff161015156105d057600080fd5b826040518082805190602001908083835b60208310151561060657805182526020820191506020810190506020830392506105e1565b6001836020036101000a03801982511681845116808217855250505050505090500191505060405180910390209050600073ffffffffffffffffffffffffffffffffffffffff1660016000836000191660001916815260200190815260200160002060009054906101000a900473ffffffffffffffffffffffffffffffffffffffff1673ffffffffffffffffffffffffffffffffffffffff1614156107455782600361010360009054906101000a900460ff1660ff16610100811015156106c957fe5b0190805190602001906106dd929190610cc1565b5061010360009054906101000a900460ff1660ff1660026000836000191660001916815260200190815260200160002081905550610103600081819054906101000a900460ff168092919060010191906101000a81548160ff021916908360ff160217905550505b8160016000836000191660001916815260200190815260200160002060006101000a81548173ffffffffffffffffffffffffffffffffffffffff021916908373ffffffffffffffffffffffffffffffffffffffff160217905550505050565b600060026000836040518082805190602001908083835b6020831015156107e057805182526020820191506020810190506020830392506107bb565b6001836020036101000a038019825116818451168082178552505050505050905001915050604051809103902060001916600019168152602001908152602001600020549050919050565b600060016000836040518082805190602001908083835b6020831015156108675780518252602082019150602081019050602083039250610842565b6001836020036101000a03801982511681845116808217855250505050505090500191505060405180910390206000191660001916815260200190815260200160002060009054906101000a900473ffffffffffffffffffffffffffffffffffffffff169050919050565b600080600383610100811015156108e557fe5b019050600160008260405180828054600181600116156101000203166002900480156109485780601f10610926576101008083540402835291820191610948565b820191906000526020600020905b815481529060010190602001808311610934575b505091505060405180910390206000191660001916815260200190815260200160002060009054906101000a900473ffffffffffffffffffffffffffffffffffffffff16915050919050565b61099c610d41565b600382610100811015156109ac57fe5b018054600181600116156101000203166002900480601f016020809104026020016040519081016040528092919081815260200182805460018160011615610100020316600290048015610a415780601f10610a1657610100808354040283529160200191610a41565b820191906000526020600020905b815481529060010190602001808311610a2457829003601f168201915b50505050509050919050565b6000809054906101000a900473ffffffffffffffffffffffffffffffffffffffff1681565b60038161010081101515610a8257fe5b016000915090508054600181600116156101000203166002900480601f016020809104026020016040519081016040528092919081815260200182805460018160011615610100020316600290048015610b1d5780601f10610af257610100808354040283529160200191610b1d565b820191906000526020600020905b815481529060010190602001808311610b0057829003601f168201915b505050505081565b61010360009054906101000a900460ff1681565b60016020528060005260406000206000915054906101000a900473ffffffffffffffffffffffffffffffffffffffff1681565b6000809054906101000a900473ffffffffffffffffffffffffffffffffffffffff1673ffffffffffffffffffffffffffffffffffffffff163373ffffffffffffffffffffffffffffffffffffffff16141515610bc757600080fd5b600073ffffffffffffffffffffffffffffffffffffffff168173ffffffffffffffffffffffffffffffffffffffff1614151515610c0357600080fd5b8073ffffffffffffffffffffffffffffffffffffffff166000809054906101000a900473ffffffffffffffffffffffffffffffffffffffff1673ffffffffffffffffffffffffffffffffffffffff167f8be0079c531659141344cd1fd0a4f28419497f9722a3daafe3b4186f6b6457e060405160405180910390a3806000806101000a81548173ffffffffffffffffffffffffffffffffffffffff021916908373ffffffffffffffffffffffffffffffffffffffff16021790555050565b828054600181600116156101000203166002900490600052602060002090601f016020900481019282601f10610d0257805160ff1916838001178555610d30565b82800160010185558215610d30579182015b82811115610d2f578251825591602001919060010190610d14565b5b509050610d3d9190610d55565b5090565b602060405190810160405280600081525090565b610d7791905b80821115610d73576000816000905550600101610d5b565b5090565b905600a165627a7a723058209afb482c8d0903ad294c7429e279f4136322e9591a573a0bfb993a8676add5f70029",
  "source": "pragma solidity 0.4.18;\n\nimport \"zeppelin-solidity/contracts/ownership/Ownable.sol\";\n\n\n/**\n * The TokenRegistry is a basic registry mapping token symbols\n * to their known, deployed addresses on the current blockchain.\n *\n * Note that the TokenRegistry does *not* mediate any of the\n * core protocol's business logic, but, rather, is a helpful\n * utility for Terms Contracts to use in encoding, decoding, and\n * resolving the addresses of currently deployed tokens.\n *\n * At this point in time, administration of the Token Registry is\n * under Dharma Labs' control.  With more sophisticated decentralized\n * governance mechanisms, we intend to shift ownership of this utility\n * contract to the Dharma community.\n */\ncontract TokenRegistry is Ownable {\n    mapping (bytes32 => address) public symbolHashToTokenAddress;\n    mapping (bytes32 => uint) public symbolHashToTokenIndex;\n    string[256] public tokenSymbolList;\n    uint8 public tokenSymbolListLength;\n\n    /**\n     * Maps the given symbol to the given token address.\n     */\n    function setTokenAddress(string symbol, address token) public onlyOwner {\n        require(tokenSymbolListLength < 256);\n\n        bytes32 symbolHash = keccak256(symbol);\n\n        if (symbolHashToTokenAddress[symbolHash] == address(0)) {\n            tokenSymbolList[tokenSymbolListLength] = symbol;\n            symbolHashToTokenIndex[symbolHash] = tokenSymbolListLength;\n            tokenSymbolListLength++;\n        }\n\n        symbolHashToTokenAddress[symbolHash] = token;\n    }\n\n    /**\n     * Given a symbol, resolves the current address of the token the symbol is mapped to.\n     */\n    function getTokenAddressBySymbol(string symbol) public view returns (address) {\n        return symbolHashToTokenAddress[keccak256(symbol)];\n    }\n\n    /**\n     * Given the known index of a token within the registry's symbol list,\n     * returns the address of the token mapped to the symbol at that index.\n     *\n     * This is a useful utility for compactly encoding the address of a token into a\n     * TermsContractParameters string -- by encoding a token by its index in a\n     * a 256 slot array, we can represent a token by a 1 byte uint instead of a 20 byte address.\n     */\n    function getTokenAddressByIndex(uint index) public view returns (address) {\n        string storage symbol = tokenSymbolList[index];\n\n        return symbolHashToTokenAddress[keccak256(symbol)];\n    }\n\n    /**\n     * Given a symbol, resolves the index of the token the symbol is mapped to within the registry's\n     * symbol list.\n     */\n    function getTokenIndexBySymbol(string symbol) public view returns (uint) {\n        return symbolHashToTokenIndex[keccak256(symbol)];\n    }\n\n    /**\n     * Given an index, resolves the symbol of the token at that index in the registry's\n     * token symbol list.\n     */\n    function getTokenSymbolByIndex(uint index) public view returns (string) {\n        return tokenSymbolList[index];\n    }\n}\n",
  "sourcePath": "/Users/nadavhollander/Documents/Dharma/Development/charta/contracts/TokenRegistry.sol",
  "compiler": {
    "name": "solc",
    "version": "0.4.18+commit.9cf6e910.Emscripten.clang"
  },
  "schemaVersion": "1.0.1",
  "updatedAt": "2018-03-28T21:53:44.820Z"
}