{
  "contractName": "TestContract",
  "abi": [
    {
      "constant": false,
      "inputs": [],
      "name": "countup",
      "outputs": [],
      "payable": false,
      "stateMutability": "nonpayable",
      "type": "function"
    },
    {
      "constant": true,
      "inputs": [],
      "name": "someValue",
      "outputs": [
        {
          "name": "",
          "type": "bool"
        }
      ],
      "payable": false,
      "stateMutability": "view",
      "type": "function"
    },
    {
      "constant": true,
      "inputs": [],
      "name": "counter",
      "outputs": [
        {
          "name": "",
          "type": "uint256"
        }
      ],
      "payable": false,
      "stateMutability": "view",
      "type": "function"
    },
    {
      "constant": true,
      "inputs": [],
      "name": "returnAll",
      "outputs": [
        {
          "name": "",
          "type": "uint256"
        },
        {
          "name": "",
          "type": "uint256"
        }
      ],
      "payable": false,
      "stateMutability": "view",
      "type": "function"
    },
    {
      "constant": true,
      "inputs": [
        {
          "name": "offset",
          "type": "uint256"
        }
      ],
      "name": "counterWithOffset",
      "outputs": [
        {
          "name": "sum",
          "type": "uint256"
        }
      ],
      "payable": false,
      "stateMutability": "view",
      "type": "function"
    },
    {
      "inputs": [],
      "payable": false,
      "stateMutability": "nonpayable",
      "type": "constructor"
    }
  ],
  "bytecode": "0x6060604052341561000f57600080fd5b600080819055506101b3806100256000396000f30060606040526004361061006d576000357c0100000000000000000000000000000000000000000000000000000000900463ffffffff1680631d017a87146100725780634a627e611461008757806361bc221a146100b457806385b1423e146100dd5780638e0952991461010d575b600080fd5b341561007d57600080fd5b610085610144565b005b341561009257600080fd5b61009a610156565b604051808215151515815260200191505060405180910390f35b34156100bf57600080fd5b6100c761015b565b6040518082815260200191505060405180910390f35b34156100e857600080fd5b6100f0610161565b604051808381526020018281526020019250505060405180910390f35b341561011857600080fd5b61012e6004808035906020019091905050610179565b6040518082815260200191505060405180910390f35b60016000808282540192505081905550565b600181565b60005481565b6000806000546101716005610179565b915091509091565b6000816000540190509190505600a165627a7a72305820cfdd48d4a9c43108a5562bb2f1c24325d132f7370a29b5061d17d1659596f2330029",
  "source": "pragma solidity ^0.4.18;\n\ncontract TestContract {\n  uint public counter;\n  bool constant public someValue = true;\n\n  function TestContract() {\n    counter = 0;\n  }\n\n  function counterWithOffset(uint offset) constant returns (uint sum) {\n    return counter + offset;\n  }\n\n  function returnAll() constant returns (uint, uint) {\n    return (counter, counterWithOffset(5));\n  }\n\n  function countup() {\n    counter += 1;\n  }\n}\n",
  "sourcePath": "/Users/nadavhollander/Documents/Dharma/Development/charta/contracts/TestContract.sol",
  "compiler": {
    "name": "solc",
    "version": "0.4.18+commit.9cf6e910.Emscripten.clang"
  },
  "schemaVersion": "1.0.1",
  "updatedAt": "2017-11-23T02:50:08.657Z"
}